{
	"data": {
		"bytecode": {
			"linkReferences": {},
			"object": "60806040523480156200001157600080fd5b5060405162001bdb38038062001bdb8339810160408190526200003491620000bc565b6001600160a01b03811660008181526001602052604080822080546001600160601b0319166a084595161401484a00000090811790915590517fddf252ad1be2c89b69c2b068fc378daa952ba7f163c4a11628f55a4df523b3ef916200009a91620000f6565b60405180910390a35062000135565b8051620000b6816200011b565b92915050565b600060208284031215620000cf57600080fd5b6000620000dd8484620000a9565b949350505050565b620000f08162000118565b82525050565b60208101620000b68284620000e5565b60006001600160a01b038216620000b6565b90565b620001268162000106565b81146200013257600080fd5b50565b611a9680620001456000396000f3fe608060405234801561001057600080fd5b50600436106101215760003560e01c806370a08231116100ad578063b4b5ea5711610071578063b4b5ea571461025f578063c3cda52014610272578063dd62ed3e14610285578063e7a324dc14610298578063f1127ed8146102a057610121565b806370a08231146101fe578063782d6fe1146102115780637ecebe001461023157806395d89b4114610244578063a9059cbb1461024c57610121565b806323b872dd116100f457806323b872dd14610181578063313ce56714610194578063587cde1e146101a95780635c19a95c146101c95780636fcfff45146101de57610121565b806306fdde0314610126578063095ea7b31461014457806318160ddd1461016457806320606b7014610179575b600080fd5b61012e6102c1565b60405161013b919061173f565b60405180910390f35b610157610152366004611204565b6102e4565b60405161013b9190611695565b61016c6103a1565b60405161013b91906116a3565b61016c6103b0565b61015761018f3660046111b7565b6103c7565b61019c61050c565b60405161013b91906117d9565b6101bc6101b7366004611157565b610511565b60405161013b9190611687565b6101dc6101d7366004611157565b61052c565b005b6101f16101ec366004611157565b610539565b60405161013b91906117b0565b61016c61020c366004611157565b610551565b61022461021f366004611204565b610575565b60405161013b91906117f5565b61016c61023f366004611157565b61078c565b61012e61079e565b61015761025a366004611204565b6107bf565b61022461026d366004611157565b6107fb565b6101dc610280366004611234565b61086b565b61016c61029336600461117d565b610a54565b61016c610a86565b6102b36102ae3660046112bb565b610a92565b60405161013b9291906117be565b6040518060400160405280600781526020016615115393195b9960ca1b81525081565b6000806000198314156102fa575060001961031f565b61031c836040518060600160405280602681526020016119f060269139610ac7565b90505b336000818152602081815260408083206001600160a01b03891680855292529182902080546001600160601b0319166001600160601b03861617905590519091907f8c5be1e5ebec7d5bd14f71427d1e84f3dd0314c0f7b2291e5b200ac8c7c3b9259061038d9085906117e7565b60405180910390a360019150505b92915050565b6a084595161401484a00000081565b6040516103bc90611671565b604051809103902081565b6001600160a01b0383166000908152602081815260408083203380855290835281842054825160608101909352602680845291936001600160601b0390911692859261041d92889291906119f090830139610ac7565b9050866001600160a01b0316836001600160a01b03161415801561044a57506001600160601b0382811614155b156104f257600061047483836040518060600160405280603e8152602001611a16603e9139610af6565b6001600160a01b03898116600081815260208181526040808320948a16808452949091529081902080546001600160601b0319166001600160601b0386161790555192935090917f8c5be1e5ebec7d5bd14f71427d1e84f3dd0314c0f7b2291e5b200ac8c7c3b925906104e89085906117e7565b60405180910390a3505b6104fd878783610b35565b600193505050505b9392505050565b601281565b6002602052600090815260409020546001600160a01b031681565b6105363382610ce0565b50565b60046020526000908152604090205463ffffffff1681565b6001600160a01b03166000908152600160205260409020546001600160601b031690565b600043821061059f5760405162461bcd60e51b815260040161059690611780565b60405180910390fd5b6001600160a01b03831660009081526004602052604090205463ffffffff16806105cd57600091505061039b565b6001600160a01b038416600090815260036020908152604080832063ffffffff600019860181168552925290912054168310610649576001600160a01b03841660009081526003602090815260408083206000199490940163ffffffff1683529290522054600160201b90046001600160601b0316905061039b565b6001600160a01b038416600090815260036020908152604080832083805290915290205463ffffffff1683101561068457600091505061039b565b600060001982015b8163ffffffff168163ffffffff16111561074757600282820363ffffffff160481036106b6611114565b506001600160a01b038716600090815260036020908152604080832063ffffffff858116855290835292819020815180830190925254928316808252600160201b9093046001600160601b031691810191909152908714156107225760200151945061039b9350505050565b805163ffffffff1687111561073957819350610740565b6001820392505b505061068c565b506001600160a01b038516600090815260036020908152604080832063ffffffff909416835292905220546001600160601b03600160201b9091041691505092915050565b60056020526000908152604090205481565b60405180604001604052806005815260200164131153911d60da1b81525081565b6000806107e4836040518060600160405280602781526020016119c960279139610ac7565b90506107f1338583610b35565b5060019392505050565b6001600160a01b03811660009081526004602052604081205463ffffffff1680610826576000610505565b6001600160a01b0383166000908152600360209081526040808320600019850163ffffffff168452909152902054600160201b90046001600160601b03169392505050565b600060405161087990611671565b60408051918290038220828201909152600782526615115393195b9960ca1b6020909201919091527f59441860faaf30e40896e707873bb08f5e6732a1f96511b3f23445c3f9e897016108ca610d6a565b306040516020016108de94939291906116ef565b60405160208183030381529060405280519060200120905060006040516109049061167c565b60405190819003812061091f918a908a908a906020016116b1565b6040516020818303038152906040528051906020012090506000828260405160200161094c929190611640565b6040516020818303038152906040528051906020012090506000600182888888604051600081526020016040526040516109899493929190611724565b6020604051602081039080840390855afa1580156109ab573d6000803e3d6000fd5b5050604051601f1901519150506001600160a01b0381166109de5760405162461bcd60e51b815260040161059690611790565b6001600160a01b03811660009081526005602052604090208054600181019091558914610a1d5760405162461bcd60e51b815260040161059690611760565b87421115610a3d5760405162461bcd60e51b815260040161059690611770565b610a47818b610ce0565b505050505b505050505050565b6001600160a01b039182166000908152602081815260408083209390941682529190915220546001600160601b031690565b6040516103bc9061167c565b600360209081526000928352604080842090915290825290205463ffffffff811690600160201b90046001600160601b031682565b600081600160601b8410610aee5760405162461bcd60e51b8152600401610596919061173f565b509192915050565b6000836001600160601b0316836001600160601b031611158290610b2d5760405162461bcd60e51b8152600401610596919061173f565b505050900390565b6001600160a01b038316610b5b5760405162461bcd60e51b8152600401610596906117a0565b6001600160a01b038216610b815760405162461bcd60e51b815260040161059690611750565b6001600160a01b038316600090815260016020908152604091829020548251606081019093526037808452610bcc936001600160601b0390921692859291906118db90830139610af6565b6001600160a01b03848116600090815260016020908152604080832080546001600160601b0319166001600160601b03968716179055928616825290829020548251606081019093526031808452610c34949190911692859290919061196390830139610d6e565b6001600160a01b038381166000818152600160205260409081902080546001600160601b0319166001600160601b0395909516949094179093559151908516907fddf252ad1be2c89b69c2b068fc378daa952ba7f163c4a11628f55a4df523b3ef90610ca19085906117e7565b60405180910390a36001600160a01b03808416600090815260026020526040808220548584168352912054610cdb92918216911683610daa565b505050565b6001600160a01b03808316600081815260026020818152604080842080546001845282862054949093528787166001600160a01b031984168117909155905191909516946001600160601b039092169391928592917f3134e8a2e6d97e929a7e54011ea5485d7d196dd5f0ba4d4ef95803e8e3fc257f9190a4610d64828483610daa565b50505050565b4690565b6000838301826001600160601b038087169083161015610da15760405162461bcd60e51b8152600401610596919061173f565b50949350505050565b816001600160a01b0316836001600160a01b031614158015610dd557506000816001600160601b0316115b15610cdb576001600160a01b03831615610e8d576001600160a01b03831660009081526004602052604081205463ffffffff169081610e15576000610e54565b6001600160a01b0385166000908152600360209081526040808320600019860163ffffffff168452909152902054600160201b90046001600160601b03165b90506000610e7b828560405180606001604052806029815260200161191260299139610af6565b9050610e8986848484610f38565b5050505b6001600160a01b03821615610cdb576001600160a01b03821660009081526004602052604081205463ffffffff169081610ec8576000610f07565b6001600160a01b0384166000908152600360209081526040808320600019860163ffffffff168452909152902054600160201b90046001600160601b03165b90506000610f2e828560405180606001604052806028815260200161193b60289139610d6e565b9050610a4c858484845b6000610f5c43604051806060016040528060358152602001611994603591396110ed565b905060008463ffffffff16118015610fa557506001600160a01b038516600090815260036020908152604080832063ffffffff6000198901811685529252909120548282169116145b15611004576001600160a01b0385166000908152600360209081526040808320600019880163ffffffff168452909152902080546fffffffffffffffffffffffff000000001916600160201b6001600160601b038516021790556110a3565b60408051808201825263ffffffff80841682526001600160601b0380861660208085019182526001600160a01b038b166000818152600383528781208c871682528352878120965187549451909516600160201b026fffffffffffffffffffffffff000000001995871663ffffffff19958616179590951694909417909555938252600490935292909220805460018801909316929091169190911790555b846001600160a01b03167fdec2bacdd2f05b59de34da9b523dff8be42e5e38e818c82fdb0bae774387a72484846040516110de929190611803565b60405180910390a25050505050565b600081600160201b8410610aee5760405162461bcd60e51b8152600401610596919061173f565b604080518082019091526000808252602082015290565b803561039b816118ab565b803561039b816118bf565b803561039b816118c8565b803561039b816118d1565b60006020828403121561116957600080fd5b6000611175848461112b565b949350505050565b6000806040838503121561119057600080fd5b600061119c858561112b565b92505060206111ad8582860161112b565b9150509250929050565b6000806000606084860312156111cc57600080fd5b60006111d8868661112b565b93505060206111e98682870161112b565b92505060406111fa86828701611136565b9150509250925092565b6000806040838503121561121757600080fd5b6000611223858561112b565b92505060206111ad85828601611136565b60008060008060008060c0878903121561124d57600080fd5b6000611259898961112b565b965050602061126a89828a01611136565b955050604061127b89828a01611136565b945050606061128c89828a0161114c565b935050608061129d89828a01611136565b92505060a06112ae89828a01611136565b9150509295509295509295565b600080604083850312156112ce57600080fd5b60006112da858561112b565b92505060206111ad85828601611141565b6112f481611830565b82525050565b6112f48161183b565b6112f481611840565b6112f461131882611840565b611840565b60006113288261181e565b6113328185611822565b9350611342818560208601611875565b61134b816118a1565b9093019392505050565b6000611362603b83611822565b7f4c656e64743a3a5f7472616e73666572546f6b656e733a2063616e6e6f74207481527f72616e7366657220746f20746865207a65726f20616464726573730000000000602082015260400192915050565b60006113c160028361182b565b61190160f01b815260020192915050565b60006113df602383611822565b7f4c656e64743a3a64656c656761746542795369673a20696e76616c6964206e6f8152626e636560e81b602082015260400192915050565b6000611424602783611822565b7f4c656e64743a3a64656c656761746542795369673a207369676e617475726520815266195e1c1a5c995960ca1b602082015260400192915050565b600061146d602883611822565b7f4c656e64743a3a6765745072696f72566f7465733a206e6f74207965742064658152671d195c9b5a5b995960c21b602082015260400192915050565b60006114b760438361182b565b7f454950373132446f6d61696e28737472696e67206e616d652c75696e7432353681527f20636861696e49642c6164647265737320766572696679696e67436f6e74726160208201526263742960e81b604082015260430192915050565b6000611522602783611822565b7f4c656e64743a3a64656c656761746542795369673a20696e76616c6964207369815266676e617475726560c81b602082015260400192915050565b600061156b603a8361182b565b7f44656c65676174696f6e28616464726573732064656c6567617465652c75696e81527f74323536206e6f6e63652c75696e7432353620657870697279290000000000006020820152603a0192915050565b60006115ca603d83611822565b7f4c656e64743a3a5f7472616e73666572546f6b656e733a2063616e6e6f74207481527f72616e736665722066726f6d20746865207a65726f2061646472657373000000602082015260400192915050565b6112f48161184f565b6112f481611858565b6112f48161186a565b6112f48161185e565b600061164b826113b4565b9150611657828561130c565b602082019150611667828461130c565b5060200192915050565b600061039b826114aa565b600061039b8261155e565b6020810161039b82846112eb565b6020810161039b82846112fa565b6020810161039b8284611303565b608081016116bf8287611303565b6116cc60208301866112eb565b6116d96040830185611303565b6116e66060830184611303565b95945050505050565b608081016116fd8287611303565b61170a6020830186611303565b6117176040830185611303565b6116e660608301846112eb565b608081016117328287611303565b6116cc6020830186611625565b60208082528101610505818461131d565b6020808252810161039b81611355565b6020808252810161039b816113d2565b6020808252810161039b81611417565b6020808252810161039b81611460565b6020808252810161039b81611515565b6020808252810161039b816115bd565b6020810161039b828461161c565b604081016117cc828561161c565b6105056020830184611637565b6020810161039b8284611625565b6020810161039b828461162e565b6020810161039b8284611637565b60408101611811828561162e565b610505602083018461162e565b5190565b90815260200190565b919050565b600061039b82611843565b151590565b90565b6001600160a01b031690565b63ffffffff1690565b60ff1690565b6001600160601b031690565b600061039b8261185e565b60005b83811015611890578181015183820152602001611878565b83811115610d645750506000910152565b601f01601f191690565b6118b481611830565b811461053657600080fd5b6118b481611840565b6118b48161184f565b6118b48161185856fe4c656e64743a3a5f7472616e73666572546f6b656e733a207472616e7366657220616d6f756e7420657863656564732062616c616e63654c656e64743a3a5f6d6f7665566f7465733a20766f746520616d6f756e7420756e646572666c6f77734c656e64743a3a5f6d6f7665566f7465733a20766f746520616d6f756e74206f766572666c6f77734c656e64743a3a5f7472616e73666572546f6b656e733a207472616e7366657220616d6f756e74206f766572666c6f77734c656e64743a3a5f7772697465436865636b706f696e743a20626c6f636b206e756d626572206578636565647320333220626974734c656e64743a3a7472616e736665723a20616d6f756e74206578636565647320393620626974734c656e64743a3a617070726f76653a20616d6f756e74206578636565647320393620626974734c656e64743a3a7472616e7366657246726f6d3a207472616e7366657220616d6f756e742065786365656473207370656e64657220616c6c6f77616e6365a365627a7a72315820994df743bd89beb1f029675bab18de6d43352a5b92f387a68d79c1755ce284746c6578706572696d656e74616cf564736f6c63430005100040",
			"opcodes": "PUSH1 0x80 PUSH1 0x40 MSTORE CALLVALUE DUP1 ISZERO PUSH3 0x11 JUMPI PUSH1 0x0 DUP1 REVERT JUMPDEST POP PUSH1 0x40 MLOAD PUSH3 0x1BDB CODESIZE SUB DUP1 PUSH3 0x1BDB DUP4 CODECOPY DUP2 ADD PUSH1 0x40 DUP2 SWAP1 MSTORE PUSH3 0x34 SWAP2 PUSH3 0xBC JUMP JUMPDEST PUSH1 0x1 PUSH1 0x1 PUSH1 0xA0 SHL SUB DUP2 AND PUSH1 0x0 DUP2 DUP2 MSTORE PUSH1 0x1 PUSH1 0x20 MSTORE PUSH1 0x40 DUP1 DUP3 KECCAK256 DUP1 SLOAD PUSH1 0x1 PUSH1 0x1 PUSH1 0x60 SHL SUB NOT AND PUSH11 0x84595161401484A000000 SWAP1 DUP2 OR SWAP1 SWAP2 SSTORE SWAP1 MLOAD PUSH32 0xDDF252AD1BE2C89B69C2B068FC378DAA952BA7F163C4A11628F55A4DF523B3EF SWAP2 PUSH3 0x9A SWAP2 PUSH3 0xF6 JUMP JUMPDEST PUSH1 0x40 MLOAD DUP1 SWAP2 SUB SWAP1 LOG3 POP PUSH3 0x135 JUMP JUMPDEST DUP1 MLOAD PUSH3 0xB6 DUP2 PUSH3 0x11B JUMP JUMPDEST SWAP3 SWAP2 POP POP JUMP JUMPDEST PUSH1 0x0 PUSH1 0x20 DUP3 DUP5 SUB SLT ISZERO PUSH3 0xCF JUMPI PUSH1 0x0 DUP1 REVERT JUMPDEST PUSH1 0x0 PUSH3 0xDD DUP5 DUP5 PUSH3 0xA9 JUMP JUMPDEST SWAP5 SWAP4 POP POP POP POP JUMP JUMPDEST PUSH3 0xF0 DUP2 PUSH3 0x118 JUMP JUMPDEST DUP3 MSTORE POP POP JUMP JUMPDEST PUSH1 0x20 DUP2 ADD PUSH3 0xB6 DUP3 DUP5 PUSH3 0xE5 JUMP JUMPDEST PUSH1 0x0 PUSH1 0x1 PUSH1 0x1 PUSH1 0xA0 SHL SUB DUP3 AND PUSH3 0xB6 JUMP JUMPDEST SWAP1 JUMP JUMPDEST PUSH3 0x126 DUP2 PUSH3 0x106 JUMP JUMPDEST DUP2 EQ PUSH3 0x132 JUMPI PUSH1 0x0 DUP1 REVERT JUMPDEST POP JUMP JUMPDEST PUSH2 0x1A96 DUP1 PUSH3 0x145 PUSH1 0x0 CODECOPY PUSH1 0x0 RETURN INVALID PUSH1 0x80 PUSH1 0x40 MSTORE CALLVALUE DUP1 ISZERO PUSH2 0x10 JUMPI PUSH1 0x0 DUP1 REVERT JUMPDEST POP PUSH1 0x4 CALLDATASIZE LT PUSH2 0x121 JUMPI PUSH1 0x0 CALLDATALOAD PUSH1 0xE0 SHR DUP1 PUSH4 0x70A08231 GT PUSH2 0xAD JUMPI DUP1 PUSH4 0xB4B5EA57 GT PUSH2 0x71 JUMPI DUP1 PUSH4 0xB4B5EA57 EQ PUSH2 0x25F JUMPI DUP1 PUSH4 0xC3CDA520 EQ PUSH2 0x272 JUMPI DUP1 PUSH4 0xDD62ED3E EQ PUSH2 0x285 JUMPI DUP1 PUSH4 0xE7A324DC EQ PUSH2 0x298 JUMPI DUP1 PUSH4 0xF1127ED8 EQ PUSH2 0x2A0 JUMPI PUSH2 0x121 JUMP JUMPDEST DUP1 PUSH4 0x70A08231 EQ PUSH2 0x1FE JUMPI DUP1 PUSH4 0x782D6FE1 EQ PUSH2 0x211 JUMPI DUP1 PUSH4 0x7ECEBE00 EQ PUSH2 0x231 JUMPI DUP1 PUSH4 0x95D89B41 EQ PUSH2 0x244 JUMPI DUP1 PUSH4 0xA9059CBB EQ PUSH2 0x24C JUMPI PUSH2 0x121 JUMP JUMPDEST DUP1 PUSH4 0x23B872DD GT PUSH2 0xF4 JUMPI DUP1 PUSH4 0x23B872DD EQ PUSH2 0x181 JUMPI DUP1 PUSH4 0x313CE567 EQ PUSH2 0x194 JUMPI DUP1 PUSH4 0x587CDE1E EQ PUSH2 0x1A9 JUMPI DUP1 PUSH4 0x5C19A95C EQ PUSH2 0x1C9 JUMPI DUP1 PUSH4 0x6FCFFF45 EQ PUSH2 0x1DE JUMPI PUSH2 0x121 JUMP JUMPDEST DUP1 PUSH4 0x6FDDE03 EQ PUSH2 0x126 JUMPI DUP1 PUSH4 0x95EA7B3 EQ PUSH2 0x144 JUMPI DUP1 PUSH4 0x18160DDD EQ PUSH2 0x164 JUMPI DUP1 PUSH4 0x20606B70 EQ PUSH2 0x179 JUMPI JUMPDEST PUSH1 0x0 DUP1 REVERT JUMPDEST PUSH2 0x12E PUSH2 0x2C1 JUMP JUMPDEST PUSH1 0x40 MLOAD PUSH2 0x13B SWAP2 SWAP1 PUSH2 0x173F JUMP JUMPDEST PUSH1 0x40 MLOAD DUP1 SWAP2 SUB SWAP1 RETURN JUMPDEST PUSH2 0x157 PUSH2 0x152 CALLDATASIZE PUSH1 0x4 PUSH2 0x1204 JUMP JUMPDEST PUSH2 0x2E4 JUMP JUMPDEST PUSH1 0x40 MLOAD PUSH2 0x13B SWAP2 SWAP1 PUSH2 0x1695 JUMP JUMPDEST PUSH2 0x16C PUSH2 0x3A1 JUMP JUMPDEST PUSH1 0x40 MLOAD PUSH2 0x13B SWAP2 SWAP1 PUSH2 0x16A3 JUMP JUMPDEST PUSH2 0x16C PUSH2 0x3B0 JUMP JUMPDEST PUSH2 0x157 PUSH2 0x18F CALLDATASIZE PUSH1 0x4 PUSH2 0x11B7 JUMP JUMPDEST PUSH2 0x3C7 JUMP JUMPDEST PUSH2 0x19C PUSH2 0x50C JUMP JUMPDEST PUSH1 0x40 MLOAD PUSH2 0x13B SWAP2 SWAP1 PUSH2 0x17D9 JUMP JUMPDEST PUSH2 0x1BC PUSH2 0x1B7 CALLDATASIZE PUSH1 0x4 PUSH2 0x1157 JUMP JUMPDEST PUSH2 0x511 JUMP JUMPDEST PUSH1 0x40 MLOAD PUSH2 0x13B SWAP2 SWAP1 PUSH2 0x1687 JUMP JUMPDEST PUSH2 0x1DC PUSH2 0x1D7 CALLDATASIZE PUSH1 0x4 PUSH2 0x1157 JUMP JUMPDEST PUSH2 0x52C JUMP JUMPDEST STOP JUMPDEST PUSH2 0x1F1 PUSH2 0x1EC CALLDATASIZE PUSH1 0x4 PUSH2 0x1157 JUMP JUMPDEST PUSH2 0x539 JUMP JUMPDEST PUSH1 0x40 MLOAD PUSH2 0x13B SWAP2 SWAP1 PUSH2 0x17B0 JUMP JUMPDEST PUSH2 0x16C PUSH2 0x20C CALLDATASIZE PUSH1 0x4 PUSH2 0x1157 JUMP JUMPDEST PUSH2 0x551 JUMP JUMPDEST PUSH2 0x224 PUSH2 0x21F CALLDATASIZE PUSH1 0x4 PUSH2 0x1204 JUMP JUMPDEST PUSH2 0x575 JUMP JUMPDEST PUSH1 0x40 MLOAD PUSH2 0x13B SWAP2 SWAP1 PUSH2 0x17F5 JUMP JUMPDEST PUSH2 0x16C PUSH2 0x23F CALLDATASIZE PUSH1 0x4 PUSH2 0x1157 JUMP JUMPDEST PUSH2 0x78C JUMP JUMPDEST PUSH2 0x12E PUSH2 0x79E JUMP JUMPDEST PUSH2 0x157 PUSH2 0x25A CALLDATASIZE PUSH1 0x4 PUSH2 0x1204 JUMP JUMPDEST PUSH2 0x7BF JUMP JUMPDEST PUSH2 0x224 PUSH2 0x26D CALLDATASIZE PUSH1 0x4 PUSH2 0x1157 JUMP JUMPDEST PUSH2 0x7FB JUMP JUMPDEST PUSH2 0x1DC PUSH2 0x280 CALLDATASIZE PUSH1 0x4 PUSH2 0x1234 JUMP JUMPDEST PUSH2 0x86B JUMP JUMPDEST PUSH2 0x16C PUSH2 0x293 CALLDATASIZE PUSH1 0x4 PUSH2 0x117D JUMP JUMPDEST PUSH2 0xA54 JUMP JUMPDEST PUSH2 0x16C PUSH2 0xA86 JUMP JUMPDEST PUSH2 0x2B3 PUSH2 0x2AE CALLDATASIZE PUSH1 0x4 PUSH2 0x12BB JUMP JUMPDEST PUSH2 0xA92 JUMP JUMPDEST PUSH1 0x40 MLOAD PUSH2 0x13B SWAP3 SWAP2 SWAP1 PUSH2 0x17BE JUMP JUMPDEST PUSH1 0x40 MLOAD DUP1 PUSH1 0x40 ADD PUSH1 0x40 MSTORE DUP1 PUSH1 0x7 DUP2 MSTORE PUSH1 0x20 ADD PUSH7 0x15115393195B99 PUSH1 0xCA SHL DUP2 MSTORE POP DUP2 JUMP JUMPDEST PUSH1 0x0 DUP1 PUSH1 0x0 NOT DUP4 EQ ISZERO PUSH2 0x2FA JUMPI POP PUSH1 0x0 NOT PUSH2 0x31F JUMP JUMPDEST PUSH2 0x31C DUP4 PUSH1 0x40 MLOAD DUP1 PUSH1 0x60 ADD PUSH1 0x40 MSTORE DUP1 PUSH1 0x26 DUP2 MSTORE PUSH1 0x20 ADD PUSH2 0x19F0 PUSH1 0x26 SWAP2 CODECOPY PUSH2 0xAC7 JUMP JUMPDEST SWAP1 POP JUMPDEST CALLER PUSH1 0x0 DUP2 DUP2 MSTORE PUSH1 0x20 DUP2 DUP2 MSTORE PUSH1 0x40 DUP1 DUP4 KECCAK256 PUSH1 0x1 PUSH1 0x1 PUSH1 0xA0 SHL SUB DUP10 AND DUP1 DUP6 MSTORE SWAP3 MSTORE SWAP2 DUP3 SWAP1 KECCAK256 DUP1 SLOAD PUSH1 0x1 PUSH1 0x1 PUSH1 0x60 SHL SUB NOT AND PUSH1 0x1 PUSH1 0x1 PUSH1 0x60 SHL SUB DUP7 AND OR SWAP1 SSTORE SWAP1 MLOAD SWAP1 SWAP2 SWAP1 PUSH32 0x8C5BE1E5EBEC7D5BD14F71427D1E84F3DD0314C0F7B2291E5B200AC8C7C3B925 SWAP1 PUSH2 0x38D SWAP1 DUP6 SWAP1 PUSH2 0x17E7 JUMP JUMPDEST PUSH1 0x40 MLOAD DUP1 SWAP2 SUB SWAP1 LOG3 PUSH1 0x1 SWAP2 POP POP JUMPDEST SWAP3 SWAP2 POP POP JUMP JUMPDEST PUSH11 0x84595161401484A000000 DUP2 JUMP JUMPDEST PUSH1 0x40 MLOAD PUSH2 0x3BC SWAP1 PUSH2 0x1671 JUMP JUMPDEST PUSH1 0x40 MLOAD DUP1 SWAP2 SUB SWAP1 KECCAK256 DUP2 JUMP JUMPDEST PUSH1 0x1 PUSH1 0x1 PUSH1 0xA0 SHL SUB DUP4 AND PUSH1 0x0 SWAP1 DUP2 MSTORE PUSH1 0x20 DUP2 DUP2 MSTORE PUSH1 0x40 DUP1 DUP4 KECCAK256 CALLER DUP1 DUP6 MSTORE SWAP1 DUP4 MSTORE DUP2 DUP5 KECCAK256 SLOAD DUP3 MLOAD PUSH1 0x60 DUP2 ADD SWAP1 SWAP4 MSTORE PUSH1 0x26 DUP1 DUP5 MSTORE SWAP2 SWAP4 PUSH1 0x1 PUSH1 0x1 PUSH1 0x60 SHL SUB SWAP1 SWAP2 AND SWAP3 DUP6 SWAP3 PUSH2 0x41D SWAP3 DUP9 SWAP3 SWAP2 SWAP1 PUSH2 0x19F0 SWAP1 DUP4 ADD CODECOPY PUSH2 0xAC7 JUMP JUMPDEST SWAP1 POP DUP7 PUSH1 0x1 PUSH1 0x1 PUSH1 0xA0 SHL SUB AND DUP4 PUSH1 0x1 PUSH1 0x1 PUSH1 0xA0 SHL SUB AND EQ ISZERO DUP1 ISZERO PUSH2 0x44A JUMPI POP PUSH1 0x1 PUSH1 0x1 PUSH1 0x60 SHL SUB DUP3 DUP2 AND EQ ISZERO JUMPDEST ISZERO PUSH2 0x4F2 JUMPI PUSH1 0x0 PUSH2 0x474 DUP4 DUP4 PUSH1 0x40 MLOAD DUP1 PUSH1 0x60 ADD PUSH1 0x40 MSTORE DUP1 PUSH1 0x3E DUP2 MSTORE PUSH1 0x20 ADD PUSH2 0x1A16 PUSH1 0x3E SWAP2 CODECOPY PUSH2 0xAF6 JUMP JUMPDEST PUSH1 0x1 PUSH1 0x1 PUSH1 0xA0 SHL SUB DUP10 DUP2 AND PUSH1 0x0 DUP2 DUP2 MSTORE PUSH1 0x20 DUP2 DUP2 MSTORE PUSH1 0x40 DUP1 DUP4 KECCAK256 SWAP5 DUP11 AND DUP1 DUP5 MSTORE SWAP5 SWAP1 SWAP2 MSTORE SWAP1 DUP2 SWAP1 KECCAK256 DUP1 SLOAD PUSH1 0x1 PUSH1 0x1 PUSH1 0x60 SHL SUB NOT AND PUSH1 0x1 PUSH1 0x1 PUSH1 0x60 SHL SUB DUP7 AND OR SWAP1 SSTORE MLOAD SWAP3 SWAP4 POP SWAP1 SWAP2 PUSH32 0x8C5BE1E5EBEC7D5BD14F71427D1E84F3DD0314C0F7B2291E5B200AC8C7C3B925 SWAP1 PUSH2 0x4E8 SWAP1 DUP6 SWAP1 PUSH2 0x17E7 JUMP JUMPDEST PUSH1 0x40 MLOAD DUP1 SWAP2 SUB SWAP1 LOG3 POP JUMPDEST PUSH2 0x4FD DUP8 DUP8 DUP4 PUSH2 0xB35 JUMP JUMPDEST PUSH1 0x1 SWAP4 POP POP POP POP JUMPDEST SWAP4 SWAP3 POP POP POP JUMP JUMPDEST PUSH1 0x12 DUP2 JUMP JUMPDEST PUSH1 0x2 PUSH1 0x20 MSTORE PUSH1 0x0 SWAP1 DUP2 MSTORE PUSH1 0x40 SWAP1 KECCAK256 SLOAD PUSH1 0x1 PUSH1 0x1 PUSH1 0xA0 SHL SUB AND DUP2 JUMP JUMPDEST PUSH2 0x536 CALLER DUP3 PUSH2 0xCE0 JUMP JUMPDEST POP JUMP JUMPDEST PUSH1 0x4 PUSH1 0x20 MSTORE PUSH1 0x0 SWAP1 DUP2 MSTORE PUSH1 0x40 SWAP1 KECCAK256 SLOAD PUSH4 0xFFFFFFFF AND DUP2 JUMP JUMPDEST PUSH1 0x1 PUSH1 0x1 PUSH1 0xA0 SHL SUB AND PUSH1 0x0 SWAP1 DUP2 MSTORE PUSH1 0x1 PUSH1 0x20 MSTORE PUSH1 0x40 SWAP1 KECCAK256 SLOAD PUSH1 0x1 PUSH1 0x1 PUSH1 0x60 SHL SUB AND SWAP1 JUMP JUMPDEST PUSH1 0x0 NUMBER DUP3 LT PUSH2 0x59F JUMPI PUSH1 0x40 MLOAD PUSH3 0x461BCD PUSH1 0xE5 SHL DUP2 MSTORE PUSH1 0x4 ADD PUSH2 0x596 SWAP1 PUSH2 0x1780 JUMP JUMPDEST PUSH1 0x40 MLOAD DUP1 SWAP2 SUB SWAP1 REVERT JUMPDEST PUSH1 0x1 PUSH1 0x1 PUSH1 0xA0 SHL SUB DUP4 AND PUSH1 0x0 SWAP1 DUP2 MSTORE PUSH1 0x4 PUSH1 0x20 MSTORE PUSH1 0x40 SWAP1 KECCAK256 SLOAD PUSH4 0xFFFFFFFF AND DUP1 PUSH2 0x5CD JUMPI PUSH1 0x0 SWAP2 POP POP PUSH2 0x39B JUMP JUMPDEST PUSH1 0x1 PUSH1 0x1 PUSH1 0xA0 SHL SUB DUP5 AND PUSH1 0x0 SWAP1 DUP2 MSTORE PUSH1 0x3 PUSH1 0x20 SWAP1 DUP2 MSTORE PUSH1 0x40 DUP1 DUP4 KECCAK256 PUSH4 0xFFFFFFFF PUSH1 0x0 NOT DUP7 ADD DUP2 AND DUP6 MSTORE SWAP3 MSTORE SWAP1 SWAP2 KECCAK256 SLOAD AND DUP4 LT PUSH2 0x649 JUMPI PUSH1 0x1 PUSH1 0x1 PUSH1 0xA0 SHL SUB DUP5 AND PUSH1 0x0 SWAP1 DUP2 MSTORE PUSH1 0x3 PUSH1 0x20 SWAP1 DUP2 MSTORE PUSH1 0x40 DUP1 DUP4 KECCAK256 PUSH1 0x0 NOT SWAP5 SWAP1 SWAP5 ADD PUSH4 0xFFFFFFFF AND DUP4 MSTORE SWAP3 SWAP1 MSTORE KECCAK256 SLOAD PUSH1 0x1 PUSH1 0x20 SHL SWAP1 DIV PUSH1 0x1 PUSH1 0x1 PUSH1 0x60 SHL SUB AND SWAP1 POP PUSH2 0x39B JUMP JUMPDEST PUSH1 0x1 PUSH1 0x1 PUSH1 0xA0 SHL SUB DUP5 AND PUSH1 0x0 SWAP1 DUP2 MSTORE PUSH1 0x3 PUSH1 0x20 SWAP1 DUP2 MSTORE PUSH1 0x40 DUP1 DUP4 KECCAK256 DUP4 DUP1 MSTORE SWAP1 SWAP2 MSTORE SWAP1 KECCAK256 SLOAD PUSH4 0xFFFFFFFF AND DUP4 LT ISZERO PUSH2 0x684 JUMPI PUSH1 0x0 SWAP2 POP POP PUSH2 0x39B JUMP JUMPDEST PUSH1 0x0 PUSH1 0x0 NOT DUP3 ADD JUMPDEST DUP2 PUSH4 0xFFFFFFFF AND DUP2 PUSH4 0xFFFFFFFF AND GT ISZERO PUSH2 0x747 JUMPI PUSH1 0x2 DUP3 DUP3 SUB PUSH4 0xFFFFFFFF AND DIV DUP2 SUB PUSH2 0x6B6 PUSH2 0x1114 JUMP JUMPDEST POP PUSH1 0x1 PUSH1 0x1 PUSH1 0xA0 SHL SUB DUP8 AND PUSH1 0x0 SWAP1 DUP2 MSTORE PUSH1 0x3 PUSH1 0x20 SWAP1 DUP2 MSTORE PUSH1 0x40 DUP1 DUP4 KECCAK256 PUSH4 0xFFFFFFFF DUP6 DUP2 AND DUP6 MSTORE SWAP1 DUP4 MSTORE SWAP3 DUP2 SWAP1 KECCAK256 DUP2 MLOAD DUP1 DUP4 ADD SWAP1 SWAP3 MSTORE SLOAD SWAP3 DUP4 AND DUP1 DUP3 MSTORE PUSH1 0x1 PUSH1 0x20 SHL SWAP1 SWAP4 DIV PUSH1 0x1 PUSH1 0x1 PUSH1 0x60 SHL SUB AND SWAP2 DUP2 ADD SWAP2 SWAP1 SWAP2 MSTORE SWAP1 DUP8 EQ ISZERO PUSH2 0x722 JUMPI PUSH1 0x20 ADD MLOAD SWAP5 POP PUSH2 0x39B SWAP4 POP POP POP POP JUMP JUMPDEST DUP1 MLOAD PUSH4 0xFFFFFFFF AND DUP8 GT ISZERO PUSH2 0x739 JUMPI DUP2 SWAP4 POP PUSH2 0x740 JUMP JUMPDEST PUSH1 0x1 DUP3 SUB SWAP3 POP JUMPDEST POP POP PUSH2 0x68C JUMP JUMPDEST POP PUSH1 0x1 PUSH1 0x1 PUSH1 0xA0 SHL SUB DUP6 AND PUSH1 0x0 SWAP1 DUP2 MSTORE PUSH1 0x3 PUSH1 0x20 SWAP1 DUP2 MSTORE PUSH1 0x40 DUP1 DUP4 KECCAK256 PUSH4 0xFFFFFFFF SWAP1 SWAP5 AND DUP4 MSTORE SWAP3 SWAP1 MSTORE KECCAK256 SLOAD PUSH1 0x1 PUSH1 0x1 PUSH1 0x60 SHL SUB PUSH1 0x1 PUSH1 0x20 SHL SWAP1 SWAP2 DIV AND SWAP2 POP POP SWAP3 SWAP2 POP POP JUMP JUMPDEST PUSH1 0x5 PUSH1 0x20 MSTORE PUSH1 0x0 SWAP1 DUP2 MSTORE PUSH1 0x40 SWAP1 KECCAK256 SLOAD DUP2 JUMP JUMPDEST PUSH1 0x40 MLOAD DUP1 PUSH1 0x40 ADD PUSH1 0x40 MSTORE DUP1 PUSH1 0x5 DUP2 MSTORE PUSH1 0x20 ADD PUSH5 0x131153911D PUSH1 0xDA SHL DUP2 MSTORE POP DUP2 JUMP JUMPDEST PUSH1 0x0 DUP1 PUSH2 0x7E4 DUP4 PUSH1 0x40 MLOAD DUP1 PUSH1 0x60 ADD PUSH1 0x40 MSTORE DUP1 PUSH1 0x27 DUP2 MSTORE PUSH1 0x20 ADD PUSH2 0x19C9 PUSH1 0x27 SWAP2 CODECOPY PUSH2 0xAC7 JUMP JUMPDEST SWAP1 POP PUSH2 0x7F1 CALLER DUP6 DUP4 PUSH2 0xB35 JUMP JUMPDEST POP PUSH1 0x1 SWAP4 SWAP3 POP POP POP JUMP JUMPDEST PUSH1 0x1 PUSH1 0x1 PUSH1 0xA0 SHL SUB DUP2 AND PUSH1 0x0 SWAP1 DUP2 MSTORE PUSH1 0x4 PUSH1 0x20 MSTORE PUSH1 0x40 DUP2 KECCAK256 SLOAD PUSH4 0xFFFFFFFF AND DUP1 PUSH2 0x826 JUMPI PUSH1 0x0 PUSH2 0x505 JUMP JUMPDEST PUSH1 0x1 PUSH1 0x1 PUSH1 0xA0 SHL SUB DUP4 AND PUSH1 0x0 SWAP1 DUP2 MSTORE PUSH1 0x3 PUSH1 0x20 SWAP1 DUP2 MSTORE PUSH1 0x40 DUP1 DUP4 KECCAK256 PUSH1 0x0 NOT DUP6 ADD PUSH4 0xFFFFFFFF AND DUP5 MSTORE SWAP1 SWAP2 MSTORE SWAP1 KECCAK256 SLOAD PUSH1 0x1 PUSH1 0x20 SHL SWAP1 DIV PUSH1 0x1 PUSH1 0x1 PUSH1 0x60 SHL SUB AND SWAP4 SWAP3 POP POP POP JUMP JUMPDEST PUSH1 0x0 PUSH1 0x40 MLOAD PUSH2 0x879 SWAP1 PUSH2 0x1671 JUMP JUMPDEST PUSH1 0x40 DUP1 MLOAD SWAP2 DUP3 SWAP1 SUB DUP3 KECCAK256 DUP3 DUP3 ADD SWAP1 SWAP2 MSTORE PUSH1 0x7 DUP3 MSTORE PUSH7 0x15115393195B99 PUSH1 0xCA SHL PUSH1 0x20 SWAP1 SWAP3 ADD SWAP2 SWAP1 SWAP2 MSTORE PUSH32 0x59441860FAAF30E40896E707873BB08F5E6732A1F96511B3F23445C3F9E89701 PUSH2 0x8CA PUSH2 0xD6A JUMP JUMPDEST ADDRESS PUSH1 0x40 MLOAD PUSH1 0x20 ADD PUSH2 0x8DE SWAP5 SWAP4 SWAP3 SWAP2 SWAP1 PUSH2 0x16EF JUMP JUMPDEST PUSH1 0x40 MLOAD PUSH1 0x20 DUP2 DUP4 SUB SUB DUP2 MSTORE SWAP1 PUSH1 0x40 MSTORE DUP1 MLOAD SWAP1 PUSH1 0x20 ADD KECCAK256 SWAP1 POP PUSH1 0x0 PUSH1 0x40 MLOAD PUSH2 0x904 SWAP1 PUSH2 0x167C JUMP JUMPDEST PUSH1 0x40 MLOAD SWAP1 DUP2 SWAP1 SUB DUP2 KECCAK256 PUSH2 0x91F SWAP2 DUP11 SWAP1 DUP11 SWAP1 DUP11 SWAP1 PUSH1 0x20 ADD PUSH2 0x16B1 JUMP JUMPDEST PUSH1 0x40 MLOAD PUSH1 0x20 DUP2 DUP4 SUB SUB DUP2 MSTORE SWAP1 PUSH1 0x40 MSTORE DUP1 MLOAD SWAP1 PUSH1 0x20 ADD KECCAK256 SWAP1 POP PUSH1 0x0 DUP3 DUP3 PUSH1 0x40 MLOAD PUSH1 0x20 ADD PUSH2 0x94C SWAP3 SWAP2 SWAP1 PUSH2 0x1640 JUMP JUMPDEST PUSH1 0x40 MLOAD PUSH1 0x20 DUP2 DUP4 SUB SUB DUP2 MSTORE SWAP1 PUSH1 0x40 MSTORE DUP1 MLOAD SWAP1 PUSH1 0x20 ADD KECCAK256 SWAP1 POP PUSH1 0x0 PUSH1 0x1 DUP3 DUP9 DUP9 DUP9 PUSH1 0x40 MLOAD PUSH1 0x0 DUP2 MSTORE PUSH1 0x20 ADD PUSH1 0x40 MSTORE PUSH1 0x40 MLOAD PUSH2 0x989 SWAP5 SWAP4 SWAP3 SWAP2 SWAP1 PUSH2 0x1724 JUMP JUMPDEST PUSH1 0x20 PUSH1 0x40 MLOAD PUSH1 0x20 DUP2 SUB SWAP1 DUP1 DUP5 SUB SWAP1 DUP6 GAS STATICCALL ISZERO DUP1 ISZERO PUSH2 0x9AB JUMPI RETURNDATASIZE PUSH1 0x0 DUP1 RETURNDATACOPY RETURNDATASIZE PUSH1 0x0 REVERT JUMPDEST POP POP PUSH1 0x40 MLOAD PUSH1 0x1F NOT ADD MLOAD SWAP2 POP POP PUSH1 0x1 PUSH1 0x1 PUSH1 0xA0 SHL SUB DUP2 AND PUSH2 0x9DE JUMPI PUSH1 0x40 MLOAD PUSH3 0x461BCD PUSH1 0xE5 SHL DUP2 MSTORE PUSH1 0x4 ADD PUSH2 0x596 SWAP1 PUSH2 0x1790 JUMP JUMPDEST PUSH1 0x1 PUSH1 0x1 PUSH1 0xA0 SHL SUB DUP2 AND PUSH1 0x0 SWAP1 DUP2 MSTORE PUSH1 0x5 PUSH1 0x20 MSTORE PUSH1 0x40 SWAP1 KECCAK256 DUP1 SLOAD PUSH1 0x1 DUP2 ADD SWAP1 SWAP2 SSTORE DUP10 EQ PUSH2 0xA1D JUMPI PUSH1 0x40 MLOAD PUSH3 0x461BCD PUSH1 0xE5 SHL DUP2 MSTORE PUSH1 0x4 ADD PUSH2 0x596 SWAP1 PUSH2 0x1760 JUMP JUMPDEST DUP8 TIMESTAMP GT ISZERO PUSH2 0xA3D JUMPI PUSH1 0x40 MLOAD PUSH3 0x461BCD PUSH1 0xE5 SHL DUP2 MSTORE PUSH1 0x4 ADD PUSH2 0x596 SWAP1 PUSH2 0x1770 JUMP JUMPDEST PUSH2 0xA47 DUP2 DUP12 PUSH2 0xCE0 JUMP JUMPDEST POP POP POP POP JUMPDEST POP POP POP POP POP POP JUMP JUMPDEST PUSH1 0x1 PUSH1 0x1 PUSH1 0xA0 SHL SUB SWAP2 DUP3 AND PUSH1 0x0 SWAP1 DUP2 MSTORE PUSH1 0x20 DUP2 DUP2 MSTORE PUSH1 0x40 DUP1 DUP4 KECCAK256 SWAP4 SWAP1 SWAP5 AND DUP3 MSTORE SWAP2 SWAP1 SWAP2 MSTORE KECCAK256 SLOAD PUSH1 0x1 PUSH1 0x1 PUSH1 0x60 SHL SUB AND SWAP1 JUMP JUMPDEST PUSH1 0x40 MLOAD PUSH2 0x3BC SWAP1 PUSH2 0x167C JUMP JUMPDEST PUSH1 0x3 PUSH1 0x20 SWAP1 DUP2 MSTORE PUSH1 0x0 SWAP3 DUP4 MSTORE PUSH1 0x40 DUP1 DUP5 KECCAK256 SWAP1 SWAP2 MSTORE SWAP1 DUP3 MSTORE SWAP1 KECCAK256 SLOAD PUSH4 0xFFFFFFFF DUP2 AND SWAP1 PUSH1 0x1 PUSH1 0x20 SHL SWAP1 DIV PUSH1 0x1 PUSH1 0x1 PUSH1 0x60 SHL SUB AND DUP3 JUMP JUMPDEST PUSH1 0x0 DUP2 PUSH1 0x1 PUSH1 0x60 SHL DUP5 LT PUSH2 0xAEE JUMPI PUSH1 0x40 MLOAD PUSH3 0x461BCD PUSH1 0xE5 SHL DUP2 MSTORE PUSH1 0x4 ADD PUSH2 0x596 SWAP2 SWAP1 PUSH2 0x173F JUMP JUMPDEST POP SWAP2 SWAP3 SWAP2 POP POP JUMP JUMPDEST PUSH1 0x0 DUP4 PUSH1 0x1 PUSH1 0x1 PUSH1 0x60 SHL SUB AND DUP4 PUSH1 0x1 PUSH1 0x1 PUSH1 0x60 SHL SUB AND GT ISZERO DUP3 SWAP1 PUSH2 0xB2D JUMPI PUSH1 0x40 MLOAD PUSH3 0x461BCD PUSH1 0xE5 SHL DUP2 MSTORE PUSH1 0x4 ADD PUSH2 0x596 SWAP2 SWAP1 PUSH2 0x173F JUMP JUMPDEST POP POP POP SWAP1 SUB SWAP1 JUMP JUMPDEST PUSH1 0x1 PUSH1 0x1 PUSH1 0xA0 SHL SUB DUP4 AND PUSH2 0xB5B JUMPI PUSH1 0x40 MLOAD PUSH3 0x461BCD PUSH1 0xE5 SHL DUP2 MSTORE PUSH1 0x4 ADD PUSH2 0x596 SWAP1 PUSH2 0x17A0 JUMP JUMPDEST PUSH1 0x1 PUSH1 0x1 PUSH1 0xA0 SHL SUB DUP3 AND PUSH2 0xB81 JUMPI PUSH1 0x40 MLOAD PUSH3 0x461BCD PUSH1 0xE5 SHL DUP2 MSTORE PUSH1 0x4 ADD PUSH2 0x596 SWAP1 PUSH2 0x1750 JUMP JUMPDEST PUSH1 0x1 PUSH1 0x1 PUSH1 0xA0 SHL SUB DUP4 AND PUSH1 0x0 SWAP1 DUP2 MSTORE PUSH1 0x1 PUSH1 0x20 SWAP1 DUP2 MSTORE PUSH1 0x40 SWAP2 DUP3 SWAP1 KECCAK256 SLOAD DUP3 MLOAD PUSH1 0x60 DUP2 ADD SWAP1 SWAP4 MSTORE PUSH1 0x37 DUP1 DUP5 MSTORE PUSH2 0xBCC SWAP4 PUSH1 0x1 PUSH1 0x1 PUSH1 0x60 SHL SUB SWAP1 SWAP3 AND SWAP3 DUP6 SWAP3 SWAP2 SWAP1 PUSH2 0x18DB SWAP1 DUP4 ADD CODECOPY PUSH2 0xAF6 JUMP JUMPDEST PUSH1 0x1 PUSH1 0x1 PUSH1 0xA0 SHL SUB DUP5 DUP2 AND PUSH1 0x0 SWAP1 DUP2 MSTORE PUSH1 0x1 PUSH1 0x20 SWAP1 DUP2 MSTORE PUSH1 0x40 DUP1 DUP4 KECCAK256 DUP1 SLOAD PUSH1 0x1 PUSH1 0x1 PUSH1 0x60 SHL SUB NOT AND PUSH1 0x1 PUSH1 0x1 PUSH1 0x60 SHL SUB SWAP7 DUP8 AND OR SWAP1 SSTORE SWAP3 DUP7 AND DUP3 MSTORE SWAP1 DUP3 SWAP1 KECCAK256 SLOAD DUP3 MLOAD PUSH1 0x60 DUP2 ADD SWAP1 SWAP4 MSTORE PUSH1 0x31 DUP1 DUP5 MSTORE PUSH2 0xC34 SWAP5 SWAP2 SWAP1 SWAP2 AND SWAP3 DUP6 SWAP3 SWAP1 SWAP2 SWAP1 PUSH2 0x1963 SWAP1 DUP4 ADD CODECOPY PUSH2 0xD6E JUMP JUMPDEST PUSH1 0x1 PUSH1 0x1 PUSH1 0xA0 SHL SUB DUP4 DUP2 AND PUSH1 0x0 DUP2 DUP2 MSTORE PUSH1 0x1 PUSH1 0x20 MSTORE PUSH1 0x40 SWAP1 DUP2 SWAP1 KECCAK256 DUP1 SLOAD PUSH1 0x1 PUSH1 0x1 PUSH1 0x60 SHL SUB NOT AND PUSH1 0x1 PUSH1 0x1 PUSH1 0x60 SHL SUB SWAP6 SWAP1 SWAP6 AND SWAP5 SWAP1 SWAP5 OR SWAP1 SWAP4 SSTORE SWAP2 MLOAD SWAP1 DUP6 AND SWAP1 PUSH32 0xDDF252AD1BE2C89B69C2B068FC378DAA952BA7F163C4A11628F55A4DF523B3EF SWAP1 PUSH2 0xCA1 SWAP1 DUP6 SWAP1 PUSH2 0x17E7 JUMP JUMPDEST PUSH1 0x40 MLOAD DUP1 SWAP2 SUB SWAP1 LOG3 PUSH1 0x1 PUSH1 0x1 PUSH1 0xA0 SHL SUB DUP1 DUP5 AND PUSH1 0x0 SWAP1 DUP2 MSTORE PUSH1 0x2 PUSH1 0x20 MSTORE PUSH1 0x40 DUP1 DUP3 KECCAK256 SLOAD DUP6 DUP5 AND DUP4 MSTORE SWAP2 KECCAK256 SLOAD PUSH2 0xCDB SWAP3 SWAP2 DUP3 AND SWAP2 AND DUP4 PUSH2 0xDAA JUMP JUMPDEST POP POP POP JUMP JUMPDEST PUSH1 0x1 PUSH1 0x1 PUSH1 0xA0 SHL SUB DUP1 DUP4 AND PUSH1 0x0 DUP2 DUP2 MSTORE PUSH1 0x2 PUSH1 0x20 DUP2 DUP2 MSTORE PUSH1 0x40 DUP1 DUP5 KECCAK256 DUP1 SLOAD PUSH1 0x1 DUP5 MSTORE DUP3 DUP7 KECCAK256 SLOAD SWAP5 SWAP1 SWAP4 MSTORE DUP8 DUP8 AND PUSH1 0x1 PUSH1 0x1 PUSH1 0xA0 SHL SUB NOT DUP5 AND DUP2 OR SWAP1 SWAP2 SSTORE SWAP1 MLOAD SWAP2 SWAP1 SWAP6 AND SWAP5 PUSH1 0x1 PUSH1 0x1 PUSH1 0x60 SHL SUB SWAP1 SWAP3 AND SWAP4 SWAP2 SWAP3 DUP6 SWAP3 SWAP2 PUSH32 0x3134E8A2E6D97E929A7E54011EA5485D7D196DD5F0BA4D4EF95803E8E3FC257F SWAP2 SWAP1 LOG4 PUSH2 0xD64 DUP3 DUP5 DUP4 PUSH2 0xDAA JUMP JUMPDEST POP POP POP POP JUMP JUMPDEST CHAINID SWAP1 JUMP JUMPDEST PUSH1 0x0 DUP4 DUP4 ADD DUP3 PUSH1 0x1 PUSH1 0x1 PUSH1 0x60 SHL SUB DUP1 DUP8 AND SWAP1 DUP4 AND LT ISZERO PUSH2 0xDA1 JUMPI PUSH1 0x40 MLOAD PUSH3 0x461BCD PUSH1 0xE5 SHL DUP2 MSTORE PUSH1 0x4 ADD PUSH2 0x596 SWAP2 SWAP1 PUSH2 0x173F JUMP JUMPDEST POP SWAP5 SWAP4 POP POP POP POP JUMP JUMPDEST DUP2 PUSH1 0x1 PUSH1 0x1 PUSH1 0xA0 SHL SUB AND DUP4 PUSH1 0x1 PUSH1 0x1 PUSH1 0xA0 SHL SUB AND EQ ISZERO DUP1 ISZERO PUSH2 0xDD5 JUMPI POP PUSH1 0x0 DUP2 PUSH1 0x1 PUSH1 0x1 PUSH1 0x60 SHL SUB AND GT JUMPDEST ISZERO PUSH2 0xCDB JUMPI PUSH1 0x1 PUSH1 0x1 PUSH1 0xA0 SHL SUB DUP4 AND ISZERO PUSH2 0xE8D JUMPI PUSH1 0x1 PUSH1 0x1 PUSH1 0xA0 SHL SUB DUP4 AND PUSH1 0x0 SWAP1 DUP2 MSTORE PUSH1 0x4 PUSH1 0x20 MSTORE PUSH1 0x40 DUP2 KECCAK256 SLOAD PUSH4 0xFFFFFFFF AND SWAP1 DUP2 PUSH2 0xE15 JUMPI PUSH1 0x0 PUSH2 0xE54 JUMP JUMPDEST PUSH1 0x1 PUSH1 0x1 PUSH1 0xA0 SHL SUB DUP6 AND PUSH1 0x0 SWAP1 DUP2 MSTORE PUSH1 0x3 PUSH1 0x20 SWAP1 DUP2 MSTORE PUSH1 0x40 DUP1 DUP4 KECCAK256 PUSH1 0x0 NOT DUP7 ADD PUSH4 0xFFFFFFFF AND DUP5 MSTORE SWAP1 SWAP2 MSTORE SWAP1 KECCAK256 SLOAD PUSH1 0x1 PUSH1 0x20 SHL SWAP1 DIV PUSH1 0x1 PUSH1 0x1 PUSH1 0x60 SHL SUB AND JUMPDEST SWAP1 POP PUSH1 0x0 PUSH2 0xE7B DUP3 DUP6 PUSH1 0x40 MLOAD DUP1 PUSH1 0x60 ADD PUSH1 0x40 MSTORE DUP1 PUSH1 0x29 DUP2 MSTORE PUSH1 0x20 ADD PUSH2 0x1912 PUSH1 0x29 SWAP2 CODECOPY PUSH2 0xAF6 JUMP JUMPDEST SWAP1 POP PUSH2 0xE89 DUP7 DUP5 DUP5 DUP5 PUSH2 0xF38 JUMP JUMPDEST POP POP POP JUMPDEST PUSH1 0x1 PUSH1 0x1 PUSH1 0xA0 SHL SUB DUP3 AND ISZERO PUSH2 0xCDB JUMPI PUSH1 0x1 PUSH1 0x1 PUSH1 0xA0 SHL SUB DUP3 AND PUSH1 0x0 SWAP1 DUP2 MSTORE PUSH1 0x4 PUSH1 0x20 MSTORE PUSH1 0x40 DUP2 KECCAK256 SLOAD PUSH4 0xFFFFFFFF AND SWAP1 DUP2 PUSH2 0xEC8 JUMPI PUSH1 0x0 PUSH2 0xF07 JUMP JUMPDEST PUSH1 0x1 PUSH1 0x1 PUSH1 0xA0 SHL SUB DUP5 AND PUSH1 0x0 SWAP1 DUP2 MSTORE PUSH1 0x3 PUSH1 0x20 SWAP1 DUP2 MSTORE PUSH1 0x40 DUP1 DUP4 KECCAK256 PUSH1 0x0 NOT DUP7 ADD PUSH4 0xFFFFFFFF AND DUP5 MSTORE SWAP1 SWAP2 MSTORE SWAP1 KECCAK256 SLOAD PUSH1 0x1 PUSH1 0x20 SHL SWAP1 DIV PUSH1 0x1 PUSH1 0x1 PUSH1 0x60 SHL SUB AND JUMPDEST SWAP1 POP PUSH1 0x0 PUSH2 0xF2E DUP3 DUP6 PUSH1 0x40 MLOAD DUP1 PUSH1 0x60 ADD PUSH1 0x40 MSTORE DUP1 PUSH1 0x28 DUP2 MSTORE PUSH1 0x20 ADD PUSH2 0x193B PUSH1 0x28 SWAP2 CODECOPY PUSH2 0xD6E JUMP JUMPDEST SWAP1 POP PUSH2 0xA4C DUP6 DUP5 DUP5 DUP5 JUMPDEST PUSH1 0x0 PUSH2 0xF5C NUMBER PUSH1 0x40 MLOAD DUP1 PUSH1 0x60 ADD PUSH1 0x40 MSTORE DUP1 PUSH1 0x35 DUP2 MSTORE PUSH1 0x20 ADD PUSH2 0x1994 PUSH1 0x35 SWAP2 CODECOPY PUSH2 0x10ED JUMP JUMPDEST SWAP1 POP PUSH1 0x0 DUP5 PUSH4 0xFFFFFFFF AND GT DUP1 ISZERO PUSH2 0xFA5 JUMPI POP PUSH1 0x1 PUSH1 0x1 PUSH1 0xA0 SHL SUB DUP6 AND PUSH1 0x0 SWAP1 DUP2 MSTORE PUSH1 0x3 PUSH1 0x20 SWAP1 DUP2 MSTORE PUSH1 0x40 DUP1 DUP4 KECCAK256 PUSH4 0xFFFFFFFF PUSH1 0x0 NOT DUP10 ADD DUP2 AND DUP6 MSTORE SWAP3 MSTORE SWAP1 SWAP2 KECCAK256 SLOAD DUP3 DUP3 AND SWAP2 AND EQ JUMPDEST ISZERO PUSH2 0x1004 JUMPI PUSH1 0x1 PUSH1 0x1 PUSH1 0xA0 SHL SUB DUP6 AND PUSH1 0x0 SWAP1 DUP2 MSTORE PUSH1 0x3 PUSH1 0x20 SWAP1 DUP2 MSTORE PUSH1 0x40 DUP1 DUP4 KECCAK256 PUSH1 0x0 NOT DUP9 ADD PUSH4 0xFFFFFFFF AND DUP5 MSTORE SWAP1 SWAP2 MSTORE SWAP1 KECCAK256 DUP1 SLOAD PUSH16 0xFFFFFFFFFFFFFFFFFFFFFFFF00000000 NOT AND PUSH1 0x1 PUSH1 0x20 SHL PUSH1 0x1 PUSH1 0x1 PUSH1 0x60 SHL SUB DUP6 AND MUL OR SWAP1 SSTORE PUSH2 0x10A3 JUMP JUMPDEST PUSH1 0x40 DUP1 MLOAD DUP1 DUP3 ADD DUP3 MSTORE PUSH4 0xFFFFFFFF DUP1 DUP5 AND DUP3 MSTORE PUSH1 0x1 PUSH1 0x1 PUSH1 0x60 SHL SUB DUP1 DUP7 AND PUSH1 0x20 DUP1 DUP6 ADD SWAP2 DUP3 MSTORE PUSH1 0x1 PUSH1 0x1 PUSH1 0xA0 SHL SUB DUP12 AND PUSH1 0x0 DUP2 DUP2 MSTORE PUSH1 0x3 DUP4 MSTORE DUP8 DUP2 KECCAK256 DUP13 DUP8 AND DUP3 MSTORE DUP4 MSTORE DUP8 DUP2 KECCAK256 SWAP7 MLOAD DUP8 SLOAD SWAP5 MLOAD SWAP1 SWAP6 AND PUSH1 0x1 PUSH1 0x20 SHL MUL PUSH16 0xFFFFFFFFFFFFFFFFFFFFFFFF00000000 NOT SWAP6 DUP8 AND PUSH4 0xFFFFFFFF NOT SWAP6 DUP7 AND OR SWAP6 SWAP1 SWAP6 AND SWAP5 SWAP1 SWAP5 OR SWAP1 SWAP6 SSTORE SWAP4 DUP3 MSTORE PUSH1 0x4 SWAP1 SWAP4 MSTORE SWAP3 SWAP1 SWAP3 KECCAK256 DUP1 SLOAD PUSH1 0x1 DUP9 ADD SWAP1 SWAP4 AND SWAP3 SWAP1 SWAP2 AND SWAP2 SWAP1 SWAP2 OR SWAP1 SSTORE JUMPDEST DUP5 PUSH1 0x1 PUSH1 0x1 PUSH1 0xA0 SHL SUB AND PUSH32 0xDEC2BACDD2F05B59DE34DA9B523DFF8BE42E5E38E818C82FDB0BAE774387A724 DUP5 DUP5 PUSH1 0x40 MLOAD PUSH2 0x10DE SWAP3 SWAP2 SWAP1 PUSH2 0x1803 JUMP JUMPDEST PUSH1 0x40 MLOAD DUP1 SWAP2 SUB SWAP1 LOG2 POP POP POP POP POP JUMP JUMPDEST PUSH1 0x0 DUP2 PUSH1 0x1 PUSH1 0x20 SHL DUP5 LT PUSH2 0xAEE JUMPI PUSH1 0x40 MLOAD PUSH3 0x461BCD PUSH1 0xE5 SHL DUP2 MSTORE PUSH1 0x4 ADD PUSH2 0x596 SWAP2 SWAP1 PUSH2 0x173F JUMP JUMPDEST PUSH1 0x40 DUP1 MLOAD DUP1 DUP3 ADD SWAP1 SWAP2 MSTORE PUSH1 0x0 DUP1 DUP3 MSTORE PUSH1 0x20 DUP3 ADD MSTORE SWAP1 JUMP JUMPDEST DUP1 CALLDATALOAD PUSH2 0x39B DUP2 PUSH2 0x18AB JUMP JUMPDEST DUP1 CALLDATALOAD PUSH2 0x39B DUP2 PUSH2 0x18BF JUMP JUMPDEST DUP1 CALLDATALOAD PUSH2 0x39B DUP2 PUSH2 0x18C8 JUMP JUMPDEST DUP1 CALLDATALOAD PUSH2 0x39B DUP2 PUSH2 0x18D1 JUMP JUMPDEST PUSH1 0x0 PUSH1 0x20 DUP3 DUP5 SUB SLT ISZERO PUSH2 0x1169 JUMPI PUSH1 0x0 DUP1 REVERT JUMPDEST PUSH1 0x0 PUSH2 0x1175 DUP5 DUP5 PUSH2 0x112B JUMP JUMPDEST SWAP5 SWAP4 POP POP POP POP JUMP JUMPDEST PUSH1 0x0 DUP1 PUSH1 0x40 DUP4 DUP6 SUB SLT ISZERO PUSH2 0x1190 JUMPI PUSH1 0x0 DUP1 REVERT JUMPDEST PUSH1 0x0 PUSH2 0x119C DUP6 DUP6 PUSH2 0x112B JUMP JUMPDEST SWAP3 POP POP PUSH1 0x20 PUSH2 0x11AD DUP6 DUP3 DUP7 ADD PUSH2 0x112B JUMP JUMPDEST SWAP2 POP POP SWAP3 POP SWAP3 SWAP1 POP JUMP JUMPDEST PUSH1 0x0 DUP1 PUSH1 0x0 PUSH1 0x60 DUP5 DUP7 SUB SLT ISZERO PUSH2 0x11CC JUMPI PUSH1 0x0 DUP1 REVERT JUMPDEST PUSH1 0x0 PUSH2 0x11D8 DUP7 DUP7 PUSH2 0x112B JUMP JUMPDEST SWAP4 POP POP PUSH1 0x20 PUSH2 0x11E9 DUP7 DUP3 DUP8 ADD PUSH2 0x112B JUMP JUMPDEST SWAP3 POP POP PUSH1 0x40 PUSH2 0x11FA DUP7 DUP3 DUP8 ADD PUSH2 0x1136 JUMP JUMPDEST SWAP2 POP POP SWAP3 POP SWAP3 POP SWAP3 JUMP JUMPDEST PUSH1 0x0 DUP1 PUSH1 0x40 DUP4 DUP6 SUB SLT ISZERO PUSH2 0x1217 JUMPI PUSH1 0x0 DUP1 REVERT JUMPDEST PUSH1 0x0 PUSH2 0x1223 DUP6 DUP6 PUSH2 0x112B JUMP JUMPDEST SWAP3 POP POP PUSH1 0x20 PUSH2 0x11AD DUP6 DUP3 DUP7 ADD PUSH2 0x1136 JUMP JUMPDEST PUSH1 0x0 DUP1 PUSH1 0x0 DUP1 PUSH1 0x0 DUP1 PUSH1 0xC0 DUP8 DUP10 SUB SLT ISZERO PUSH2 0x124D JUMPI PUSH1 0x0 DUP1 REVERT JUMPDEST PUSH1 0x0 PUSH2 0x1259 DUP10 DUP10 PUSH2 0x112B JUMP JUMPDEST SWAP7 POP POP PUSH1 0x20 PUSH2 0x126A DUP10 DUP3 DUP11 ADD PUSH2 0x1136 JUMP JUMPDEST SWAP6 POP POP PUSH1 0x40 PUSH2 0x127B DUP10 DUP3 DUP11 ADD PUSH2 0x1136 JUMP JUMPDEST SWAP5 POP POP PUSH1 0x60 PUSH2 0x128C DUP10 DUP3 DUP11 ADD PUSH2 0x114C JUMP JUMPDEST SWAP4 POP POP PUSH1 0x80 PUSH2 0x129D DUP10 DUP3 DUP11 ADD PUSH2 0x1136 JUMP JUMPDEST SWAP3 POP POP PUSH1 0xA0 PUSH2 0x12AE DUP10 DUP3 DUP11 ADD PUSH2 0x1136 JUMP JUMPDEST SWAP2 POP POP SWAP3 SWAP6 POP SWAP3 SWAP6 POP SWAP3 SWAP6 JUMP JUMPDEST PUSH1 0x0 DUP1 PUSH1 0x40 DUP4 DUP6 SUB SLT ISZERO PUSH2 0x12CE JUMPI PUSH1 0x0 DUP1 REVERT JUMPDEST PUSH1 0x0 PUSH2 0x12DA DUP6 DUP6 PUSH2 0x112B JUMP JUMPDEST SWAP3 POP POP PUSH1 0x20 PUSH2 0x11AD DUP6 DUP3 DUP7 ADD PUSH2 0x1141 JUMP JUMPDEST PUSH2 0x12F4 DUP2 PUSH2 0x1830 JUMP JUMPDEST DUP3 MSTORE POP POP JUMP JUMPDEST PUSH2 0x12F4 DUP2 PUSH2 0x183B JUMP JUMPDEST PUSH2 0x12F4 DUP2 PUSH2 0x1840 JUMP JUMPDEST PUSH2 0x12F4 PUSH2 0x1318 DUP3 PUSH2 0x1840 JUMP JUMPDEST PUSH2 0x1840 JUMP JUMPDEST PUSH1 0x0 PUSH2 0x1328 DUP3 PUSH2 0x181E JUMP JUMPDEST PUSH2 0x1332 DUP2 DUP6 PUSH2 0x1822 JUMP JUMPDEST SWAP4 POP PUSH2 0x1342 DUP2 DUP6 PUSH1 0x20 DUP7 ADD PUSH2 0x1875 JUMP JUMPDEST PUSH2 0x134B DUP2 PUSH2 0x18A1 JUMP JUMPDEST SWAP1 SWAP4 ADD SWAP4 SWAP3 POP POP POP JUMP JUMPDEST PUSH1 0x0 PUSH2 0x1362 PUSH1 0x3B DUP4 PUSH2 0x1822 JUMP JUMPDEST PUSH32 0x4C656E64743A3A5F7472616E73666572546F6B656E733A2063616E6E6F742074 DUP2 MSTORE PUSH32 0x72616E7366657220746F20746865207A65726F20616464726573730000000000 PUSH1 0x20 DUP3 ADD MSTORE PUSH1 0x40 ADD SWAP3 SWAP2 POP POP JUMP JUMPDEST PUSH1 0x0 PUSH2 0x13C1 PUSH1 0x2 DUP4 PUSH2 0x182B JUMP JUMPDEST PUSH2 0x1901 PUSH1 0xF0 SHL DUP2 MSTORE PUSH1 0x2 ADD SWAP3 SWAP2 POP POP JUMP JUMPDEST PUSH1 0x0 PUSH2 0x13DF PUSH1 0x23 DUP4 PUSH2 0x1822 JUMP JUMPDEST PUSH32 0x4C656E64743A3A64656C656761746542795369673A20696E76616C6964206E6F DUP2 MSTORE PUSH3 0x6E6365 PUSH1 0xE8 SHL PUSH1 0x20 DUP3 ADD MSTORE PUSH1 0x40 ADD SWAP3 SWAP2 POP POP JUMP JUMPDEST PUSH1 0x0 PUSH2 0x1424 PUSH1 0x27 DUP4 PUSH2 0x1822 JUMP JUMPDEST PUSH32 0x4C656E64743A3A64656C656761746542795369673A207369676E617475726520 DUP2 MSTORE PUSH7 0x195E1C1A5C9959 PUSH1 0xCA SHL PUSH1 0x20 DUP3 ADD MSTORE PUSH1 0x40 ADD SWAP3 SWAP2 POP POP JUMP JUMPDEST PUSH1 0x0 PUSH2 0x146D PUSH1 0x28 DUP4 PUSH2 0x1822 JUMP JUMPDEST PUSH32 0x4C656E64743A3A6765745072696F72566F7465733A206E6F7420796574206465 DUP2 MSTORE PUSH8 0x1D195C9B5A5B9959 PUSH1 0xC2 SHL PUSH1 0x20 DUP3 ADD MSTORE PUSH1 0x40 ADD SWAP3 SWAP2 POP POP JUMP JUMPDEST PUSH1 0x0 PUSH2 0x14B7 PUSH1 0x43 DUP4 PUSH2 0x182B JUMP JUMPDEST PUSH32 0x454950373132446F6D61696E28737472696E67206E616D652C75696E74323536 DUP2 MSTORE PUSH32 0x20636861696E49642C6164647265737320766572696679696E67436F6E747261 PUSH1 0x20 DUP3 ADD MSTORE PUSH3 0x637429 PUSH1 0xE8 SHL PUSH1 0x40 DUP3 ADD MSTORE PUSH1 0x43 ADD SWAP3 SWAP2 POP POP JUMP JUMPDEST PUSH1 0x0 PUSH2 0x1522 PUSH1 0x27 DUP4 PUSH2 0x1822 JUMP JUMPDEST PUSH32 0x4C656E64743A3A64656C656761746542795369673A20696E76616C6964207369 DUP2 MSTORE PUSH7 0x676E6174757265 PUSH1 0xC8 SHL PUSH1 0x20 DUP3 ADD MSTORE PUSH1 0x40 ADD SWAP3 SWAP2 POP POP JUMP JUMPDEST PUSH1 0x0 PUSH2 0x156B PUSH1 0x3A DUP4 PUSH2 0x182B JUMP JUMPDEST PUSH32 0x44656C65676174696F6E28616464726573732064656C6567617465652C75696E DUP2 MSTORE PUSH32 0x74323536206E6F6E63652C75696E743235362065787069727929000000000000 PUSH1 0x20 DUP3 ADD MSTORE PUSH1 0x3A ADD SWAP3 SWAP2 POP POP JUMP JUMPDEST PUSH1 0x0 PUSH2 0x15CA PUSH1 0x3D DUP4 PUSH2 0x1822 JUMP JUMPDEST PUSH32 0x4C656E64743A3A5F7472616E73666572546F6B656E733A2063616E6E6F742074 DUP2 MSTORE PUSH32 0x72616E736665722066726F6D20746865207A65726F2061646472657373000000 PUSH1 0x20 DUP3 ADD MSTORE PUSH1 0x40 ADD SWAP3 SWAP2 POP POP JUMP JUMPDEST PUSH2 0x12F4 DUP2 PUSH2 0x184F JUMP JUMPDEST PUSH2 0x12F4 DUP2 PUSH2 0x1858 JUMP JUMPDEST PUSH2 0x12F4 DUP2 PUSH2 0x186A JUMP JUMPDEST PUSH2 0x12F4 DUP2 PUSH2 0x185E JUMP JUMPDEST PUSH1 0x0 PUSH2 0x164B DUP3 PUSH2 0x13B4 JUMP JUMPDEST SWAP2 POP PUSH2 0x1657 DUP3 DUP6 PUSH2 0x130C JUMP JUMPDEST PUSH1 0x20 DUP3 ADD SWAP2 POP PUSH2 0x1667 DUP3 DUP5 PUSH2 0x130C JUMP JUMPDEST POP PUSH1 0x20 ADD SWAP3 SWAP2 POP POP JUMP JUMPDEST PUSH1 0x0 PUSH2 0x39B DUP3 PUSH2 0x14AA JUMP JUMPDEST PUSH1 0x0 PUSH2 0x39B DUP3 PUSH2 0x155E JUMP JUMPDEST PUSH1 0x20 DUP2 ADD PUSH2 0x39B DUP3 DUP5 PUSH2 0x12EB JUMP JUMPDEST PUSH1 0x20 DUP2 ADD PUSH2 0x39B DUP3 DUP5 PUSH2 0x12FA JUMP JUMPDEST PUSH1 0x20 DUP2 ADD PUSH2 0x39B DUP3 DUP5 PUSH2 0x1303 JUMP JUMPDEST PUSH1 0x80 DUP2 ADD PUSH2 0x16BF DUP3 DUP8 PUSH2 0x1303 JUMP JUMPDEST PUSH2 0x16CC PUSH1 0x20 DUP4 ADD DUP7 PUSH2 0x12EB JUMP JUMPDEST PUSH2 0x16D9 PUSH1 0x40 DUP4 ADD DUP6 PUSH2 0x1303 JUMP JUMPDEST PUSH2 0x16E6 PUSH1 0x60 DUP4 ADD DUP5 PUSH2 0x1303 JUMP JUMPDEST SWAP6 SWAP5 POP POP POP POP POP JUMP JUMPDEST PUSH1 0x80 DUP2 ADD PUSH2 0x16FD DUP3 DUP8 PUSH2 0x1303 JUMP JUMPDEST PUSH2 0x170A PUSH1 0x20 DUP4 ADD DUP7 PUSH2 0x1303 JUMP JUMPDEST PUSH2 0x1717 PUSH1 0x40 DUP4 ADD DUP6 PUSH2 0x1303 JUMP JUMPDEST PUSH2 0x16E6 PUSH1 0x60 DUP4 ADD DUP5 PUSH2 0x12EB JUMP JUMPDEST PUSH1 0x80 DUP2 ADD PUSH2 0x1732 DUP3 DUP8 PUSH2 0x1303 JUMP JUMPDEST PUSH2 0x16CC PUSH1 0x20 DUP4 ADD DUP7 PUSH2 0x1625 JUMP JUMPDEST PUSH1 0x20 DUP1 DUP3 MSTORE DUP2 ADD PUSH2 0x505 DUP2 DUP5 PUSH2 0x131D JUMP JUMPDEST PUSH1 0x20 DUP1 DUP3 MSTORE DUP2 ADD PUSH2 0x39B DUP2 PUSH2 0x1355 JUMP JUMPDEST PUSH1 0x20 DUP1 DUP3 MSTORE DUP2 ADD PUSH2 0x39B DUP2 PUSH2 0x13D2 JUMP JUMPDEST PUSH1 0x20 DUP1 DUP3 MSTORE DUP2 ADD PUSH2 0x39B DUP2 PUSH2 0x1417 JUMP JUMPDEST PUSH1 0x20 DUP1 DUP3 MSTORE DUP2 ADD PUSH2 0x39B DUP2 PUSH2 0x1460 JUMP JUMPDEST PUSH1 0x20 DUP1 DUP3 MSTORE DUP2 ADD PUSH2 0x39B DUP2 PUSH2 0x1515 JUMP JUMPDEST PUSH1 0x20 DUP1 DUP3 MSTORE DUP2 ADD PUSH2 0x39B DUP2 PUSH2 0x15BD JUMP JUMPDEST PUSH1 0x20 DUP2 ADD PUSH2 0x39B DUP3 DUP5 PUSH2 0x161C JUMP JUMPDEST PUSH1 0x40 DUP2 ADD PUSH2 0x17CC DUP3 DUP6 PUSH2 0x161C JUMP JUMPDEST PUSH2 0x505 PUSH1 0x20 DUP4 ADD DUP5 PUSH2 0x1637 JUMP JUMPDEST PUSH1 0x20 DUP2 ADD PUSH2 0x39B DUP3 DUP5 PUSH2 0x1625 JUMP JUMPDEST PUSH1 0x20 DUP2 ADD PUSH2 0x39B DUP3 DUP5 PUSH2 0x162E JUMP JUMPDEST PUSH1 0x20 DUP2 ADD PUSH2 0x39B DUP3 DUP5 PUSH2 0x1637 JUMP JUMPDEST PUSH1 0x40 DUP2 ADD PUSH2 0x1811 DUP3 DUP6 PUSH2 0x162E JUMP JUMPDEST PUSH2 0x505 PUSH1 0x20 DUP4 ADD DUP5 PUSH2 0x162E JUMP JUMPDEST MLOAD SWAP1 JUMP JUMPDEST SWAP1 DUP2 MSTORE PUSH1 0x20 ADD SWAP1 JUMP JUMPDEST SWAP2 SWAP1 POP JUMP JUMPDEST PUSH1 0x0 PUSH2 0x39B DUP3 PUSH2 0x1843 JUMP JUMPDEST ISZERO ISZERO SWAP1 JUMP JUMPDEST SWAP1 JUMP JUMPDEST PUSH1 0x1 PUSH1 0x1 PUSH1 0xA0 SHL SUB AND SWAP1 JUMP JUMPDEST PUSH4 0xFFFFFFFF AND SWAP1 JUMP JUMPDEST PUSH1 0xFF AND SWAP1 JUMP JUMPDEST PUSH1 0x1 PUSH1 0x1 PUSH1 0x60 SHL SUB AND SWAP1 JUMP JUMPDEST PUSH1 0x0 PUSH2 0x39B DUP3 PUSH2 0x185E JUMP JUMPDEST PUSH1 0x0 JUMPDEST DUP4 DUP2 LT ISZERO PUSH2 0x1890 JUMPI DUP2 DUP2 ADD MLOAD DUP4 DUP3 ADD MSTORE PUSH1 0x20 ADD PUSH2 0x1878 JUMP JUMPDEST DUP4 DUP2 GT ISZERO PUSH2 0xD64 JUMPI POP POP PUSH1 0x0 SWAP2 ADD MSTORE JUMP JUMPDEST PUSH1 0x1F ADD PUSH1 0x1F NOT AND SWAP1 JUMP JUMPDEST PUSH2 0x18B4 DUP2 PUSH2 0x1830 JUMP JUMPDEST DUP2 EQ PUSH2 0x536 JUMPI PUSH1 0x0 DUP1 REVERT JUMPDEST PUSH2 0x18B4 DUP2 PUSH2 0x1840 JUMP JUMPDEST PUSH2 0x18B4 DUP2 PUSH2 0x184F JUMP JUMPDEST PUSH2 0x18B4 DUP2 PUSH2 0x1858 JUMP INVALID 0x4C PUSH6 0x6E64743A3A5F PUSH21 0x72616E73666572546F6B656E733A207472616E7366 PUSH6 0x7220616D6F75 PUSH15 0x7420657863656564732062616C616E PUSH4 0x654C656E PUSH5 0x743A3A5F6D PUSH16 0x7665566F7465733A20766F746520616D PUSH16 0x756E7420756E646572666C6F77734C65 PUSH15 0x64743A3A5F6D6F7665566F7465733A KECCAK256 PUSH23 0x6F746520616D6F756E74206F766572666C6F77734C656E PUSH5 0x743A3A5F74 PUSH19 0x616E73666572546F6B656E733A207472616E73 PUSH7 0x657220616D6F75 PUSH15 0x74206F766572666C6F77734C656E64 PUSH21 0x3A3A5F7772697465436865636B706F696E743A2062 PUSH13 0x6F636B206E756D626572206578 PUSH4 0x65656473 KECCAK256 CALLER ORIGIN KECCAK256 PUSH3 0x697473 0x4C PUSH6 0x6E64743A3A74 PUSH19 0x616E736665723A20616D6F756E742065786365 PUSH6 0x647320393620 PUSH3 0x697473 0x4C PUSH6 0x6E64743A3A61 PUSH17 0x70726F76653A20616D6F756E7420657863 PUSH6 0x656473203936 KECCAK256 PUSH3 0x697473 0x4C PUSH6 0x6E64743A3A74 PUSH19 0x616E7366657246726F6D3A207472616E736665 PUSH19 0x20616D6F756E74206578636565647320737065 PUSH15 0x64657220616C6C6F77616E6365A365 PUSH3 0x7A7A72 BALANCE PC KECCAK256 SWAP10 0x4D 0xF7 NUMBER 0xBD DUP10 0xBE 0xB1 CREATE 0x29 PUSH8 0x5BAB18DE6D43352A JUMPDEST SWAP3 RETURN DUP8 0xA6 DUP14 PUSH26 0xC1755CE284746C6578706572696D656E74616CF564736F6C6343 STOP SDIV LT STOP BLOCKHASH "
		},
		"gasEstimates": {
			"creation": {
				"codeDepositCost": "1361200",
				"executionCost": "infinite",
				"totalCost": "infinite"
			},
			"external": {
				"DELEGATION_TYPEHASH()": "infinite",
				"DOMAIN_TYPEHASH()": "infinite",
				"allowance(address,address)": "infinite",
				"approve(address,uint256)": "infinite",
				"balanceOf(address)": "infinite",
				"checkpoints(address,uint32)": "infinite",
				"decimals()": "350",
				"delegate(address)": "infinite",
				"delegateBySig(address,uint256,uint256,uint8,bytes32,bytes32)": "infinite",
				"delegates(address)": "infinite",
				"getCurrentVotes(address)": "infinite",
				"getPriorVotes(address,uint256)": "infinite",
				"name()": "infinite",
				"nonces(address)": "infinite",
				"numCheckpoints(address)": "infinite",
				"symbol()": "infinite",
				"totalSupply()": "367",
				"transfer(address,uint256)": "infinite",
				"transferFrom(address,address,uint256)": "infinite"
			},
			"internal": {
				"_delegate(address,address)": "infinite",
				"_moveDelegates(address,address,uint96)": "infinite",
				"_transferTokens(address,address,uint96)": "infinite",
				"_writeCheckpoint(address,uint32,uint96,uint96)": "infinite",
				"add96(uint96,uint96,string memory)": "infinite",
				"getChainId()": "14",
				"safe32(uint256,string memory)": "infinite",
				"safe96(uint256,string memory)": "infinite",
				"sub96(uint96,uint96,string memory)": "infinite"
			}
		},
		"methodIdentifiers": {
			"DELEGATION_TYPEHASH()": "e7a324dc",
			"DOMAIN_TYPEHASH()": "20606b70",
			"allowance(address,address)": "dd62ed3e",
			"approve(address,uint256)": "095ea7b3",
			"balanceOf(address)": "70a08231",
			"checkpoints(address,uint32)": "f1127ed8",
			"decimals()": "313ce567",
			"delegate(address)": "5c19a95c",
			"delegateBySig(address,uint256,uint256,uint8,bytes32,bytes32)": "c3cda520",
			"delegates(address)": "587cde1e",
			"getCurrentVotes(address)": "b4b5ea57",
			"getPriorVotes(address,uint256)": "782d6fe1",
			"name()": "06fdde03",
			"nonces(address)": "7ecebe00",
			"numCheckpoints(address)": "6fcfff45",
			"symbol()": "95d89b41",
			"totalSupply()": "18160ddd",
			"transfer(address,uint256)": "a9059cbb",
			"transferFrom(address,address,uint256)": "23b872dd"
		}
	},
	"abi": [
		{
			"inputs": [
				{
					"internalType": "address",
					"name": "account",
					"type": "address"
				}
			],
			"payable": false,
			"stateMutability": "nonpayable",
			"type": "constructor"
		},
		{
			"anonymous": false,
			"inputs": [
				{
					"indexed": true,
					"internalType": "address",
					"name": "owner",
					"type": "address"
				},
				{
					"indexed": true,
					"internalType": "address",
					"name": "spender",
					"type": "address"
				},
				{
					"indexed": false,
					"internalType": "uint256",
					"name": "amount",
					"type": "uint256"
				}
			],
			"name": "Approval",
			"type": "event"
		},
		{
			"anonymous": false,
			"inputs": [
				{
					"indexed": true,
					"internalType": "address",
					"name": "delegator",
					"type": "address"
				},
				{
					"indexed": true,
					"internalType": "address",
					"name": "fromDelegate",
					"type": "address"
				},
				{
					"indexed": true,
					"internalType": "address",
					"name": "toDelegate",
					"type": "address"
				}
			],
			"name": "DelegateChanged",
			"type": "event"
		},
		{
			"anonymous": false,
			"inputs": [
				{
					"indexed": true,
					"internalType": "address",
					"name": "delegate",
					"type": "address"
				},
				{
					"indexed": false,
					"internalType": "uint256",
					"name": "previousBalance",
					"type": "uint256"
				},
				{
					"indexed": false,
					"internalType": "uint256",
					"name": "newBalance",
					"type": "uint256"
				}
			],
			"name": "DelegateVotesChanged",
			"type": "event"
		},
		{
			"anonymous": false,
			"inputs": [
				{
					"indexed": true,
					"internalType": "address",
					"name": "from",
					"type": "address"
				},
				{
					"indexed": true,
					"internalType": "address",
					"name": "to",
					"type": "address"
				},
				{
					"indexed": false,
					"internalType": "uint256",
					"name": "amount",
					"type": "uint256"
				}
			],
			"name": "Transfer",
			"type": "event"
		},
		{
			"constant": true,
			"inputs": [],
			"name": "DELEGATION_TYPEHASH",
			"outputs": [
				{
					"internalType": "bytes32",
					"name": "",
					"type": "bytes32"
				}
			],
			"payable": false,
			"stateMutability": "view",
			"type": "function"
		},
		{
			"constant": true,
			"inputs": [],
			"name": "DOMAIN_TYPEHASH",
			"outputs": [
				{
					"internalType": "bytes32",
					"name": "",
					"type": "bytes32"
				}
			],
			"payable": false,
			"stateMutability": "view",
			"type": "function"
		},
		{
			"constant": true,
			"inputs": [
				{
					"internalType": "address",
					"name": "account",
					"type": "address"
				},
				{
					"internalType": "address",
					"name": "spender",
					"type": "address"
				}
			],
			"name": "allowance",
			"outputs": [
				{
					"internalType": "uint256",
					"name": "",
					"type": "uint256"
				}
			],
			"payable": false,
			"stateMutability": "view",
			"type": "function"
		},
		{
			"constant": false,
			"inputs": [
				{
					"internalType": "address",
					"name": "spender",
					"type": "address"
				},
				{
					"internalType": "uint256",
					"name": "rawAmount",
					"type": "uint256"
				}
			],
			"name": "approve",
			"outputs": [
				{
					"internalType": "bool",
					"name": "",
					"type": "bool"
				}
			],
			"payable": false,
			"stateMutability": "nonpayable",
			"type": "function"
		},
		{
			"constant": true,
			"inputs": [
				{
					"internalType": "address",
					"name": "account",
					"type": "address"
				}
			],
			"name": "balanceOf",
			"outputs": [
				{
					"internalType": "uint256",
					"name": "",
					"type": "uint256"
				}
			],
			"payable": false,
			"stateMutability": "view",
			"type": "function"
		},
		{
			"constant": true,
			"inputs": [
				{
					"internalType": "address",
					"name": "",
					"type": "address"
				},
				{
					"internalType": "uint32",
					"name": "",
					"type": "uint32"
				}
			],
			"name": "checkpoints",
			"outputs": [
				{
					"internalType": "uint32",
					"name": "fromBlock",
					"type": "uint32"
				},
				{
					"internalType": "uint96",
					"name": "votes",
					"type": "uint96"
				}
			],
			"payable": false,
			"stateMutability": "view",
			"type": "function"
		},
		{
			"constant": true,
			"inputs": [],
			"name": "decimals",
			"outputs": [
				{
					"internalType": "uint8",
					"name": "",
					"type": "uint8"
				}
			],
			"payable": false,
			"stateMutability": "view",
			"type": "function"
		},
		{
			"constant": false,
			"inputs": [
				{
					"internalType": "address",
					"name": "delegatee",
					"type": "address"
				}
			],
			"name": "delegate",
			"outputs": [],
			"payable": false,
			"stateMutability": "nonpayable",
			"type": "function"
		},
		{
			"constant": false,
			"inputs": [
				{
					"internalType": "address",
					"name": "delegatee",
					"type": "address"
				},
				{
					"internalType": "uint256",
					"name": "nonce",
					"type": "uint256"
				},
				{
					"internalType": "uint256",
					"name": "expiry",
					"type": "uint256"
				},
				{
					"internalType": "uint8",
					"name": "v",
					"type": "uint8"
				},
				{
					"internalType": "bytes32",
					"name": "r",
					"type": "bytes32"
				},
				{
					"internalType": "bytes32",
					"name": "s",
					"type": "bytes32"
				}
			],
			"name": "delegateBySig",
			"outputs": [],
			"payable": false,
			"stateMutability": "nonpayable",
			"type": "function"
		},
		{
			"constant": true,
			"inputs": [
				{
					"internalType": "address",
					"name": "",
					"type": "address"
				}
			],
			"name": "delegates",
			"outputs": [
				{
					"internalType": "address",
					"name": "",
					"type": "address"
				}
			],
			"payable": false,
			"stateMutability": "view",
			"type": "function"
		},
		{
			"constant": true,
			"inputs": [
				{
					"internalType": "address",
					"name": "account",
					"type": "address"
				}
			],
			"name": "getCurrentVotes",
			"outputs": [
				{
					"internalType": "uint96",
					"name": "",
					"type": "uint96"
				}
			],
			"payable": false,
			"stateMutability": "view",
			"type": "function"
		},
		{
			"constant": true,
			"inputs": [
				{
					"internalType": "address",
					"name": "account",
					"type": "address"
				},
				{
					"internalType": "uint256",
					"name": "blockNumber",
					"type": "uint256"
				}
			],
			"name": "getPriorVotes",
			"outputs": [
				{
					"internalType": "uint96",
					"name": "",
					"type": "uint96"
				}
			],
			"payable": false,
			"stateMutability": "view",
			"type": "function"
		},
		{
			"constant": true,
			"inputs": [],
			"name": "name",
			"outputs": [
				{
					"internalType": "string",
					"name": "",
					"type": "string"
				}
			],
			"payable": false,
			"stateMutability": "view",
			"type": "function"
		},
		{
			"constant": true,
			"inputs": [
				{
					"internalType": "address",
					"name": "",
					"type": "address"
				}
			],
			"name": "nonces",
			"outputs": [
				{
					"internalType": "uint256",
					"name": "",
					"type": "uint256"
				}
			],
			"payable": false,
			"stateMutability": "view",
			"type": "function"
		},
		{
			"constant": true,
			"inputs": [
				{
					"internalType": "address",
					"name": "",
					"type": "address"
				}
			],
			"name": "numCheckpoints",
			"outputs": [
				{
					"internalType": "uint32",
					"name": "",
					"type": "uint32"
				}
			],
			"payable": false,
			"stateMutability": "view",
			"type": "function"
		},
		{
			"constant": true,
			"inputs": [],
			"name": "symbol",
			"outputs": [
				{
					"internalType": "string",
					"name": "",
					"type": "string"
				}
			],
			"payable": false,
			"stateMutability": "view",
			"type": "function"
		},
		{
			"constant": true,
			"inputs": [],
			"name": "totalSupply",
			"outputs": [
				{
					"internalType": "uint256",
					"name": "",
					"type": "uint256"
				}
			],
			"payable": false,
			"stateMutability": "view",
			"type": "function"
		},
		{
			"constant": false,
			"inputs": [
				{
					"internalType": "address",
					"name": "dst",
					"type": "address"
				},
				{
					"internalType": "uint256",
					"name": "rawAmount",
					"type": "uint256"
				}
			],
			"name": "transfer",
			"outputs": [
				{
					"internalType": "bool",
					"name": "",
					"type": "bool"
				}
			],
			"payable": false,
			"stateMutability": "nonpayable",
			"type": "function"
		},
		{
			"constant": false,
			"inputs": [
				{
					"internalType": "address",
					"name": "src",
					"type": "address"
				},
				{
					"internalType": "address",
					"name": "dst",
					"type": "address"
				},
				{
					"internalType": "uint256",
					"name": "rawAmount",
					"type": "uint256"
				}
			],
			"name": "transferFrom",
			"outputs": [
				{
					"internalType": "bool",
					"name": "",
					"type": "bool"
				}
			],
			"payable": false,
			"stateMutability": "nonpayable",
			"type": "function"
		}
	]
}