{
	"data": {
		"bytecode": {
			"linkReferences": {},
			"object": "60806040523480156200001157600080fd5b5060405162002ee238038062002ee2833981016040819052620000349162000109565b600160009081556200004562000105565b600180546001600160a01b0319166001600160a01b038316908117909155604051919250906000907f8be0079c531659141344cd1fd0a4f28419497f9722a3daafe3b4186f6b6457e0908290a350600380546001600160a01b039092166001600160a01b0319928316811790915560048054600181019091557f8a35acfbc15ff81a39ae7d344fd709f28e8600b4aa8c65c6b64bfe7fe36bd19b018054909216811790915560009081526005602052604090204260029091015562000139565b3390565b6000602082840312156200011b578081fd5b81516001600160a01b038116811462000132578182fd5b9392505050565b612d9980620001496000396000f3fe608060405234801561001057600080fd5b50600436106101e55760003560e01c8063715018a61161010f578063bcd11014116100a2578063e9fad8ee11610071578063e9fad8ee146103f5578063f1229777146103fd578063f2fde38b14610410578063f46eccc414610423576101e5565b8063bcd11014146103a7578063ca5c7b91146103ba578063dc01f60d146103c2578063e70b9e27146103e2576101e5565b80638da5cb5b116100de5780638da5cb5b14610371578063a01c77bc14610379578063abe50f1914610381578063b66503cf14610394576101e5565b8063715018a61461032e57806372f702f3146103365780637bb7bed11461034b5780638980f11f1461035e576101e5565b80633d18b91211610187578063638634ee11610156578063638634ee146102e25780636724c910146102f55780636eacd398146103085780637035ab981461031b576101e5565b80633d18b9121461029157806340b47e1a1461029957806348e5d9f8146102ac5780635e0fac2e146102cf576101e5565b806318160ddd116101c357806318160ddd1461024c5780632e1a7d4d14610254578063386a95251461026957806339fc971314610271576101e5565b806302b62938146101ea57806304554443146102145780630483a7f614610229575b600080fd5b6101fd6101f83660046126b4565b610436565b60405161020b929190612c9a565b60405180910390f35b61021c610592565b60405161020b9190612c91565b61023c6102373660046126b4565b610599565b60405161020b9493929190612ca8565b61021c610727565b61026761026236600461278b565b61072d565b005b61021c610c28565b61028461027f3660046126ce565b610c2f565b60405161020b9190612897565b610267610c4f565b6102676102a73660046126ce565b610f3d565b6102bf6102ba3660046126b4565b611029565b60405161020b9493929190612d0e565b61021c6102dd3660046126b4565b611050565b61021c6102f03660046126b4565b6110e8565b610267610303366004612700565b611112565b61021c6103163660046126b4565b6111b0565b61021c6103293660046126ce565b6111cb565b6102676111e8565b61033e611271565b60405161020b91906127ee565b61033e61035936600461278b565b611280565b61026761036c366004612746565b6112aa565b61033e6113a9565b6102676113b8565b61026761038f3660046127a3565b6114f8565b6102676103a2366004612746565b611926565b61021c6103b53660046126b4565b611bb1565b61021c611bda565b6103d56103d03660046126b4565b611be0565b60405161020b919061283f565b61021c6103f03660046126ce565b611d48565b610267611d65565b61021c61040b3660046126b4565b612004565b61026761041e3660046126b4565b61203d565b6102846104313660046126b4565b6120fe565b6001600160a01b0381166000908152600c60205260408120600281015482919015610565576001600160a01b0384166000908152600d6020526040812054815b81811015610520576001600160a01b0387166000908152600d602052604081208054839081106104a257fe5b906000526020600020906002020160000154905080600014156104c55750610518565b6001600160a01b0388166000908152600d602052604090208054429190849081106104ec57fe5b906000526020600020906002020160010154111561050a5750610520565b6105148482612113565b9350505b600101610476565b5061056064e8d4a5100061055a600a610554606461055a64e8d4a510006105548a8c6002015461213890919063ffffffff16565b90612160565b9061219a565b935050505b61058a826105848360020154846001015461211390919063ffffffff16565b90612138565b925050915091565b6277f88081565b6001600160a01b0381166000908152600d602052604081208190819060609082805b82548110156106ff57428382815481106105d157fe5b90600052602060002090600202016001015411156106cd578161064757825481900367ffffffffffffffff8111801561060957600080fd5b5060405190808252806020026020018201604052801561064357816020015b610630612629565b8152602001906001900390816106285790505b5093505b82818154811061065357fe5b90600052602060002090600202016040518060400160405290816000820154815260200160018201548152505084838151811061068c57fe5b602002602001018190525081806001019250506106c68382815481106106ae57fe5b60009182526020909120600290910201548690612113565b94506106f7565b6106f48382815481106106dc57fe5b60009182526020909120600290910201548790612113565b95505b6001016105bb565b5050506001600160a01b0385166000908152600c602052604090206002015493509193509193565b600a5481565b600260005414156107595760405162461bcd60e51b815260040161075090612c5a565b60405180910390fd5b60026000908155600354600b5433926001600160a01b03909216919061077f83826121cc565b6001600160a01b0384166000908152600560205260409020600301556107a4836110e8565b6001600160a01b03808516600090815260056020526040902060020191909155841615610850576001600160a01b0384166000908152600c60205260409020600201546107f5908590859084612261565b6001600160a01b0380861660008181526009602090815260408083209489168084529482528083209590955560058152848220600301548383526008825285832094835293815284822093909355908152600c909152205491505b50600a5460015b60045481101561093c576004818154811061086e57fe5b6000918252602090912001546001600160a01b0316935061088f84836121cc565b6001600160a01b0385166000908152600560205260409020600301556108b4846110e8565b6001600160a01b03808616600090815260056020526040902060020191909155851615610934576108e785858585612261565b6001600160a01b038087166000818152600960209081526040808320948a168084529482528083209590955560058152848220600301549282526008815284822093825292909252919020555b600101610857565b506000851161095d5760405162461bcd60e51b815260040161075090612a93565b336000908152600c60205260408120600181015490919087116109935760018201546109899088612138565b6001830155610b78565b60006109ac83600101548961213890919063ffffffff16565b905080836002015410156109d25760405162461bcd60e51b815260040161075090612b6b565b6000600184015560028301546109e89082612138565b600284015560005b336000908152600d60205260408120805483908110610a0b57fe5b90600052602060002090600202016000015490508060001415610a2e5750610b6d565b83158015610a695750336000908152600d60205260409020805442919084908110610a5557fe5b906000526020600020906002020160010154115b15610aeb578293508285600201541015610a955760405162461bcd60e51b81526004016107509061297a565b6002850154610aa49084612138565b60028601819055610acd57336000908152600d60205260408120610ac791612643565b50610b75565b610ae864e8d4a5100061055a600a6105546064838986612160565b92505b808311610b2e57610afc8184612138565b336000908152600d60205260409020805484908110610b1757fe5b600091825260209091206002909102015550610b75565b336000908152600d60205260409020805483908110610b4957fe5b60009182526020822060029091020181815560010155610b698382612138565b9250505b6001016109f0565b50505b6000610b848883612113565b8354909150610b939082612138565b8355600a54610ba29082612138565b600a55600354610bbc906001600160a01b0316338a6122d3565b8115610bd857600354610bd8906001600160a01b03168361232e565b336001600160a01b03167f7084f5476618d8e60b11ef0d7d3f06914655adb8793e28ff7f018d4c76d505d589604051610c119190612c91565b60405180910390a250506001600055505050505050565b62093a8081565b600760209081526000928352604080842090915290825290205460ff1681565b60026000541415610c725760405162461bcd60e51b815260040161075090612c5a565b60026000908155600354600b5433926001600160a01b039092169190610c9883826121cc565b6001600160a01b038416600090815260056020526040902060030155610cbd836110e8565b6001600160a01b03808516600090815260056020526040902060020191909155841615610d69576001600160a01b0384166000908152600c6020526040902060020154610d0e908590859084612261565b6001600160a01b0380861660008181526009602090815260408083209489168084529482528083209590955560058152848220600301548383526008825285832094835293815284822093909355908152600c909152205491505b50600a5460015b600454811015610e555760048181548110610d8757fe5b6000918252602090912001546001600160a01b03169350610da884836121cc565b6001600160a01b038516600090815260056020526040902060030155610dcd846110e8565b6001600160a01b03808616600090815260056020526040902060020191909155851615610e4d57610e0085858585612261565b6001600160a01b038087166000818152600960209081526040808320948a168084529482528083209590955560058152848220600301549282526008815284822093825292909252919020555b600101610d70565b5060005b600454811015610f3157600060048281548110610e7257fe5b60009182526020808320909101543383526009825260408084206001600160a01b03909216808552919092529120549091508015610f27573360008181526009602090815260408083206001600160a01b0387168085529252822091909155610edb91836122d3565b816001600160a01b0316336001600160a01b03167f540798df468d7b23d11f156fdb954cb19ad414d150722a7b6d55ba369dea792e83604051610f1e9190612c91565b60405180910390a35b5050600101610e59565b50506001600055505050565b610f45612449565b6001600160a01b0316610f566113a9565b6001600160a01b031614610f7c5760405162461bcd60e51b815260040161075090612aff565b6001600160a01b03821660009081526005602052604090206002015415610fa257600080fd5b6004805460018082019092557f8a35acfbc15ff81a39ae7d344fd709f28e8600b4aa8c65c6b64bfe7fe36bd19b0180546001600160a01b0319166001600160a01b039485169081179091556000908152600560209081526040808320426002820181905590556007825280832094909516825292909252919020805460ff19169091179055565b60056020526000908152604090208054600182015460028301546003909301549192909184565b6001600160a01b0381166000908152600c6020908152604080832060010154338452600d909252822090915b81548110156110e0574282828154811061109257fe5b90600052602060002090600202016001015411156110af576110e0565b6110d68282815481106110be57fe5b60009182526020909120600290910201548490612113565b925060010161107c565b50505b919050565b6001600160a01b03811660009081526005602052604081205461110c90429061244d565b92915050565b61111a612449565b6001600160a01b031661112b6113a9565b6001600160a01b0316146111515760405162461bcd60e51b815260040161075090612aff565b6001600160a01b03831660009081526005602052604090206002015461117657600080fd5b6001600160a01b03928316600090815260076020908152604080832094909516825292909252919020805460ff1916911515919091179055565b6001600160a01b03166000908152600c602052604090205490565b600860209081526000928352604080842090915290825290205481565b6111f0612449565b6001600160a01b03166112016113a9565b6001600160a01b0316146112275760405162461bcd60e51b815260040161075090612aff565b6001546040516000916001600160a01b0316907f8be0079c531659141344cd1fd0a4f28419497f9722a3daafe3b4186f6b6457e0908390a3600180546001600160a01b0319169055565b6003546001600160a01b031681565b6004818154811061129057600080fd5b6000918252602090912001546001600160a01b0316905081565b6112b2612449565b6001600160a01b03166112c36113a9565b6001600160a01b0316146112e95760405162461bcd60e51b815260040161075090612aff565b6003546001600160a01b03838116911614156113175760405162461bcd60e51b815260040161075090612b34565b6001600160a01b038216600090815260056020526040902060020154156113505760405162461bcd60e51b815260040161075090612c23565b61136c61135b6113a9565b6001600160a01b03841690836122d3565b7f8c1256b8896378cd5044f80c202f9772b9d77dc85c8a6eb51967210b09bfaa28828260405161139d929190612826565b60405180910390a15050565b6001546001600160a01b031690565b336000908152600d60209081526040808320600c9092528220815491929091428460001983018381106113e757fe5b90600052602060002090600202016001015411611424576002830154336000908152600d6020526040812091935061141f9190612643565b611499565b60005b81811015611497574285828154811061143c57fe5b906000526020600020906002020160010154111561145957611497565b6114688582815481106110be57fe5b925084818154811061147657fe5b60009182526020822060029091020181815560019081019190915501611427565b505b60028301546114a89083612138565b600284015582546114b99083612138565b8355600a546114c89083612138565b600a55600b546114d89083612138565b600b556003546114f2906001600160a01b031633846122d3565b50505050565b6002600054141561151b5760405162461bcd60e51b815260040161075090612c5a565b60026000908155600354600b5433926001600160a01b03909216919061154183826121cc565b6001600160a01b038416600090815260056020526040902060030155611566836110e8565b6001600160a01b03808516600090815260056020526040902060020191909155841615611612576001600160a01b0384166000908152600c60205260409020600201546115b7908590859084612261565b6001600160a01b0380861660008181526009602090815260408083209489168084529482528083209590955560058152848220600301548383526008825285832094835293815284822093909355908152600c909152205491505b50600a5460015b6004548110156116fe576004818154811061163057fe5b6000918252602090912001546001600160a01b0316935061165184836121cc565b6001600160a01b038516600090815260056020526040902060030155611676846110e8565b6001600160a01b038086166000908152600560205260409020600201919091558516156116f6576116a985858585612261565b6001600160a01b038087166000818152600960209081526040808320948a168084529482528083209590955560058152848220600301549282526008815284822093825292909252919020555b600101611619565b506000861161171f5760405162461bcd60e51b81526004016107509061291b565b600a5461172c9087612113565b600a55336000908152600c60205260409020805461174a9088612113565b815585156118aa57600b5461175f9088612113565b600b5560028101546117719088612113565b600282015560006117966277f88061179062093a80610554428261219a565b90612113565b336000908152600d60205260409020549091508015806117e75750336000908152600d60205260409020805483919060001984019081106117d357fe5b906000526020600020906002020160010154105b1561183657336000908152600d6020908152604080832081518083019092528c8252818301868152815460018181018455928652939094209151600290930290910191825591519101556118a3565b336000908152600d602052604090208054611872918b91600019850190811061185b57fe5b600091825260209091206002909102015490612113565b336000908152600d602052604090208054600019840190811061189157fe5b60009182526020909120600290910201555b50506118bf565b60018101546118b99088612113565b60018201555b6003546118d7906001600160a01b031633308a612463565b336001600160a01b03167f9e71bc8eea02a63969f509818f2dafb9254532904319f9dbda79b67bd34a5f3d886040516119109190612c91565b60405180910390a2505060016000555050505050565b600354600b546000916001600160a01b031690829061194583826121cc565b6001600160a01b03841660009081526005602052604090206003015561196a836110e8565b6001600160a01b03808516600090815260056020526040902060020191909155841615611a16576001600160a01b0384166000908152600c60205260409020600201546119bb908590859084612261565b6001600160a01b0380861660008181526009602090815260408083209489168084529482528083209590955560058152848220600301548383526008825285832094835293815284822093909355908152600c909152205491505b50600a5460015b600454811015611b025760048181548110611a3457fe5b6000918252602090912001546001600160a01b03169350611a5584836121cc565b6001600160a01b038516600090815260056020526040902060030155611a7a846110e8565b6001600160a01b03808616600090815260056020526040902060020191909155851615611afa57611aad85858585612261565b6001600160a01b038087166000818152600960209081526040808320948a168084529482528083209590955560058152848220600301549282526008815284822093825292909252919020555b600101611a1d565b506001600160a01b038616600090815260076020908152604080832033845290915290205460ff16611b3357600080fd5b60008511611b535760405162461bcd60e51b815260040161075090612a70565b611b686001600160a01b038716333088612463565b611b72868661232e565b7fde88a922e0d3b88b24e9623efeb464919c6bf9f66857a65e2bfcf2ce87a9433d85604051611ba19190612c91565b60405180910390a1505050505050565b6001600160a01b03811660009081526005602052604081206001015461110c9062093a80612160565b600b5481565b60045460609067ffffffffffffffff81118015611bfc57600080fd5b50604051908082528060200260200182016040528015611c3657816020015b611c23612667565b815260200190600190039081611c1b5790505b50905060005b8151811015611d425760008115611c6b576001600160a01b0384166000908152600c6020526040902054611c88565b6001600160a01b0384166000908152600c60205260409020600201545b905060008215611c9a57600a54611c9e565b600b545b905060048381548110611cad57fe5b9060005260206000200160009054906101000a90046001600160a01b0316848481518110611cd757fe5b6020026020010151600001906001600160a01b031690816001600160a01b031681525050611d1e85858581518110611d0b57fe5b6020026020010151600001518484612261565b848481518110611d2a57fe5b60209081029190910181015101525050600101611c3c565b50919050565b600960209081526000928352604080842090915290825290205481565b600354600b5433916001600160a01b031690600090611d8483826121cc565b6001600160a01b038416600090815260056020526040902060030155611da9836110e8565b6001600160a01b03808516600090815260056020526040902060020191909155841615611e55576001600160a01b0384166000908152600c6020526040902060020154611dfa908590859084612261565b6001600160a01b0380861660008181526009602090815260408083209489168084529482528083209590955560058152848220600301548383526008825285832094835293815284822093909355908152600c909152205491505b50600a5460015b600454811015611f415760048181548110611e7357fe5b6000918252602090912001546001600160a01b03169350611e9484836121cc565b6001600160a01b038516600090815260056020526040902060030155611eb9846110e8565b6001600160a01b03808616600090815260056020526040902060020191909155851615611f3957611eec85858585612261565b6001600160a01b038087166000818152600960209081526040808320948a168084529482528083209590955560058152848220600301549282526008815284822093825292909252919020555b600101611e5c565b50600080611f4e33610436565b336000908152600d60205260408120929450909250611f6d9190612643565b336000908152600c60205260409020600281015460018201548254611f9792916105849190612138565b81556000600182018190556002820155611fbd611fb48484612113565b600a5490612138565b600a55600354611fd7906001600160a01b031633856122d3565b8115611ff357600354611ff3906001600160a01b03168361232e565b611ffb610c4f565b50505050505050565b60035460009081906001600160a01b0384811691161461202657600a5461202a565b600b545b905061203683826121cc565b9392505050565b612045612449565b6001600160a01b03166120566113a9565b6001600160a01b03161461207c5760405162461bcd60e51b815260040161075090612aff565b6001600160a01b0381166120a25760405162461bcd60e51b8152600401610750906128d5565b6001546040516001600160a01b038084169216907f8be0079c531659141344cd1fd0a4f28419497f9722a3daafe3b4186f6b6457e090600090a3600180546001600160a01b0319166001600160a01b0392909216919091179055565b60066020526000908152604090205460ff1681565b6000828201838110156120365760405162461bcd60e51b815260040161075090612943565b60008282111561215a5760405162461bcd60e51b8152600401610750906129bc565b50900390565b60008261216f5750600061110c565b8282028284828161217c57fe5b04146120365760405162461bcd60e51b815260040161075090612abe565b60008082116121bb5760405162461bcd60e51b815260040161075090612a39565b8183816121c457fe5b049392505050565b6000816121f557506001600160a01b03821660009081526005602052604090206003015461110c565b6001600160a01b038316600090815260056020526040902060018101546002909101546120369161223f91859161055a91670de0b6b3a7640000916105549182906105848c6110e8565b6001600160a01b03851660009081526005602052604090206003015490612113565b6001600160a01b0380851660008181526009602090815260408083209488168084529482528083205493835260088252808320948352939052918220546122ca919061179090670de0b6b3a76400009061055a906122c3906105848b8a6121cc565b8890612160565b95945050505050565b6123298363a9059cbb60e01b84846040516024016122f2929190612826565b60408051601f198184030181529190526020810180516001600160e01b03166001600160e01b031990931692909217909152612484565b505050565b6001600160a01b038216600090815260056020526040902054421061237b5761235a8162093a8061219a565b6001600160a01b0383166000908152600560205260409020600101556123fb565b6001600160a01b03821660009081526005602052604081205461239e9042612138565b6001600160a01b038416600090815260056020526040812060010154919250906123c9908390612160565b90506123dc62093a8061055a8584612113565b6001600160a01b03851660009081526005602052604090206001015550505b6001600160a01b03821660009081526005602052604090204260029091018190556124299062093a80612113565b6001600160a01b0390921660009081526005602052604090209190915550565b3390565b600081831061245c5781612036565b5090919050565b6114f2846323b872dd60e01b8585856040516024016122f293929190612802565b60006124d9826040518060400160405280602081526020017f5361666545524332303a206c6f772d6c6576656c2063616c6c206661696c6564815250856001600160a01b03166125139092919063ffffffff16565b80519091501561232957808060200190518101906124f7919061276f565b6123295760405162461bcd60e51b815260040161075090612bd9565b6060612522848460008561252a565b949350505050565b60608247101561254c5760405162461bcd60e51b8152600401610750906129f3565b612555856125ea565b6125715760405162461bcd60e51b815260040161075090612ba2565b600080866001600160a01b0316858760405161258d91906127d2565b60006040518083038185875af1925050503d80600081146125ca576040519150601f19603f3d011682016040523d82523d6000602084013e6125cf565b606091505b50915091506125df8282866125f0565b979650505050505050565b3b151590565b606083156125ff575081612036565b82511561260f5782518084602001fd5b8160405162461bcd60e51b815260040161075091906128a2565b604051806040016040528060008152602001600081525090565b5080546000825560020290600052602060002090810190612664919061267e565b50565b604080518082019091526000808252602082015290565b5b80821115612699576000808255600182015560020161267f565b5090565b80356001600160a01b03811681146110e357600080fd5b6000602082840312156126c5578081fd5b6120368261269d565b600080604083850312156126e0578081fd5b6126e98361269d565b91506126f76020840161269d565b90509250929050565b600080600060608486031215612714578081fd5b61271d8461269d565b925061272b6020850161269d565b9150604084013561273b81612d55565b809150509250925092565b60008060408385031215612758578182fd5b6127618361269d565b946020939093013593505050565b600060208284031215612780578081fd5b815161203681612d55565b60006020828403121561279c578081fd5b5035919050565b600080604083850312156127b5578182fd5b8235915060208301356127c781612d55565b809150509250929050565b600082516127e4818460208701612d29565b9190910192915050565b6001600160a01b0391909116815260200190565b6001600160a01b039384168152919092166020820152604081019190915260600190565b6001600160a01b03929092168252602082015260400190565b602080825282518282018190526000919060409081850190868401855b8281101561288a57815180516001600160a01b0316855286015186850152928401929085019060010161285c565b5091979650505050505050565b901515815260200190565b60006020825282518060208401526128c1816040850160208701612d29565b601f01601f19169190910160400192915050565b60208082526026908201527f4f776e61626c653a206e6577206f776e657220697320746865207a65726f206160408201526564647265737360d01b606082015260800190565b6020808252600e908201526d043616e6e6f74207374616b6520360941b604082015260600190565b6020808252601b908201527f536166654d6174683a206164646974696f6e206f766572666c6f770000000000604082015260600190565b60208082526022908201527f496e73756666696369656e742062616c616e63652061667465722070656e616c604082015261747960f01b606082015260800190565b6020808252601e908201527f536166654d6174683a207375627472616374696f6e206f766572666c6f770000604082015260600190565b60208082526026908201527f416464726573733a20696e73756666696369656e742062616c616e636520666f6040820152651c8818d85b1b60d21b606082015260800190565b6020808252601a908201527f536166654d6174683a206469766973696f6e206279207a65726f000000000000604082015260600190565b602080825260099082015268139bc81c995dd85c9960ba1b604082015260600190565b602080825260119082015270043616e6e6f74207769746864726177203607c1b604082015260600190565b60208082526021908201527f536166654d6174683a206d756c7469706c69636174696f6e206f766572666c6f6040820152607760f81b606082015260800190565b6020808252818101527f4f776e61626c653a2063616c6c6572206973206e6f7420746865206f776e6572604082015260600190565b6020808252601d908201527f43616e6e6f74207769746864726177207374616b696e6720746f6b656e000000604082015260600190565b6020808252601d908201527f496e73756666696369656e7420756e6c6f636b65642062616c616e6365000000604082015260600190565b6020808252601d908201527f416464726573733a2063616c6c20746f206e6f6e2d636f6e7472616374000000604082015260600190565b6020808252602a908201527f5361666545524332303a204552433230206f7065726174696f6e20646964206e6040820152691bdd081cdd58d8d9595960b21b606082015260800190565b6020808252601c908201527f43616e6e6f742077697468647261772072657761726420746f6b656e00000000604082015260600190565b6020808252601f908201527f5265656e7472616e637947756172643a207265656e7472616e742063616c6c00604082015260600190565b90815260200190565b918252602082015260400190565b60006080820186835260208681850152604086818601526080606086015282865180855260a0870191508388019450855b81811015612cfe57855180518452850151858401529484019491830191600101612cd9565b50909a9950505050505050505050565b93845260208401929092526040830152606082015260800190565b60005b83811015612d44578181015183820152602001612d2c565b838111156114f25750506000910152565b801515811461266457600080fdfea26469706673582212208aa63b7a65e30c57414e0775eecadfa55c2a7126ed460b16decd3ef19211171a64736f6c63430007060033",
			"opcodes": "PUSH1 0x80 PUSH1 0x40 MSTORE CALLVALUE DUP1 ISZERO PUSH3 0x11 JUMPI PUSH1 0x0 DUP1 REVERT JUMPDEST POP PUSH1 0x40 MLOAD PUSH3 0x2EE2 CODESIZE SUB DUP1 PUSH3 0x2EE2 DUP4 CODECOPY DUP2 ADD PUSH1 0x40 DUP2 SWAP1 MSTORE PUSH3 0x34 SWAP2 PUSH3 0x109 JUMP JUMPDEST PUSH1 0x1 PUSH1 0x0 SWAP1 DUP2 SSTORE PUSH3 0x45 PUSH3 0x105 JUMP JUMPDEST PUSH1 0x1 DUP1 SLOAD PUSH1 0x1 PUSH1 0x1 PUSH1 0xA0 SHL SUB NOT AND PUSH1 0x1 PUSH1 0x1 PUSH1 0xA0 SHL SUB DUP4 AND SWAP1 DUP2 OR SWAP1 SWAP2 SSTORE PUSH1 0x40 MLOAD SWAP2 SWAP3 POP SWAP1 PUSH1 0x0 SWAP1 PUSH32 0x8BE0079C531659141344CD1FD0A4F28419497F9722A3DAAFE3B4186F6B6457E0 SWAP1 DUP3 SWAP1 LOG3 POP PUSH1 0x3 DUP1 SLOAD PUSH1 0x1 PUSH1 0x1 PUSH1 0xA0 SHL SUB SWAP1 SWAP3 AND PUSH1 0x1 PUSH1 0x1 PUSH1 0xA0 SHL SUB NOT SWAP3 DUP4 AND DUP2 OR SWAP1 SWAP2 SSTORE PUSH1 0x4 DUP1 SLOAD PUSH1 0x1 DUP2 ADD SWAP1 SWAP2 SSTORE PUSH32 0x8A35ACFBC15FF81A39AE7D344FD709F28E8600B4AA8C65C6B64BFE7FE36BD19B ADD DUP1 SLOAD SWAP1 SWAP3 AND DUP2 OR SWAP1 SWAP2 SSTORE PUSH1 0x0 SWAP1 DUP2 MSTORE PUSH1 0x5 PUSH1 0x20 MSTORE PUSH1 0x40 SWAP1 KECCAK256 TIMESTAMP PUSH1 0x2 SWAP1 SWAP2 ADD SSTORE PUSH3 0x139 JUMP JUMPDEST CALLER SWAP1 JUMP JUMPDEST PUSH1 0x0 PUSH1 0x20 DUP3 DUP5 SUB SLT ISZERO PUSH3 0x11B JUMPI DUP1 DUP2 REVERT JUMPDEST DUP2 MLOAD PUSH1 0x1 PUSH1 0x1 PUSH1 0xA0 SHL SUB DUP2 AND DUP2 EQ PUSH3 0x132 JUMPI DUP2 DUP3 REVERT JUMPDEST SWAP4 SWAP3 POP POP POP JUMP JUMPDEST PUSH2 0x2D99 DUP1 PUSH3 0x149 PUSH1 0x0 CODECOPY PUSH1 0x0 RETURN INVALID PUSH1 0x80 PUSH1 0x40 MSTORE CALLVALUE DUP1 ISZERO PUSH2 0x10 JUMPI PUSH1 0x0 DUP1 REVERT JUMPDEST POP PUSH1 0x4 CALLDATASIZE LT PUSH2 0x1E5 JUMPI PUSH1 0x0 CALLDATALOAD PUSH1 0xE0 SHR DUP1 PUSH4 0x715018A6 GT PUSH2 0x10F JUMPI DUP1 PUSH4 0xBCD11014 GT PUSH2 0xA2 JUMPI DUP1 PUSH4 0xE9FAD8EE GT PUSH2 0x71 JUMPI DUP1 PUSH4 0xE9FAD8EE EQ PUSH2 0x3F5 JUMPI DUP1 PUSH4 0xF1229777 EQ PUSH2 0x3FD JUMPI DUP1 PUSH4 0xF2FDE38B EQ PUSH2 0x410 JUMPI DUP1 PUSH4 0xF46ECCC4 EQ PUSH2 0x423 JUMPI PUSH2 0x1E5 JUMP JUMPDEST DUP1 PUSH4 0xBCD11014 EQ PUSH2 0x3A7 JUMPI DUP1 PUSH4 0xCA5C7B91 EQ PUSH2 0x3BA JUMPI DUP1 PUSH4 0xDC01F60D EQ PUSH2 0x3C2 JUMPI DUP1 PUSH4 0xE70B9E27 EQ PUSH2 0x3E2 JUMPI PUSH2 0x1E5 JUMP JUMPDEST DUP1 PUSH4 0x8DA5CB5B GT PUSH2 0xDE JUMPI DUP1 PUSH4 0x8DA5CB5B EQ PUSH2 0x371 JUMPI DUP1 PUSH4 0xA01C77BC EQ PUSH2 0x379 JUMPI DUP1 PUSH4 0xABE50F19 EQ PUSH2 0x381 JUMPI DUP1 PUSH4 0xB66503CF EQ PUSH2 0x394 JUMPI PUSH2 0x1E5 JUMP JUMPDEST DUP1 PUSH4 0x715018A6 EQ PUSH2 0x32E JUMPI DUP1 PUSH4 0x72F702F3 EQ PUSH2 0x336 JUMPI DUP1 PUSH4 0x7BB7BED1 EQ PUSH2 0x34B JUMPI DUP1 PUSH4 0x8980F11F EQ PUSH2 0x35E JUMPI PUSH2 0x1E5 JUMP JUMPDEST DUP1 PUSH4 0x3D18B912 GT PUSH2 0x187 JUMPI DUP1 PUSH4 0x638634EE GT PUSH2 0x156 JUMPI DUP1 PUSH4 0x638634EE EQ PUSH2 0x2E2 JUMPI DUP1 PUSH4 0x6724C910 EQ PUSH2 0x2F5 JUMPI DUP1 PUSH4 0x6EACD398 EQ PUSH2 0x308 JUMPI DUP1 PUSH4 0x7035AB98 EQ PUSH2 0x31B JUMPI PUSH2 0x1E5 JUMP JUMPDEST DUP1 PUSH4 0x3D18B912 EQ PUSH2 0x291 JUMPI DUP1 PUSH4 0x40B47E1A EQ PUSH2 0x299 JUMPI DUP1 PUSH4 0x48E5D9F8 EQ PUSH2 0x2AC JUMPI DUP1 PUSH4 0x5E0FAC2E EQ PUSH2 0x2CF JUMPI PUSH2 0x1E5 JUMP JUMPDEST DUP1 PUSH4 0x18160DDD GT PUSH2 0x1C3 JUMPI DUP1 PUSH4 0x18160DDD EQ PUSH2 0x24C JUMPI DUP1 PUSH4 0x2E1A7D4D EQ PUSH2 0x254 JUMPI DUP1 PUSH4 0x386A9525 EQ PUSH2 0x269 JUMPI DUP1 PUSH4 0x39FC9713 EQ PUSH2 0x271 JUMPI PUSH2 0x1E5 JUMP JUMPDEST DUP1 PUSH4 0x2B62938 EQ PUSH2 0x1EA JUMPI DUP1 PUSH4 0x4554443 EQ PUSH2 0x214 JUMPI DUP1 PUSH4 0x483A7F6 EQ PUSH2 0x229 JUMPI JUMPDEST PUSH1 0x0 DUP1 REVERT JUMPDEST PUSH2 0x1FD PUSH2 0x1F8 CALLDATASIZE PUSH1 0x4 PUSH2 0x26B4 JUMP JUMPDEST PUSH2 0x436 JUMP JUMPDEST PUSH1 0x40 MLOAD PUSH2 0x20B SWAP3 SWAP2 SWAP1 PUSH2 0x2C9A JUMP JUMPDEST PUSH1 0x40 MLOAD DUP1 SWAP2 SUB SWAP1 RETURN JUMPDEST PUSH2 0x21C PUSH2 0x592 JUMP JUMPDEST PUSH1 0x40 MLOAD PUSH2 0x20B SWAP2 SWAP1 PUSH2 0x2C91 JUMP JUMPDEST PUSH2 0x23C PUSH2 0x237 CALLDATASIZE PUSH1 0x4 PUSH2 0x26B4 JUMP JUMPDEST PUSH2 0x599 JUMP JUMPDEST PUSH1 0x40 MLOAD PUSH2 0x20B SWAP5 SWAP4 SWAP3 SWAP2 SWAP1 PUSH2 0x2CA8 JUMP JUMPDEST PUSH2 0x21C PUSH2 0x727 JUMP JUMPDEST PUSH2 0x267 PUSH2 0x262 CALLDATASIZE PUSH1 0x4 PUSH2 0x278B JUMP JUMPDEST PUSH2 0x72D JUMP JUMPDEST STOP JUMPDEST PUSH2 0x21C PUSH2 0xC28 JUMP JUMPDEST PUSH2 0x284 PUSH2 0x27F CALLDATASIZE PUSH1 0x4 PUSH2 0x26CE JUMP JUMPDEST PUSH2 0xC2F JUMP JUMPDEST PUSH1 0x40 MLOAD PUSH2 0x20B SWAP2 SWAP1 PUSH2 0x2897 JUMP JUMPDEST PUSH2 0x267 PUSH2 0xC4F JUMP JUMPDEST PUSH2 0x267 PUSH2 0x2A7 CALLDATASIZE PUSH1 0x4 PUSH2 0x26CE JUMP JUMPDEST PUSH2 0xF3D JUMP JUMPDEST PUSH2 0x2BF PUSH2 0x2BA CALLDATASIZE PUSH1 0x4 PUSH2 0x26B4 JUMP JUMPDEST PUSH2 0x1029 JUMP JUMPDEST PUSH1 0x40 MLOAD PUSH2 0x20B SWAP5 SWAP4 SWAP3 SWAP2 SWAP1 PUSH2 0x2D0E JUMP JUMPDEST PUSH2 0x21C PUSH2 0x2DD CALLDATASIZE PUSH1 0x4 PUSH2 0x26B4 JUMP JUMPDEST PUSH2 0x1050 JUMP JUMPDEST PUSH2 0x21C PUSH2 0x2F0 CALLDATASIZE PUSH1 0x4 PUSH2 0x26B4 JUMP JUMPDEST PUSH2 0x10E8 JUMP JUMPDEST PUSH2 0x267 PUSH2 0x303 CALLDATASIZE PUSH1 0x4 PUSH2 0x2700 JUMP JUMPDEST PUSH2 0x1112 JUMP JUMPDEST PUSH2 0x21C PUSH2 0x316 CALLDATASIZE PUSH1 0x4 PUSH2 0x26B4 JUMP JUMPDEST PUSH2 0x11B0 JUMP JUMPDEST PUSH2 0x21C PUSH2 0x329 CALLDATASIZE PUSH1 0x4 PUSH2 0x26CE JUMP JUMPDEST PUSH2 0x11CB JUMP JUMPDEST PUSH2 0x267 PUSH2 0x11E8 JUMP JUMPDEST PUSH2 0x33E PUSH2 0x1271 JUMP JUMPDEST PUSH1 0x40 MLOAD PUSH2 0x20B SWAP2 SWAP1 PUSH2 0x27EE JUMP JUMPDEST PUSH2 0x33E PUSH2 0x359 CALLDATASIZE PUSH1 0x4 PUSH2 0x278B JUMP JUMPDEST PUSH2 0x1280 JUMP JUMPDEST PUSH2 0x267 PUSH2 0x36C CALLDATASIZE PUSH1 0x4 PUSH2 0x2746 JUMP JUMPDEST PUSH2 0x12AA JUMP JUMPDEST PUSH2 0x33E PUSH2 0x13A9 JUMP JUMPDEST PUSH2 0x267 PUSH2 0x13B8 JUMP JUMPDEST PUSH2 0x267 PUSH2 0x38F CALLDATASIZE PUSH1 0x4 PUSH2 0x27A3 JUMP JUMPDEST PUSH2 0x14F8 JUMP JUMPDEST PUSH2 0x267 PUSH2 0x3A2 CALLDATASIZE PUSH1 0x4 PUSH2 0x2746 JUMP JUMPDEST PUSH2 0x1926 JUMP JUMPDEST PUSH2 0x21C PUSH2 0x3B5 CALLDATASIZE PUSH1 0x4 PUSH2 0x26B4 JUMP JUMPDEST PUSH2 0x1BB1 JUMP JUMPDEST PUSH2 0x21C PUSH2 0x1BDA JUMP JUMPDEST PUSH2 0x3D5 PUSH2 0x3D0 CALLDATASIZE PUSH1 0x4 PUSH2 0x26B4 JUMP JUMPDEST PUSH2 0x1BE0 JUMP JUMPDEST PUSH1 0x40 MLOAD PUSH2 0x20B SWAP2 SWAP1 PUSH2 0x283F JUMP JUMPDEST PUSH2 0x21C PUSH2 0x3F0 CALLDATASIZE PUSH1 0x4 PUSH2 0x26CE JUMP JUMPDEST PUSH2 0x1D48 JUMP JUMPDEST PUSH2 0x267 PUSH2 0x1D65 JUMP JUMPDEST PUSH2 0x21C PUSH2 0x40B CALLDATASIZE PUSH1 0x4 PUSH2 0x26B4 JUMP JUMPDEST PUSH2 0x2004 JUMP JUMPDEST PUSH2 0x267 PUSH2 0x41E CALLDATASIZE PUSH1 0x4 PUSH2 0x26B4 JUMP JUMPDEST PUSH2 0x203D JUMP JUMPDEST PUSH2 0x284 PUSH2 0x431 CALLDATASIZE PUSH1 0x4 PUSH2 0x26B4 JUMP JUMPDEST PUSH2 0x20FE JUMP JUMPDEST PUSH1 0x1 PUSH1 0x1 PUSH1 0xA0 SHL SUB DUP2 AND PUSH1 0x0 SWAP1 DUP2 MSTORE PUSH1 0xC PUSH1 0x20 MSTORE PUSH1 0x40 DUP2 KECCAK256 PUSH1 0x2 DUP2 ADD SLOAD DUP3 SWAP2 SWAP1 ISZERO PUSH2 0x565 JUMPI PUSH1 0x1 PUSH1 0x1 PUSH1 0xA0 SHL SUB DUP5 AND PUSH1 0x0 SWAP1 DUP2 MSTORE PUSH1 0xD PUSH1 0x20 MSTORE PUSH1 0x40 DUP2 KECCAK256 SLOAD DUP2 JUMPDEST DUP2 DUP2 LT ISZERO PUSH2 0x520 JUMPI PUSH1 0x1 PUSH1 0x1 PUSH1 0xA0 SHL SUB DUP8 AND PUSH1 0x0 SWAP1 DUP2 MSTORE PUSH1 0xD PUSH1 0x20 MSTORE PUSH1 0x40 DUP2 KECCAK256 DUP1 SLOAD DUP4 SWAP1 DUP2 LT PUSH2 0x4A2 JUMPI INVALID JUMPDEST SWAP1 PUSH1 0x0 MSTORE PUSH1 0x20 PUSH1 0x0 KECCAK256 SWAP1 PUSH1 0x2 MUL ADD PUSH1 0x0 ADD SLOAD SWAP1 POP DUP1 PUSH1 0x0 EQ ISZERO PUSH2 0x4C5 JUMPI POP PUSH2 0x518 JUMP JUMPDEST PUSH1 0x1 PUSH1 0x1 PUSH1 0xA0 SHL SUB DUP9 AND PUSH1 0x0 SWAP1 DUP2 MSTORE PUSH1 0xD PUSH1 0x20 MSTORE PUSH1 0x40 SWAP1 KECCAK256 DUP1 SLOAD TIMESTAMP SWAP2 SWAP1 DUP5 SWAP1 DUP2 LT PUSH2 0x4EC JUMPI INVALID JUMPDEST SWAP1 PUSH1 0x0 MSTORE PUSH1 0x20 PUSH1 0x0 KECCAK256 SWAP1 PUSH1 0x2 MUL ADD PUSH1 0x1 ADD SLOAD GT ISZERO PUSH2 0x50A JUMPI POP PUSH2 0x520 JUMP JUMPDEST PUSH2 0x514 DUP5 DUP3 PUSH2 0x2113 JUMP JUMPDEST SWAP4 POP POP JUMPDEST PUSH1 0x1 ADD PUSH2 0x476 JUMP JUMPDEST POP PUSH2 0x560 PUSH5 0xE8D4A51000 PUSH2 0x55A PUSH1 0xA PUSH2 0x554 PUSH1 0x64 PUSH2 0x55A PUSH5 0xE8D4A51000 PUSH2 0x554 DUP11 DUP13 PUSH1 0x2 ADD SLOAD PUSH2 0x2138 SWAP1 SWAP2 SWAP1 PUSH4 0xFFFFFFFF AND JUMP JUMPDEST SWAP1 PUSH2 0x2160 JUMP JUMPDEST SWAP1 PUSH2 0x219A JUMP JUMPDEST SWAP4 POP POP POP JUMPDEST PUSH2 0x58A DUP3 PUSH2 0x584 DUP4 PUSH1 0x2 ADD SLOAD DUP5 PUSH1 0x1 ADD SLOAD PUSH2 0x2113 SWAP1 SWAP2 SWAP1 PUSH4 0xFFFFFFFF AND JUMP JUMPDEST SWAP1 PUSH2 0x2138 JUMP JUMPDEST SWAP3 POP POP SWAP2 POP SWAP2 JUMP JUMPDEST PUSH3 0x77F880 DUP2 JUMP JUMPDEST PUSH1 0x1 PUSH1 0x1 PUSH1 0xA0 SHL SUB DUP2 AND PUSH1 0x0 SWAP1 DUP2 MSTORE PUSH1 0xD PUSH1 0x20 MSTORE PUSH1 0x40 DUP2 KECCAK256 DUP2 SWAP1 DUP2 SWAP1 PUSH1 0x60 SWAP1 DUP3 DUP1 JUMPDEST DUP3 SLOAD DUP2 LT ISZERO PUSH2 0x6FF JUMPI TIMESTAMP DUP4 DUP3 DUP2 SLOAD DUP2 LT PUSH2 0x5D1 JUMPI INVALID JUMPDEST SWAP1 PUSH1 0x0 MSTORE PUSH1 0x20 PUSH1 0x0 KECCAK256 SWAP1 PUSH1 0x2 MUL ADD PUSH1 0x1 ADD SLOAD GT ISZERO PUSH2 0x6CD JUMPI DUP2 PUSH2 0x647 JUMPI DUP3 SLOAD DUP2 SWAP1 SUB PUSH8 0xFFFFFFFFFFFFFFFF DUP2 GT DUP1 ISZERO PUSH2 0x609 JUMPI PUSH1 0x0 DUP1 REVERT JUMPDEST POP PUSH1 0x40 MLOAD SWAP1 DUP1 DUP3 MSTORE DUP1 PUSH1 0x20 MUL PUSH1 0x20 ADD DUP3 ADD PUSH1 0x40 MSTORE DUP1 ISZERO PUSH2 0x643 JUMPI DUP2 PUSH1 0x20 ADD JUMPDEST PUSH2 0x630 PUSH2 0x2629 JUMP JUMPDEST DUP2 MSTORE PUSH1 0x20 ADD SWAP1 PUSH1 0x1 SWAP1 SUB SWAP1 DUP2 PUSH2 0x628 JUMPI SWAP1 POP JUMPDEST POP SWAP4 POP JUMPDEST DUP3 DUP2 DUP2 SLOAD DUP2 LT PUSH2 0x653 JUMPI INVALID JUMPDEST SWAP1 PUSH1 0x0 MSTORE PUSH1 0x20 PUSH1 0x0 KECCAK256 SWAP1 PUSH1 0x2 MUL ADD PUSH1 0x40 MLOAD DUP1 PUSH1 0x40 ADD PUSH1 0x40 MSTORE SWAP1 DUP2 PUSH1 0x0 DUP3 ADD SLOAD DUP2 MSTORE PUSH1 0x20 ADD PUSH1 0x1 DUP3 ADD SLOAD DUP2 MSTORE POP POP DUP5 DUP4 DUP2 MLOAD DUP2 LT PUSH2 0x68C JUMPI INVALID JUMPDEST PUSH1 0x20 MUL PUSH1 0x20 ADD ADD DUP2 SWAP1 MSTORE POP DUP2 DUP1 PUSH1 0x1 ADD SWAP3 POP POP PUSH2 0x6C6 DUP4 DUP3 DUP2 SLOAD DUP2 LT PUSH2 0x6AE JUMPI INVALID JUMPDEST PUSH1 0x0 SWAP2 DUP3 MSTORE PUSH1 0x20 SWAP1 SWAP2 KECCAK256 PUSH1 0x2 SWAP1 SWAP2 MUL ADD SLOAD DUP7 SWAP1 PUSH2 0x2113 JUMP JUMPDEST SWAP5 POP PUSH2 0x6F7 JUMP JUMPDEST PUSH2 0x6F4 DUP4 DUP3 DUP2 SLOAD DUP2 LT PUSH2 0x6DC JUMPI INVALID JUMPDEST PUSH1 0x0 SWAP2 DUP3 MSTORE PUSH1 0x20 SWAP1 SWAP2 KECCAK256 PUSH1 0x2 SWAP1 SWAP2 MUL ADD SLOAD DUP8 SWAP1 PUSH2 0x2113 JUMP JUMPDEST SWAP6 POP JUMPDEST PUSH1 0x1 ADD PUSH2 0x5BB JUMP JUMPDEST POP POP POP PUSH1 0x1 PUSH1 0x1 PUSH1 0xA0 SHL SUB DUP6 AND PUSH1 0x0 SWAP1 DUP2 MSTORE PUSH1 0xC PUSH1 0x20 MSTORE PUSH1 0x40 SWAP1 KECCAK256 PUSH1 0x2 ADD SLOAD SWAP4 POP SWAP2 SWAP4 POP SWAP2 SWAP4 JUMP JUMPDEST PUSH1 0xA SLOAD DUP2 JUMP JUMPDEST PUSH1 0x2 PUSH1 0x0 SLOAD EQ ISZERO PUSH2 0x759 JUMPI PUSH1 0x40 MLOAD PUSH3 0x461BCD PUSH1 0xE5 SHL DUP2 MSTORE PUSH1 0x4 ADD PUSH2 0x750 SWAP1 PUSH2 0x2C5A JUMP JUMPDEST PUSH1 0x40 MLOAD DUP1 SWAP2 SUB SWAP1 REVERT JUMPDEST PUSH1 0x2 PUSH1 0x0 SWAP1 DUP2 SSTORE PUSH1 0x3 SLOAD PUSH1 0xB SLOAD CALLER SWAP3 PUSH1 0x1 PUSH1 0x1 PUSH1 0xA0 SHL SUB SWAP1 SWAP3 AND SWAP2 SWAP1 PUSH2 0x77F DUP4 DUP3 PUSH2 0x21CC JUMP JUMPDEST PUSH1 0x1 PUSH1 0x1 PUSH1 0xA0 SHL SUB DUP5 AND PUSH1 0x0 SWAP1 DUP2 MSTORE PUSH1 0x5 PUSH1 0x20 MSTORE PUSH1 0x40 SWAP1 KECCAK256 PUSH1 0x3 ADD SSTORE PUSH2 0x7A4 DUP4 PUSH2 0x10E8 JUMP JUMPDEST PUSH1 0x1 PUSH1 0x1 PUSH1 0xA0 SHL SUB DUP1 DUP6 AND PUSH1 0x0 SWAP1 DUP2 MSTORE PUSH1 0x5 PUSH1 0x20 MSTORE PUSH1 0x40 SWAP1 KECCAK256 PUSH1 0x2 ADD SWAP2 SWAP1 SWAP2 SSTORE DUP5 AND ISZERO PUSH2 0x850 JUMPI PUSH1 0x1 PUSH1 0x1 PUSH1 0xA0 SHL SUB DUP5 AND PUSH1 0x0 SWAP1 DUP2 MSTORE PUSH1 0xC PUSH1 0x20 MSTORE PUSH1 0x40 SWAP1 KECCAK256 PUSH1 0x2 ADD SLOAD PUSH2 0x7F5 SWAP1 DUP6 SWAP1 DUP6 SWAP1 DUP5 PUSH2 0x2261 JUMP JUMPDEST PUSH1 0x1 PUSH1 0x1 PUSH1 0xA0 SHL SUB DUP1 DUP7 AND PUSH1 0x0 DUP2 DUP2 MSTORE PUSH1 0x9 PUSH1 0x20 SWAP1 DUP2 MSTORE PUSH1 0x40 DUP1 DUP4 KECCAK256 SWAP5 DUP10 AND DUP1 DUP5 MSTORE SWAP5 DUP3 MSTORE DUP1 DUP4 KECCAK256 SWAP6 SWAP1 SWAP6 SSTORE PUSH1 0x5 DUP2 MSTORE DUP5 DUP3 KECCAK256 PUSH1 0x3 ADD SLOAD DUP4 DUP4 MSTORE PUSH1 0x8 DUP3 MSTORE DUP6 DUP4 KECCAK256 SWAP5 DUP4 MSTORE SWAP4 DUP2 MSTORE DUP5 DUP3 KECCAK256 SWAP4 SWAP1 SWAP4 SSTORE SWAP1 DUP2 MSTORE PUSH1 0xC SWAP1 SWAP2 MSTORE KECCAK256 SLOAD SWAP2 POP JUMPDEST POP PUSH1 0xA SLOAD PUSH1 0x1 JUMPDEST PUSH1 0x4 SLOAD DUP2 LT ISZERO PUSH2 0x93C JUMPI PUSH1 0x4 DUP2 DUP2 SLOAD DUP2 LT PUSH2 0x86E JUMPI INVALID JUMPDEST PUSH1 0x0 SWAP2 DUP3 MSTORE PUSH1 0x20 SWAP1 SWAP2 KECCAK256 ADD SLOAD PUSH1 0x1 PUSH1 0x1 PUSH1 0xA0 SHL SUB AND SWAP4 POP PUSH2 0x88F DUP5 DUP4 PUSH2 0x21CC JUMP JUMPDEST PUSH1 0x1 PUSH1 0x1 PUSH1 0xA0 SHL SUB DUP6 AND PUSH1 0x0 SWAP1 DUP2 MSTORE PUSH1 0x5 PUSH1 0x20 MSTORE PUSH1 0x40 SWAP1 KECCAK256 PUSH1 0x3 ADD SSTORE PUSH2 0x8B4 DUP5 PUSH2 0x10E8 JUMP JUMPDEST PUSH1 0x1 PUSH1 0x1 PUSH1 0xA0 SHL SUB DUP1 DUP7 AND PUSH1 0x0 SWAP1 DUP2 MSTORE PUSH1 0x5 PUSH1 0x20 MSTORE PUSH1 0x40 SWAP1 KECCAK256 PUSH1 0x2 ADD SWAP2 SWAP1 SWAP2 SSTORE DUP6 AND ISZERO PUSH2 0x934 JUMPI PUSH2 0x8E7 DUP6 DUP6 DUP6 DUP6 PUSH2 0x2261 JUMP JUMPDEST PUSH1 0x1 PUSH1 0x1 PUSH1 0xA0 SHL SUB DUP1 DUP8 AND PUSH1 0x0 DUP2 DUP2 MSTORE PUSH1 0x9 PUSH1 0x20 SWAP1 DUP2 MSTORE PUSH1 0x40 DUP1 DUP4 KECCAK256 SWAP5 DUP11 AND DUP1 DUP5 MSTORE SWAP5 DUP3 MSTORE DUP1 DUP4 KECCAK256 SWAP6 SWAP1 SWAP6 SSTORE PUSH1 0x5 DUP2 MSTORE DUP5 DUP3 KECCAK256 PUSH1 0x3 ADD SLOAD SWAP3 DUP3 MSTORE PUSH1 0x8 DUP2 MSTORE DUP5 DUP3 KECCAK256 SWAP4 DUP3 MSTORE SWAP3 SWAP1 SWAP3 MSTORE SWAP2 SWAP1 KECCAK256 SSTORE JUMPDEST PUSH1 0x1 ADD PUSH2 0x857 JUMP JUMPDEST POP PUSH1 0x0 DUP6 GT PUSH2 0x95D JUMPI PUSH1 0x40 MLOAD PUSH3 0x461BCD PUSH1 0xE5 SHL DUP2 MSTORE PUSH1 0x4 ADD PUSH2 0x750 SWAP1 PUSH2 0x2A93 JUMP JUMPDEST CALLER PUSH1 0x0 SWAP1 DUP2 MSTORE PUSH1 0xC PUSH1 0x20 MSTORE PUSH1 0x40 DUP2 KECCAK256 PUSH1 0x1 DUP2 ADD SLOAD SWAP1 SWAP2 SWAP1 DUP8 GT PUSH2 0x993 JUMPI PUSH1 0x1 DUP3 ADD SLOAD PUSH2 0x989 SWAP1 DUP9 PUSH2 0x2138 JUMP JUMPDEST PUSH1 0x1 DUP4 ADD SSTORE PUSH2 0xB78 JUMP JUMPDEST PUSH1 0x0 PUSH2 0x9AC DUP4 PUSH1 0x1 ADD SLOAD DUP10 PUSH2 0x2138 SWAP1 SWAP2 SWAP1 PUSH4 0xFFFFFFFF AND JUMP JUMPDEST SWAP1 POP DUP1 DUP4 PUSH1 0x2 ADD SLOAD LT ISZERO PUSH2 0x9D2 JUMPI PUSH1 0x40 MLOAD PUSH3 0x461BCD PUSH1 0xE5 SHL DUP2 MSTORE PUSH1 0x4 ADD PUSH2 0x750 SWAP1 PUSH2 0x2B6B JUMP JUMPDEST PUSH1 0x0 PUSH1 0x1 DUP5 ADD SSTORE PUSH1 0x2 DUP4 ADD SLOAD PUSH2 0x9E8 SWAP1 DUP3 PUSH2 0x2138 JUMP JUMPDEST PUSH1 0x2 DUP5 ADD SSTORE PUSH1 0x0 JUMPDEST CALLER PUSH1 0x0 SWAP1 DUP2 MSTORE PUSH1 0xD PUSH1 0x20 MSTORE PUSH1 0x40 DUP2 KECCAK256 DUP1 SLOAD DUP4 SWAP1 DUP2 LT PUSH2 0xA0B JUMPI INVALID JUMPDEST SWAP1 PUSH1 0x0 MSTORE PUSH1 0x20 PUSH1 0x0 KECCAK256 SWAP1 PUSH1 0x2 MUL ADD PUSH1 0x0 ADD SLOAD SWAP1 POP DUP1 PUSH1 0x0 EQ ISZERO PUSH2 0xA2E JUMPI POP PUSH2 0xB6D JUMP JUMPDEST DUP4 ISZERO DUP1 ISZERO PUSH2 0xA69 JUMPI POP CALLER PUSH1 0x0 SWAP1 DUP2 MSTORE PUSH1 0xD PUSH1 0x20 MSTORE PUSH1 0x40 SWAP1 KECCAK256 DUP1 SLOAD TIMESTAMP SWAP2 SWAP1 DUP5 SWAP1 DUP2 LT PUSH2 0xA55 JUMPI INVALID JUMPDEST SWAP1 PUSH1 0x0 MSTORE PUSH1 0x20 PUSH1 0x0 KECCAK256 SWAP1 PUSH1 0x2 MUL ADD PUSH1 0x1 ADD SLOAD GT JUMPDEST ISZERO PUSH2 0xAEB JUMPI DUP3 SWAP4 POP DUP3 DUP6 PUSH1 0x2 ADD SLOAD LT ISZERO PUSH2 0xA95 JUMPI PUSH1 0x40 MLOAD PUSH3 0x461BCD PUSH1 0xE5 SHL DUP2 MSTORE PUSH1 0x4 ADD PUSH2 0x750 SWAP1 PUSH2 0x297A JUMP JUMPDEST PUSH1 0x2 DUP6 ADD SLOAD PUSH2 0xAA4 SWAP1 DUP5 PUSH2 0x2138 JUMP JUMPDEST PUSH1 0x2 DUP7 ADD DUP2 SWAP1 SSTORE PUSH2 0xACD JUMPI CALLER PUSH1 0x0 SWAP1 DUP2 MSTORE PUSH1 0xD PUSH1 0x20 MSTORE PUSH1 0x40 DUP2 KECCAK256 PUSH2 0xAC7 SWAP2 PUSH2 0x2643 JUMP JUMPDEST POP PUSH2 0xB75 JUMP JUMPDEST PUSH2 0xAE8 PUSH5 0xE8D4A51000 PUSH2 0x55A PUSH1 0xA PUSH2 0x554 PUSH1 0x64 DUP4 DUP10 DUP7 PUSH2 0x2160 JUMP JUMPDEST SWAP3 POP JUMPDEST DUP1 DUP4 GT PUSH2 0xB2E JUMPI PUSH2 0xAFC DUP2 DUP5 PUSH2 0x2138 JUMP JUMPDEST CALLER PUSH1 0x0 SWAP1 DUP2 MSTORE PUSH1 0xD PUSH1 0x20 MSTORE PUSH1 0x40 SWAP1 KECCAK256 DUP1 SLOAD DUP5 SWAP1 DUP2 LT PUSH2 0xB17 JUMPI INVALID JUMPDEST PUSH1 0x0 SWAP2 DUP3 MSTORE PUSH1 0x20 SWAP1 SWAP2 KECCAK256 PUSH1 0x2 SWAP1 SWAP2 MUL ADD SSTORE POP PUSH2 0xB75 JUMP JUMPDEST CALLER PUSH1 0x0 SWAP1 DUP2 MSTORE PUSH1 0xD PUSH1 0x20 MSTORE PUSH1 0x40 SWAP1 KECCAK256 DUP1 SLOAD DUP4 SWAP1 DUP2 LT PUSH2 0xB49 JUMPI INVALID JUMPDEST PUSH1 0x0 SWAP2 DUP3 MSTORE PUSH1 0x20 DUP3 KECCAK256 PUSH1 0x2 SWAP1 SWAP2 MUL ADD DUP2 DUP2 SSTORE PUSH1 0x1 ADD SSTORE PUSH2 0xB69 DUP4 DUP3 PUSH2 0x2138 JUMP JUMPDEST SWAP3 POP POP JUMPDEST PUSH1 0x1 ADD PUSH2 0x9F0 JUMP JUMPDEST POP POP JUMPDEST PUSH1 0x0 PUSH2 0xB84 DUP9 DUP4 PUSH2 0x2113 JUMP JUMPDEST DUP4 SLOAD SWAP1 SWAP2 POP PUSH2 0xB93 SWAP1 DUP3 PUSH2 0x2138 JUMP JUMPDEST DUP4 SSTORE PUSH1 0xA SLOAD PUSH2 0xBA2 SWAP1 DUP3 PUSH2 0x2138 JUMP JUMPDEST PUSH1 0xA SSTORE PUSH1 0x3 SLOAD PUSH2 0xBBC SWAP1 PUSH1 0x1 PUSH1 0x1 PUSH1 0xA0 SHL SUB AND CALLER DUP11 PUSH2 0x22D3 JUMP JUMPDEST DUP2 ISZERO PUSH2 0xBD8 JUMPI PUSH1 0x3 SLOAD PUSH2 0xBD8 SWAP1 PUSH1 0x1 PUSH1 0x1 PUSH1 0xA0 SHL SUB AND DUP4 PUSH2 0x232E JUMP JUMPDEST CALLER PUSH1 0x1 PUSH1 0x1 PUSH1 0xA0 SHL SUB AND PUSH32 0x7084F5476618D8E60B11EF0D7D3F06914655ADB8793E28FF7F018D4C76D505D5 DUP10 PUSH1 0x40 MLOAD PUSH2 0xC11 SWAP2 SWAP1 PUSH2 0x2C91 JUMP JUMPDEST PUSH1 0x40 MLOAD DUP1 SWAP2 SUB SWAP1 LOG2 POP POP PUSH1 0x1 PUSH1 0x0 SSTORE POP POP POP POP POP POP JUMP JUMPDEST PUSH3 0x93A80 DUP2 JUMP JUMPDEST PUSH1 0x7 PUSH1 0x20 SWAP1 DUP2 MSTORE PUSH1 0x0 SWAP3 DUP4 MSTORE PUSH1 0x40 DUP1 DUP5 KECCAK256 SWAP1 SWAP2 MSTORE SWAP1 DUP3 MSTORE SWAP1 KECCAK256 SLOAD PUSH1 0xFF AND DUP2 JUMP JUMPDEST PUSH1 0x2 PUSH1 0x0 SLOAD EQ ISZERO PUSH2 0xC72 JUMPI PUSH1 0x40 MLOAD PUSH3 0x461BCD PUSH1 0xE5 SHL DUP2 MSTORE PUSH1 0x4 ADD PUSH2 0x750 SWAP1 PUSH2 0x2C5A JUMP JUMPDEST PUSH1 0x2 PUSH1 0x0 SWAP1 DUP2 SSTORE PUSH1 0x3 SLOAD PUSH1 0xB SLOAD CALLER SWAP3 PUSH1 0x1 PUSH1 0x1 PUSH1 0xA0 SHL SUB SWAP1 SWAP3 AND SWAP2 SWAP1 PUSH2 0xC98 DUP4 DUP3 PUSH2 0x21CC JUMP JUMPDEST PUSH1 0x1 PUSH1 0x1 PUSH1 0xA0 SHL SUB DUP5 AND PUSH1 0x0 SWAP1 DUP2 MSTORE PUSH1 0x5 PUSH1 0x20 MSTORE PUSH1 0x40 SWAP1 KECCAK256 PUSH1 0x3 ADD SSTORE PUSH2 0xCBD DUP4 PUSH2 0x10E8 JUMP JUMPDEST PUSH1 0x1 PUSH1 0x1 PUSH1 0xA0 SHL SUB DUP1 DUP6 AND PUSH1 0x0 SWAP1 DUP2 MSTORE PUSH1 0x5 PUSH1 0x20 MSTORE PUSH1 0x40 SWAP1 KECCAK256 PUSH1 0x2 ADD SWAP2 SWAP1 SWAP2 SSTORE DUP5 AND ISZERO PUSH2 0xD69 JUMPI PUSH1 0x1 PUSH1 0x1 PUSH1 0xA0 SHL SUB DUP5 AND PUSH1 0x0 SWAP1 DUP2 MSTORE PUSH1 0xC PUSH1 0x20 MSTORE PUSH1 0x40 SWAP1 KECCAK256 PUSH1 0x2 ADD SLOAD PUSH2 0xD0E SWAP1 DUP6 SWAP1 DUP6 SWAP1 DUP5 PUSH2 0x2261 JUMP JUMPDEST PUSH1 0x1 PUSH1 0x1 PUSH1 0xA0 SHL SUB DUP1 DUP7 AND PUSH1 0x0 DUP2 DUP2 MSTORE PUSH1 0x9 PUSH1 0x20 SWAP1 DUP2 MSTORE PUSH1 0x40 DUP1 DUP4 KECCAK256 SWAP5 DUP10 AND DUP1 DUP5 MSTORE SWAP5 DUP3 MSTORE DUP1 DUP4 KECCAK256 SWAP6 SWAP1 SWAP6 SSTORE PUSH1 0x5 DUP2 MSTORE DUP5 DUP3 KECCAK256 PUSH1 0x3 ADD SLOAD DUP4 DUP4 MSTORE PUSH1 0x8 DUP3 MSTORE DUP6 DUP4 KECCAK256 SWAP5 DUP4 MSTORE SWAP4 DUP2 MSTORE DUP5 DUP3 KECCAK256 SWAP4 SWAP1 SWAP4 SSTORE SWAP1 DUP2 MSTORE PUSH1 0xC SWAP1 SWAP2 MSTORE KECCAK256 SLOAD SWAP2 POP JUMPDEST POP PUSH1 0xA SLOAD PUSH1 0x1 JUMPDEST PUSH1 0x4 SLOAD DUP2 LT ISZERO PUSH2 0xE55 JUMPI PUSH1 0x4 DUP2 DUP2 SLOAD DUP2 LT PUSH2 0xD87 JUMPI INVALID JUMPDEST PUSH1 0x0 SWAP2 DUP3 MSTORE PUSH1 0x20 SWAP1 SWAP2 KECCAK256 ADD SLOAD PUSH1 0x1 PUSH1 0x1 PUSH1 0xA0 SHL SUB AND SWAP4 POP PUSH2 0xDA8 DUP5 DUP4 PUSH2 0x21CC JUMP JUMPDEST PUSH1 0x1 PUSH1 0x1 PUSH1 0xA0 SHL SUB DUP6 AND PUSH1 0x0 SWAP1 DUP2 MSTORE PUSH1 0x5 PUSH1 0x20 MSTORE PUSH1 0x40 SWAP1 KECCAK256 PUSH1 0x3 ADD SSTORE PUSH2 0xDCD DUP5 PUSH2 0x10E8 JUMP JUMPDEST PUSH1 0x1 PUSH1 0x1 PUSH1 0xA0 SHL SUB DUP1 DUP7 AND PUSH1 0x0 SWAP1 DUP2 MSTORE PUSH1 0x5 PUSH1 0x20 MSTORE PUSH1 0x40 SWAP1 KECCAK256 PUSH1 0x2 ADD SWAP2 SWAP1 SWAP2 SSTORE DUP6 AND ISZERO PUSH2 0xE4D JUMPI PUSH2 0xE00 DUP6 DUP6 DUP6 DUP6 PUSH2 0x2261 JUMP JUMPDEST PUSH1 0x1 PUSH1 0x1 PUSH1 0xA0 SHL SUB DUP1 DUP8 AND PUSH1 0x0 DUP2 DUP2 MSTORE PUSH1 0x9 PUSH1 0x20 SWAP1 DUP2 MSTORE PUSH1 0x40 DUP1 DUP4 KECCAK256 SWAP5 DUP11 AND DUP1 DUP5 MSTORE SWAP5 DUP3 MSTORE DUP1 DUP4 KECCAK256 SWAP6 SWAP1 SWAP6 SSTORE PUSH1 0x5 DUP2 MSTORE DUP5 DUP3 KECCAK256 PUSH1 0x3 ADD SLOAD SWAP3 DUP3 MSTORE PUSH1 0x8 DUP2 MSTORE DUP5 DUP3 KECCAK256 SWAP4 DUP3 MSTORE SWAP3 SWAP1 SWAP3 MSTORE SWAP2 SWAP1 KECCAK256 SSTORE JUMPDEST PUSH1 0x1 ADD PUSH2 0xD70 JUMP JUMPDEST POP PUSH1 0x0 JUMPDEST PUSH1 0x4 SLOAD DUP2 LT ISZERO PUSH2 0xF31 JUMPI PUSH1 0x0 PUSH1 0x4 DUP3 DUP2 SLOAD DUP2 LT PUSH2 0xE72 JUMPI INVALID JUMPDEST PUSH1 0x0 SWAP2 DUP3 MSTORE PUSH1 0x20 DUP1 DUP4 KECCAK256 SWAP1 SWAP2 ADD SLOAD CALLER DUP4 MSTORE PUSH1 0x9 DUP3 MSTORE PUSH1 0x40 DUP1 DUP5 KECCAK256 PUSH1 0x1 PUSH1 0x1 PUSH1 0xA0 SHL SUB SWAP1 SWAP3 AND DUP1 DUP6 MSTORE SWAP2 SWAP1 SWAP3 MSTORE SWAP2 KECCAK256 SLOAD SWAP1 SWAP2 POP DUP1 ISZERO PUSH2 0xF27 JUMPI CALLER PUSH1 0x0 DUP2 DUP2 MSTORE PUSH1 0x9 PUSH1 0x20 SWAP1 DUP2 MSTORE PUSH1 0x40 DUP1 DUP4 KECCAK256 PUSH1 0x1 PUSH1 0x1 PUSH1 0xA0 SHL SUB DUP8 AND DUP1 DUP6 MSTORE SWAP3 MSTORE DUP3 KECCAK256 SWAP2 SWAP1 SWAP2 SSTORE PUSH2 0xEDB SWAP2 DUP4 PUSH2 0x22D3 JUMP JUMPDEST DUP2 PUSH1 0x1 PUSH1 0x1 PUSH1 0xA0 SHL SUB AND CALLER PUSH1 0x1 PUSH1 0x1 PUSH1 0xA0 SHL SUB AND PUSH32 0x540798DF468D7B23D11F156FDB954CB19AD414D150722A7B6D55BA369DEA792E DUP4 PUSH1 0x40 MLOAD PUSH2 0xF1E SWAP2 SWAP1 PUSH2 0x2C91 JUMP JUMPDEST PUSH1 0x40 MLOAD DUP1 SWAP2 SUB SWAP1 LOG3 JUMPDEST POP POP PUSH1 0x1 ADD PUSH2 0xE59 JUMP JUMPDEST POP POP PUSH1 0x1 PUSH1 0x0 SSTORE POP POP POP JUMP JUMPDEST PUSH2 0xF45 PUSH2 0x2449 JUMP JUMPDEST PUSH1 0x1 PUSH1 0x1 PUSH1 0xA0 SHL SUB AND PUSH2 0xF56 PUSH2 0x13A9 JUMP JUMPDEST PUSH1 0x1 PUSH1 0x1 PUSH1 0xA0 SHL SUB AND EQ PUSH2 0xF7C JUMPI PUSH1 0x40 MLOAD PUSH3 0x461BCD PUSH1 0xE5 SHL DUP2 MSTORE PUSH1 0x4 ADD PUSH2 0x750 SWAP1 PUSH2 0x2AFF JUMP JUMPDEST PUSH1 0x1 PUSH1 0x1 PUSH1 0xA0 SHL SUB DUP3 AND PUSH1 0x0 SWAP1 DUP2 MSTORE PUSH1 0x5 PUSH1 0x20 MSTORE PUSH1 0x40 SWAP1 KECCAK256 PUSH1 0x2 ADD SLOAD ISZERO PUSH2 0xFA2 JUMPI PUSH1 0x0 DUP1 REVERT JUMPDEST PUSH1 0x4 DUP1 SLOAD PUSH1 0x1 DUP1 DUP3 ADD SWAP1 SWAP3 SSTORE PUSH32 0x8A35ACFBC15FF81A39AE7D344FD709F28E8600B4AA8C65C6B64BFE7FE36BD19B ADD DUP1 SLOAD PUSH1 0x1 PUSH1 0x1 PUSH1 0xA0 SHL SUB NOT AND PUSH1 0x1 PUSH1 0x1 PUSH1 0xA0 SHL SUB SWAP5 DUP6 AND SWAP1 DUP2 OR SWAP1 SWAP2 SSTORE PUSH1 0x0 SWAP1 DUP2 MSTORE PUSH1 0x5 PUSH1 0x20 SWAP1 DUP2 MSTORE PUSH1 0x40 DUP1 DUP4 KECCAK256 TIMESTAMP PUSH1 0x2 DUP3 ADD DUP2 SWAP1 SSTORE SWAP1 SSTORE PUSH1 0x7 DUP3 MSTORE DUP1 DUP4 KECCAK256 SWAP5 SWAP1 SWAP6 AND DUP3 MSTORE SWAP3 SWAP1 SWAP3 MSTORE SWAP2 SWAP1 KECCAK256 DUP1 SLOAD PUSH1 0xFF NOT AND SWAP1 SWAP2 OR SWAP1 SSTORE JUMP JUMPDEST PUSH1 0x5 PUSH1 0x20 MSTORE PUSH1 0x0 SWAP1 DUP2 MSTORE PUSH1 0x40 SWAP1 KECCAK256 DUP1 SLOAD PUSH1 0x1 DUP3 ADD SLOAD PUSH1 0x2 DUP4 ADD SLOAD PUSH1 0x3 SWAP1 SWAP4 ADD SLOAD SWAP2 SWAP3 SWAP1 SWAP2 DUP5 JUMP JUMPDEST PUSH1 0x1 PUSH1 0x1 PUSH1 0xA0 SHL SUB DUP2 AND PUSH1 0x0 SWAP1 DUP2 MSTORE PUSH1 0xC PUSH1 0x20 SWAP1 DUP2 MSTORE PUSH1 0x40 DUP1 DUP4 KECCAK256 PUSH1 0x1 ADD SLOAD CALLER DUP5 MSTORE PUSH1 0xD SWAP1 SWAP3 MSTORE DUP3 KECCAK256 SWAP1 SWAP2 JUMPDEST DUP2 SLOAD DUP2 LT ISZERO PUSH2 0x10E0 JUMPI TIMESTAMP DUP3 DUP3 DUP2 SLOAD DUP2 LT PUSH2 0x1092 JUMPI INVALID JUMPDEST SWAP1 PUSH1 0x0 MSTORE PUSH1 0x20 PUSH1 0x0 KECCAK256 SWAP1 PUSH1 0x2 MUL ADD PUSH1 0x1 ADD SLOAD GT ISZERO PUSH2 0x10AF JUMPI PUSH2 0x10E0 JUMP JUMPDEST PUSH2 0x10D6 DUP3 DUP3 DUP2 SLOAD DUP2 LT PUSH2 0x10BE JUMPI INVALID JUMPDEST PUSH1 0x0 SWAP2 DUP3 MSTORE PUSH1 0x20 SWAP1 SWAP2 KECCAK256 PUSH1 0x2 SWAP1 SWAP2 MUL ADD SLOAD DUP5 SWAP1 PUSH2 0x2113 JUMP JUMPDEST SWAP3 POP PUSH1 0x1 ADD PUSH2 0x107C JUMP JUMPDEST POP POP JUMPDEST SWAP2 SWAP1 POP JUMP JUMPDEST PUSH1 0x1 PUSH1 0x1 PUSH1 0xA0 SHL SUB DUP2 AND PUSH1 0x0 SWAP1 DUP2 MSTORE PUSH1 0x5 PUSH1 0x20 MSTORE PUSH1 0x40 DUP2 KECCAK256 SLOAD PUSH2 0x110C SWAP1 TIMESTAMP SWAP1 PUSH2 0x244D JUMP JUMPDEST SWAP3 SWAP2 POP POP JUMP JUMPDEST PUSH2 0x111A PUSH2 0x2449 JUMP JUMPDEST PUSH1 0x1 PUSH1 0x1 PUSH1 0xA0 SHL SUB AND PUSH2 0x112B PUSH2 0x13A9 JUMP JUMPDEST PUSH1 0x1 PUSH1 0x1 PUSH1 0xA0 SHL SUB AND EQ PUSH2 0x1151 JUMPI PUSH1 0x40 MLOAD PUSH3 0x461BCD PUSH1 0xE5 SHL DUP2 MSTORE PUSH1 0x4 ADD PUSH2 0x750 SWAP1 PUSH2 0x2AFF JUMP JUMPDEST PUSH1 0x1 PUSH1 0x1 PUSH1 0xA0 SHL SUB DUP4 AND PUSH1 0x0 SWAP1 DUP2 MSTORE PUSH1 0x5 PUSH1 0x20 MSTORE PUSH1 0x40 SWAP1 KECCAK256 PUSH1 0x2 ADD SLOAD PUSH2 0x1176 JUMPI PUSH1 0x0 DUP1 REVERT JUMPDEST PUSH1 0x1 PUSH1 0x1 PUSH1 0xA0 SHL SUB SWAP3 DUP4 AND PUSH1 0x0 SWAP1 DUP2 MSTORE PUSH1 0x7 PUSH1 0x20 SWAP1 DUP2 MSTORE PUSH1 0x40 DUP1 DUP4 KECCAK256 SWAP5 SWAP1 SWAP6 AND DUP3 MSTORE SWAP3 SWAP1 SWAP3 MSTORE SWAP2 SWAP1 KECCAK256 DUP1 SLOAD PUSH1 0xFF NOT AND SWAP2 ISZERO ISZERO SWAP2 SWAP1 SWAP2 OR SWAP1 SSTORE JUMP JUMPDEST PUSH1 0x1 PUSH1 0x1 PUSH1 0xA0 SHL SUB AND PUSH1 0x0 SWAP1 DUP2 MSTORE PUSH1 0xC PUSH1 0x20 MSTORE PUSH1 0x40 SWAP1 KECCAK256 SLOAD SWAP1 JUMP JUMPDEST PUSH1 0x8 PUSH1 0x20 SWAP1 DUP2 MSTORE PUSH1 0x0 SWAP3 DUP4 MSTORE PUSH1 0x40 DUP1 DUP5 KECCAK256 SWAP1 SWAP2 MSTORE SWAP1 DUP3 MSTORE SWAP1 KECCAK256 SLOAD DUP2 JUMP JUMPDEST PUSH2 0x11F0 PUSH2 0x2449 JUMP JUMPDEST PUSH1 0x1 PUSH1 0x1 PUSH1 0xA0 SHL SUB AND PUSH2 0x1201 PUSH2 0x13A9 JUMP JUMPDEST PUSH1 0x1 PUSH1 0x1 PUSH1 0xA0 SHL SUB AND EQ PUSH2 0x1227 JUMPI PUSH1 0x40 MLOAD PUSH3 0x461BCD PUSH1 0xE5 SHL DUP2 MSTORE PUSH1 0x4 ADD PUSH2 0x750 SWAP1 PUSH2 0x2AFF JUMP JUMPDEST PUSH1 0x1 SLOAD PUSH1 0x40 MLOAD PUSH1 0x0 SWAP2 PUSH1 0x1 PUSH1 0x1 PUSH1 0xA0 SHL SUB AND SWAP1 PUSH32 0x8BE0079C531659141344CD1FD0A4F28419497F9722A3DAAFE3B4186F6B6457E0 SWAP1 DUP4 SWAP1 LOG3 PUSH1 0x1 DUP1 SLOAD PUSH1 0x1 PUSH1 0x1 PUSH1 0xA0 SHL SUB NOT AND SWAP1 SSTORE JUMP JUMPDEST PUSH1 0x3 SLOAD PUSH1 0x1 PUSH1 0x1 PUSH1 0xA0 SHL SUB AND DUP2 JUMP JUMPDEST PUSH1 0x4 DUP2 DUP2 SLOAD DUP2 LT PUSH2 0x1290 JUMPI PUSH1 0x0 DUP1 REVERT JUMPDEST PUSH1 0x0 SWAP2 DUP3 MSTORE PUSH1 0x20 SWAP1 SWAP2 KECCAK256 ADD SLOAD PUSH1 0x1 PUSH1 0x1 PUSH1 0xA0 SHL SUB AND SWAP1 POP DUP2 JUMP JUMPDEST PUSH2 0x12B2 PUSH2 0x2449 JUMP JUMPDEST PUSH1 0x1 PUSH1 0x1 PUSH1 0xA0 SHL SUB AND PUSH2 0x12C3 PUSH2 0x13A9 JUMP JUMPDEST PUSH1 0x1 PUSH1 0x1 PUSH1 0xA0 SHL SUB AND EQ PUSH2 0x12E9 JUMPI PUSH1 0x40 MLOAD PUSH3 0x461BCD PUSH1 0xE5 SHL DUP2 MSTORE PUSH1 0x4 ADD PUSH2 0x750 SWAP1 PUSH2 0x2AFF JUMP JUMPDEST PUSH1 0x3 SLOAD PUSH1 0x1 PUSH1 0x1 PUSH1 0xA0 SHL SUB DUP4 DUP2 AND SWAP2 AND EQ ISZERO PUSH2 0x1317 JUMPI PUSH1 0x40 MLOAD PUSH3 0x461BCD PUSH1 0xE5 SHL DUP2 MSTORE PUSH1 0x4 ADD PUSH2 0x750 SWAP1 PUSH2 0x2B34 JUMP JUMPDEST PUSH1 0x1 PUSH1 0x1 PUSH1 0xA0 SHL SUB DUP3 AND PUSH1 0x0 SWAP1 DUP2 MSTORE PUSH1 0x5 PUSH1 0x20 MSTORE PUSH1 0x40 SWAP1 KECCAK256 PUSH1 0x2 ADD SLOAD ISZERO PUSH2 0x1350 JUMPI PUSH1 0x40 MLOAD PUSH3 0x461BCD PUSH1 0xE5 SHL DUP2 MSTORE PUSH1 0x4 ADD PUSH2 0x750 SWAP1 PUSH2 0x2C23 JUMP JUMPDEST PUSH2 0x136C PUSH2 0x135B PUSH2 0x13A9 JUMP JUMPDEST PUSH1 0x1 PUSH1 0x1 PUSH1 0xA0 SHL SUB DUP5 AND SWAP1 DUP4 PUSH2 0x22D3 JUMP JUMPDEST PUSH32 0x8C1256B8896378CD5044F80C202F9772B9D77DC85C8A6EB51967210B09BFAA28 DUP3 DUP3 PUSH1 0x40 MLOAD PUSH2 0x139D SWAP3 SWAP2 SWAP1 PUSH2 0x2826 JUMP JUMPDEST PUSH1 0x40 MLOAD DUP1 SWAP2 SUB SWAP1 LOG1 POP POP JUMP JUMPDEST PUSH1 0x1 SLOAD PUSH1 0x1 PUSH1 0x1 PUSH1 0xA0 SHL SUB AND SWAP1 JUMP JUMPDEST CALLER PUSH1 0x0 SWAP1 DUP2 MSTORE PUSH1 0xD PUSH1 0x20 SWAP1 DUP2 MSTORE PUSH1 0x40 DUP1 DUP4 KECCAK256 PUSH1 0xC SWAP1 SWAP3 MSTORE DUP3 KECCAK256 DUP2 SLOAD SWAP2 SWAP3 SWAP1 SWAP2 TIMESTAMP DUP5 PUSH1 0x0 NOT DUP4 ADD DUP4 DUP2 LT PUSH2 0x13E7 JUMPI INVALID JUMPDEST SWAP1 PUSH1 0x0 MSTORE PUSH1 0x20 PUSH1 0x0 KECCAK256 SWAP1 PUSH1 0x2 MUL ADD PUSH1 0x1 ADD SLOAD GT PUSH2 0x1424 JUMPI PUSH1 0x2 DUP4 ADD SLOAD CALLER PUSH1 0x0 SWAP1 DUP2 MSTORE PUSH1 0xD PUSH1 0x20 MSTORE PUSH1 0x40 DUP2 KECCAK256 SWAP2 SWAP4 POP PUSH2 0x141F SWAP2 SWAP1 PUSH2 0x2643 JUMP JUMPDEST PUSH2 0x1499 JUMP JUMPDEST PUSH1 0x0 JUMPDEST DUP2 DUP2 LT ISZERO PUSH2 0x1497 JUMPI TIMESTAMP DUP6 DUP3 DUP2 SLOAD DUP2 LT PUSH2 0x143C JUMPI INVALID JUMPDEST SWAP1 PUSH1 0x0 MSTORE PUSH1 0x20 PUSH1 0x0 KECCAK256 SWAP1 PUSH1 0x2 MUL ADD PUSH1 0x1 ADD SLOAD GT ISZERO PUSH2 0x1459 JUMPI PUSH2 0x1497 JUMP JUMPDEST PUSH2 0x1468 DUP6 DUP3 DUP2 SLOAD DUP2 LT PUSH2 0x10BE JUMPI INVALID JUMPDEST SWAP3 POP DUP5 DUP2 DUP2 SLOAD DUP2 LT PUSH2 0x1476 JUMPI INVALID JUMPDEST PUSH1 0x0 SWAP2 DUP3 MSTORE PUSH1 0x20 DUP3 KECCAK256 PUSH1 0x2 SWAP1 SWAP2 MUL ADD DUP2 DUP2 SSTORE PUSH1 0x1 SWAP1 DUP2 ADD SWAP2 SWAP1 SWAP2 SSTORE ADD PUSH2 0x1427 JUMP JUMPDEST POP JUMPDEST PUSH1 0x2 DUP4 ADD SLOAD PUSH2 0x14A8 SWAP1 DUP4 PUSH2 0x2138 JUMP JUMPDEST PUSH1 0x2 DUP5 ADD SSTORE DUP3 SLOAD PUSH2 0x14B9 SWAP1 DUP4 PUSH2 0x2138 JUMP JUMPDEST DUP4 SSTORE PUSH1 0xA SLOAD PUSH2 0x14C8 SWAP1 DUP4 PUSH2 0x2138 JUMP JUMPDEST PUSH1 0xA SSTORE PUSH1 0xB SLOAD PUSH2 0x14D8 SWAP1 DUP4 PUSH2 0x2138 JUMP JUMPDEST PUSH1 0xB SSTORE PUSH1 0x3 SLOAD PUSH2 0x14F2 SWAP1 PUSH1 0x1 PUSH1 0x1 PUSH1 0xA0 SHL SUB AND CALLER DUP5 PUSH2 0x22D3 JUMP JUMPDEST POP POP POP POP JUMP JUMPDEST PUSH1 0x2 PUSH1 0x0 SLOAD EQ ISZERO PUSH2 0x151B JUMPI PUSH1 0x40 MLOAD PUSH3 0x461BCD PUSH1 0xE5 SHL DUP2 MSTORE PUSH1 0x4 ADD PUSH2 0x750 SWAP1 PUSH2 0x2C5A JUMP JUMPDEST PUSH1 0x2 PUSH1 0x0 SWAP1 DUP2 SSTORE PUSH1 0x3 SLOAD PUSH1 0xB SLOAD CALLER SWAP3 PUSH1 0x1 PUSH1 0x1 PUSH1 0xA0 SHL SUB SWAP1 SWAP3 AND SWAP2 SWAP1 PUSH2 0x1541 DUP4 DUP3 PUSH2 0x21CC JUMP JUMPDEST PUSH1 0x1 PUSH1 0x1 PUSH1 0xA0 SHL SUB DUP5 AND PUSH1 0x0 SWAP1 DUP2 MSTORE PUSH1 0x5 PUSH1 0x20 MSTORE PUSH1 0x40 SWAP1 KECCAK256 PUSH1 0x3 ADD SSTORE PUSH2 0x1566 DUP4 PUSH2 0x10E8 JUMP JUMPDEST PUSH1 0x1 PUSH1 0x1 PUSH1 0xA0 SHL SUB DUP1 DUP6 AND PUSH1 0x0 SWAP1 DUP2 MSTORE PUSH1 0x5 PUSH1 0x20 MSTORE PUSH1 0x40 SWAP1 KECCAK256 PUSH1 0x2 ADD SWAP2 SWAP1 SWAP2 SSTORE DUP5 AND ISZERO PUSH2 0x1612 JUMPI PUSH1 0x1 PUSH1 0x1 PUSH1 0xA0 SHL SUB DUP5 AND PUSH1 0x0 SWAP1 DUP2 MSTORE PUSH1 0xC PUSH1 0x20 MSTORE PUSH1 0x40 SWAP1 KECCAK256 PUSH1 0x2 ADD SLOAD PUSH2 0x15B7 SWAP1 DUP6 SWAP1 DUP6 SWAP1 DUP5 PUSH2 0x2261 JUMP JUMPDEST PUSH1 0x1 PUSH1 0x1 PUSH1 0xA0 SHL SUB DUP1 DUP7 AND PUSH1 0x0 DUP2 DUP2 MSTORE PUSH1 0x9 PUSH1 0x20 SWAP1 DUP2 MSTORE PUSH1 0x40 DUP1 DUP4 KECCAK256 SWAP5 DUP10 AND DUP1 DUP5 MSTORE SWAP5 DUP3 MSTORE DUP1 DUP4 KECCAK256 SWAP6 SWAP1 SWAP6 SSTORE PUSH1 0x5 DUP2 MSTORE DUP5 DUP3 KECCAK256 PUSH1 0x3 ADD SLOAD DUP4 DUP4 MSTORE PUSH1 0x8 DUP3 MSTORE DUP6 DUP4 KECCAK256 SWAP5 DUP4 MSTORE SWAP4 DUP2 MSTORE DUP5 DUP3 KECCAK256 SWAP4 SWAP1 SWAP4 SSTORE SWAP1 DUP2 MSTORE PUSH1 0xC SWAP1 SWAP2 MSTORE KECCAK256 SLOAD SWAP2 POP JUMPDEST POP PUSH1 0xA SLOAD PUSH1 0x1 JUMPDEST PUSH1 0x4 SLOAD DUP2 LT ISZERO PUSH2 0x16FE JUMPI PUSH1 0x4 DUP2 DUP2 SLOAD DUP2 LT PUSH2 0x1630 JUMPI INVALID JUMPDEST PUSH1 0x0 SWAP2 DUP3 MSTORE PUSH1 0x20 SWAP1 SWAP2 KECCAK256 ADD SLOAD PUSH1 0x1 PUSH1 0x1 PUSH1 0xA0 SHL SUB AND SWAP4 POP PUSH2 0x1651 DUP5 DUP4 PUSH2 0x21CC JUMP JUMPDEST PUSH1 0x1 PUSH1 0x1 PUSH1 0xA0 SHL SUB DUP6 AND PUSH1 0x0 SWAP1 DUP2 MSTORE PUSH1 0x5 PUSH1 0x20 MSTORE PUSH1 0x40 SWAP1 KECCAK256 PUSH1 0x3 ADD SSTORE PUSH2 0x1676 DUP5 PUSH2 0x10E8 JUMP JUMPDEST PUSH1 0x1 PUSH1 0x1 PUSH1 0xA0 SHL SUB DUP1 DUP7 AND PUSH1 0x0 SWAP1 DUP2 MSTORE PUSH1 0x5 PUSH1 0x20 MSTORE PUSH1 0x40 SWAP1 KECCAK256 PUSH1 0x2 ADD SWAP2 SWAP1 SWAP2 SSTORE DUP6 AND ISZERO PUSH2 0x16F6 JUMPI PUSH2 0x16A9 DUP6 DUP6 DUP6 DUP6 PUSH2 0x2261 JUMP JUMPDEST PUSH1 0x1 PUSH1 0x1 PUSH1 0xA0 SHL SUB DUP1 DUP8 AND PUSH1 0x0 DUP2 DUP2 MSTORE PUSH1 0x9 PUSH1 0x20 SWAP1 DUP2 MSTORE PUSH1 0x40 DUP1 DUP4 KECCAK256 SWAP5 DUP11 AND DUP1 DUP5 MSTORE SWAP5 DUP3 MSTORE DUP1 DUP4 KECCAK256 SWAP6 SWAP1 SWAP6 SSTORE PUSH1 0x5 DUP2 MSTORE DUP5 DUP3 KECCAK256 PUSH1 0x3 ADD SLOAD SWAP3 DUP3 MSTORE PUSH1 0x8 DUP2 MSTORE DUP5 DUP3 KECCAK256 SWAP4 DUP3 MSTORE SWAP3 SWAP1 SWAP3 MSTORE SWAP2 SWAP1 KECCAK256 SSTORE JUMPDEST PUSH1 0x1 ADD PUSH2 0x1619 JUMP JUMPDEST POP PUSH1 0x0 DUP7 GT PUSH2 0x171F JUMPI PUSH1 0x40 MLOAD PUSH3 0x461BCD PUSH1 0xE5 SHL DUP2 MSTORE PUSH1 0x4 ADD PUSH2 0x750 SWAP1 PUSH2 0x291B JUMP JUMPDEST PUSH1 0xA SLOAD PUSH2 0x172C SWAP1 DUP8 PUSH2 0x2113 JUMP JUMPDEST PUSH1 0xA SSTORE CALLER PUSH1 0x0 SWAP1 DUP2 MSTORE PUSH1 0xC PUSH1 0x20 MSTORE PUSH1 0x40 SWAP1 KECCAK256 DUP1 SLOAD PUSH2 0x174A SWAP1 DUP9 PUSH2 0x2113 JUMP JUMPDEST DUP2 SSTORE DUP6 ISZERO PUSH2 0x18AA JUMPI PUSH1 0xB SLOAD PUSH2 0x175F SWAP1 DUP9 PUSH2 0x2113 JUMP JUMPDEST PUSH1 0xB SSTORE PUSH1 0x2 DUP2 ADD SLOAD PUSH2 0x1771 SWAP1 DUP9 PUSH2 0x2113 JUMP JUMPDEST PUSH1 0x2 DUP3 ADD SSTORE PUSH1 0x0 PUSH2 0x1796 PUSH3 0x77F880 PUSH2 0x1790 PUSH3 0x93A80 PUSH2 0x554 TIMESTAMP DUP3 PUSH2 0x219A JUMP JUMPDEST SWAP1 PUSH2 0x2113 JUMP JUMPDEST CALLER PUSH1 0x0 SWAP1 DUP2 MSTORE PUSH1 0xD PUSH1 0x20 MSTORE PUSH1 0x40 SWAP1 KECCAK256 SLOAD SWAP1 SWAP2 POP DUP1 ISZERO DUP1 PUSH2 0x17E7 JUMPI POP CALLER PUSH1 0x0 SWAP1 DUP2 MSTORE PUSH1 0xD PUSH1 0x20 MSTORE PUSH1 0x40 SWAP1 KECCAK256 DUP1 SLOAD DUP4 SWAP2 SWAP1 PUSH1 0x0 NOT DUP5 ADD SWAP1 DUP2 LT PUSH2 0x17D3 JUMPI INVALID JUMPDEST SWAP1 PUSH1 0x0 MSTORE PUSH1 0x20 PUSH1 0x0 KECCAK256 SWAP1 PUSH1 0x2 MUL ADD PUSH1 0x1 ADD SLOAD LT JUMPDEST ISZERO PUSH2 0x1836 JUMPI CALLER PUSH1 0x0 SWAP1 DUP2 MSTORE PUSH1 0xD PUSH1 0x20 SWAP1 DUP2 MSTORE PUSH1 0x40 DUP1 DUP4 KECCAK256 DUP2 MLOAD DUP1 DUP4 ADD SWAP1 SWAP3 MSTORE DUP13 DUP3 MSTORE DUP2 DUP4 ADD DUP7 DUP2 MSTORE DUP2 SLOAD PUSH1 0x1 DUP2 DUP2 ADD DUP5 SSTORE SWAP3 DUP7 MSTORE SWAP4 SWAP1 SWAP5 KECCAK256 SWAP2 MLOAD PUSH1 0x2 SWAP1 SWAP4 MUL SWAP1 SWAP2 ADD SWAP2 DUP3 SSTORE SWAP2 MLOAD SWAP2 ADD SSTORE PUSH2 0x18A3 JUMP JUMPDEST CALLER PUSH1 0x0 SWAP1 DUP2 MSTORE PUSH1 0xD PUSH1 0x20 MSTORE PUSH1 0x40 SWAP1 KECCAK256 DUP1 SLOAD PUSH2 0x1872 SWAP2 DUP12 SWAP2 PUSH1 0x0 NOT DUP6 ADD SWAP1 DUP2 LT PUSH2 0x185B JUMPI INVALID JUMPDEST PUSH1 0x0 SWAP2 DUP3 MSTORE PUSH1 0x20 SWAP1 SWAP2 KECCAK256 PUSH1 0x2 SWAP1 SWAP2 MUL ADD SLOAD SWAP1 PUSH2 0x2113 JUMP JUMPDEST CALLER PUSH1 0x0 SWAP1 DUP2 MSTORE PUSH1 0xD PUSH1 0x20 MSTORE PUSH1 0x40 SWAP1 KECCAK256 DUP1 SLOAD PUSH1 0x0 NOT DUP5 ADD SWAP1 DUP2 LT PUSH2 0x1891 JUMPI INVALID JUMPDEST PUSH1 0x0 SWAP2 DUP3 MSTORE PUSH1 0x20 SWAP1 SWAP2 KECCAK256 PUSH1 0x2 SWAP1 SWAP2 MUL ADD SSTORE JUMPDEST POP POP PUSH2 0x18BF JUMP JUMPDEST PUSH1 0x1 DUP2 ADD SLOAD PUSH2 0x18B9 SWAP1 DUP9 PUSH2 0x2113 JUMP JUMPDEST PUSH1 0x1 DUP3 ADD SSTORE JUMPDEST PUSH1 0x3 SLOAD PUSH2 0x18D7 SWAP1 PUSH1 0x1 PUSH1 0x1 PUSH1 0xA0 SHL SUB AND CALLER ADDRESS DUP11 PUSH2 0x2463 JUMP JUMPDEST CALLER PUSH1 0x1 PUSH1 0x1 PUSH1 0xA0 SHL SUB AND PUSH32 0x9E71BC8EEA02A63969F509818F2DAFB9254532904319F9DBDA79B67BD34A5F3D DUP9 PUSH1 0x40 MLOAD PUSH2 0x1910 SWAP2 SWAP1 PUSH2 0x2C91 JUMP JUMPDEST PUSH1 0x40 MLOAD DUP1 SWAP2 SUB SWAP1 LOG2 POP POP PUSH1 0x1 PUSH1 0x0 SSTORE POP POP POP POP POP JUMP JUMPDEST PUSH1 0x3 SLOAD PUSH1 0xB SLOAD PUSH1 0x0 SWAP2 PUSH1 0x1 PUSH1 0x1 PUSH1 0xA0 SHL SUB AND SWAP1 DUP3 SWAP1 PUSH2 0x1945 DUP4 DUP3 PUSH2 0x21CC JUMP JUMPDEST PUSH1 0x1 PUSH1 0x1 PUSH1 0xA0 SHL SUB DUP5 AND PUSH1 0x0 SWAP1 DUP2 MSTORE PUSH1 0x5 PUSH1 0x20 MSTORE PUSH1 0x40 SWAP1 KECCAK256 PUSH1 0x3 ADD SSTORE PUSH2 0x196A DUP4 PUSH2 0x10E8 JUMP JUMPDEST PUSH1 0x1 PUSH1 0x1 PUSH1 0xA0 SHL SUB DUP1 DUP6 AND PUSH1 0x0 SWAP1 DUP2 MSTORE PUSH1 0x5 PUSH1 0x20 MSTORE PUSH1 0x40 SWAP1 KECCAK256 PUSH1 0x2 ADD SWAP2 SWAP1 SWAP2 SSTORE DUP5 AND ISZERO PUSH2 0x1A16 JUMPI PUSH1 0x1 PUSH1 0x1 PUSH1 0xA0 SHL SUB DUP5 AND PUSH1 0x0 SWAP1 DUP2 MSTORE PUSH1 0xC PUSH1 0x20 MSTORE PUSH1 0x40 SWAP1 KECCAK256 PUSH1 0x2 ADD SLOAD PUSH2 0x19BB SWAP1 DUP6 SWAP1 DUP6 SWAP1 DUP5 PUSH2 0x2261 JUMP JUMPDEST PUSH1 0x1 PUSH1 0x1 PUSH1 0xA0 SHL SUB DUP1 DUP7 AND PUSH1 0x0 DUP2 DUP2 MSTORE PUSH1 0x9 PUSH1 0x20 SWAP1 DUP2 MSTORE PUSH1 0x40 DUP1 DUP4 KECCAK256 SWAP5 DUP10 AND DUP1 DUP5 MSTORE SWAP5 DUP3 MSTORE DUP1 DUP4 KECCAK256 SWAP6 SWAP1 SWAP6 SSTORE PUSH1 0x5 DUP2 MSTORE DUP5 DUP3 KECCAK256 PUSH1 0x3 ADD SLOAD DUP4 DUP4 MSTORE PUSH1 0x8 DUP3 MSTORE DUP6 DUP4 KECCAK256 SWAP5 DUP4 MSTORE SWAP4 DUP2 MSTORE DUP5 DUP3 KECCAK256 SWAP4 SWAP1 SWAP4 SSTORE SWAP1 DUP2 MSTORE PUSH1 0xC SWAP1 SWAP2 MSTORE KECCAK256 SLOAD SWAP2 POP JUMPDEST POP PUSH1 0xA SLOAD PUSH1 0x1 JUMPDEST PUSH1 0x4 SLOAD DUP2 LT ISZERO PUSH2 0x1B02 JUMPI PUSH1 0x4 DUP2 DUP2 SLOAD DUP2 LT PUSH2 0x1A34 JUMPI INVALID JUMPDEST PUSH1 0x0 SWAP2 DUP3 MSTORE PUSH1 0x20 SWAP1 SWAP2 KECCAK256 ADD SLOAD PUSH1 0x1 PUSH1 0x1 PUSH1 0xA0 SHL SUB AND SWAP4 POP PUSH2 0x1A55 DUP5 DUP4 PUSH2 0x21CC JUMP JUMPDEST PUSH1 0x1 PUSH1 0x1 PUSH1 0xA0 SHL SUB DUP6 AND PUSH1 0x0 SWAP1 DUP2 MSTORE PUSH1 0x5 PUSH1 0x20 MSTORE PUSH1 0x40 SWAP1 KECCAK256 PUSH1 0x3 ADD SSTORE PUSH2 0x1A7A DUP5 PUSH2 0x10E8 JUMP JUMPDEST PUSH1 0x1 PUSH1 0x1 PUSH1 0xA0 SHL SUB DUP1 DUP7 AND PUSH1 0x0 SWAP1 DUP2 MSTORE PUSH1 0x5 PUSH1 0x20 MSTORE PUSH1 0x40 SWAP1 KECCAK256 PUSH1 0x2 ADD SWAP2 SWAP1 SWAP2 SSTORE DUP6 AND ISZERO PUSH2 0x1AFA JUMPI PUSH2 0x1AAD DUP6 DUP6 DUP6 DUP6 PUSH2 0x2261 JUMP JUMPDEST PUSH1 0x1 PUSH1 0x1 PUSH1 0xA0 SHL SUB DUP1 DUP8 AND PUSH1 0x0 DUP2 DUP2 MSTORE PUSH1 0x9 PUSH1 0x20 SWAP1 DUP2 MSTORE PUSH1 0x40 DUP1 DUP4 KECCAK256 SWAP5 DUP11 AND DUP1 DUP5 MSTORE SWAP5 DUP3 MSTORE DUP1 DUP4 KECCAK256 SWAP6 SWAP1 SWAP6 SSTORE PUSH1 0x5 DUP2 MSTORE DUP5 DUP3 KECCAK256 PUSH1 0x3 ADD SLOAD SWAP3 DUP3 MSTORE PUSH1 0x8 DUP2 MSTORE DUP5 DUP3 KECCAK256 SWAP4 DUP3 MSTORE SWAP3 SWAP1 SWAP3 MSTORE SWAP2 SWAP1 KECCAK256 SSTORE JUMPDEST PUSH1 0x1 ADD PUSH2 0x1A1D JUMP JUMPDEST POP PUSH1 0x1 PUSH1 0x1 PUSH1 0xA0 SHL SUB DUP7 AND PUSH1 0x0 SWAP1 DUP2 MSTORE PUSH1 0x7 PUSH1 0x20 SWAP1 DUP2 MSTORE PUSH1 0x40 DUP1 DUP4 KECCAK256 CALLER DUP5 MSTORE SWAP1 SWAP2 MSTORE SWAP1 KECCAK256 SLOAD PUSH1 0xFF AND PUSH2 0x1B33 JUMPI PUSH1 0x0 DUP1 REVERT JUMPDEST PUSH1 0x0 DUP6 GT PUSH2 0x1B53 JUMPI PUSH1 0x40 MLOAD PUSH3 0x461BCD PUSH1 0xE5 SHL DUP2 MSTORE PUSH1 0x4 ADD PUSH2 0x750 SWAP1 PUSH2 0x2A70 JUMP JUMPDEST PUSH2 0x1B68 PUSH1 0x1 PUSH1 0x1 PUSH1 0xA0 SHL SUB DUP8 AND CALLER ADDRESS DUP9 PUSH2 0x2463 JUMP JUMPDEST PUSH2 0x1B72 DUP7 DUP7 PUSH2 0x232E JUMP JUMPDEST PUSH32 0xDE88A922E0D3B88B24E9623EFEB464919C6BF9F66857A65E2BFCF2CE87A9433D DUP6 PUSH1 0x40 MLOAD PUSH2 0x1BA1 SWAP2 SWAP1 PUSH2 0x2C91 JUMP JUMPDEST PUSH1 0x40 MLOAD DUP1 SWAP2 SUB SWAP1 LOG1 POP POP POP POP POP POP JUMP JUMPDEST PUSH1 0x1 PUSH1 0x1 PUSH1 0xA0 SHL SUB DUP2 AND PUSH1 0x0 SWAP1 DUP2 MSTORE PUSH1 0x5 PUSH1 0x20 MSTORE PUSH1 0x40 DUP2 KECCAK256 PUSH1 0x1 ADD SLOAD PUSH2 0x110C SWAP1 PUSH3 0x93A80 PUSH2 0x2160 JUMP JUMPDEST PUSH1 0xB SLOAD DUP2 JUMP JUMPDEST PUSH1 0x4 SLOAD PUSH1 0x60 SWAP1 PUSH8 0xFFFFFFFFFFFFFFFF DUP2 GT DUP1 ISZERO PUSH2 0x1BFC JUMPI PUSH1 0x0 DUP1 REVERT JUMPDEST POP PUSH1 0x40 MLOAD SWAP1 DUP1 DUP3 MSTORE DUP1 PUSH1 0x20 MUL PUSH1 0x20 ADD DUP3 ADD PUSH1 0x40 MSTORE DUP1 ISZERO PUSH2 0x1C36 JUMPI DUP2 PUSH1 0x20 ADD JUMPDEST PUSH2 0x1C23 PUSH2 0x2667 JUMP JUMPDEST DUP2 MSTORE PUSH1 0x20 ADD SWAP1 PUSH1 0x1 SWAP1 SUB SWAP1 DUP2 PUSH2 0x1C1B JUMPI SWAP1 POP JUMPDEST POP SWAP1 POP PUSH1 0x0 JUMPDEST DUP2 MLOAD DUP2 LT ISZERO PUSH2 0x1D42 JUMPI PUSH1 0x0 DUP2 ISZERO PUSH2 0x1C6B JUMPI PUSH1 0x1 PUSH1 0x1 PUSH1 0xA0 SHL SUB DUP5 AND PUSH1 0x0 SWAP1 DUP2 MSTORE PUSH1 0xC PUSH1 0x20 MSTORE PUSH1 0x40 SWAP1 KECCAK256 SLOAD PUSH2 0x1C88 JUMP JUMPDEST PUSH1 0x1 PUSH1 0x1 PUSH1 0xA0 SHL SUB DUP5 AND PUSH1 0x0 SWAP1 DUP2 MSTORE PUSH1 0xC PUSH1 0x20 MSTORE PUSH1 0x40 SWAP1 KECCAK256 PUSH1 0x2 ADD SLOAD JUMPDEST SWAP1 POP PUSH1 0x0 DUP3 ISZERO PUSH2 0x1C9A JUMPI PUSH1 0xA SLOAD PUSH2 0x1C9E JUMP JUMPDEST PUSH1 0xB SLOAD JUMPDEST SWAP1 POP PUSH1 0x4 DUP4 DUP2 SLOAD DUP2 LT PUSH2 0x1CAD JUMPI INVALID JUMPDEST SWAP1 PUSH1 0x0 MSTORE PUSH1 0x20 PUSH1 0x0 KECCAK256 ADD PUSH1 0x0 SWAP1 SLOAD SWAP1 PUSH2 0x100 EXP SWAP1 DIV PUSH1 0x1 PUSH1 0x1 PUSH1 0xA0 SHL SUB AND DUP5 DUP5 DUP2 MLOAD DUP2 LT PUSH2 0x1CD7 JUMPI INVALID JUMPDEST PUSH1 0x20 MUL PUSH1 0x20 ADD ADD MLOAD PUSH1 0x0 ADD SWAP1 PUSH1 0x1 PUSH1 0x1 PUSH1 0xA0 SHL SUB AND SWAP1 DUP2 PUSH1 0x1 PUSH1 0x1 PUSH1 0xA0 SHL SUB AND DUP2 MSTORE POP POP PUSH2 0x1D1E DUP6 DUP6 DUP6 DUP2 MLOAD DUP2 LT PUSH2 0x1D0B JUMPI INVALID JUMPDEST PUSH1 0x20 MUL PUSH1 0x20 ADD ADD MLOAD PUSH1 0x0 ADD MLOAD DUP5 DUP5 PUSH2 0x2261 JUMP JUMPDEST DUP5 DUP5 DUP2 MLOAD DUP2 LT PUSH2 0x1D2A JUMPI INVALID JUMPDEST PUSH1 0x20 SWAP1 DUP2 MUL SWAP2 SWAP1 SWAP2 ADD DUP2 ADD MLOAD ADD MSTORE POP POP PUSH1 0x1 ADD PUSH2 0x1C3C JUMP JUMPDEST POP SWAP2 SWAP1 POP JUMP JUMPDEST PUSH1 0x9 PUSH1 0x20 SWAP1 DUP2 MSTORE PUSH1 0x0 SWAP3 DUP4 MSTORE PUSH1 0x40 DUP1 DUP5 KECCAK256 SWAP1 SWAP2 MSTORE SWAP1 DUP3 MSTORE SWAP1 KECCAK256 SLOAD DUP2 JUMP JUMPDEST PUSH1 0x3 SLOAD PUSH1 0xB SLOAD CALLER SWAP2 PUSH1 0x1 PUSH1 0x1 PUSH1 0xA0 SHL SUB AND SWAP1 PUSH1 0x0 SWAP1 PUSH2 0x1D84 DUP4 DUP3 PUSH2 0x21CC JUMP JUMPDEST PUSH1 0x1 PUSH1 0x1 PUSH1 0xA0 SHL SUB DUP5 AND PUSH1 0x0 SWAP1 DUP2 MSTORE PUSH1 0x5 PUSH1 0x20 MSTORE PUSH1 0x40 SWAP1 KECCAK256 PUSH1 0x3 ADD SSTORE PUSH2 0x1DA9 DUP4 PUSH2 0x10E8 JUMP JUMPDEST PUSH1 0x1 PUSH1 0x1 PUSH1 0xA0 SHL SUB DUP1 DUP6 AND PUSH1 0x0 SWAP1 DUP2 MSTORE PUSH1 0x5 PUSH1 0x20 MSTORE PUSH1 0x40 SWAP1 KECCAK256 PUSH1 0x2 ADD SWAP2 SWAP1 SWAP2 SSTORE DUP5 AND ISZERO PUSH2 0x1E55 JUMPI PUSH1 0x1 PUSH1 0x1 PUSH1 0xA0 SHL SUB DUP5 AND PUSH1 0x0 SWAP1 DUP2 MSTORE PUSH1 0xC PUSH1 0x20 MSTORE PUSH1 0x40 SWAP1 KECCAK256 PUSH1 0x2 ADD SLOAD PUSH2 0x1DFA SWAP1 DUP6 SWAP1 DUP6 SWAP1 DUP5 PUSH2 0x2261 JUMP JUMPDEST PUSH1 0x1 PUSH1 0x1 PUSH1 0xA0 SHL SUB DUP1 DUP7 AND PUSH1 0x0 DUP2 DUP2 MSTORE PUSH1 0x9 PUSH1 0x20 SWAP1 DUP2 MSTORE PUSH1 0x40 DUP1 DUP4 KECCAK256 SWAP5 DUP10 AND DUP1 DUP5 MSTORE SWAP5 DUP3 MSTORE DUP1 DUP4 KECCAK256 SWAP6 SWAP1 SWAP6 SSTORE PUSH1 0x5 DUP2 MSTORE DUP5 DUP3 KECCAK256 PUSH1 0x3 ADD SLOAD DUP4 DUP4 MSTORE PUSH1 0x8 DUP3 MSTORE DUP6 DUP4 KECCAK256 SWAP5 DUP4 MSTORE SWAP4 DUP2 MSTORE DUP5 DUP3 KECCAK256 SWAP4 SWAP1 SWAP4 SSTORE SWAP1 DUP2 MSTORE PUSH1 0xC SWAP1 SWAP2 MSTORE KECCAK256 SLOAD SWAP2 POP JUMPDEST POP PUSH1 0xA SLOAD PUSH1 0x1 JUMPDEST PUSH1 0x4 SLOAD DUP2 LT ISZERO PUSH2 0x1F41 JUMPI PUSH1 0x4 DUP2 DUP2 SLOAD DUP2 LT PUSH2 0x1E73 JUMPI INVALID JUMPDEST PUSH1 0x0 SWAP2 DUP3 MSTORE PUSH1 0x20 SWAP1 SWAP2 KECCAK256 ADD SLOAD PUSH1 0x1 PUSH1 0x1 PUSH1 0xA0 SHL SUB AND SWAP4 POP PUSH2 0x1E94 DUP5 DUP4 PUSH2 0x21CC JUMP JUMPDEST PUSH1 0x1 PUSH1 0x1 PUSH1 0xA0 SHL SUB DUP6 AND PUSH1 0x0 SWAP1 DUP2 MSTORE PUSH1 0x5 PUSH1 0x20 MSTORE PUSH1 0x40 SWAP1 KECCAK256 PUSH1 0x3 ADD SSTORE PUSH2 0x1EB9 DUP5 PUSH2 0x10E8 JUMP JUMPDEST PUSH1 0x1 PUSH1 0x1 PUSH1 0xA0 SHL SUB DUP1 DUP7 AND PUSH1 0x0 SWAP1 DUP2 MSTORE PUSH1 0x5 PUSH1 0x20 MSTORE PUSH1 0x40 SWAP1 KECCAK256 PUSH1 0x2 ADD SWAP2 SWAP1 SWAP2 SSTORE DUP6 AND ISZERO PUSH2 0x1F39 JUMPI PUSH2 0x1EEC DUP6 DUP6 DUP6 DUP6 PUSH2 0x2261 JUMP JUMPDEST PUSH1 0x1 PUSH1 0x1 PUSH1 0xA0 SHL SUB DUP1 DUP8 AND PUSH1 0x0 DUP2 DUP2 MSTORE PUSH1 0x9 PUSH1 0x20 SWAP1 DUP2 MSTORE PUSH1 0x40 DUP1 DUP4 KECCAK256 SWAP5 DUP11 AND DUP1 DUP5 MSTORE SWAP5 DUP3 MSTORE DUP1 DUP4 KECCAK256 SWAP6 SWAP1 SWAP6 SSTORE PUSH1 0x5 DUP2 MSTORE DUP5 DUP3 KECCAK256 PUSH1 0x3 ADD SLOAD SWAP3 DUP3 MSTORE PUSH1 0x8 DUP2 MSTORE DUP5 DUP3 KECCAK256 SWAP4 DUP3 MSTORE SWAP3 SWAP1 SWAP3 MSTORE SWAP2 SWAP1 KECCAK256 SSTORE JUMPDEST PUSH1 0x1 ADD PUSH2 0x1E5C JUMP JUMPDEST POP PUSH1 0x0 DUP1 PUSH2 0x1F4E CALLER PUSH2 0x436 JUMP JUMPDEST CALLER PUSH1 0x0 SWAP1 DUP2 MSTORE PUSH1 0xD PUSH1 0x20 MSTORE PUSH1 0x40 DUP2 KECCAK256 SWAP3 SWAP5 POP SWAP1 SWAP3 POP PUSH2 0x1F6D SWAP2 SWAP1 PUSH2 0x2643 JUMP JUMPDEST CALLER PUSH1 0x0 SWAP1 DUP2 MSTORE PUSH1 0xC PUSH1 0x20 MSTORE PUSH1 0x40 SWAP1 KECCAK256 PUSH1 0x2 DUP2 ADD SLOAD PUSH1 0x1 DUP3 ADD SLOAD DUP3 SLOAD PUSH2 0x1F97 SWAP3 SWAP2 PUSH2 0x584 SWAP2 SWAP1 PUSH2 0x2138 JUMP JUMPDEST DUP2 SSTORE PUSH1 0x0 PUSH1 0x1 DUP3 ADD DUP2 SWAP1 SSTORE PUSH1 0x2 DUP3 ADD SSTORE PUSH2 0x1FBD PUSH2 0x1FB4 DUP5 DUP5 PUSH2 0x2113 JUMP JUMPDEST PUSH1 0xA SLOAD SWAP1 PUSH2 0x2138 JUMP JUMPDEST PUSH1 0xA SSTORE PUSH1 0x3 SLOAD PUSH2 0x1FD7 SWAP1 PUSH1 0x1 PUSH1 0x1 PUSH1 0xA0 SHL SUB AND CALLER DUP6 PUSH2 0x22D3 JUMP JUMPDEST DUP2 ISZERO PUSH2 0x1FF3 JUMPI PUSH1 0x3 SLOAD PUSH2 0x1FF3 SWAP1 PUSH1 0x1 PUSH1 0x1 PUSH1 0xA0 SHL SUB AND DUP4 PUSH2 0x232E JUMP JUMPDEST PUSH2 0x1FFB PUSH2 0xC4F JUMP JUMPDEST POP POP POP POP POP POP POP JUMP JUMPDEST PUSH1 0x3 SLOAD PUSH1 0x0 SWAP1 DUP2 SWAP1 PUSH1 0x1 PUSH1 0x1 PUSH1 0xA0 SHL SUB DUP5 DUP2 AND SWAP2 AND EQ PUSH2 0x2026 JUMPI PUSH1 0xA SLOAD PUSH2 0x202A JUMP JUMPDEST PUSH1 0xB SLOAD JUMPDEST SWAP1 POP PUSH2 0x2036 DUP4 DUP3 PUSH2 0x21CC JUMP JUMPDEST SWAP4 SWAP3 POP POP POP JUMP JUMPDEST PUSH2 0x2045 PUSH2 0x2449 JUMP JUMPDEST PUSH1 0x1 PUSH1 0x1 PUSH1 0xA0 SHL SUB AND PUSH2 0x2056 PUSH2 0x13A9 JUMP JUMPDEST PUSH1 0x1 PUSH1 0x1 PUSH1 0xA0 SHL SUB AND EQ PUSH2 0x207C JUMPI PUSH1 0x40 MLOAD PUSH3 0x461BCD PUSH1 0xE5 SHL DUP2 MSTORE PUSH1 0x4 ADD PUSH2 0x750 SWAP1 PUSH2 0x2AFF JUMP JUMPDEST PUSH1 0x1 PUSH1 0x1 PUSH1 0xA0 SHL SUB DUP2 AND PUSH2 0x20A2 JUMPI PUSH1 0x40 MLOAD PUSH3 0x461BCD PUSH1 0xE5 SHL DUP2 MSTORE PUSH1 0x4 ADD PUSH2 0x750 SWAP1 PUSH2 0x28D5 JUMP JUMPDEST PUSH1 0x1 SLOAD PUSH1 0x40 MLOAD PUSH1 0x1 PUSH1 0x1 PUSH1 0xA0 SHL SUB DUP1 DUP5 AND SWAP3 AND SWAP1 PUSH32 0x8BE0079C531659141344CD1FD0A4F28419497F9722A3DAAFE3B4186F6B6457E0 SWAP1 PUSH1 0x0 SWAP1 LOG3 PUSH1 0x1 DUP1 SLOAD PUSH1 0x1 PUSH1 0x1 PUSH1 0xA0 SHL SUB NOT AND PUSH1 0x1 PUSH1 0x1 PUSH1 0xA0 SHL SUB SWAP3 SWAP1 SWAP3 AND SWAP2 SWAP1 SWAP2 OR SWAP1 SSTORE JUMP JUMPDEST PUSH1 0x6 PUSH1 0x20 MSTORE PUSH1 0x0 SWAP1 DUP2 MSTORE PUSH1 0x40 SWAP1 KECCAK256 SLOAD PUSH1 0xFF AND DUP2 JUMP JUMPDEST PUSH1 0x0 DUP3 DUP3 ADD DUP4 DUP2 LT ISZERO PUSH2 0x2036 JUMPI PUSH1 0x40 MLOAD PUSH3 0x461BCD PUSH1 0xE5 SHL DUP2 MSTORE PUSH1 0x4 ADD PUSH2 0x750 SWAP1 PUSH2 0x2943 JUMP JUMPDEST PUSH1 0x0 DUP3 DUP3 GT ISZERO PUSH2 0x215A JUMPI PUSH1 0x40 MLOAD PUSH3 0x461BCD PUSH1 0xE5 SHL DUP2 MSTORE PUSH1 0x4 ADD PUSH2 0x750 SWAP1 PUSH2 0x29BC JUMP JUMPDEST POP SWAP1 SUB SWAP1 JUMP JUMPDEST PUSH1 0x0 DUP3 PUSH2 0x216F JUMPI POP PUSH1 0x0 PUSH2 0x110C JUMP JUMPDEST DUP3 DUP3 MUL DUP3 DUP5 DUP3 DUP2 PUSH2 0x217C JUMPI INVALID JUMPDEST DIV EQ PUSH2 0x2036 JUMPI PUSH1 0x40 MLOAD PUSH3 0x461BCD PUSH1 0xE5 SHL DUP2 MSTORE PUSH1 0x4 ADD PUSH2 0x750 SWAP1 PUSH2 0x2ABE JUMP JUMPDEST PUSH1 0x0 DUP1 DUP3 GT PUSH2 0x21BB JUMPI PUSH1 0x40 MLOAD PUSH3 0x461BCD PUSH1 0xE5 SHL DUP2 MSTORE PUSH1 0x4 ADD PUSH2 0x750 SWAP1 PUSH2 0x2A39 JUMP JUMPDEST DUP2 DUP4 DUP2 PUSH2 0x21C4 JUMPI INVALID JUMPDEST DIV SWAP4 SWAP3 POP POP POP JUMP JUMPDEST PUSH1 0x0 DUP2 PUSH2 0x21F5 JUMPI POP PUSH1 0x1 PUSH1 0x1 PUSH1 0xA0 SHL SUB DUP3 AND PUSH1 0x0 SWAP1 DUP2 MSTORE PUSH1 0x5 PUSH1 0x20 MSTORE PUSH1 0x40 SWAP1 KECCAK256 PUSH1 0x3 ADD SLOAD PUSH2 0x110C JUMP JUMPDEST PUSH1 0x1 PUSH1 0x1 PUSH1 0xA0 SHL SUB DUP4 AND PUSH1 0x0 SWAP1 DUP2 MSTORE PUSH1 0x5 PUSH1 0x20 MSTORE PUSH1 0x40 SWAP1 KECCAK256 PUSH1 0x1 DUP2 ADD SLOAD PUSH1 0x2 SWAP1 SWAP2 ADD SLOAD PUSH2 0x2036 SWAP2 PUSH2 0x223F SWAP2 DUP6 SWAP2 PUSH2 0x55A SWAP2 PUSH8 0xDE0B6B3A7640000 SWAP2 PUSH2 0x554 SWAP2 DUP3 SWAP1 PUSH2 0x584 DUP13 PUSH2 0x10E8 JUMP JUMPDEST PUSH1 0x1 PUSH1 0x1 PUSH1 0xA0 SHL SUB DUP6 AND PUSH1 0x0 SWAP1 DUP2 MSTORE PUSH1 0x5 PUSH1 0x20 MSTORE PUSH1 0x40 SWAP1 KECCAK256 PUSH1 0x3 ADD SLOAD SWAP1 PUSH2 0x2113 JUMP JUMPDEST PUSH1 0x1 PUSH1 0x1 PUSH1 0xA0 SHL SUB DUP1 DUP6 AND PUSH1 0x0 DUP2 DUP2 MSTORE PUSH1 0x9 PUSH1 0x20 SWAP1 DUP2 MSTORE PUSH1 0x40 DUP1 DUP4 KECCAK256 SWAP5 DUP9 AND DUP1 DUP5 MSTORE SWAP5 DUP3 MSTORE DUP1 DUP4 KECCAK256 SLOAD SWAP4 DUP4 MSTORE PUSH1 0x8 DUP3 MSTORE DUP1 DUP4 KECCAK256 SWAP5 DUP4 MSTORE SWAP4 SWAP1 MSTORE SWAP2 DUP3 KECCAK256 SLOAD PUSH2 0x22CA SWAP2 SWAP1 PUSH2 0x1790 SWAP1 PUSH8 0xDE0B6B3A7640000 SWAP1 PUSH2 0x55A SWAP1 PUSH2 0x22C3 SWAP1 PUSH2 0x584 DUP12 DUP11 PUSH2 0x21CC JUMP JUMPDEST DUP9 SWAP1 PUSH2 0x2160 JUMP JUMPDEST SWAP6 SWAP5 POP POP POP POP POP JUMP JUMPDEST PUSH2 0x2329 DUP4 PUSH4 0xA9059CBB PUSH1 0xE0 SHL DUP5 DUP5 PUSH1 0x40 MLOAD PUSH1 0x24 ADD PUSH2 0x22F2 SWAP3 SWAP2 SWAP1 PUSH2 0x2826 JUMP JUMPDEST PUSH1 0x40 DUP1 MLOAD PUSH1 0x1F NOT DUP2 DUP5 SUB ADD DUP2 MSTORE SWAP2 SWAP1 MSTORE PUSH1 0x20 DUP2 ADD DUP1 MLOAD PUSH1 0x1 PUSH1 0x1 PUSH1 0xE0 SHL SUB AND PUSH1 0x1 PUSH1 0x1 PUSH1 0xE0 SHL SUB NOT SWAP1 SWAP4 AND SWAP3 SWAP1 SWAP3 OR SWAP1 SWAP2 MSTORE PUSH2 0x2484 JUMP JUMPDEST POP POP POP JUMP JUMPDEST PUSH1 0x1 PUSH1 0x1 PUSH1 0xA0 SHL SUB DUP3 AND PUSH1 0x0 SWAP1 DUP2 MSTORE PUSH1 0x5 PUSH1 0x20 MSTORE PUSH1 0x40 SWAP1 KECCAK256 SLOAD TIMESTAMP LT PUSH2 0x237B JUMPI PUSH2 0x235A DUP2 PUSH3 0x93A80 PUSH2 0x219A JUMP JUMPDEST PUSH1 0x1 PUSH1 0x1 PUSH1 0xA0 SHL SUB DUP4 AND PUSH1 0x0 SWAP1 DUP2 MSTORE PUSH1 0x5 PUSH1 0x20 MSTORE PUSH1 0x40 SWAP1 KECCAK256 PUSH1 0x1 ADD SSTORE PUSH2 0x23FB JUMP JUMPDEST PUSH1 0x1 PUSH1 0x1 PUSH1 0xA0 SHL SUB DUP3 AND PUSH1 0x0 SWAP1 DUP2 MSTORE PUSH1 0x5 PUSH1 0x20 MSTORE PUSH1 0x40 DUP2 KECCAK256 SLOAD PUSH2 0x239E SWAP1 TIMESTAMP PUSH2 0x2138 JUMP JUMPDEST PUSH1 0x1 PUSH1 0x1 PUSH1 0xA0 SHL SUB DUP5 AND PUSH1 0x0 SWAP1 DUP2 MSTORE PUSH1 0x5 PUSH1 0x20 MSTORE PUSH1 0x40 DUP2 KECCAK256 PUSH1 0x1 ADD SLOAD SWAP2 SWAP3 POP SWAP1 PUSH2 0x23C9 SWAP1 DUP4 SWAP1 PUSH2 0x2160 JUMP JUMPDEST SWAP1 POP PUSH2 0x23DC PUSH3 0x93A80 PUSH2 0x55A DUP6 DUP5 PUSH2 0x2113 JUMP JUMPDEST PUSH1 0x1 PUSH1 0x1 PUSH1 0xA0 SHL SUB DUP6 AND PUSH1 0x0 SWAP1 DUP2 MSTORE PUSH1 0x5 PUSH1 0x20 MSTORE PUSH1 0x40 SWAP1 KECCAK256 PUSH1 0x1 ADD SSTORE POP POP JUMPDEST PUSH1 0x1 PUSH1 0x1 PUSH1 0xA0 SHL SUB DUP3 AND PUSH1 0x0 SWAP1 DUP2 MSTORE PUSH1 0x5 PUSH1 0x20 MSTORE PUSH1 0x40 SWAP1 KECCAK256 TIMESTAMP PUSH1 0x2 SWAP1 SWAP2 ADD DUP2 SWAP1 SSTORE PUSH2 0x2429 SWAP1 PUSH3 0x93A80 PUSH2 0x2113 JUMP JUMPDEST PUSH1 0x1 PUSH1 0x1 PUSH1 0xA0 SHL SUB SWAP1 SWAP3 AND PUSH1 0x0 SWAP1 DUP2 MSTORE PUSH1 0x5 PUSH1 0x20 MSTORE PUSH1 0x40 SWAP1 KECCAK256 SWAP2 SWAP1 SWAP2 SSTORE POP JUMP JUMPDEST CALLER SWAP1 JUMP JUMPDEST PUSH1 0x0 DUP2 DUP4 LT PUSH2 0x245C JUMPI DUP2 PUSH2 0x2036 JUMP JUMPDEST POP SWAP1 SWAP2 SWAP1 POP JUMP JUMPDEST PUSH2 0x14F2 DUP5 PUSH4 0x23B872DD PUSH1 0xE0 SHL DUP6 DUP6 DUP6 PUSH1 0x40 MLOAD PUSH1 0x24 ADD PUSH2 0x22F2 SWAP4 SWAP3 SWAP2 SWAP1 PUSH2 0x2802 JUMP JUMPDEST PUSH1 0x0 PUSH2 0x24D9 DUP3 PUSH1 0x40 MLOAD DUP1 PUSH1 0x40 ADD PUSH1 0x40 MSTORE DUP1 PUSH1 0x20 DUP2 MSTORE PUSH1 0x20 ADD PUSH32 0x5361666545524332303A206C6F772D6C6576656C2063616C6C206661696C6564 DUP2 MSTORE POP DUP6 PUSH1 0x1 PUSH1 0x1 PUSH1 0xA0 SHL SUB AND PUSH2 0x2513 SWAP1 SWAP3 SWAP2 SWAP1 PUSH4 0xFFFFFFFF AND JUMP JUMPDEST DUP1 MLOAD SWAP1 SWAP2 POP ISZERO PUSH2 0x2329 JUMPI DUP1 DUP1 PUSH1 0x20 ADD SWAP1 MLOAD DUP2 ADD SWAP1 PUSH2 0x24F7 SWAP2 SWAP1 PUSH2 0x276F JUMP JUMPDEST PUSH2 0x2329 JUMPI PUSH1 0x40 MLOAD PUSH3 0x461BCD PUSH1 0xE5 SHL DUP2 MSTORE PUSH1 0x4 ADD PUSH2 0x750 SWAP1 PUSH2 0x2BD9 JUMP JUMPDEST PUSH1 0x60 PUSH2 0x2522 DUP5 DUP5 PUSH1 0x0 DUP6 PUSH2 0x252A JUMP JUMPDEST SWAP5 SWAP4 POP POP POP POP JUMP JUMPDEST PUSH1 0x60 DUP3 SELFBALANCE LT ISZERO PUSH2 0x254C JUMPI PUSH1 0x40 MLOAD PUSH3 0x461BCD PUSH1 0xE5 SHL DUP2 MSTORE PUSH1 0x4 ADD PUSH2 0x750 SWAP1 PUSH2 0x29F3 JUMP JUMPDEST PUSH2 0x2555 DUP6 PUSH2 0x25EA JUMP JUMPDEST PUSH2 0x2571 JUMPI PUSH1 0x40 MLOAD PUSH3 0x461BCD PUSH1 0xE5 SHL DUP2 MSTORE PUSH1 0x4 ADD PUSH2 0x750 SWAP1 PUSH2 0x2BA2 JUMP JUMPDEST PUSH1 0x0 DUP1 DUP7 PUSH1 0x1 PUSH1 0x1 PUSH1 0xA0 SHL SUB AND DUP6 DUP8 PUSH1 0x40 MLOAD PUSH2 0x258D SWAP2 SWAP1 PUSH2 0x27D2 JUMP JUMPDEST PUSH1 0x0 PUSH1 0x40 MLOAD DUP1 DUP4 SUB DUP2 DUP6 DUP8 GAS CALL SWAP3 POP POP POP RETURNDATASIZE DUP1 PUSH1 0x0 DUP2 EQ PUSH2 0x25CA JUMPI PUSH1 0x40 MLOAD SWAP2 POP PUSH1 0x1F NOT PUSH1 0x3F RETURNDATASIZE ADD AND DUP3 ADD PUSH1 0x40 MSTORE RETURNDATASIZE DUP3 MSTORE RETURNDATASIZE PUSH1 0x0 PUSH1 0x20 DUP5 ADD RETURNDATACOPY PUSH2 0x25CF JUMP JUMPDEST PUSH1 0x60 SWAP2 POP JUMPDEST POP SWAP2 POP SWAP2 POP PUSH2 0x25DF DUP3 DUP3 DUP7 PUSH2 0x25F0 JUMP JUMPDEST SWAP8 SWAP7 POP POP POP POP POP POP POP JUMP JUMPDEST EXTCODESIZE ISZERO ISZERO SWAP1 JUMP JUMPDEST PUSH1 0x60 DUP4 ISZERO PUSH2 0x25FF JUMPI POP DUP2 PUSH2 0x2036 JUMP JUMPDEST DUP3 MLOAD ISZERO PUSH2 0x260F JUMPI DUP3 MLOAD DUP1 DUP5 PUSH1 0x20 ADD REVERT JUMPDEST DUP2 PUSH1 0x40 MLOAD PUSH3 0x461BCD PUSH1 0xE5 SHL DUP2 MSTORE PUSH1 0x4 ADD PUSH2 0x750 SWAP2 SWAP1 PUSH2 0x28A2 JUMP JUMPDEST PUSH1 0x40 MLOAD DUP1 PUSH1 0x40 ADD PUSH1 0x40 MSTORE DUP1 PUSH1 0x0 DUP2 MSTORE PUSH1 0x20 ADD PUSH1 0x0 DUP2 MSTORE POP SWAP1 JUMP JUMPDEST POP DUP1 SLOAD PUSH1 0x0 DUP3 SSTORE PUSH1 0x2 MUL SWAP1 PUSH1 0x0 MSTORE PUSH1 0x20 PUSH1 0x0 KECCAK256 SWAP1 DUP2 ADD SWAP1 PUSH2 0x2664 SWAP2 SWAP1 PUSH2 0x267E JUMP JUMPDEST POP JUMP JUMPDEST PUSH1 0x40 DUP1 MLOAD DUP1 DUP3 ADD SWAP1 SWAP2 MSTORE PUSH1 0x0 DUP1 DUP3 MSTORE PUSH1 0x20 DUP3 ADD MSTORE SWAP1 JUMP JUMPDEST JUMPDEST DUP1 DUP3 GT ISZERO PUSH2 0x2699 JUMPI PUSH1 0x0 DUP1 DUP3 SSTORE PUSH1 0x1 DUP3 ADD SSTORE PUSH1 0x2 ADD PUSH2 0x267F JUMP JUMPDEST POP SWAP1 JUMP JUMPDEST DUP1 CALLDATALOAD PUSH1 0x1 PUSH1 0x1 PUSH1 0xA0 SHL SUB DUP2 AND DUP2 EQ PUSH2 0x10E3 JUMPI PUSH1 0x0 DUP1 REVERT JUMPDEST PUSH1 0x0 PUSH1 0x20 DUP3 DUP5 SUB SLT ISZERO PUSH2 0x26C5 JUMPI DUP1 DUP2 REVERT JUMPDEST PUSH2 0x2036 DUP3 PUSH2 0x269D JUMP JUMPDEST PUSH1 0x0 DUP1 PUSH1 0x40 DUP4 DUP6 SUB SLT ISZERO PUSH2 0x26E0 JUMPI DUP1 DUP2 REVERT JUMPDEST PUSH2 0x26E9 DUP4 PUSH2 0x269D JUMP JUMPDEST SWAP2 POP PUSH2 0x26F7 PUSH1 0x20 DUP5 ADD PUSH2 0x269D JUMP JUMPDEST SWAP1 POP SWAP3 POP SWAP3 SWAP1 POP JUMP JUMPDEST PUSH1 0x0 DUP1 PUSH1 0x0 PUSH1 0x60 DUP5 DUP7 SUB SLT ISZERO PUSH2 0x2714 JUMPI DUP1 DUP2 REVERT JUMPDEST PUSH2 0x271D DUP5 PUSH2 0x269D JUMP JUMPDEST SWAP3 POP PUSH2 0x272B PUSH1 0x20 DUP6 ADD PUSH2 0x269D JUMP JUMPDEST SWAP2 POP PUSH1 0x40 DUP5 ADD CALLDATALOAD PUSH2 0x273B DUP2 PUSH2 0x2D55 JUMP JUMPDEST DUP1 SWAP2 POP POP SWAP3 POP SWAP3 POP SWAP3 JUMP JUMPDEST PUSH1 0x0 DUP1 PUSH1 0x40 DUP4 DUP6 SUB SLT ISZERO PUSH2 0x2758 JUMPI DUP2 DUP3 REVERT JUMPDEST PUSH2 0x2761 DUP4 PUSH2 0x269D JUMP JUMPDEST SWAP5 PUSH1 0x20 SWAP4 SWAP1 SWAP4 ADD CALLDATALOAD SWAP4 POP POP POP JUMP JUMPDEST PUSH1 0x0 PUSH1 0x20 DUP3 DUP5 SUB SLT ISZERO PUSH2 0x2780 JUMPI DUP1 DUP2 REVERT JUMPDEST DUP2 MLOAD PUSH2 0x2036 DUP2 PUSH2 0x2D55 JUMP JUMPDEST PUSH1 0x0 PUSH1 0x20 DUP3 DUP5 SUB SLT ISZERO PUSH2 0x279C JUMPI DUP1 DUP2 REVERT JUMPDEST POP CALLDATALOAD SWAP2 SWAP1 POP JUMP JUMPDEST PUSH1 0x0 DUP1 PUSH1 0x40 DUP4 DUP6 SUB SLT ISZERO PUSH2 0x27B5 JUMPI DUP2 DUP3 REVERT JUMPDEST DUP3 CALLDATALOAD SWAP2 POP PUSH1 0x20 DUP4 ADD CALLDATALOAD PUSH2 0x27C7 DUP2 PUSH2 0x2D55 JUMP JUMPDEST DUP1 SWAP2 POP POP SWAP3 POP SWAP3 SWAP1 POP JUMP JUMPDEST PUSH1 0x0 DUP3 MLOAD PUSH2 0x27E4 DUP2 DUP5 PUSH1 0x20 DUP8 ADD PUSH2 0x2D29 JUMP JUMPDEST SWAP2 SWAP1 SWAP2 ADD SWAP3 SWAP2 POP POP JUMP JUMPDEST PUSH1 0x1 PUSH1 0x1 PUSH1 0xA0 SHL SUB SWAP2 SWAP1 SWAP2 AND DUP2 MSTORE PUSH1 0x20 ADD SWAP1 JUMP JUMPDEST PUSH1 0x1 PUSH1 0x1 PUSH1 0xA0 SHL SUB SWAP4 DUP5 AND DUP2 MSTORE SWAP2 SWAP1 SWAP3 AND PUSH1 0x20 DUP3 ADD MSTORE PUSH1 0x40 DUP2 ADD SWAP2 SWAP1 SWAP2 MSTORE PUSH1 0x60 ADD SWAP1 JUMP JUMPDEST PUSH1 0x1 PUSH1 0x1 PUSH1 0xA0 SHL SUB SWAP3 SWAP1 SWAP3 AND DUP3 MSTORE PUSH1 0x20 DUP3 ADD MSTORE PUSH1 0x40 ADD SWAP1 JUMP JUMPDEST PUSH1 0x20 DUP1 DUP3 MSTORE DUP3 MLOAD DUP3 DUP3 ADD DUP2 SWAP1 MSTORE PUSH1 0x0 SWAP2 SWAP1 PUSH1 0x40 SWAP1 DUP2 DUP6 ADD SWAP1 DUP7 DUP5 ADD DUP6 JUMPDEST DUP3 DUP2 LT ISZERO PUSH2 0x288A JUMPI DUP2 MLOAD DUP1 MLOAD PUSH1 0x1 PUSH1 0x1 PUSH1 0xA0 SHL SUB AND DUP6 MSTORE DUP7 ADD MLOAD DUP7 DUP6 ADD MSTORE SWAP3 DUP5 ADD SWAP3 SWAP1 DUP6 ADD SWAP1 PUSH1 0x1 ADD PUSH2 0x285C JUMP JUMPDEST POP SWAP2 SWAP8 SWAP7 POP POP POP POP POP POP POP JUMP JUMPDEST SWAP1 ISZERO ISZERO DUP2 MSTORE PUSH1 0x20 ADD SWAP1 JUMP JUMPDEST PUSH1 0x0 PUSH1 0x20 DUP3 MSTORE DUP3 MLOAD DUP1 PUSH1 0x20 DUP5 ADD MSTORE PUSH2 0x28C1 DUP2 PUSH1 0x40 DUP6 ADD PUSH1 0x20 DUP8 ADD PUSH2 0x2D29 JUMP JUMPDEST PUSH1 0x1F ADD PUSH1 0x1F NOT AND SWAP2 SWAP1 SWAP2 ADD PUSH1 0x40 ADD SWAP3 SWAP2 POP POP JUMP JUMPDEST PUSH1 0x20 DUP1 DUP3 MSTORE PUSH1 0x26 SWAP1 DUP3 ADD MSTORE PUSH32 0x4F776E61626C653A206E6577206F776E657220697320746865207A65726F2061 PUSH1 0x40 DUP3 ADD MSTORE PUSH6 0x646472657373 PUSH1 0xD0 SHL PUSH1 0x60 DUP3 ADD MSTORE PUSH1 0x80 ADD SWAP1 JUMP JUMPDEST PUSH1 0x20 DUP1 DUP3 MSTORE PUSH1 0xE SWAP1 DUP3 ADD MSTORE PUSH14 0x43616E6E6F74207374616B65203 PUSH1 0x94 SHL PUSH1 0x40 DUP3 ADD MSTORE PUSH1 0x60 ADD SWAP1 JUMP JUMPDEST PUSH1 0x20 DUP1 DUP3 MSTORE PUSH1 0x1B SWAP1 DUP3 ADD MSTORE PUSH32 0x536166654D6174683A206164646974696F6E206F766572666C6F770000000000 PUSH1 0x40 DUP3 ADD MSTORE PUSH1 0x60 ADD SWAP1 JUMP JUMPDEST PUSH1 0x20 DUP1 DUP3 MSTORE PUSH1 0x22 SWAP1 DUP3 ADD MSTORE PUSH32 0x496E73756666696369656E742062616C616E63652061667465722070656E616C PUSH1 0x40 DUP3 ADD MSTORE PUSH2 0x7479 PUSH1 0xF0 SHL PUSH1 0x60 DUP3 ADD MSTORE PUSH1 0x80 ADD SWAP1 JUMP JUMPDEST PUSH1 0x20 DUP1 DUP3 MSTORE PUSH1 0x1E SWAP1 DUP3 ADD MSTORE PUSH32 0x536166654D6174683A207375627472616374696F6E206F766572666C6F770000 PUSH1 0x40 DUP3 ADD MSTORE PUSH1 0x60 ADD SWAP1 JUMP JUMPDEST PUSH1 0x20 DUP1 DUP3 MSTORE PUSH1 0x26 SWAP1 DUP3 ADD MSTORE PUSH32 0x416464726573733A20696E73756666696369656E742062616C616E636520666F PUSH1 0x40 DUP3 ADD MSTORE PUSH6 0x1C8818D85B1B PUSH1 0xD2 SHL PUSH1 0x60 DUP3 ADD MSTORE PUSH1 0x80 ADD SWAP1 JUMP JUMPDEST PUSH1 0x20 DUP1 DUP3 MSTORE PUSH1 0x1A SWAP1 DUP3 ADD MSTORE PUSH32 0x536166654D6174683A206469766973696F6E206279207A65726F000000000000 PUSH1 0x40 DUP3 ADD MSTORE PUSH1 0x60 ADD SWAP1 JUMP JUMPDEST PUSH1 0x20 DUP1 DUP3 MSTORE PUSH1 0x9 SWAP1 DUP3 ADD MSTORE PUSH9 0x139BC81C995DD85C99 PUSH1 0xBA SHL PUSH1 0x40 DUP3 ADD MSTORE PUSH1 0x60 ADD SWAP1 JUMP JUMPDEST PUSH1 0x20 DUP1 DUP3 MSTORE PUSH1 0x11 SWAP1 DUP3 ADD MSTORE PUSH17 0x43616E6E6F74207769746864726177203 PUSH1 0x7C SHL PUSH1 0x40 DUP3 ADD MSTORE PUSH1 0x60 ADD SWAP1 JUMP JUMPDEST PUSH1 0x20 DUP1 DUP3 MSTORE PUSH1 0x21 SWAP1 DUP3 ADD MSTORE PUSH32 0x536166654D6174683A206D756C7469706C69636174696F6E206F766572666C6F PUSH1 0x40 DUP3 ADD MSTORE PUSH1 0x77 PUSH1 0xF8 SHL PUSH1 0x60 DUP3 ADD MSTORE PUSH1 0x80 ADD SWAP1 JUMP JUMPDEST PUSH1 0x20 DUP1 DUP3 MSTORE DUP2 DUP2 ADD MSTORE PUSH32 0x4F776E61626C653A2063616C6C6572206973206E6F7420746865206F776E6572 PUSH1 0x40 DUP3 ADD MSTORE PUSH1 0x60 ADD SWAP1 JUMP JUMPDEST PUSH1 0x20 DUP1 DUP3 MSTORE PUSH1 0x1D SWAP1 DUP3 ADD MSTORE PUSH32 0x43616E6E6F74207769746864726177207374616B696E6720746F6B656E000000 PUSH1 0x40 DUP3 ADD MSTORE PUSH1 0x60 ADD SWAP1 JUMP JUMPDEST PUSH1 0x20 DUP1 DUP3 MSTORE PUSH1 0x1D SWAP1 DUP3 ADD MSTORE PUSH32 0x496E73756666696369656E7420756E6C6F636B65642062616C616E6365000000 PUSH1 0x40 DUP3 ADD MSTORE PUSH1 0x60 ADD SWAP1 JUMP JUMPDEST PUSH1 0x20 DUP1 DUP3 MSTORE PUSH1 0x1D SWAP1 DUP3 ADD MSTORE PUSH32 0x416464726573733A2063616C6C20746F206E6F6E2D636F6E7472616374000000 PUSH1 0x40 DUP3 ADD MSTORE PUSH1 0x60 ADD SWAP1 JUMP JUMPDEST PUSH1 0x20 DUP1 DUP3 MSTORE PUSH1 0x2A SWAP1 DUP3 ADD MSTORE PUSH32 0x5361666545524332303A204552433230206F7065726174696F6E20646964206E PUSH1 0x40 DUP3 ADD MSTORE PUSH10 0x1BDD081CDD58D8D95959 PUSH1 0xB2 SHL PUSH1 0x60 DUP3 ADD MSTORE PUSH1 0x80 ADD SWAP1 JUMP JUMPDEST PUSH1 0x20 DUP1 DUP3 MSTORE PUSH1 0x1C SWAP1 DUP3 ADD MSTORE PUSH32 0x43616E6E6F742077697468647261772072657761726420746F6B656E00000000 PUSH1 0x40 DUP3 ADD MSTORE PUSH1 0x60 ADD SWAP1 JUMP JUMPDEST PUSH1 0x20 DUP1 DUP3 MSTORE PUSH1 0x1F SWAP1 DUP3 ADD MSTORE PUSH32 0x5265656E7472616E637947756172643A207265656E7472616E742063616C6C00 PUSH1 0x40 DUP3 ADD MSTORE PUSH1 0x60 ADD SWAP1 JUMP JUMPDEST SWAP1 DUP2 MSTORE PUSH1 0x20 ADD SWAP1 JUMP JUMPDEST SWAP2 DUP3 MSTORE PUSH1 0x20 DUP3 ADD MSTORE PUSH1 0x40 ADD SWAP1 JUMP JUMPDEST PUSH1 0x0 PUSH1 0x80 DUP3 ADD DUP7 DUP4 MSTORE PUSH1 0x20 DUP7 DUP2 DUP6 ADD MSTORE PUSH1 0x40 DUP7 DUP2 DUP7 ADD MSTORE PUSH1 0x80 PUSH1 0x60 DUP7 ADD MSTORE DUP3 DUP7 MLOAD DUP1 DUP6 MSTORE PUSH1 0xA0 DUP8 ADD SWAP2 POP DUP4 DUP9 ADD SWAP5 POP DUP6 JUMPDEST DUP2 DUP2 LT ISZERO PUSH2 0x2CFE JUMPI DUP6 MLOAD DUP1 MLOAD DUP5 MSTORE DUP6 ADD MLOAD DUP6 DUP5 ADD MSTORE SWAP5 DUP5 ADD SWAP5 SWAP2 DUP4 ADD SWAP2 PUSH1 0x1 ADD PUSH2 0x2CD9 JUMP JUMPDEST POP SWAP1 SWAP11 SWAP10 POP POP POP POP POP POP POP POP POP POP JUMP JUMPDEST SWAP4 DUP5 MSTORE PUSH1 0x20 DUP5 ADD SWAP3 SWAP1 SWAP3 MSTORE PUSH1 0x40 DUP4 ADD MSTORE PUSH1 0x60 DUP3 ADD MSTORE PUSH1 0x80 ADD SWAP1 JUMP JUMPDEST PUSH1 0x0 JUMPDEST DUP4 DUP2 LT ISZERO PUSH2 0x2D44 JUMPI DUP2 DUP2 ADD MLOAD DUP4 DUP3 ADD MSTORE PUSH1 0x20 ADD PUSH2 0x2D2C JUMP JUMPDEST DUP4 DUP2 GT ISZERO PUSH2 0x14F2 JUMPI POP POP PUSH1 0x0 SWAP2 ADD MSTORE JUMP JUMPDEST DUP1 ISZERO ISZERO DUP2 EQ PUSH2 0x2664 JUMPI PUSH1 0x0 DUP1 REVERT INVALID LOG2 PUSH5 0x6970667358 0x22 SLT KECCAK256 DUP11 0xA6 EXTCODESIZE PUSH27 0x65E30C57414E0775EECADFA55C2A7126ED460B16DECD3EF1921117 BYTE PUSH5 0x736F6C6343 STOP SMOD MOD STOP CALLER "
		},
		"gasEstimates": {
			"creation": {
				"codeDepositCost": "2334600",
				"executionCost": "infinite",
				"totalCost": "infinite"
			},
			"external": {
				"addReward(address,address)": "infinite",
				"approveRewardDistributor(address,address,bool)": "infinite",
				"claimableRewards(address)": "infinite",
				"exit()": "infinite",
				"getReward()": "infinite",
				"getRewardForDuration(address)": "infinite",
				"lastTimeRewardApplicable(address)": "infinite",
				"lockDuration()": "297",
				"lockedBalances(address)": "infinite",
				"lockedSupply()": "1095",
				"minters(address)": "1374",
				"notifyRewardAmount(address,uint256)": "infinite",
				"owner()": "1115",
				"recoverERC20(address,uint256)": "infinite",
				"renounceOwnership()": "24298",
				"rewardData(address)": "3850",
				"rewardDistributors(address,address)": "infinite",
				"rewardPerToken(address)": "infinite",
				"rewardTokens(uint256)": "2128",
				"rewards(address,address)": "infinite",
				"rewardsDuration()": "318",
				"stake(uint256,bool)": "infinite",
				"stakingToken()": "1138",
				"totalBalance(address)": "1359",
				"totalSupply()": "1074",
				"transferOwnership(address)": "24578",
				"unlockedBalance(address)": "infinite",
				"userRewardPerTokenPaid(address,address)": "infinite",
				"withdraw(uint256)": "infinite",
				"withdrawExpiredLocks()": "infinite",
				"withdrawableBalance(address)": "infinite"
			},
			"internal": {
				"_earned(address,address,uint256,uint256)": "infinite",
				"_notifyReward(address,uint256)": "infinite",
				"_rewardPerToken(address,uint256)": "infinite"
			}
		},
		"methodIdentifiers": {
			"addReward(address,address)": "40b47e1a",
			"approveRewardDistributor(address,address,bool)": "6724c910",
			"claimableRewards(address)": "dc01f60d",
			"exit()": "e9fad8ee",
			"getReward()": "3d18b912",
			"getRewardForDuration(address)": "bcd11014",
			"lastTimeRewardApplicable(address)": "638634ee",
			"lockDuration()": "04554443",
			"lockedBalances(address)": "0483a7f6",
			"lockedSupply()": "ca5c7b91",
			"minters(address)": "f46eccc4",
			"notifyRewardAmount(address,uint256)": "b66503cf",
			"owner()": "8da5cb5b",
			"recoverERC20(address,uint256)": "8980f11f",
			"renounceOwnership()": "715018a6",
			"rewardData(address)": "48e5d9f8",
			"rewardDistributors(address,address)": "39fc9713",
			"rewardPerToken(address)": "f1229777",
			"rewardTokens(uint256)": "7bb7bed1",
			"rewards(address,address)": "e70b9e27",
			"rewardsDuration()": "386a9525",
			"stake(uint256,bool)": "abe50f19",
			"stakingToken()": "72f702f3",
			"totalBalance(address)": "6eacd398",
			"totalSupply()": "18160ddd",
			"transferOwnership(address)": "f2fde38b",
			"unlockedBalance(address)": "5e0fac2e",
			"userRewardPerTokenPaid(address,address)": "7035ab98",
			"withdraw(uint256)": "2e1a7d4d",
			"withdrawExpiredLocks()": "a01c77bc",
			"withdrawableBalance(address)": "02b62938"
		}
	},
	"abi": [
		{
			"inputs": [
				{
					"internalType": "address",
					"name": "_stakingToken",
					"type": "address"
				}
			],
			"stateMutability": "nonpayable",
			"type": "constructor"
		},
		{
			"anonymous": false,
			"inputs": [
				{
					"indexed": true,
					"internalType": "address",
					"name": "previousOwner",
					"type": "address"
				},
				{
					"indexed": true,
					"internalType": "address",
					"name": "newOwner",
					"type": "address"
				}
			],
			"name": "OwnershipTransferred",
			"type": "event"
		},
		{
			"anonymous": false,
			"inputs": [
				{
					"indexed": false,
					"internalType": "address",
					"name": "token",
					"type": "address"
				},
				{
					"indexed": false,
					"internalType": "uint256",
					"name": "amount",
					"type": "uint256"
				}
			],
			"name": "Recovered",
			"type": "event"
		},
		{
			"anonymous": false,
			"inputs": [
				{
					"indexed": false,
					"internalType": "uint256",
					"name": "reward",
					"type": "uint256"
				}
			],
			"name": "RewardAdded",
			"type": "event"
		},
		{
			"anonymous": false,
			"inputs": [
				{
					"indexed": true,
					"internalType": "address",
					"name": "user",
					"type": "address"
				},
				{
					"indexed": true,
					"internalType": "address",
					"name": "rewardsToken",
					"type": "address"
				},
				{
					"indexed": false,
					"internalType": "uint256",
					"name": "reward",
					"type": "uint256"
				}
			],
			"name": "RewardPaid",
			"type": "event"
		},
		{
			"anonymous": false,
			"inputs": [
				{
					"indexed": false,
					"internalType": "address",
					"name": "token",
					"type": "address"
				},
				{
					"indexed": false,
					"internalType": "uint256",
					"name": "newDuration",
					"type": "uint256"
				}
			],
			"name": "RewardsDurationUpdated",
			"type": "event"
		},
		{
			"anonymous": false,
			"inputs": [
				{
					"indexed": true,
					"internalType": "address",
					"name": "user",
					"type": "address"
				},
				{
					"indexed": false,
					"internalType": "uint256",
					"name": "amount",
					"type": "uint256"
				}
			],
			"name": "Staked",
			"type": "event"
		},
		{
			"anonymous": false,
			"inputs": [
				{
					"indexed": true,
					"internalType": "address",
					"name": "user",
					"type": "address"
				},
				{
					"indexed": false,
					"internalType": "uint256",
					"name": "amount",
					"type": "uint256"
				}
			],
			"name": "Withdrawn",
			"type": "event"
		},
		{
			"inputs": [
				{
					"internalType": "address",
					"name": "_rewardsToken",
					"type": "address"
				},
				{
					"internalType": "address",
					"name": "_distributor",
					"type": "address"
				}
			],
			"name": "addReward",
			"outputs": [],
			"stateMutability": "nonpayable",
			"type": "function"
		},
		{
			"inputs": [
				{
					"internalType": "address",
					"name": "_rewardsToken",
					"type": "address"
				},
				{
					"internalType": "address",
					"name": "_distributor",
					"type": "address"
				},
				{
					"internalType": "bool",
					"name": "_approved",
					"type": "bool"
				}
			],
			"name": "approveRewardDistributor",
			"outputs": [],
			"stateMutability": "nonpayable",
			"type": "function"
		},
		{
			"inputs": [
				{
					"internalType": "address",
					"name": "account",
					"type": "address"
				}
			],
			"name": "claimableRewards",
			"outputs": [
				{
					"components": [
						{
							"internalType": "address",
							"name": "token",
							"type": "address"
						},
						{
							"internalType": "uint256",
							"name": "amount",
							"type": "uint256"
						}
					],
					"internalType": "struct MultiFeeDistribution.RewardData[]",
					"name": "rewardAmount",
					"type": "tuple[]"
				}
			],
			"stateMutability": "view",
			"type": "function"
		},
		{
			"inputs": [],
			"name": "exit",
			"outputs": [],
			"stateMutability": "nonpayable",
			"type": "function"
		},
		{
			"inputs": [],
			"name": "getReward",
			"outputs": [],
			"stateMutability": "nonpayable",
			"type": "function"
		},
		{
			"inputs": [
				{
					"internalType": "address",
					"name": "_rewardsToken",
					"type": "address"
				}
			],
			"name": "getRewardForDuration",
			"outputs": [
				{
					"internalType": "uint256",
					"name": "",
					"type": "uint256"
				}
			],
			"stateMutability": "view",
			"type": "function"
		},
		{
			"inputs": [
				{
					"internalType": "address",
					"name": "_rewardsToken",
					"type": "address"
				}
			],
			"name": "lastTimeRewardApplicable",
			"outputs": [
				{
					"internalType": "uint256",
					"name": "",
					"type": "uint256"
				}
			],
			"stateMutability": "view",
			"type": "function"
		},
		{
			"inputs": [],
			"name": "lockDuration",
			"outputs": [
				{
					"internalType": "uint256",
					"name": "",
					"type": "uint256"
				}
			],
			"stateMutability": "view",
			"type": "function"
		},
		{
			"inputs": [
				{
					"internalType": "address",
					"name": "user",
					"type": "address"
				}
			],
			"name": "lockedBalances",
			"outputs": [
				{
					"internalType": "uint256",
					"name": "total",
					"type": "uint256"
				},
				{
					"internalType": "uint256",
					"name": "unlockable",
					"type": "uint256"
				},
				{
					"internalType": "uint256",
					"name": "locked",
					"type": "uint256"
				},
				{
					"components": [
						{
							"internalType": "uint256",
							"name": "amount",
							"type": "uint256"
						},
						{
							"internalType": "uint256",
							"name": "unlockTime",
							"type": "uint256"
						}
					],
					"internalType": "struct MultiFeeDistribution.LockedBalance[]",
					"name": "lockData",
					"type": "tuple[]"
				}
			],
			"stateMutability": "view",
			"type": "function"
		},
		{
			"inputs": [],
			"name": "lockedSupply",
			"outputs": [
				{
					"internalType": "uint256",
					"name": "",
					"type": "uint256"
				}
			],
			"stateMutability": "view",
			"type": "function"
		},
		{
			"inputs": [
				{
					"internalType": "address",
					"name": "",
					"type": "address"
				}
			],
			"name": "minters",
			"outputs": [
				{
					"internalType": "bool",
					"name": "",
					"type": "bool"
				}
			],
			"stateMutability": "view",
			"type": "function"
		},
		{
			"inputs": [
				{
					"internalType": "address",
					"name": "_rewardsToken",
					"type": "address"
				},
				{
					"internalType": "uint256",
					"name": "reward",
					"type": "uint256"
				}
			],
			"name": "notifyRewardAmount",
			"outputs": [],
			"stateMutability": "nonpayable",
			"type": "function"
		},
		{
			"inputs": [],
			"name": "owner",
			"outputs": [
				{
					"internalType": "address",
					"name": "",
					"type": "address"
				}
			],
			"stateMutability": "view",
			"type": "function"
		},
		{
			"inputs": [
				{
					"internalType": "address",
					"name": "tokenAddress",
					"type": "address"
				},
				{
					"internalType": "uint256",
					"name": "tokenAmount",
					"type": "uint256"
				}
			],
			"name": "recoverERC20",
			"outputs": [],
			"stateMutability": "nonpayable",
			"type": "function"
		},
		{
			"inputs": [],
			"name": "renounceOwnership",
			"outputs": [],
			"stateMutability": "nonpayable",
			"type": "function"
		},
		{
			"inputs": [
				{
					"internalType": "address",
					"name": "",
					"type": "address"
				}
			],
			"name": "rewardData",
			"outputs": [
				{
					"internalType": "uint256",
					"name": "periodFinish",
					"type": "uint256"
				},
				{
					"internalType": "uint256",
					"name": "rewardRate",
					"type": "uint256"
				},
				{
					"internalType": "uint256",
					"name": "lastUpdateTime",
					"type": "uint256"
				},
				{
					"internalType": "uint256",
					"name": "rewardPerTokenStored",
					"type": "uint256"
				}
			],
			"stateMutability": "view",
			"type": "function"
		},
		{
			"inputs": [
				{
					"internalType": "address",
					"name": "",
					"type": "address"
				},
				{
					"internalType": "address",
					"name": "",
					"type": "address"
				}
			],
			"name": "rewardDistributors",
			"outputs": [
				{
					"internalType": "bool",
					"name": "",
					"type": "bool"
				}
			],
			"stateMutability": "view",
			"type": "function"
		},
		{
			"inputs": [
				{
					"internalType": "address",
					"name": "_rewardsToken",
					"type": "address"
				}
			],
			"name": "rewardPerToken",
			"outputs": [
				{
					"internalType": "uint256",
					"name": "",
					"type": "uint256"
				}
			],
			"stateMutability": "view",
			"type": "function"
		},
		{
			"inputs": [
				{
					"internalType": "uint256",
					"name": "",
					"type": "uint256"
				}
			],
			"name": "rewardTokens",
			"outputs": [
				{
					"internalType": "address",
					"name": "",
					"type": "address"
				}
			],
			"stateMutability": "view",
			"type": "function"
		},
		{
			"inputs": [
				{
					"internalType": "address",
					"name": "",
					"type": "address"
				},
				{
					"internalType": "address",
					"name": "",
					"type": "address"
				}
			],
			"name": "rewards",
			"outputs": [
				{
					"internalType": "uint256",
					"name": "",
					"type": "uint256"
				}
			],
			"stateMutability": "view",
			"type": "function"
		},
		{
			"inputs": [],
			"name": "rewardsDuration",
			"outputs": [
				{
					"internalType": "uint256",
					"name": "",
					"type": "uint256"
				}
			],
			"stateMutability": "view",
			"type": "function"
		},
		{
			"inputs": [
				{
					"internalType": "uint256",
					"name": "amount",
					"type": "uint256"
				},
				{
					"internalType": "bool",
					"name": "lock",
					"type": "bool"
				}
			],
			"name": "stake",
			"outputs": [],
			"stateMutability": "nonpayable",
			"type": "function"
		},
		{
			"inputs": [],
			"name": "stakingToken",
			"outputs": [
				{
					"internalType": "contract IMintableToken",
					"name": "",
					"type": "address"
				}
			],
			"stateMutability": "view",
			"type": "function"
		},
		{
			"inputs": [
				{
					"internalType": "address",
					"name": "user",
					"type": "address"
				}
			],
			"name": "totalBalance",
			"outputs": [
				{
					"internalType": "uint256",
					"name": "amount",
					"type": "uint256"
				}
			],
			"stateMutability": "view",
			"type": "function"
		},
		{
			"inputs": [],
			"name": "totalSupply",
			"outputs": [
				{
					"internalType": "uint256",
					"name": "",
					"type": "uint256"
				}
			],
			"stateMutability": "view",
			"type": "function"
		},
		{
			"inputs": [
				{
					"internalType": "address",
					"name": "newOwner",
					"type": "address"
				}
			],
			"name": "transferOwnership",
			"outputs": [],
			"stateMutability": "nonpayable",
			"type": "function"
		},
		{
			"inputs": [
				{
					"internalType": "address",
					"name": "user",
					"type": "address"
				}
			],
			"name": "unlockedBalance",
			"outputs": [
				{
					"internalType": "uint256",
					"name": "amount",
					"type": "uint256"
				}
			],
			"stateMutability": "view",
			"type": "function"
		},
		{
			"inputs": [
				{
					"internalType": "address",
					"name": "",
					"type": "address"
				},
				{
					"internalType": "address",
					"name": "",
					"type": "address"
				}
			],
			"name": "userRewardPerTokenPaid",
			"outputs": [
				{
					"internalType": "uint256",
					"name": "",
					"type": "uint256"
				}
			],
			"stateMutability": "view",
			"type": "function"
		},
		{
			"inputs": [
				{
					"internalType": "uint256",
					"name": "amount",
					"type": "uint256"
				}
			],
			"name": "withdraw",
			"outputs": [],
			"stateMutability": "nonpayable",
			"type": "function"
		},
		{
			"inputs": [],
			"name": "withdrawExpiredLocks",
			"outputs": [],
			"stateMutability": "nonpayable",
			"type": "function"
		},
		{
			"inputs": [
				{
					"internalType": "address",
					"name": "user",
					"type": "address"
				}
			],
			"name": "withdrawableBalance",
			"outputs": [
				{
					"internalType": "uint256",
					"name": "amount",
					"type": "uint256"
				},
				{
					"internalType": "uint256",
					"name": "penaltyAmount",
					"type": "uint256"
				}
			],
			"stateMutability": "view",
			"type": "function"
		}
	]
}