{
	"data": {
		"bytecode": {
			"linkReferences": {},
			"object": "608060405234801561001057600080fd5b506101f9806100206000396000f3fe608060405234801561001057600080fd5b50600436106100935760003560e01c806394b2294b1161006657806394b2294b146100e6578063dce15449146100ee578063e6a8ee4f1461011a578063e875544614610122578063f851a4401461012a57610093565b806326782247146100985780634ada90af146100bc57806356d5141e146100d65780637dc0d1d0146100de575b600080fd5b6100a0610132565b604080516001600160a01b039092168252519081900360200190f35b6100c4610141565b60408051918252519081900360200190f35b6100a0610147565b6100a0610156565b6100c4610165565b6100a06004803603604081101561010457600080fd5b506001600160a01b03813516906020013561016b565b6100a06101a0565b6100c46101af565b6100a06101b5565b6001546001600160a01b031681565b60065481565b6003546001600160a01b031681565b6004546001600160a01b031681565b60075481565b6008602052816000526040600020818154811061018457fe5b6000918252602090912001546001600160a01b03169150829050565b6002546001600160a01b031681565b60055481565b6000546001600160a01b03168156fea265627a7a72315820e6a5a2ac59795aa25a1a10f74c8638afab96912539d303cef7b61c661e12735964736f6c63430005100032",
			"opcodes": "PUSH1 0x80 PUSH1 0x40 MSTORE CALLVALUE DUP1 ISZERO PUSH2 0x10 JUMPI PUSH1 0x0 DUP1 REVERT JUMPDEST POP PUSH2 0x1F9 DUP1 PUSH2 0x20 PUSH1 0x0 CODECOPY PUSH1 0x0 RETURN INVALID PUSH1 0x80 PUSH1 0x40 MSTORE CALLVALUE DUP1 ISZERO PUSH2 0x10 JUMPI PUSH1 0x0 DUP1 REVERT JUMPDEST POP PUSH1 0x4 CALLDATASIZE LT PUSH2 0x93 JUMPI PUSH1 0x0 CALLDATALOAD PUSH1 0xE0 SHR DUP1 PUSH4 0x94B2294B GT PUSH2 0x66 JUMPI DUP1 PUSH4 0x94B2294B EQ PUSH2 0xE6 JUMPI DUP1 PUSH4 0xDCE15449 EQ PUSH2 0xEE JUMPI DUP1 PUSH4 0xE6A8EE4F EQ PUSH2 0x11A JUMPI DUP1 PUSH4 0xE8755446 EQ PUSH2 0x122 JUMPI DUP1 PUSH4 0xF851A440 EQ PUSH2 0x12A JUMPI PUSH2 0x93 JUMP JUMPDEST DUP1 PUSH4 0x26782247 EQ PUSH2 0x98 JUMPI DUP1 PUSH4 0x4ADA90AF EQ PUSH2 0xBC JUMPI DUP1 PUSH4 0x56D5141E EQ PUSH2 0xD6 JUMPI DUP1 PUSH4 0x7DC0D1D0 EQ PUSH2 0xDE JUMPI JUMPDEST PUSH1 0x0 DUP1 REVERT JUMPDEST PUSH2 0xA0 PUSH2 0x132 JUMP JUMPDEST PUSH1 0x40 DUP1 MLOAD PUSH1 0x1 PUSH1 0x1 PUSH1 0xA0 SHL SUB SWAP1 SWAP3 AND DUP3 MSTORE MLOAD SWAP1 DUP2 SWAP1 SUB PUSH1 0x20 ADD SWAP1 RETURN JUMPDEST PUSH2 0xC4 PUSH2 0x141 JUMP JUMPDEST PUSH1 0x40 DUP1 MLOAD SWAP2 DUP3 MSTORE MLOAD SWAP1 DUP2 SWAP1 SUB PUSH1 0x20 ADD SWAP1 RETURN JUMPDEST PUSH2 0xA0 PUSH2 0x147 JUMP JUMPDEST PUSH2 0xA0 PUSH2 0x156 JUMP JUMPDEST PUSH2 0xC4 PUSH2 0x165 JUMP JUMPDEST PUSH2 0xA0 PUSH1 0x4 DUP1 CALLDATASIZE SUB PUSH1 0x40 DUP2 LT ISZERO PUSH2 0x104 JUMPI PUSH1 0x0 DUP1 REVERT JUMPDEST POP PUSH1 0x1 PUSH1 0x1 PUSH1 0xA0 SHL SUB DUP2 CALLDATALOAD AND SWAP1 PUSH1 0x20 ADD CALLDATALOAD PUSH2 0x16B JUMP JUMPDEST PUSH2 0xA0 PUSH2 0x1A0 JUMP JUMPDEST PUSH2 0xC4 PUSH2 0x1AF JUMP JUMPDEST PUSH2 0xA0 PUSH2 0x1B5 JUMP JUMPDEST PUSH1 0x1 SLOAD PUSH1 0x1 PUSH1 0x1 PUSH1 0xA0 SHL SUB AND DUP2 JUMP JUMPDEST PUSH1 0x6 SLOAD DUP2 JUMP JUMPDEST PUSH1 0x3 SLOAD PUSH1 0x1 PUSH1 0x1 PUSH1 0xA0 SHL SUB AND DUP2 JUMP JUMPDEST PUSH1 0x4 SLOAD PUSH1 0x1 PUSH1 0x1 PUSH1 0xA0 SHL SUB AND DUP2 JUMP JUMPDEST PUSH1 0x7 SLOAD DUP2 JUMP JUMPDEST PUSH1 0x8 PUSH1 0x20 MSTORE DUP2 PUSH1 0x0 MSTORE PUSH1 0x40 PUSH1 0x0 KECCAK256 DUP2 DUP2 SLOAD DUP2 LT PUSH2 0x184 JUMPI INVALID JUMPDEST PUSH1 0x0 SWAP2 DUP3 MSTORE PUSH1 0x20 SWAP1 SWAP2 KECCAK256 ADD SLOAD PUSH1 0x1 PUSH1 0x1 PUSH1 0xA0 SHL SUB AND SWAP2 POP DUP3 SWAP1 POP JUMP JUMPDEST PUSH1 0x2 SLOAD PUSH1 0x1 PUSH1 0x1 PUSH1 0xA0 SHL SUB AND DUP2 JUMP JUMPDEST PUSH1 0x5 SLOAD DUP2 JUMP JUMPDEST PUSH1 0x0 SLOAD PUSH1 0x1 PUSH1 0x1 PUSH1 0xA0 SHL SUB AND DUP2 JUMP INVALID LOG2 PUSH6 0x627A7A723158 KECCAK256 0xE6 0xA5 LOG2 0xAC MSIZE PUSH26 0x5AA25A1A10F74C8638AFAB96912539D303CEF7B61C661E127359 PUSH5 0x736F6C6343 STOP SDIV LT STOP ORIGIN "
		},
		"gasEstimates": {
			"creation": {
				"codeDepositCost": "101000",
				"executionCost": "147",
				"totalCost": "101147"
			},
			"external": {
				"Implementation()": "1081",
				"accountAssets(address,uint256)": "2093",
				"admin()": "1125",
				"closeFactorMantissa()": "1064",
				"liquidationIncentiveMantissa()": "1021",
				"maxAssets()": "998",
				"oracle()": "1104",
				"pendingAdmin()": "1038",
				"pendingTENTrollerImplementation()": "1082"
			}
		},
		"methodIdentifiers": {
			"Implementation()": "e6a8ee4f",
			"accountAssets(address,uint256)": "dce15449",
			"admin()": "f851a440",
			"closeFactorMantissa()": "e8755446",
			"liquidationIncentiveMantissa()": "4ada90af",
			"maxAssets()": "94b2294b",
			"oracle()": "7dc0d1d0",
			"pendingAdmin()": "26782247",
			"pendingTENTrollerImplementation()": "56d5141e"
		}
	},
	"abi": [
		{
			"constant": true,
			"inputs": [],
			"name": "Implementation",
			"outputs": [
				{
					"internalType": "address",
					"name": "",
					"type": "address"
				}
			],
			"payable": false,
			"stateMutability": "view",
			"type": "function"
		},
		{
			"constant": true,
			"inputs": [
				{
					"internalType": "address",
					"name": "",
					"type": "address"
				},
				{
					"internalType": "uint256",
					"name": "",
					"type": "uint256"
				}
			],
			"name": "accountAssets",
			"outputs": [
				{
					"internalType": "contract TToken",
					"name": "",
					"type": "address"
				}
			],
			"payable": false,
			"stateMutability": "view",
			"type": "function"
		},
		{
			"constant": true,
			"inputs": [],
			"name": "admin",
			"outputs": [
				{
					"internalType": "address",
					"name": "",
					"type": "address"
				}
			],
			"payable": false,
			"stateMutability": "view",
			"type": "function"
		},
		{
			"constant": true,
			"inputs": [],
			"name": "closeFactorMantissa",
			"outputs": [
				{
					"internalType": "uint256",
					"name": "",
					"type": "uint256"
				}
			],
			"payable": false,
			"stateMutability": "view",
			"type": "function"
		},
		{
			"constant": true,
			"inputs": [],
			"name": "liquidationIncentiveMantissa",
			"outputs": [
				{
					"internalType": "uint256",
					"name": "",
					"type": "uint256"
				}
			],
			"payable": false,
			"stateMutability": "view",
			"type": "function"
		},
		{
			"constant": true,
			"inputs": [],
			"name": "maxAssets",
			"outputs": [
				{
					"internalType": "uint256",
					"name": "",
					"type": "uint256"
				}
			],
			"payable": false,
			"stateMutability": "view",
			"type": "function"
		},
		{
			"constant": true,
			"inputs": [],
			"name": "oracle",
			"outputs": [
				{
					"internalType": "contract PriceOracle",
					"name": "",
					"type": "address"
				}
			],
			"payable": false,
			"stateMutability": "view",
			"type": "function"
		},
		{
			"constant": true,
			"inputs": [],
			"name": "pendingAdmin",
			"outputs": [
				{
					"internalType": "address",
					"name": "",
					"type": "address"
				}
			],
			"payable": false,
			"stateMutability": "view",
			"type": "function"
		},
		{
			"constant": true,
			"inputs": [],
			"name": "pendingTENTrollerImplementation",
			"outputs": [
				{
					"internalType": "address",
					"name": "",
					"type": "address"
				}
			],
			"payable": false,
			"stateMutability": "view",
			"type": "function"
		}
	]
}