{
	"data": {
		"bytecode": {
			"linkReferences": {},
			"object": "608060405234801561001057600080fd5b506103e0806100206000396000f3fe608060405234801561001057600080fd5b506004361061010b5760003560e01c806387f76303116100a2578063dce1544911610071578063dce154491461022e578063e6653f3d1461025a578063e6a8ee4f14610262578063e87554461461026a578063f851a440146102725761010b565b806387f76303146101ce5780638e8f294b146101d657806394b2294b1461021e578063ac0b0bb7146102265761010b565b806356d5141e116100de57806356d5141e146101725780636d154ea51461017a578063731f0c2b146101a05780637dc0d1d0146101c65761010b565b806324a3d6221461011057806326782247146101345780633c94786f1461013c5780634ada90af14610158575b600080fd5b61011861027a565b604080516001600160a01b039092168252519081900360200190f35b610118610289565b610144610298565b604080519115158252519081900360200190f35b6101606102a8565b60408051918252519081900360200190f35b6101186102ae565b6101446004803603602081101561019057600080fd5b50356001600160a01b03166102bd565b610144600480360360208110156101b657600080fd5b50356001600160a01b03166102d2565b6101186102e7565b6101446102f6565b6101fc600480360360208110156101ec57600080fd5b50356001600160a01b0316610306565b6040805193151584526020840192909252151582820152519081900360600190f35b61016061032c565b610144610332565b6101186004803603604081101561024457600080fd5b506001600160a01b038135169060200135610342565b610144610377565b610118610387565b610160610396565b61011861039c565b600a546001600160a01b031681565b6001546001600160a01b031681565b600a54600160a01b900460ff1681565b60065481565b6003546001600160a01b031681565b600c6020526000908152604090205460ff1681565b600b6020526000908152604090205460ff1681565b6004546001600160a01b031681565b600a54600160b01b900460ff1681565b60096020526000908152604090208054600182015460039092015460ff91821692911683565b60075481565b600a54600160b81b900460ff1681565b6008602052816000526040600020818154811061035b57fe5b6000918252602090912001546001600160a01b03169150829050565b600a54600160a81b900460ff1681565b6002546001600160a01b031681565b60055481565b6000546001600160a01b03168156fea265627a7a72315820baad7a5d6bee6fcb2285ff5cc8f4b279f77fd799dcd1f9fc8c179b76e1682e6264736f6c63430005100032",
			"opcodes": "PUSH1 0x80 PUSH1 0x40 MSTORE CALLVALUE DUP1 ISZERO PUSH2 0x10 JUMPI PUSH1 0x0 DUP1 REVERT JUMPDEST POP PUSH2 0x3E0 DUP1 PUSH2 0x20 PUSH1 0x0 CODECOPY PUSH1 0x0 RETURN INVALID PUSH1 0x80 PUSH1 0x40 MSTORE CALLVALUE DUP1 ISZERO PUSH2 0x10 JUMPI PUSH1 0x0 DUP1 REVERT JUMPDEST POP PUSH1 0x4 CALLDATASIZE LT PUSH2 0x10B JUMPI PUSH1 0x0 CALLDATALOAD PUSH1 0xE0 SHR DUP1 PUSH4 0x87F76303 GT PUSH2 0xA2 JUMPI DUP1 PUSH4 0xDCE15449 GT PUSH2 0x71 JUMPI DUP1 PUSH4 0xDCE15449 EQ PUSH2 0x22E JUMPI DUP1 PUSH4 0xE6653F3D EQ PUSH2 0x25A JUMPI DUP1 PUSH4 0xE6A8EE4F EQ PUSH2 0x262 JUMPI DUP1 PUSH4 0xE8755446 EQ PUSH2 0x26A JUMPI DUP1 PUSH4 0xF851A440 EQ PUSH2 0x272 JUMPI PUSH2 0x10B JUMP JUMPDEST DUP1 PUSH4 0x87F76303 EQ PUSH2 0x1CE JUMPI DUP1 PUSH4 0x8E8F294B EQ PUSH2 0x1D6 JUMPI DUP1 PUSH4 0x94B2294B EQ PUSH2 0x21E JUMPI DUP1 PUSH4 0xAC0B0BB7 EQ PUSH2 0x226 JUMPI PUSH2 0x10B JUMP JUMPDEST DUP1 PUSH4 0x56D5141E GT PUSH2 0xDE JUMPI DUP1 PUSH4 0x56D5141E EQ PUSH2 0x172 JUMPI DUP1 PUSH4 0x6D154EA5 EQ PUSH2 0x17A JUMPI DUP1 PUSH4 0x731F0C2B EQ PUSH2 0x1A0 JUMPI DUP1 PUSH4 0x7DC0D1D0 EQ PUSH2 0x1C6 JUMPI PUSH2 0x10B JUMP JUMPDEST DUP1 PUSH4 0x24A3D622 EQ PUSH2 0x110 JUMPI DUP1 PUSH4 0x26782247 EQ PUSH2 0x134 JUMPI DUP1 PUSH4 0x3C94786F EQ PUSH2 0x13C JUMPI DUP1 PUSH4 0x4ADA90AF EQ PUSH2 0x158 JUMPI JUMPDEST PUSH1 0x0 DUP1 REVERT JUMPDEST PUSH2 0x118 PUSH2 0x27A JUMP JUMPDEST PUSH1 0x40 DUP1 MLOAD PUSH1 0x1 PUSH1 0x1 PUSH1 0xA0 SHL SUB SWAP1 SWAP3 AND DUP3 MSTORE MLOAD SWAP1 DUP2 SWAP1 SUB PUSH1 0x20 ADD SWAP1 RETURN JUMPDEST PUSH2 0x118 PUSH2 0x289 JUMP JUMPDEST PUSH2 0x144 PUSH2 0x298 JUMP JUMPDEST PUSH1 0x40 DUP1 MLOAD SWAP2 ISZERO ISZERO DUP3 MSTORE MLOAD SWAP1 DUP2 SWAP1 SUB PUSH1 0x20 ADD SWAP1 RETURN JUMPDEST PUSH2 0x160 PUSH2 0x2A8 JUMP JUMPDEST PUSH1 0x40 DUP1 MLOAD SWAP2 DUP3 MSTORE MLOAD SWAP1 DUP2 SWAP1 SUB PUSH1 0x20 ADD SWAP1 RETURN JUMPDEST PUSH2 0x118 PUSH2 0x2AE JUMP JUMPDEST PUSH2 0x144 PUSH1 0x4 DUP1 CALLDATASIZE SUB PUSH1 0x20 DUP2 LT ISZERO PUSH2 0x190 JUMPI PUSH1 0x0 DUP1 REVERT JUMPDEST POP CALLDATALOAD PUSH1 0x1 PUSH1 0x1 PUSH1 0xA0 SHL SUB AND PUSH2 0x2BD JUMP JUMPDEST PUSH2 0x144 PUSH1 0x4 DUP1 CALLDATASIZE SUB PUSH1 0x20 DUP2 LT ISZERO PUSH2 0x1B6 JUMPI PUSH1 0x0 DUP1 REVERT JUMPDEST POP CALLDATALOAD PUSH1 0x1 PUSH1 0x1 PUSH1 0xA0 SHL SUB AND PUSH2 0x2D2 JUMP JUMPDEST PUSH2 0x118 PUSH2 0x2E7 JUMP JUMPDEST PUSH2 0x144 PUSH2 0x2F6 JUMP JUMPDEST PUSH2 0x1FC PUSH1 0x4 DUP1 CALLDATASIZE SUB PUSH1 0x20 DUP2 LT ISZERO PUSH2 0x1EC JUMPI PUSH1 0x0 DUP1 REVERT JUMPDEST POP CALLDATALOAD PUSH1 0x1 PUSH1 0x1 PUSH1 0xA0 SHL SUB AND PUSH2 0x306 JUMP JUMPDEST PUSH1 0x40 DUP1 MLOAD SWAP4 ISZERO ISZERO DUP5 MSTORE PUSH1 0x20 DUP5 ADD SWAP3 SWAP1 SWAP3 MSTORE ISZERO ISZERO DUP3 DUP3 ADD MSTORE MLOAD SWAP1 DUP2 SWAP1 SUB PUSH1 0x60 ADD SWAP1 RETURN JUMPDEST PUSH2 0x160 PUSH2 0x32C JUMP JUMPDEST PUSH2 0x144 PUSH2 0x332 JUMP JUMPDEST PUSH2 0x118 PUSH1 0x4 DUP1 CALLDATASIZE SUB PUSH1 0x40 DUP2 LT ISZERO PUSH2 0x244 JUMPI PUSH1 0x0 DUP1 REVERT JUMPDEST POP PUSH1 0x1 PUSH1 0x1 PUSH1 0xA0 SHL SUB DUP2 CALLDATALOAD AND SWAP1 PUSH1 0x20 ADD CALLDATALOAD PUSH2 0x342 JUMP JUMPDEST PUSH2 0x144 PUSH2 0x377 JUMP JUMPDEST PUSH2 0x118 PUSH2 0x387 JUMP JUMPDEST PUSH2 0x160 PUSH2 0x396 JUMP JUMPDEST PUSH2 0x118 PUSH2 0x39C JUMP JUMPDEST PUSH1 0xA SLOAD PUSH1 0x1 PUSH1 0x1 PUSH1 0xA0 SHL SUB AND DUP2 JUMP JUMPDEST PUSH1 0x1 SLOAD PUSH1 0x1 PUSH1 0x1 PUSH1 0xA0 SHL SUB AND DUP2 JUMP JUMPDEST PUSH1 0xA SLOAD PUSH1 0x1 PUSH1 0xA0 SHL SWAP1 DIV PUSH1 0xFF AND DUP2 JUMP JUMPDEST PUSH1 0x6 SLOAD DUP2 JUMP JUMPDEST PUSH1 0x3 SLOAD PUSH1 0x1 PUSH1 0x1 PUSH1 0xA0 SHL SUB AND DUP2 JUMP JUMPDEST PUSH1 0xC PUSH1 0x20 MSTORE PUSH1 0x0 SWAP1 DUP2 MSTORE PUSH1 0x40 SWAP1 KECCAK256 SLOAD PUSH1 0xFF AND DUP2 JUMP JUMPDEST PUSH1 0xB PUSH1 0x20 MSTORE PUSH1 0x0 SWAP1 DUP2 MSTORE PUSH1 0x40 SWAP1 KECCAK256 SLOAD PUSH1 0xFF AND DUP2 JUMP JUMPDEST PUSH1 0x4 SLOAD PUSH1 0x1 PUSH1 0x1 PUSH1 0xA0 SHL SUB AND DUP2 JUMP JUMPDEST PUSH1 0xA SLOAD PUSH1 0x1 PUSH1 0xB0 SHL SWAP1 DIV PUSH1 0xFF AND DUP2 JUMP JUMPDEST PUSH1 0x9 PUSH1 0x20 MSTORE PUSH1 0x0 SWAP1 DUP2 MSTORE PUSH1 0x40 SWAP1 KECCAK256 DUP1 SLOAD PUSH1 0x1 DUP3 ADD SLOAD PUSH1 0x3 SWAP1 SWAP3 ADD SLOAD PUSH1 0xFF SWAP2 DUP3 AND SWAP3 SWAP2 AND DUP4 JUMP JUMPDEST PUSH1 0x7 SLOAD DUP2 JUMP JUMPDEST PUSH1 0xA SLOAD PUSH1 0x1 PUSH1 0xB8 SHL SWAP1 DIV PUSH1 0xFF AND DUP2 JUMP JUMPDEST PUSH1 0x8 PUSH1 0x20 MSTORE DUP2 PUSH1 0x0 MSTORE PUSH1 0x40 PUSH1 0x0 KECCAK256 DUP2 DUP2 SLOAD DUP2 LT PUSH2 0x35B JUMPI INVALID JUMPDEST PUSH1 0x0 SWAP2 DUP3 MSTORE PUSH1 0x20 SWAP1 SWAP2 KECCAK256 ADD SLOAD PUSH1 0x1 PUSH1 0x1 PUSH1 0xA0 SHL SUB AND SWAP2 POP DUP3 SWAP1 POP JUMP JUMPDEST PUSH1 0xA SLOAD PUSH1 0x1 PUSH1 0xA8 SHL SWAP1 DIV PUSH1 0xFF AND DUP2 JUMP JUMPDEST PUSH1 0x2 SLOAD PUSH1 0x1 PUSH1 0x1 PUSH1 0xA0 SHL SUB AND DUP2 JUMP JUMPDEST PUSH1 0x5 SLOAD DUP2 JUMP JUMPDEST PUSH1 0x0 SLOAD PUSH1 0x1 PUSH1 0x1 PUSH1 0xA0 SHL SUB AND DUP2 JUMP INVALID LOG2 PUSH6 0x627A7A723158 KECCAK256 0xBA 0xAD PUSH27 0x5D6BEE6FCB2285FF5CC8F4B279F77FD799DCD1F9FC8C179B76E168 0x2E PUSH3 0x64736F PUSH13 0x63430005100032000000000000 "
		},
		"gasEstimates": {
			"creation": {
				"codeDepositCost": "198400",
				"executionCost": "238",
				"totalCost": "198638"
			},
			"external": {
				"Implementation()": "1103",
				"_borrowGuardianPaused()": "1071",
				"_mintGuardianPaused()": "1095",
				"accountAssets(address,uint256)": "2093",
				"admin()": "1147",
				"borrowGuardianPaused(address)": "1181",
				"closeFactorMantissa()": "1086",
				"liquidationIncentiveMantissa()": "1088",
				"markets(address)": "2865",
				"maxAssets()": "1065",
				"mintGuardianPaused(address)": "1203",
				"oracle()": "1126",
				"pauseGuardian()": "1061",
				"pendingAdmin()": "1083",
				"pendingTENTrollerImplementation()": "1060",
				"seizeGuardianPaused()": "1116",
				"transferGuardianPaused()": "1050"
			}
		},
		"methodIdentifiers": {
			"Implementation()": "e6a8ee4f",
			"_borrowGuardianPaused()": "e6653f3d",
			"_mintGuardianPaused()": "3c94786f",
			"accountAssets(address,uint256)": "dce15449",
			"admin()": "f851a440",
			"borrowGuardianPaused(address)": "6d154ea5",
			"closeFactorMantissa()": "e8755446",
			"liquidationIncentiveMantissa()": "4ada90af",
			"markets(address)": "8e8f294b",
			"maxAssets()": "94b2294b",
			"mintGuardianPaused(address)": "731f0c2b",
			"oracle()": "7dc0d1d0",
			"pauseGuardian()": "24a3d622",
			"pendingAdmin()": "26782247",
			"pendingTENTrollerImplementation()": "56d5141e",
			"seizeGuardianPaused()": "ac0b0bb7",
			"transferGuardianPaused()": "87f76303"
		}
	},
	"abi": [
		{
			"constant": true,
			"inputs": [],
			"name": "Implementation",
			"outputs": [
				{
					"internalType": "address",
					"name": "",
					"type": "address"
				}
			],
			"payable": false,
			"stateMutability": "view",
			"type": "function"
		},
		{
			"constant": true,
			"inputs": [],
			"name": "_borrowGuardianPaused",
			"outputs": [
				{
					"internalType": "bool",
					"name": "",
					"type": "bool"
				}
			],
			"payable": false,
			"stateMutability": "view",
			"type": "function"
		},
		{
			"constant": true,
			"inputs": [],
			"name": "_mintGuardianPaused",
			"outputs": [
				{
					"internalType": "bool",
					"name": "",
					"type": "bool"
				}
			],
			"payable": false,
			"stateMutability": "view",
			"type": "function"
		},
		{
			"constant": true,
			"inputs": [
				{
					"internalType": "address",
					"name": "",
					"type": "address"
				},
				{
					"internalType": "uint256",
					"name": "",
					"type": "uint256"
				}
			],
			"name": "accountAssets",
			"outputs": [
				{
					"internalType": "contract TToken",
					"name": "",
					"type": "address"
				}
			],
			"payable": false,
			"stateMutability": "view",
			"type": "function"
		},
		{
			"constant": true,
			"inputs": [],
			"name": "admin",
			"outputs": [
				{
					"internalType": "address",
					"name": "",
					"type": "address"
				}
			],
			"payable": false,
			"stateMutability": "view",
			"type": "function"
		},
		{
			"constant": true,
			"inputs": [
				{
					"internalType": "address",
					"name": "",
					"type": "address"
				}
			],
			"name": "borrowGuardianPaused",
			"outputs": [
				{
					"internalType": "bool",
					"name": "",
					"type": "bool"
				}
			],
			"payable": false,
			"stateMutability": "view",
			"type": "function"
		},
		{
			"constant": true,
			"inputs": [],
			"name": "closeFactorMantissa",
			"outputs": [
				{
					"internalType": "uint256",
					"name": "",
					"type": "uint256"
				}
			],
			"payable": false,
			"stateMutability": "view",
			"type": "function"
		},
		{
			"constant": true,
			"inputs": [],
			"name": "liquidationIncentiveMantissa",
			"outputs": [
				{
					"internalType": "uint256",
					"name": "",
					"type": "uint256"
				}
			],
			"payable": false,
			"stateMutability": "view",
			"type": "function"
		},
		{
			"constant": true,
			"inputs": [
				{
					"internalType": "address",
					"name": "",
					"type": "address"
				}
			],
			"name": "markets",
			"outputs": [
				{
					"internalType": "bool",
					"name": "isListed",
					"type": "bool"
				},
				{
					"internalType": "uint256",
					"name": "collateralFactorMantissa",
					"type": "uint256"
				},
				{
					"internalType": "bool",
					"name": "isLENDted",
					"type": "bool"
				}
			],
			"payable": false,
			"stateMutability": "view",
			"type": "function"
		},
		{
			"constant": true,
			"inputs": [],
			"name": "maxAssets",
			"outputs": [
				{
					"internalType": "uint256",
					"name": "",
					"type": "uint256"
				}
			],
			"payable": false,
			"stateMutability": "view",
			"type": "function"
		},
		{
			"constant": true,
			"inputs": [
				{
					"internalType": "address",
					"name": "",
					"type": "address"
				}
			],
			"name": "mintGuardianPaused",
			"outputs": [
				{
					"internalType": "bool",
					"name": "",
					"type": "bool"
				}
			],
			"payable": false,
			"stateMutability": "view",
			"type": "function"
		},
		{
			"constant": true,
			"inputs": [],
			"name": "oracle",
			"outputs": [
				{
					"internalType": "contract PriceOracle",
					"name": "",
					"type": "address"
				}
			],
			"payable": false,
			"stateMutability": "view",
			"type": "function"
		},
		{
			"constant": true,
			"inputs": [],
			"name": "pauseGuardian",
			"outputs": [
				{
					"internalType": "address",
					"name": "",
					"type": "address"
				}
			],
			"payable": false,
			"stateMutability": "view",
			"type": "function"
		},
		{
			"constant": true,
			"inputs": [],
			"name": "pendingAdmin",
			"outputs": [
				{
					"internalType": "address",
					"name": "",
					"type": "address"
				}
			],
			"payable": false,
			"stateMutability": "view",
			"type": "function"
		},
		{
			"constant": true,
			"inputs": [],
			"name": "pendingTENTrollerImplementation",
			"outputs": [
				{
					"internalType": "address",
					"name": "",
					"type": "address"
				}
			],
			"payable": false,
			"stateMutability": "view",
			"type": "function"
		},
		{
			"constant": true,
			"inputs": [],
			"name": "seizeGuardianPaused",
			"outputs": [
				{
					"internalType": "bool",
					"name": "",
					"type": "bool"
				}
			],
			"payable": false,
			"stateMutability": "view",
			"type": "function"
		},
		{
			"constant": true,
			"inputs": [],
			"name": "transferGuardianPaused",
			"outputs": [
				{
					"internalType": "bool",
					"name": "",
					"type": "bool"
				}
			],
			"payable": false,
			"stateMutability": "view",
			"type": "function"
		}
	]
}