{
	"data": {
		"bytecode": {
			"linkReferences": {},
			"object": "608060405234801561001057600080fd5b50600080546001600160a01b031916331790556159c480620000336000396000f3fe608060405234801561001057600080fd5b50600436106104545760003560e01c80636d154ea511610241578063ae9343d41161013b578063da3d454c116100c3578063e875544611610087578063e875544614610979578063eabe7d9114610981578063ede4edd014610994578063f851a440146109a7578063f9664258146109af57610454565b8063da3d454c14610930578063dce1544914610943578063e4028eee14610956578063e6653f3d14610969578063e6a8ee4f1461097157610454565b8063beb046fd1161010a578063beb046fd146108b6578063c2998238146108c9578063c488847b146108e9578063d02f73511461090a578063d1a6dfc41461091d57610454565b8063ae9343d414610875578063b0772d0b14610888578063bdcdc25814610890578063bea6b8b8146108a357610454565b80638ebf6364116101c95780639f66cde91161018d5780639f66cde914610812578063a0a4f39014610827578063a76b3fda1461083a578063abfceffc1461084d578063ac0b0bb71461086d57610454565b80638ebf6364146107be578063916e8b09146107d1578063929fe9a1146107e457806394543c15146107f757806394b2294b1461080a57610454565b80637662af3d116102105780637662af3d146107585780637dc0d1d01461076b578063857995481461077357806387f76303146107945780638e8f294b1461079c57610454565b80636d154ea5146107115780636d35bf9114610724578063731f0c2b14610732578063741b25251461074557610454565b806347ef3b3b1161035257806351f2eafb116102da5780635ec88c791161029e5780635ec88c79146106b75780635f5af1aa146106ca5780635fc7e71e146106dd578063607ef6c1146106f05780636a56947e1461070357610454565b806351f2eafb1461065657806352d84d1e1461066957806355ee1fe11461068957806356d5141e1461069c5780635c778605146106a457610454565b80634e79238f116103215780634e79238f146105f35780634ef4c3e1146106155780634fd42e171461062857806350d892081461063b57806351dff9891461064357610454565b806347ef3b3b146105bd5780634a584432146105d05780634ada90af146105e35780634c0aff54146105eb57610454565b806326782247116103e05780633bcf7ec1116103a45780633bcf7ec1146105745780633c94786f146105875780633de28d451461058f57806341c728b9146105a257806342cbb15c146105b557610454565b806326782247146105205780632d70db7814610528578063317b0b771461053b57806337713e911461054e578063391957d71461056157610454565b80631ededc91116104275780631ededc91146104ca57806321af4569146104dd57806323f1b3d4146104f257806324008a621461050557806324a3d6221461051857610454565b806307418ff7146104595780631013667a1461048257806318c882a5146104955780631d504dc6146104b5575b600080fd5b61046c61046736600461478f565b6109b7565b60405161047991906157fd565b60405180910390f35b61046c61049036600461478f565b6109c9565b6104a86104a3366004614c93565b6109db565b6040516104799190615517565b6104c86104c3366004614c57565b610af9565b005b6104c86104d8366004614962565b610c2d565b6104e5610c34565b60405161047991906154a3565b6104c8610500366004614b27565b610c43565b61046c610513366004614901565b610e65565b6104e5610f38565b6104e5610f47565b6104a8610536366004614c1b565b610f56565b61046c610549366004614ce2565b611026565b6104c861055c366004614cc3565b61109c565b6104c861056f36600461478f565b6110ce565b6104a8610582366004614c93565b611157565b6104a861125b565b6104c861059d36600461478f565b61126b565b6104c86105b0366004614a06565b6112cf565b61046c6112d5565b6104c86105cb36600461487a565b6112da565b61046c6105de36600461478f565b6112e2565b61046c6112f4565b6104a86112fa565b610606610601366004614a06565b6112ff565b60405161047993929190615841565b61046c6106233660046149b9565b611339565b61046c610636366004614ce2565b6113bc565b61046c61141c565b6104c8610651366004614a06565b611422565b6104c8610664366004614a4a565b61144d565b61067c610677366004614ce2565b6114af565b604051610479919061554d565b61046c610697366004614c57565b6114d6565b6104e5611548565b6104c86106b23660046149b9565b611557565b6106066106c536600461478f565b61155c565b61046c6106d836600461478f565b611591565b61046c6106eb366004614805565b611605565b6104c86106fe366004614bab565b611798565b6104c86105b0366004614901565b6104a861071f36600461478f565b6118e4565b6104c86104d8366004614805565b6104a861074036600461478f565b6118f9565b6104c861075336600461478f565b61190e565b6104c8610766366004614ac2565b6119d1565b61067c611a5f565b61078661078136600461478f565b611a6e565b6040516104799291906157e2565b6104a8611a98565b6107af6107aa36600461478f565b611aa8565b60405161047993929190615525565b6104a86107cc366004614c1b565b611ace565b6107866107df36600461478f565b611b8e565b6104a86107f2366004614a92565b611bb8565b6104a8610805366004614c57565b611beb565b61046c611cb9565b61081a611cbf565b60405161047991906157d4565b61046c61083536600461478f565b611cd2565b61046c610848366004614c57565b611ce4565b61086061085b36600461478f565b611e48565b60405161047991906154f5565b6104a8611ed1565b61046c6108833660046147cb565b611ee1565b610860611efe565b61046c61089e366004614901565b611f60565b61046c6108b136600461478f565b611fc6565b6104c86108c4366004614ac2565b611fd8565b6108dc6108d7366004614af2565b6120a1565b6040516104799190615506565b6108fc6108f73660046149b9565b612138565b60405161047992919061580b565b61046c610918366004614805565b612372565b61046c61092b3660046147cb565b612515565b61046c61093e3660046149b9565b612532565b61067c610951366004614ac2565b61289c565b61046c610964366004614cc3565b6128d1565b6104a8612a76565b6104e5612a86565b61046c612a95565b61046c61098f3660046149b9565b612a9b565b61046c6109a236600461478f565b612ad6565b6104e5612daf565b6104e5612dbe565b60146020526000908152604090205481565b60176020526000908152604090205481565b6001600160a01b03821660009081526009602052604081205460ff16610a1c5760405162461bcd60e51b8152600401610a1390615635565b60405180910390fd5b600a546001600160a01b0316331480610a3f57506000546001600160a01b031633145b610a5b5760405162461bcd60e51b8152600401610a13906156e4565b6000546001600160a01b0316331480610a7657506001821515145b610a925760405162461bcd60e51b8152600401610a13906156b5565b6001600160a01b0383166000908152600c602052604090819020805460ff1916841515179055517f71aec636243f9709bb0007ae15e9afb8150ab01716d75fd7573be5cc096e03b090610ae890859085906155cd565b60405180910390a150805b92915050565b806001600160a01b031663f851a4406040518163ffffffff1660e01b815260040160206040518083038186803b158015610b3257600080fd5b505afa158015610b46573d6000803e3d6000fd5b505050506040513d601f19601f82011682018060405250610b6a91908101906147ad565b6001600160a01b0316336001600160a01b031614610b9a5760405162461bcd60e51b8152600401610a13906157b4565b806001600160a01b031663c1e803346040518163ffffffff1660e01b8152600401602060405180830381600087803b158015610bd557600080fd5b505af1158015610be9573d6000803e3d6000fd5b505050506040513d601f19601f82011682018060405250610c0d9190810190614d00565b15610c2a5760405162461bcd60e51b8152600401610a1390615744565b50565b5050505050565b6015546001600160a01b031681565b60005b8351811015610dc7576000848281518110610c5d57fe5b6020908102919091018101516001600160a01b0381166000908152600990925260409091205490915060ff16610ca55760405162461bcd60e51b8152600401610a1390615704565b60018415151415610d7757610cb8614540565b6040518060200160405280836001600160a01b031663aa5af0fd6040518163ffffffff1660e01b815260040160206040518083038186803b158015610cfc57600080fd5b505afa158015610d10573d6000803e3d6000fd5b505050506040513d601f19601f82011682018060405250610d349190810190614d00565b90529050610d428282612dd6565b60005b8751811015610d7457610d6c83898381518110610d5e57fe5b60200260200101518461306a565b600101610d45565b50505b60018315151415610dbe57610d8b816131f0565b60005b8651811015610dbc57610db482888381518110610da757fe5b602002602001015161347a565b600101610d8e565b505b50600101610c46565b5060005b8451811015610c2d57610e29858281518110610de357fe5b602002602001015160146000888581518110610dfb57fe5b60200260200101516001600160a01b03166001600160a01b0316815260200190815260200160002054613654565b60146000878481518110610e3957fe5b6020908102919091018101516001600160a01b0316825281019190915260400160002055600101610dcb565b6001600160a01b03841660009081526009602052604081205460ff16610e8d57506009610f30565b610e95614540565b6040518060200160405280876001600160a01b031663aa5af0fd6040518163ffffffff1660e01b815260040160206040518083038186803b158015610ed957600080fd5b505afa158015610eed573d6000803e3d6000fd5b505050506040513d601f19601f82011682018060405250610f119190810190614d00565b90529050610f1f8682612dd6565b610f2a86858361306a565b60009150505b949350505050565b600a546001600160a01b031681565b6001546001600160a01b031681565b600a546000906001600160a01b0316331480610f7c57506000546001600160a01b031633145b610f985760405162461bcd60e51b8152600401610a13906156e4565b6000546001600160a01b0316331480610fb357506001821515145b610fcf5760405162461bcd60e51b8152600401610a13906156b5565b600a805460ff60b81b1916600160b81b841515021790556040517fef159d9a32b2472e32b098f954f3ce62d232939f1c207070b584df1814de2de0906110169084906156c5565b60405180910390a150805b919050565b600080546001600160a01b031633146110515760405162461bcd60e51b8152600401610a13906156a5565b60058054908390556040517f3b9670cf975d26958e754b57098eaa2ac914d8d2a31b83257997b9f346110fd99061108b908390869061580b565b60405180910390a160009392505050565b6110a461378b565b6110c05760405162461bcd60e51b8152600401610a1390615655565b6110ca82826137b4565b5050565b6000546001600160a01b031633146110f85760405162461bcd60e51b8152600401610a13906156f4565b601580546001600160a01b038381166001600160a01b03198316179092556040519116907feda98690e518e9a05f8ec6837663e188211b2da8f4906648b323f2c1d4434e299061114b90839085906154bf565b60405180910390a15050565b6001600160a01b03821660009081526009602052604081205460ff1661118f5760405162461bcd60e51b8152600401610a1390615635565b600a546001600160a01b03163314806111b257506000546001600160a01b031633145b6111ce5760405162461bcd60e51b8152600401610a13906156e4565b6000546001600160a01b03163314806111e957506001821515145b6112055760405162461bcd60e51b8152600401610a13906156b5565b6001600160a01b0383166000908152600b602052604090819020805460ff1916841515179055517f71aec636243f9709bb0007ae15e9afb8150ab01716d75fd7573be5cc096e03b090610ae8908590859061559f565b600a54600160a01b900460ff1681565b610c2a81600d8054806020026020016040519081016040528092919081815260200182805480156112c557602002820191906000526020600020905b81546001600160a01b031681526001909101906020018083116112a7575b505050505061144d565b50505050565b435b90565b505050505050565b60166020526000908152604090205481565b60065481565b600181565b6000806000806000806113148a8a8a8a613b0e565b92509250925082601181111561132657fe5b95509093509150505b9450945094915050565b6001600160a01b0383166000908152600b602052604081205460ff16156113725760405162461bcd60e51b8152600401610a13906157a4565b6001600160a01b03841660009081526009602052604090205460ff1661139c5760095b90506113b5565b6113a5846131f0565b6113af848461347a565b60005b90505b9392505050565b600080546001600160a01b031633146113e2576113db6001600b613e38565b9050611021565b60068054908390556040517faeba5a6c40a8ac138134bff1aaa65debf25971188a58804bad717f82f0ec13169061108b908390869061580b565b600e5481565b801580156114305750600082115b156112cf5760405162461bcd60e51b8152600401610a1390615724565b60408051600180825281830190925260609160208083019080388339019050509050828160008151811061147d57fe5b60200260200101906001600160a01b031690816001600160a01b0316815250506114aa8183600180610c43565b505050565b600d81815481106114bc57fe5b6000918252602090912001546001600160a01b0316905081565b600080546001600160a01b031633146114f5576113db60016010613e38565b600480546001600160a01b038481166001600160a01b03198316179092556040519116907fd52b2b9b7e9ee655fcb95d2e5b9e0c9f69e7ef2b8e9d2d0ea78402d576d22e229061108b908390869061555b565b6003546001600160a01b031681565b6114aa565b600080600080600080611573876000806000613b0e565b92509250925082601181111561158557fe5b97919650945092505050565b600080546001600160a01b031633146115b0576113db60016013613e38565b600a80546001600160a01b038481166001600160a01b031983161792839055604051918116927f0613b6ee6a04f0d09f390e4d9318894b9f6ac7fd83897cd8d18896ba579c401e9261108b92859216906154bf565b6001600160a01b03851660009081526009602052604081205460ff16158061164657506001600160a01b03851660009081526009602052604090205460ff16155b156116555760095b905061178f565b6040516395dd919360e01b81526000906001600160a01b038816906395dd9193906116849087906004016154a3565b60206040518083038186803b15801561169c57600080fd5b505afa1580156116b0573d6000803e3d6000fd5b505050506040513d601f19601f820116820180604052506116d49190810190614d00565b90506116df87611beb565b1561170957828110156117045760405162461bcd60e51b8152600401610a1390615675565b611789565b60008061171586613e98565b9193509091506000905082601181111561172b57fe5b146117465781601181111561173c57fe5b935050505061178f565b8061175257600361173c565b600061176e604051806020016040528060055481525085613eb8565b90508086111561178557601194505050505061178f565b5050505b60009150505b95945050505050565b6000546001600160a01b03163314806117bb57506015546001600160a01b031633145b6117d75760405162461bcd60e51b8152600401610a1390615734565b828181158015906117e757508082145b6118035760405162461bcd60e51b8152600401610a1390615784565b60005b828110156118db5784848281811061181a57fe5b905060200201356016600089898581811061183157fe5b90506020020160206118469190810190614c57565b6001600160a01b0316815260208101919091526040016000205586868281811061186c57fe5b90506020020160206118819190810190614c57565b6001600160a01b03167f6f1951b2aad10f3fc81b86d91105b413a5b3f847a34bbc5ce1904201b14438f68686848181106118b757fe5b905060200201356040516118cb91906157fd565b60405180910390a2600101611806565b50505050505050565b600c6020526000908152604090205460ff1681565b600b6020526000908152604090205460ff1681565b6001600160a01b038116600090815260176020526040812054906119306112d5565b6001600160a01b03841660009081526018602052604081205491925090611958908390613ed7565b905060008111801561196a5750600083115b156112cf57600061197b8285613f11565b6001600160a01b038616600090815260146020526040812054919250906119a29083613f53565b6001600160a01b0387166000908152601460209081526040808320939093556018905220849055505050505050565b6119d961378b565b6119f55760405162461bcd60e51b8152600401610a1390615665565b6000611a018383613654565b90508015611a215760405162461bcd60e51b8152600401610a1390615695565b7f53e757ed34cf455cfb08a8ad8abd3b72ed989fb0c58deba99482fe958a5447f08383604051611a529291906154da565b60405180910390a1505050565b6004546001600160a01b031681565b6011602052600090815260409020546001600160e01b03811690600160e01b900463ffffffff1682565b600a54600160b01b900460ff1681565b60096020526000908152604090208054600182015460039092015460ff91821692911683565b600a546000906001600160a01b0316331480611af457506000546001600160a01b031633145b611b105760405162461bcd60e51b8152600401610a13906156e4565b6000546001600160a01b0316331480611b2b57506001821515145b611b475760405162461bcd60e51b8152600401610a13906156b5565b600a805460ff60b01b1916600160b01b841515021790556040517fef159d9a32b2472e32b098f954f3ce62d232939f1c207070b584df1814de2de090611016908490615794565b6010602052600090815260409020546001600160e01b03811690600160e01b900463ffffffff1682565b6001600160a01b038082166000908152600960209081526040808320938616835260029093019052205460ff1692915050565b6001600160a01b038116600090815260096020526040812060010154158015611c3157506001600160a01b0382166000908152600c602052604090205460ff1615156001145b8015610af35750816001600160a01b031663173b99046040518163ffffffff1660e01b815260040160206040518083038186803b158015611c7157600080fd5b505afa158015611c85573d6000803e3d6000fd5b505050506040513d601f19601f82011682018060405250611ca99190810190614d00565b670de0b6b3a76400001492915050565b60075481565b6ec097ce7bc90715b34b9f100000000081565b600f6020526000908152604090205481565b600080546001600160a01b03163314611d03576113db60016012613e38565b6001600160a01b03821660009081526009602052604090205460ff1615611d30576113db600a6011613e38565b816001600160a01b031663a0097b586040518163ffffffff1660e01b815260040160206040518083038186803b158015611d6957600080fd5b505afa158015611d7d573d6000803e3d6000fd5b505050506040513d601f19601f82011682018060405250611da19190810190614c39565b50604080516060810182526001808252600060208084018281528486018381526001600160a01b03891684526009909252949091209251835490151560ff19918216178455935191830191909155516003909101805491151591909216179055611e0a82613f89565b7fcf583bb0c569eb967f806b11601c4cb93c10310485c67add5f8362c2f212321f82604051611e39919061554d565b60405180910390a16000610af3565b60608060086000846001600160a01b03166001600160a01b03168152602001908152602001600020805480602002602001604051908101604052809291908181526020018280548015611ec457602002820191906000526020600020905b81546001600160a01b03168152600190910190602001808311611ea6575b5093979650505050505050565b600a54600160b81b900460ff1681565b601360209081526000928352604080842090915290825290205481565b6060600d805480602002602001604051908101604052809291908181526020018280548015611f5657602002820191906000526020600020905b81546001600160a01b03168152600190910190602001808311611f38575b5050505050905090565b600a54600090600160b01b900460ff1615611f8d5760405162461bcd60e51b8152600401610a1390615714565b6000611f9a86868561403b565b90508015611fa9579050610f30565b611fb2866131f0565b611fbc868661347a565b610f2a868561347a565b60186020526000908152604090205481565b611fe061378b565b611ffc5760405162461bcd60e51b8152600401610a1390615655565b6120058261190e565b80612028576001600160a01b03821660009081526018602052604081205561204a565b6120306112d5565b6001600160a01b0383166000908152601860205260409020555b6001600160a01b03821660008181526017602052604090819020839055517f6efa521ca4433a4de77cc82afe3d65f9e4c756c638bc5f7a44249da9b6be4391906120959084906157fd565b60405180910390a25050565b60606000825190506060816040519080825280602002602001820160405280156120d5578160200160208202803883390190505b50905060005b828110156121305760008582815181106120f157fe5b6020026020010151905061210581336140e7565b601181111561211057fe5b83838151811061211c57fe5b6020908102919091010152506001016120db565b509392505050565b6004805460405163fc57d4df60e01b8152600092839283926001600160a01b039091169163fc57d4df9161216e918a910161554d565b60206040518083038186803b15801561218657600080fd5b505afa15801561219a573d6000803e3d6000fd5b505050506040513d601f19601f820116820180604052506121be9190810190614d00565b6004805460405163fc57d4df60e01b81529293506000926001600160a01b039091169163fc57d4df916121f3918a910161554d565b60206040518083038186803b15801561220b57600080fd5b505afa15801561221f573d6000803e3d6000fd5b505050506040513d601f19601f820116820180604052506122439190810190614d00565b9050811580612250575080155b1561226557600d93506000925061236a915050565b6000866001600160a01b031663182df0f56040518163ffffffff1660e01b815260040160206040518083038186803b1580156122a057600080fd5b505afa1580156122b4573d6000803e3d6000fd5b505050506040513d601f19601f820116820180604052506122d89190810190614d00565b905060006122e4614540565b6122ec614540565b6122f4614540565b61231c604051806020016040528060065481525060405180602001604052808a8152506141de565b92506123446040518060200160405280888152506040518060200160405280888152506141de565b9150612350838361421d565b905061235c818b613eb8565b600099509750505050505050505b935093915050565b600a54600090600160b81b900460ff161561239f5760405162461bcd60e51b8152600401610a1390615774565b6001600160a01b03861660009081526009602052604090205460ff1615806123e057506001600160a01b03851660009081526009602052604090205460ff16155b156123ec57600961164e565b846001600160a01b031663875be7566040518163ffffffff1660e01b815260040160206040518083038186803b15801561242557600080fd5b505afa158015612439573d6000803e3d6000fd5b505050506040513d601f19601f8201168201806040525061245d9190810190614c75565b6001600160a01b0316866001600160a01b031663875be7566040518163ffffffff1660e01b815260040160206040518083038186803b15801561249f57600080fd5b505afa1580156124b3573d6000803e3d6000fd5b505050506040513d601f19601f820116820180604052506124d79190810190614c75565b6001600160a01b0316146124ec57600261164e565b6124f5866131f0565b6124ff868461347a565b612509868561347a565b60009695505050505050565b601260209081526000928352604080842090915290825290205481565b6001600160a01b0383166000908152600c602052604081205460ff161561256b5760405162461bcd60e51b8152600401610a13906157c4565b6001600160a01b03841660009081526009602052604090205460ff16612592576009611395565b6001600160a01b038085166000908152600960209081526040808320938716835260029093019052205460ff1661265557336001600160a01b038516146125eb5760405162461bcd60e51b8152600401610a1390615685565b60006125f733856140e7565b9050600081601181111561260757fe5b146126205780601181111561261857fe5b9150506113b5565b6001600160a01b038086166000908152600960209081526040808320938816835260029093019052205460ff1661265357fe5b505b6004805460405163fc57d4df60e01b81526001600160a01b039091169163fc57d4df916126849188910161554d565b60206040518083038186803b15801561269c57600080fd5b505afa1580156126b0573d6000803e3d6000fd5b505050506040513d601f19601f820116820180604052506126d49190810190614d00565b6126df57600d611395565b6001600160a01b03841660009081526016602052604090205480156127a3576000856001600160a01b03166347bd37186040518163ffffffff1660e01b815260040160206040518083038186803b15801561273957600080fd5b505afa15801561274d573d6000803e3d6000fd5b505050506040513d601f19601f820116820180604052506127719190810190614d00565b9050600061277f8286613f53565b90508281106127a05760405162461bcd60e51b8152600401610a1390615764565b50505b6000806127b38688600088613b0e565b919350909150600090508260118111156127c957fe5b146127e4578160118111156127da57fe5b93505050506113b5565b80156127f15760046127da565b6127f9614540565b6040518060200160405280896001600160a01b031663aa5af0fd6040518163ffffffff1660e01b815260040160206040518083038186803b15801561283d57600080fd5b505afa158015612851573d6000803e3d6000fd5b505050506040513d601f19601f820116820180604052506128759190810190614d00565b905290506128838882612dd6565b61288e88888361306a565b600098975050505050505050565b600860205281600052604060002081815481106128b557fe5b6000918252602090912001546001600160a01b03169150829050565b600080546001600160a01b031633146128f7576128f060016006613e38565b9050610af3565b6001600160a01b0383166000908152600960205260409020805460ff1661292c5761292460096007613e38565b915050610af3565b612934614540565b50604080516020810190915283815261294b614540565b506040805160208101909152670c7d713b49da0000815261296c8183614259565b156129875761297d60066008613e38565b9350505050610af3565b8415801590612a1257506004805460405163fc57d4df60e01b81526001600160a01b039091169163fc57d4df916129c0918a910161554d565b60206040518083038186803b1580156129d857600080fd5b505afa1580156129ec573d6000803e3d6000fd5b505050506040513d601f19601f82011682018060405250612a109190810190614d00565b155b15612a235761297d600d6009613e38565b600183018054908690556040517f70483e6592cd5182d45ac970e05bc62cdcc90e9d8ef2c2dbe686cf383bcd7fc590612a6190899084908a906155ec565b60405180910390a16000979650505050505050565b600a54600160a81b900460ff1681565b6002546001600160a01b031681565b60055481565b600080612aa985858561403b565b90508015612ab85790506113b5565b612ac1856131f0565b612acb858561347a565b600095945050505050565b6000808290506000806000836001600160a01b031663c37f68e2336040518263ffffffff1660e01b8152600401612b0d91906154b1565b60806040518083038186803b158015612b2557600080fd5b505afa158015612b39573d6000803e3d6000fd5b505050506040513d601f19601f82011682018060405250612b5d9190810190614d1e565b5092509250925082600014612b845760405162461bcd60e51b8152600401610a1390615754565b8015612ba157612b96600c6002613e38565b945050505050611021565b6000612bae87338561403b565b90508015612bcf57612bc3600e600383614260565b95505050505050611021565b6001600160a01b0385166000908152600960209081526040808320338452600281019092529091205460ff16612c0e5760009650505050505050611021565b3360009081526002820160209081526040808320805460ff191690556008825291829020805483518184028101840190945280845260609392830182828015612c8057602002820191906000526020600020905b81546001600160a01b03168152600190910190602001808311612c62575b5050835193945083925060009150505b82811015612cd557896001600160a01b0316848281518110612cae57fe5b60200260200101516001600160a01b03161415612ccd57809150612cd5565b600101612c90565b50818110612cdf57fe5b336000908152600860205260409020805481906000198101908110612d0057fe5b9060005260206000200160009054906101000a90046001600160a01b0316818381548110612d2a57fe5b600091825260209091200180546001600160a01b0319166001600160a01b03929092169190911790558054612d63826000198301614553565b507fe699a64c18b07ac5b7301aa273f36a2287239eb9501d81950672794afba29a0d8a33604051612d95929190615584565b60405180910390a160009c9b505050505050505050505050565b6000546001600160a01b031681565b7371468e0eb050fd8c2884c5a13b848ab29de01ad590565b6001600160a01b0382166000908152601160209081526040808320600f9092528220549091612e036112d5565b8354909150600090612e23908390600160e01b900463ffffffff16613ed7565b9050600081118015612e355750600083115b15613010576000612eb6876001600160a01b03166347bd37186040518163ffffffff1660e01b815260040160206040518083038186803b158015612e7857600080fd5b505afa158015612e8c573d6000803e3d6000fd5b505050506040513d601f19601f82011682018060405250612eb09190810190614d00565b876142bf565b90506000612ec48386613f11565b9050612ece614540565b60008311612eeb5760405180602001604052806000815250612ef5565b612ef582846142dd565b9050612eff614540565b604080516020810190915288546001600160e01b03168152612f219083614312565b90506040518060400160405280612f7183600001516040518060400160405280601a81526020017f6e657720696e6465782065786365656473203232342062697473000000000000815250614337565b6001600160e01b03168152602001612fac886040518060400160405280601c8152602001600080516020615962833981519152815250614366565b63ffffffff9081169091526001600160a01b038c166000908152601160209081526040909120835181549490920151909216600160e01b026001600160e01b039182166001600160e01b03199094169390931716919091179055506112da92505050565b80156112da57613043826040518060400160405280601c8152602001600080516020615962833981519152815250614366565b845463ffffffff91909116600160e01b026001600160e01b03909116178455505050505050565b6001600160a01b038316600090815260116020526040902061308a614540565b50604080516020810190915281546001600160e01b031681526130ab614540565b5060408051602080820183526001600160a01b03808916600090815260138352848120918916808252828452948120805485528651959091529152919091558051156112da576130f9614540565b613103838361438e565b9050600061314e886001600160a01b03166395dd9193896040518263ffffffff1660e01b815260040161313691906154a3565b60206040518083038186803b158015612e7857600080fd5b9050600061315c82846143b3565b6001600160a01b038916600090815260146020526040812054919250906131839083613f53565b6001600160a01b03808b1660008181526014602052604090819020849055895190519394509092918d16917f5093e98e1fd583477b4097e5516e4eef12cb98f5c0bd92d41a448a9cdf2c4bbb916131dc9187919061580b565b60405180910390a350505050505050505050565b6001600160a01b0381166000908152601060209081526040808320600f909252822054909161321d6112d5565b835490915060009061323d908390600160e01b900463ffffffff16613ed7565b905060008111801561324f5750600083115b15613421576000856001600160a01b03166318160ddd6040518163ffffffff1660e01b815260040160206040518083038186803b15801561328f57600080fd5b505afa1580156132a3573d6000803e3d6000fd5b505050506040513d601f19601f820116820180604052506132c79190810190614d00565b905060006132d58386613f11565b90506132df614540565b600083116132fc5760405180602001604052806000815250613306565b61330682846142dd565b9050613310614540565b604080516020810190915288546001600160e01b031681526133329083614312565b9050604051806040016040528061338283600001516040518060400160405280601a81526020017f6e657720696e6465782065786365656473203232342062697473000000000000815250614337565b6001600160e01b031681526020016133bd886040518060400160405280601c8152602001600080516020615962833981519152815250614366565b63ffffffff9081169091526001600160a01b038b166000908152601060209081526040909120835181549490920151909216600160e01b026001600160e01b039182166001600160e01b0319909416939093171691909117905550610c2d92505050565b8015610c2d57613454826040518060400160405280601c8152602001600080516020615962833981519152815250614366565b845463ffffffff91909116600160e01b026001600160e01b039091161784555050505050565b6001600160a01b038216600090815260106020526040902061349a614540565b50604080516020810190915281546001600160e01b031681526134bb614540565b5060408051602080820183526001600160a01b038088166000908152601283528481209188168082528284529481208054855286519590915291529190915580511580156135095750815115155b15613521576ec097ce7bc90715b34b9f100000000081525b613529614540565b613533838361438e565b90506000866001600160a01b03166370a08231876040518263ffffffff1660e01b815260040161356391906154a3565b60206040518083038186803b15801561357b57600080fd5b505afa15801561358f573d6000803e3d6000fd5b505050506040513d601f19601f820116820180604052506135b39190810190614d00565b905060006135c182846143b3565b6001600160a01b038816600090815260146020526040812054919250906135e89083613f53565b6001600160a01b03808a1660008181526014602052604090819020849055895190519394509092918c16917f99836add3cd317f88dcd742d7bfff2d519c5bc8f3924745eca13b902dbed0cfb916136419187919061580b565b60405180910390a3505050505050505050565b60008061365f612dbe565b90506000816001600160a01b03166370a08231306040518263ffffffff1660e01b815260040161368f91906154a3565b60206040518083038186803b1580156136a757600080fd5b505afa1580156136bb573d6000803e3d6000fd5b505050506040513d601f19601f820116820180604052506136df9190810190614d00565b90506000841180156136f15750808411155b156137825760405163a9059cbb60e01b81526001600160a01b0383169063a9059cbb9061372490889088906004016154da565b602060405180830381600087803b15801561373e57600080fd5b505af1158015613752573d6000803e3d6000fd5b505050506040513d601f19601f820116820180604052506137769190810190614c39565b50600092505050610af3565b50919392505050565b600080546001600160a01b03163314806137af57506002546001600160a01b031633145b905090565b6001600160a01b0382166000908152600f60205260409020548015613874576137db614540565b6040518060200160405280856001600160a01b031663aa5af0fd6040518163ffffffff1660e01b815260040160206040518083038186803b15801561381f57600080fd5b505afa158015613833573d6000803e3d6000fd5b505050506040513d601f19601f820116820180604052506138579190810190614d00565b90529050613864846131f0565b61386e8482612dd6565b50613aaf565b8115613aaf576001600160a01b0383166000908152600960205260409020805460ff1615156001146138b85760405162461bcd60e51b8152600401610a1390615645565b6001600160a01b0384166000908152601060205260409020546001600160e01b031615801561390a57506001600160a01b038416600090815260106020526040902054600160e01b900463ffffffff16155b156139c75760405180604001604052806ec097ce7bc90715b34b9f10000000006001600160e01b0316815260200161396c6139436112d5565b6040518060400160405280601c8152602001600080516020615962833981519152815250614366565b63ffffffff9081169091526001600160a01b0386166000908152601060209081526040909120835181549490920151909216600160e01b026001600160e01b039182166001600160e01b031990941693909317169190911790555b6001600160a01b0384166000908152601160205260409020546001600160e01b0316158015613a1957506001600160a01b038416600090815260116020526040902054600160e01b900463ffffffff16155b15613aad5760405180604001604052806ec097ce7bc90715b34b9f10000000006001600160e01b03168152602001613a526139436112d5565b63ffffffff9081169091526001600160a01b0386166000908152601160209081526040909120835181549490920151909216600160e01b026001600160e01b039182166001600160e01b031990941693909317169190911790555b505b8181146114aa576001600160a01b0383166000818152600f602052604090819020849055517f04d5ea7827ed1b0bafeb815308e9e522fa2e0bda4c5bf51682dfa19e9d04a54590613b019085906157fd565b60405180910390a2505050565b6000806000613b1b614577565b6001600160a01b03881660009081526008602090815260408083208054825181850281018501909352808352606093830182828015613b8357602002820191906000526020600020905b81546001600160a01b03168152600190910190602001808311613b65575b50939450600093505050505b8151811015613df9576000828281518110613ba657fe5b60200260200101519050806001600160a01b031663c37f68e28d6040518263ffffffff1660e01b8152600401613bdc91906154a3565b60806040518083038186803b158015613bf457600080fd5b505afa158015613c08573d6000803e3d6000fd5b505050506040513d601f19601f82011682018060405250613c2c9190810190614d1e565b60808901526060880152604087015293508315613c595750600f96506000955085945061132f9350505050565b60408051602080820183526001600160a01b0380851660009081526009835284902060010154835260c0890192909252825190810183526080880151815260e088015260048054925163fc57d4df60e01b8152929091169163fc57d4df91613cc39185910161554d565b60206040518083038186803b158015613cdb57600080fd5b505afa158015613cef573d6000803e3d6000fd5b505050506040513d601f19601f82011682018060405250613d139190810190614d00565b60a08601819052613d345750600d96506000955085945061132f9350505050565b604080516020810190915260a0860151815261010086015260c085015160e0860151613d6e91613d63916141de565b8661010001516141de565b610120860181905260408601518651613d889291906143e2565b855261010085015160608601516020870151613da59291906143e2565b60208601526001600160a01b03818116908c161415613df057613dd28561012001518b87602001516143e2565b60208601819052610100860151613dea918b906143e2565b60208601525b50600101613b8f565b50602083015183511115613e1f575050602081015190516000945003915082905061132f565b505080516020909101516000945084935003905061132f565b60007f45b96fe442630264581b197e84bbada861235052c5a1aadfff9ea4e40a969aa0836011811115613e6757fe5b836013811115613e7357fe5b6000604051613e8493929190615819565b60405180910390a18260118111156113b557fe5b6000806000613eab846000806000613b0e565b9250925092509193909250565b6000613ec2614540565b613ecc848461440a565b9050610f308161442b565b60006113b58383604051806040016040528060158152602001747375627472616374696f6e20756e646572666c6f7760581b81525061443a565b60006113b583836040518060400160405280601781526020017f6d756c7469706c69636174696f6e206f766572666c6f77000000000000000000815250614466565b60006113b58383604051806040016040528060118152602001706164646974696f6e206f766572666c6f7760781b8152506144b7565b60005b600d54811015613fe857816001600160a01b0316600d8281548110613fad57fe5b6000918252602090912001546001600160a01b03161415613fe05760405162461bcd60e51b8152600401610a1390615625565b600101613f8c565b50600d80546001810182556000919091527fd7b6990105719101dabeb77144f2a3385c8033acd3af97e9423a695e81ad1eb50180546001600160a01b0319166001600160a01b0392909216919091179055565b6001600160a01b03831660009081526009602052604081205460ff16614062576009611395565b6001600160a01b038085166000908152600960209081526040808320938716835260029093019052205460ff1661409a576000611395565b6000806140aa8587866000613b0e565b919350909150600090508260118111156140c057fe5b146140da578160118111156140d157fe5b925050506113b5565b80156125095760046140d1565b6001600160a01b0382166000908152600960205260408120805460ff16614112576009915050610af3565b6001600160a01b038316600090815260028201602052604090205460ff16151560011415614144576000915050610af3565b6001600160a01b03838116600090815260028301602090815260408083208054600160ff19909116811790915560088352818420805491820181558452919092200180546001600160a01b03191692871692909217909155517f3ab23ab0d51cccc0c3085aec51f99228625aa1a922b3a8ca89a26b0f2027a1a5906141cc9086908690615576565b60405180910390a15060009392505050565b6141e6614540565b6040518060200160405280670de0b6b3a764000061420c86600001518660000151613f11565b8161421357fe5b0490529392505050565b614225614540565b60405180602001604052806142506142498660000151670de0b6b3a7640000613f11565b85516144de565b90529392505050565b5190511090565b60007f45b96fe442630264581b197e84bbada861235052c5a1aadfff9ea4e40a969aa084601181111561428f57fe5b84601381111561429b57fe5b846040516142ab93929190615841565b60405180910390a18360118111156113b257fe5b60006113b56142d684670de0b6b3a7640000613f11565b83516144de565b6142e5614540565b604051806020016040528061425061430c866ec097ce7bc90715b34b9f1000000000613f11565b856144de565b61431a614540565b604051806020016040528061425085600001518560000151613f53565b600081600160e01b841061435e5760405162461bcd60e51b8152600401610a139190615614565b509192915050565b600081640100000000841061435e5760405162461bcd60e51b8152600401610a139190615614565b614396614540565b604051806020016040528061425085600001518560000151613ed7565b60006ec097ce7bc90715b34b9f10000000006143d3848460000151613f11565b816143da57fe5b049392505050565b60006143ec614540565b6143f6858561440a565b905061178f6144048261442b565b84613f53565b614412614540565b6040518060200160405280614250856000015185613f11565b51670de0b6b3a7640000900490565b6000818484111561445e5760405162461bcd60e51b8152600401610a139190615614565b505050900390565b6000831580614473575082155b15614480575060006113b5565b8383028385828161448d57fe5b041483906144ae5760405162461bcd60e51b8152600401610a139190615614565b50949350505050565b600083830182858210156144ae5760405162461bcd60e51b8152600401610a139190615614565b60006113b583836040518060400160405280600e81526020016d646976696465206279207a65726f60901b8152506000818361452d5760405162461bcd60e51b8152600401610a139190615614565b5082848161453757fe5b04949350505050565b6040518060200160405280600081525090565b8154818355818111156114aa576000838152602090206114aa9181019083016145e1565b6040518061014001604052806000815260200160008152602001600081526020016000815260200160008152602001600081526020016145b5614540565b81526020016145c2614540565b81526020016145cf614540565b81526020016145dc614540565b905290565b6112d791905b808211156145fb57600081556001016145e7565b5090565b8035610af381615932565b8051610af381615932565b600082601f83011261462657600080fd5b813561463961463482615876565b61584f565b9150818183526020840193506020810190508385602084028201111561465e57600080fd5b60005b8381101561468a578161467488826145ff565b8452506020928301929190910190600101614661565b5050505092915050565b60008083601f8401126146a657600080fd5b50813567ffffffffffffffff8111156146be57600080fd5b6020830191508360208202830111156146d657600080fd5b9250929050565b600082601f8301126146ee57600080fd5b81356146fc61463482615876565b9150818183526020840193506020810190508385602084028201111561472157600080fd5b60005b8381101561468a57816147378882614763565b8452506020928301929190910190600101614724565b8035610af381615946565b8051610af381615946565b8035610af38161594f565b8051610af38161594f565b8035610af381615958565b8051610af381615958565b6000602082840312156147a157600080fd5b6000610f3084846145ff565b6000602082840312156147bf57600080fd5b6000610f30848461460a565b600080604083850312156147de57600080fd5b60006147ea85856145ff565b92505060206147fb858286016145ff565b9150509250929050565b600080600080600060a0868803121561481d57600080fd5b600061482988886145ff565b955050602061483a888289016145ff565b945050604061484b888289016145ff565b935050606061485c888289016145ff565b925050608061486d88828901614779565b9150509295509295909350565b60008060008060008060c0878903121561489357600080fd5b600061489f89896145ff565b96505060206148b089828a016145ff565b95505060406148c189828a016145ff565b94505060606148d289828a016145ff565b93505060806148e389828a01614779565b92505060a06148f489828a01614779565b9150509295509295509295565b6000806000806080858703121561491757600080fd5b600061492387876145ff565b9450506020614934878288016145ff565b9350506040614945878288016145ff565b925050606061495687828801614779565b91505092959194509250565b600080600080600060a0868803121561497a57600080fd5b600061498688886145ff565b9550506020614997888289016145ff565b94505060406149a8888289016145ff565b935050606061485c88828901614779565b6000806000606084860312156149ce57600080fd5b60006149da86866145ff565b93505060206149eb868287016145ff565b92505060406149fc86828701614779565b9150509250925092565b60008060008060808587031215614a1c57600080fd5b6000614a2887876145ff565b9450506020614a39878288016145ff565b935050604061494587828801614779565b60008060408385031215614a5d57600080fd5b6000614a6985856145ff565b925050602083013567ffffffffffffffff811115614a8657600080fd5b6147fb858286016146dd565b60008060408385031215614aa557600080fd5b6000614ab185856145ff565b92505060206147fb85828601614763565b60008060408385031215614ad557600080fd5b6000614ae185856145ff565b92505060206147fb85828601614779565b600060208284031215614b0457600080fd5b813567ffffffffffffffff811115614b1b57600080fd5b610f3084828501614615565b60008060008060808587031215614b3d57600080fd5b843567ffffffffffffffff811115614b5457600080fd5b614b6087828801614615565b945050602085013567ffffffffffffffff811115614b7d57600080fd5b614b89878288016146dd565b9350506040614b9a8782880161474d565b92505060606149568782880161474d565b60008060008060408587031215614bc157600080fd5b843567ffffffffffffffff811115614bd857600080fd5b614be487828801614694565b9450945050602085013567ffffffffffffffff811115614c0357600080fd5b614c0f87828801614694565b95989497509550505050565b600060208284031215614c2d57600080fd5b6000610f30848461474d565b600060208284031215614c4b57600080fd5b6000610f308484614758565b600060208284031215614c6957600080fd5b6000610f308484614763565b600060208284031215614c8757600080fd5b6000610f30848461476e565b60008060408385031215614ca657600080fd5b6000614cb28585614763565b92505060206147fb8582860161474d565b60008060408385031215614cd657600080fd5b6000614ae18585614763565b600060208284031215614cf457600080fd5b6000610f308484614779565b600060208284031215614d1257600080fd5b6000610f308484614784565b60008060008060808587031215614d3457600080fd5b6000614d408787614784565b9450506020614d5187828801614784565b9350506040614d6287828801614784565b925050606061495687828801614784565b6000614d7f8383614e5b565b505060200190565b6000614d7f8383615491565b614d9c816158e6565b82525050565b614d9c816158aa565b6000614db68261589d565b614dc081856158a1565b9350614dcb83615897565b8060005b83811015614df9578151614de38882614d73565b9750614dee83615897565b925050600101614dcf565b509495945050505050565b6000614e0f8261589d565b614e1981856158a1565b9350614e2483615897565b8060005b83811015614df9578151614e3c8882614d87565b9750614e4783615897565b925050600101614e28565b614d9c816158b5565b614d9c816158ba565b614d9c816158f1565b6000614e788261589d565b614e8281856158a1565b9350614e928185602086016158fc565b614e9b81615928565b9093019392505050565b6000614eb26014836158a1565b731b585c9ad95d08185b1c9958591e48185919195960621b815260200192915050565b6000614ee26028836158a1565b7f63616e6e6f742070617573652061206d61726b65742074686174206973206e6f8152671d081b1a5cdd195960c21b602082015260400192915050565b6000614f2c601a836158a1565b7f6c656e6474206d61726b6574206973206e6f74206c6973746564000000000000815260200192915050565b6000614f65601e836158a1565b7f6f6e6c792061646d696e2063616e20736574206c656e64742073706565640000815260200192915050565b6000614f9e601a836158a1565b7f6f6e6c792061646d696e2063616e206772616e74206c656e6474000000000000815260200192915050565b6000614fd76028836158a1565b7f43616e206e6f74207265706179206d6f7265207468616e2074686520746f74618152676c20626f72726f7760c01b602082015260400192915050565b60006150216004836158a1565b63135a5b9d60e21b815260200192915050565b60006150416015836158a1565b7439b2b73232b91036bab9ba103132903a2a37b5b2b760591b815260200192915050565b6000615072601c836158a1565b7f696e73756666696369656e74206c656e647420666f72206772616e7400000000815260200192915050565b60006150ab601f836158a1565b7f6f6e6c792061646d696e2063616e2073657420636c6f736520666163746f7200815260200192915050565b60006150e46016836158a1565b756f6e6c792061646d696e2063616e20756e706175736560501b815260200192915050565b60006151166005836158a1565b645365697a6560d81b815260200192915050565b60006151376027836158a1565b7f6f6e6c7920706175736520677561726469616e20616e642061646d696e2063618152666e20706175736560c81b602082015260400192915050565b60006151806026836158a1565b7f6f6e6c792061646d696e2063616e2073657420626f72726f772063617020677581526530b93234b0b760d11b602082015260400192915050565b60006151c86006836158a1565b65426f72726f7760d01b815260200192915050565b60006151ea6015836158a1565b741b585c9ad95d081b5d5cdd081899481b1a5cdd1959605a1b815260200192915050565b600061521b6012836158a1565b711d1c985b9cd9995c881a5cc81c185d5cd95960721b815260200192915050565b60006152496011836158a1565b7072656465656d546f6b656e73207a65726f60781b815260200192915050565b60006152766035836158a1565b7f6f6e6c792061646d696e206f7220626f72726f772063617020677561726469618152746e2063616e2073657420626f72726f77206361707360581b602082015260400192915050565b60006152cd6015836158a1565b7418da185b99d9481b9bdd08185d5d1a1bdc9a5e9959605a1b815260200192915050565b60006152fe6025836158a1565b7f657869744d61726b65743a206765744163636f756e74536e617073686f742066815264185a5b195960da1b602082015260400192915050565b60006153456019836158a1565b7f6d61726b657420626f72726f7720636170207265616368656400000000000000815260200192915050565b600061537e600f836158a1565b6e1cd95a5e99481a5cc81c185d5cd959608a1b815260200192915050565b60006153a9600d836158a1565b6c1a5b9d985b1a59081a5b9c1d5d609a1b815260200192915050565b60006153d26008836158a1565b672a3930b739b332b960c11b815260200192915050565b60006153f6600e836158a1565b6d1b5a5b9d081a5cc81c185d5cd95960921b815260200192915050565b60006154206027836158a1565b7f6f6e6c7920756e6974726f6c6c65722061646d696e2063616e206368616e676581526620627261696e7360c81b602082015260400192915050565b60006154696010836158a1565b6f189bdc9c9bddc81a5cc81c185d5cd95960821b815260200192915050565b614d9c816158d1565b614d9c816112d7565b614d9c816158dd565b60208101610af38284614da2565b60208101610af38284614d93565b604081016154cd8285614da2565b6113b56020830184614da2565b604081016154e88285614da2565b6113b56020830184615491565b602080825281016113b58184614dab565b602080825281016113b58184614e04565b60208101610af38284614e52565b606081016155338286614e52565b6155406020830185615491565b610f306040830184614e52565b60208101610af38284614e5b565b604081016155698285614e5b565b6113b56020830184614e5b565b604081016154cd8285614e5b565b604081016155928285614e5b565b6113b56020830184614d93565b606081016155ad8285614e5b565b81810360208301526155be81615014565b90506113b56040830184614e52565b606081016155db8285614e5b565b81810360208301526155be816151bb565b606081016155fa8286614e5b565b6156076020830185615491565b610f306040830184615491565b602080825281016113b58184614e6d565b60208082528101610af381614ea5565b60208082528101610af381614ed5565b60208082528101610af381614f1f565b60208082528101610af381614f58565b60208082528101610af381614f91565b60208082528101610af381614fca565b60208082528101610af381615034565b60208082528101610af381615065565b60208082528101610af38161509e565b60208082528101610af3816150d7565b604080825281016156d581615109565b9050610af36020830184614e52565b60208082528101610af38161512a565b60208082528101610af381615173565b60208082528101610af3816151dd565b60208082528101610af38161520e565b60208082528101610af38161523c565b60208082528101610af381615269565b60208082528101610af3816152c0565b60208082528101610af3816152f1565b60208082528101610af381615338565b60208082528101610af381615371565b60208082528101610af38161539c565b604080825281016156d5816153c5565b60208082528101610af3816153e9565b60208082528101610af381615413565b60208082528101610af38161545c565b60208101610af38284615488565b604081016157f08285615488565b6113b5602083018461549a565b60208101610af38284615491565b604081016154e88285615491565b606081016158278286615491565b6158346020830185615491565b610f306040830184614e64565b606081016155fa8286615491565b60405181810167ffffffffffffffff8111828210171561586e57600080fd5b604052919050565b600067ffffffffffffffff82111561588d57600080fd5b5060209081020190565b60200190565b5190565b90815260200190565b6000610af3826158c5565b151590565b6000610af3826158aa565b6001600160a01b031690565b6001600160e01b031690565b63ffffffff1690565b6000610af3826158ba565b6000610af3826112d7565b60005b838110156159175781810151838201526020016158ff565b838111156112cf5750506000910152565b601f01601f191690565b61593b816158aa565b8114610c2a57600080fd5b61593b816158b5565b61593b816158ba565b61593b816112d756fe626c6f636b206e756d6265722065786365656473203332206269747300000000a365627a7a72315820261f752f63fe93de3a57a80a7cbffbd7b1d5ccc24fb5f8bb596e834fef1886256c6578706572696d656e74616cf564736f6c63430005100040",
			"opcodes": "PUSH1 0x80 PUSH1 0x40 MSTORE CALLVALUE DUP1 ISZERO PUSH2 0x10 JUMPI PUSH1 0x0 DUP1 REVERT JUMPDEST POP PUSH1 0x0 DUP1 SLOAD PUSH1 0x1 PUSH1 0x1 PUSH1 0xA0 SHL SUB NOT AND CALLER OR SWAP1 SSTORE PUSH2 0x59C4 DUP1 PUSH3 0x33 PUSH1 0x0 CODECOPY PUSH1 0x0 RETURN INVALID PUSH1 0x80 PUSH1 0x40 MSTORE CALLVALUE DUP1 ISZERO PUSH2 0x10 JUMPI PUSH1 0x0 DUP1 REVERT JUMPDEST POP PUSH1 0x4 CALLDATASIZE LT PUSH2 0x454 JUMPI PUSH1 0x0 CALLDATALOAD PUSH1 0xE0 SHR DUP1 PUSH4 0x6D154EA5 GT PUSH2 0x241 JUMPI DUP1 PUSH4 0xAE9343D4 GT PUSH2 0x13B JUMPI DUP1 PUSH4 0xDA3D454C GT PUSH2 0xC3 JUMPI DUP1 PUSH4 0xE8755446 GT PUSH2 0x87 JUMPI DUP1 PUSH4 0xE8755446 EQ PUSH2 0x979 JUMPI DUP1 PUSH4 0xEABE7D91 EQ PUSH2 0x981 JUMPI DUP1 PUSH4 0xEDE4EDD0 EQ PUSH2 0x994 JUMPI DUP1 PUSH4 0xF851A440 EQ PUSH2 0x9A7 JUMPI DUP1 PUSH4 0xF9664258 EQ PUSH2 0x9AF JUMPI PUSH2 0x454 JUMP JUMPDEST DUP1 PUSH4 0xDA3D454C EQ PUSH2 0x930 JUMPI DUP1 PUSH4 0xDCE15449 EQ PUSH2 0x943 JUMPI DUP1 PUSH4 0xE4028EEE EQ PUSH2 0x956 JUMPI DUP1 PUSH4 0xE6653F3D EQ PUSH2 0x969 JUMPI DUP1 PUSH4 0xE6A8EE4F EQ PUSH2 0x971 JUMPI PUSH2 0x454 JUMP JUMPDEST DUP1 PUSH4 0xBEB046FD GT PUSH2 0x10A JUMPI DUP1 PUSH4 0xBEB046FD EQ PUSH2 0x8B6 JUMPI DUP1 PUSH4 0xC2998238 EQ PUSH2 0x8C9 JUMPI DUP1 PUSH4 0xC488847B EQ PUSH2 0x8E9 JUMPI DUP1 PUSH4 0xD02F7351 EQ PUSH2 0x90A JUMPI DUP1 PUSH4 0xD1A6DFC4 EQ PUSH2 0x91D JUMPI PUSH2 0x454 JUMP JUMPDEST DUP1 PUSH4 0xAE9343D4 EQ PUSH2 0x875 JUMPI DUP1 PUSH4 0xB0772D0B EQ PUSH2 0x888 JUMPI DUP1 PUSH4 0xBDCDC258 EQ PUSH2 0x890 JUMPI DUP1 PUSH4 0xBEA6B8B8 EQ PUSH2 0x8A3 JUMPI PUSH2 0x454 JUMP JUMPDEST DUP1 PUSH4 0x8EBF6364 GT PUSH2 0x1C9 JUMPI DUP1 PUSH4 0x9F66CDE9 GT PUSH2 0x18D JUMPI DUP1 PUSH4 0x9F66CDE9 EQ PUSH2 0x812 JUMPI DUP1 PUSH4 0xA0A4F390 EQ PUSH2 0x827 JUMPI DUP1 PUSH4 0xA76B3FDA EQ PUSH2 0x83A JUMPI DUP1 PUSH4 0xABFCEFFC EQ PUSH2 0x84D JUMPI DUP1 PUSH4 0xAC0B0BB7 EQ PUSH2 0x86D JUMPI PUSH2 0x454 JUMP JUMPDEST DUP1 PUSH4 0x8EBF6364 EQ PUSH2 0x7BE JUMPI DUP1 PUSH4 0x916E8B09 EQ PUSH2 0x7D1 JUMPI DUP1 PUSH4 0x929FE9A1 EQ PUSH2 0x7E4 JUMPI DUP1 PUSH4 0x94543C15 EQ PUSH2 0x7F7 JUMPI DUP1 PUSH4 0x94B2294B EQ PUSH2 0x80A JUMPI PUSH2 0x454 JUMP JUMPDEST DUP1 PUSH4 0x7662AF3D GT PUSH2 0x210 JUMPI DUP1 PUSH4 0x7662AF3D EQ PUSH2 0x758 JUMPI DUP1 PUSH4 0x7DC0D1D0 EQ PUSH2 0x76B JUMPI DUP1 PUSH4 0x85799548 EQ PUSH2 0x773 JUMPI DUP1 PUSH4 0x87F76303 EQ PUSH2 0x794 JUMPI DUP1 PUSH4 0x8E8F294B EQ PUSH2 0x79C JUMPI PUSH2 0x454 JUMP JUMPDEST DUP1 PUSH4 0x6D154EA5 EQ PUSH2 0x711 JUMPI DUP1 PUSH4 0x6D35BF91 EQ PUSH2 0x724 JUMPI DUP1 PUSH4 0x731F0C2B EQ PUSH2 0x732 JUMPI DUP1 PUSH4 0x741B2525 EQ PUSH2 0x745 JUMPI PUSH2 0x454 JUMP JUMPDEST DUP1 PUSH4 0x47EF3B3B GT PUSH2 0x352 JUMPI DUP1 PUSH4 0x51F2EAFB GT PUSH2 0x2DA JUMPI DUP1 PUSH4 0x5EC88C79 GT PUSH2 0x29E JUMPI DUP1 PUSH4 0x5EC88C79 EQ PUSH2 0x6B7 JUMPI DUP1 PUSH4 0x5F5AF1AA EQ PUSH2 0x6CA JUMPI DUP1 PUSH4 0x5FC7E71E EQ PUSH2 0x6DD JUMPI DUP1 PUSH4 0x607EF6C1 EQ PUSH2 0x6F0 JUMPI DUP1 PUSH4 0x6A56947E EQ PUSH2 0x703 JUMPI PUSH2 0x454 JUMP JUMPDEST DUP1 PUSH4 0x51F2EAFB EQ PUSH2 0x656 JUMPI DUP1 PUSH4 0x52D84D1E EQ PUSH2 0x669 JUMPI DUP1 PUSH4 0x55EE1FE1 EQ PUSH2 0x689 JUMPI DUP1 PUSH4 0x56D5141E EQ PUSH2 0x69C JUMPI DUP1 PUSH4 0x5C778605 EQ PUSH2 0x6A4 JUMPI PUSH2 0x454 JUMP JUMPDEST DUP1 PUSH4 0x4E79238F GT PUSH2 0x321 JUMPI DUP1 PUSH4 0x4E79238F EQ PUSH2 0x5F3 JUMPI DUP1 PUSH4 0x4EF4C3E1 EQ PUSH2 0x615 JUMPI DUP1 PUSH4 0x4FD42E17 EQ PUSH2 0x628 JUMPI DUP1 PUSH4 0x50D89208 EQ PUSH2 0x63B JUMPI DUP1 PUSH4 0x51DFF989 EQ PUSH2 0x643 JUMPI PUSH2 0x454 JUMP JUMPDEST DUP1 PUSH4 0x47EF3B3B EQ PUSH2 0x5BD JUMPI DUP1 PUSH4 0x4A584432 EQ PUSH2 0x5D0 JUMPI DUP1 PUSH4 0x4ADA90AF EQ PUSH2 0x5E3 JUMPI DUP1 PUSH4 0x4C0AFF54 EQ PUSH2 0x5EB JUMPI PUSH2 0x454 JUMP JUMPDEST DUP1 PUSH4 0x26782247 GT PUSH2 0x3E0 JUMPI DUP1 PUSH4 0x3BCF7EC1 GT PUSH2 0x3A4 JUMPI DUP1 PUSH4 0x3BCF7EC1 EQ PUSH2 0x574 JUMPI DUP1 PUSH4 0x3C94786F EQ PUSH2 0x587 JUMPI DUP1 PUSH4 0x3DE28D45 EQ PUSH2 0x58F JUMPI DUP1 PUSH4 0x41C728B9 EQ PUSH2 0x5A2 JUMPI DUP1 PUSH4 0x42CBB15C EQ PUSH2 0x5B5 JUMPI PUSH2 0x454 JUMP JUMPDEST DUP1 PUSH4 0x26782247 EQ PUSH2 0x520 JUMPI DUP1 PUSH4 0x2D70DB78 EQ PUSH2 0x528 JUMPI DUP1 PUSH4 0x317B0B77 EQ PUSH2 0x53B JUMPI DUP1 PUSH4 0x37713E91 EQ PUSH2 0x54E JUMPI DUP1 PUSH4 0x391957D7 EQ PUSH2 0x561 JUMPI PUSH2 0x454 JUMP JUMPDEST DUP1 PUSH4 0x1EDEDC91 GT PUSH2 0x427 JUMPI DUP1 PUSH4 0x1EDEDC91 EQ PUSH2 0x4CA JUMPI DUP1 PUSH4 0x21AF4569 EQ PUSH2 0x4DD JUMPI DUP1 PUSH4 0x23F1B3D4 EQ PUSH2 0x4F2 JUMPI DUP1 PUSH4 0x24008A62 EQ PUSH2 0x505 JUMPI DUP1 PUSH4 0x24A3D622 EQ PUSH2 0x518 JUMPI PUSH2 0x454 JUMP JUMPDEST DUP1 PUSH4 0x7418FF7 EQ PUSH2 0x459 JUMPI DUP1 PUSH4 0x1013667A EQ PUSH2 0x482 JUMPI DUP1 PUSH4 0x18C882A5 EQ PUSH2 0x495 JUMPI DUP1 PUSH4 0x1D504DC6 EQ PUSH2 0x4B5 JUMPI JUMPDEST PUSH1 0x0 DUP1 REVERT JUMPDEST PUSH2 0x46C PUSH2 0x467 CALLDATASIZE PUSH1 0x4 PUSH2 0x478F JUMP JUMPDEST PUSH2 0x9B7 JUMP JUMPDEST PUSH1 0x40 MLOAD PUSH2 0x479 SWAP2 SWAP1 PUSH2 0x57FD JUMP JUMPDEST PUSH1 0x40 MLOAD DUP1 SWAP2 SUB SWAP1 RETURN JUMPDEST PUSH2 0x46C PUSH2 0x490 CALLDATASIZE PUSH1 0x4 PUSH2 0x478F JUMP JUMPDEST PUSH2 0x9C9 JUMP JUMPDEST PUSH2 0x4A8 PUSH2 0x4A3 CALLDATASIZE PUSH1 0x4 PUSH2 0x4C93 JUMP JUMPDEST PUSH2 0x9DB JUMP JUMPDEST PUSH1 0x40 MLOAD PUSH2 0x479 SWAP2 SWAP1 PUSH2 0x5517 JUMP JUMPDEST PUSH2 0x4C8 PUSH2 0x4C3 CALLDATASIZE PUSH1 0x4 PUSH2 0x4C57 JUMP JUMPDEST PUSH2 0xAF9 JUMP JUMPDEST STOP JUMPDEST PUSH2 0x4C8 PUSH2 0x4D8 CALLDATASIZE PUSH1 0x4 PUSH2 0x4962 JUMP JUMPDEST PUSH2 0xC2D JUMP JUMPDEST PUSH2 0x4E5 PUSH2 0xC34 JUMP JUMPDEST PUSH1 0x40 MLOAD PUSH2 0x479 SWAP2 SWAP1 PUSH2 0x54A3 JUMP JUMPDEST PUSH2 0x4C8 PUSH2 0x500 CALLDATASIZE PUSH1 0x4 PUSH2 0x4B27 JUMP JUMPDEST PUSH2 0xC43 JUMP JUMPDEST PUSH2 0x46C PUSH2 0x513 CALLDATASIZE PUSH1 0x4 PUSH2 0x4901 JUMP JUMPDEST PUSH2 0xE65 JUMP JUMPDEST PUSH2 0x4E5 PUSH2 0xF38 JUMP JUMPDEST PUSH2 0x4E5 PUSH2 0xF47 JUMP JUMPDEST PUSH2 0x4A8 PUSH2 0x536 CALLDATASIZE PUSH1 0x4 PUSH2 0x4C1B JUMP JUMPDEST PUSH2 0xF56 JUMP JUMPDEST PUSH2 0x46C PUSH2 0x549 CALLDATASIZE PUSH1 0x4 PUSH2 0x4CE2 JUMP JUMPDEST PUSH2 0x1026 JUMP JUMPDEST PUSH2 0x4C8 PUSH2 0x55C CALLDATASIZE PUSH1 0x4 PUSH2 0x4CC3 JUMP JUMPDEST PUSH2 0x109C JUMP JUMPDEST PUSH2 0x4C8 PUSH2 0x56F CALLDATASIZE PUSH1 0x4 PUSH2 0x478F JUMP JUMPDEST PUSH2 0x10CE JUMP JUMPDEST PUSH2 0x4A8 PUSH2 0x582 CALLDATASIZE PUSH1 0x4 PUSH2 0x4C93 JUMP JUMPDEST PUSH2 0x1157 JUMP JUMPDEST PUSH2 0x4A8 PUSH2 0x125B JUMP JUMPDEST PUSH2 0x4C8 PUSH2 0x59D CALLDATASIZE PUSH1 0x4 PUSH2 0x478F JUMP JUMPDEST PUSH2 0x126B JUMP JUMPDEST PUSH2 0x4C8 PUSH2 0x5B0 CALLDATASIZE PUSH1 0x4 PUSH2 0x4A06 JUMP JUMPDEST PUSH2 0x12CF JUMP JUMPDEST PUSH2 0x46C PUSH2 0x12D5 JUMP JUMPDEST PUSH2 0x4C8 PUSH2 0x5CB CALLDATASIZE PUSH1 0x4 PUSH2 0x487A JUMP JUMPDEST PUSH2 0x12DA JUMP JUMPDEST PUSH2 0x46C PUSH2 0x5DE CALLDATASIZE PUSH1 0x4 PUSH2 0x478F JUMP JUMPDEST PUSH2 0x12E2 JUMP JUMPDEST PUSH2 0x46C PUSH2 0x12F4 JUMP JUMPDEST PUSH2 0x4A8 PUSH2 0x12FA JUMP JUMPDEST PUSH2 0x606 PUSH2 0x601 CALLDATASIZE PUSH1 0x4 PUSH2 0x4A06 JUMP JUMPDEST PUSH2 0x12FF JUMP JUMPDEST PUSH1 0x40 MLOAD PUSH2 0x479 SWAP4 SWAP3 SWAP2 SWAP1 PUSH2 0x5841 JUMP JUMPDEST PUSH2 0x46C PUSH2 0x623 CALLDATASIZE PUSH1 0x4 PUSH2 0x49B9 JUMP JUMPDEST PUSH2 0x1339 JUMP JUMPDEST PUSH2 0x46C PUSH2 0x636 CALLDATASIZE PUSH1 0x4 PUSH2 0x4CE2 JUMP JUMPDEST PUSH2 0x13BC JUMP JUMPDEST PUSH2 0x46C PUSH2 0x141C JUMP JUMPDEST PUSH2 0x4C8 PUSH2 0x651 CALLDATASIZE PUSH1 0x4 PUSH2 0x4A06 JUMP JUMPDEST PUSH2 0x1422 JUMP JUMPDEST PUSH2 0x4C8 PUSH2 0x664 CALLDATASIZE PUSH1 0x4 PUSH2 0x4A4A JUMP JUMPDEST PUSH2 0x144D JUMP JUMPDEST PUSH2 0x67C PUSH2 0x677 CALLDATASIZE PUSH1 0x4 PUSH2 0x4CE2 JUMP JUMPDEST PUSH2 0x14AF JUMP JUMPDEST PUSH1 0x40 MLOAD PUSH2 0x479 SWAP2 SWAP1 PUSH2 0x554D JUMP JUMPDEST PUSH2 0x46C PUSH2 0x697 CALLDATASIZE PUSH1 0x4 PUSH2 0x4C57 JUMP JUMPDEST PUSH2 0x14D6 JUMP JUMPDEST PUSH2 0x4E5 PUSH2 0x1548 JUMP JUMPDEST PUSH2 0x4C8 PUSH2 0x6B2 CALLDATASIZE PUSH1 0x4 PUSH2 0x49B9 JUMP JUMPDEST PUSH2 0x1557 JUMP JUMPDEST PUSH2 0x606 PUSH2 0x6C5 CALLDATASIZE PUSH1 0x4 PUSH2 0x478F JUMP JUMPDEST PUSH2 0x155C JUMP JUMPDEST PUSH2 0x46C PUSH2 0x6D8 CALLDATASIZE PUSH1 0x4 PUSH2 0x478F JUMP JUMPDEST PUSH2 0x1591 JUMP JUMPDEST PUSH2 0x46C PUSH2 0x6EB CALLDATASIZE PUSH1 0x4 PUSH2 0x4805 JUMP JUMPDEST PUSH2 0x1605 JUMP JUMPDEST PUSH2 0x4C8 PUSH2 0x6FE CALLDATASIZE PUSH1 0x4 PUSH2 0x4BAB JUMP JUMPDEST PUSH2 0x1798 JUMP JUMPDEST PUSH2 0x4C8 PUSH2 0x5B0 CALLDATASIZE PUSH1 0x4 PUSH2 0x4901 JUMP JUMPDEST PUSH2 0x4A8 PUSH2 0x71F CALLDATASIZE PUSH1 0x4 PUSH2 0x478F JUMP JUMPDEST PUSH2 0x18E4 JUMP JUMPDEST PUSH2 0x4C8 PUSH2 0x4D8 CALLDATASIZE PUSH1 0x4 PUSH2 0x4805 JUMP JUMPDEST PUSH2 0x4A8 PUSH2 0x740 CALLDATASIZE PUSH1 0x4 PUSH2 0x478F JUMP JUMPDEST PUSH2 0x18F9 JUMP JUMPDEST PUSH2 0x4C8 PUSH2 0x753 CALLDATASIZE PUSH1 0x4 PUSH2 0x478F JUMP JUMPDEST PUSH2 0x190E JUMP JUMPDEST PUSH2 0x4C8 PUSH2 0x766 CALLDATASIZE PUSH1 0x4 PUSH2 0x4AC2 JUMP JUMPDEST PUSH2 0x19D1 JUMP JUMPDEST PUSH2 0x67C PUSH2 0x1A5F JUMP JUMPDEST PUSH2 0x786 PUSH2 0x781 CALLDATASIZE PUSH1 0x4 PUSH2 0x478F JUMP JUMPDEST PUSH2 0x1A6E JUMP JUMPDEST PUSH1 0x40 MLOAD PUSH2 0x479 SWAP3 SWAP2 SWAP1 PUSH2 0x57E2 JUMP JUMPDEST PUSH2 0x4A8 PUSH2 0x1A98 JUMP JUMPDEST PUSH2 0x7AF PUSH2 0x7AA CALLDATASIZE PUSH1 0x4 PUSH2 0x478F JUMP JUMPDEST PUSH2 0x1AA8 JUMP JUMPDEST PUSH1 0x40 MLOAD PUSH2 0x479 SWAP4 SWAP3 SWAP2 SWAP1 PUSH2 0x5525 JUMP JUMPDEST PUSH2 0x4A8 PUSH2 0x7CC CALLDATASIZE PUSH1 0x4 PUSH2 0x4C1B JUMP JUMPDEST PUSH2 0x1ACE JUMP JUMPDEST PUSH2 0x786 PUSH2 0x7DF CALLDATASIZE PUSH1 0x4 PUSH2 0x478F JUMP JUMPDEST PUSH2 0x1B8E JUMP JUMPDEST PUSH2 0x4A8 PUSH2 0x7F2 CALLDATASIZE PUSH1 0x4 PUSH2 0x4A92 JUMP JUMPDEST PUSH2 0x1BB8 JUMP JUMPDEST PUSH2 0x4A8 PUSH2 0x805 CALLDATASIZE PUSH1 0x4 PUSH2 0x4C57 JUMP JUMPDEST PUSH2 0x1BEB JUMP JUMPDEST PUSH2 0x46C PUSH2 0x1CB9 JUMP JUMPDEST PUSH2 0x81A PUSH2 0x1CBF JUMP JUMPDEST PUSH1 0x40 MLOAD PUSH2 0x479 SWAP2 SWAP1 PUSH2 0x57D4 JUMP JUMPDEST PUSH2 0x46C PUSH2 0x835 CALLDATASIZE PUSH1 0x4 PUSH2 0x478F JUMP JUMPDEST PUSH2 0x1CD2 JUMP JUMPDEST PUSH2 0x46C PUSH2 0x848 CALLDATASIZE PUSH1 0x4 PUSH2 0x4C57 JUMP JUMPDEST PUSH2 0x1CE4 JUMP JUMPDEST PUSH2 0x860 PUSH2 0x85B CALLDATASIZE PUSH1 0x4 PUSH2 0x478F JUMP JUMPDEST PUSH2 0x1E48 JUMP JUMPDEST PUSH1 0x40 MLOAD PUSH2 0x479 SWAP2 SWAP1 PUSH2 0x54F5 JUMP JUMPDEST PUSH2 0x4A8 PUSH2 0x1ED1 JUMP JUMPDEST PUSH2 0x46C PUSH2 0x883 CALLDATASIZE PUSH1 0x4 PUSH2 0x47CB JUMP JUMPDEST PUSH2 0x1EE1 JUMP JUMPDEST PUSH2 0x860 PUSH2 0x1EFE JUMP JUMPDEST PUSH2 0x46C PUSH2 0x89E CALLDATASIZE PUSH1 0x4 PUSH2 0x4901 JUMP JUMPDEST PUSH2 0x1F60 JUMP JUMPDEST PUSH2 0x46C PUSH2 0x8B1 CALLDATASIZE PUSH1 0x4 PUSH2 0x478F JUMP JUMPDEST PUSH2 0x1FC6 JUMP JUMPDEST PUSH2 0x4C8 PUSH2 0x8C4 CALLDATASIZE PUSH1 0x4 PUSH2 0x4AC2 JUMP JUMPDEST PUSH2 0x1FD8 JUMP JUMPDEST PUSH2 0x8DC PUSH2 0x8D7 CALLDATASIZE PUSH1 0x4 PUSH2 0x4AF2 JUMP JUMPDEST PUSH2 0x20A1 JUMP JUMPDEST PUSH1 0x40 MLOAD PUSH2 0x479 SWAP2 SWAP1 PUSH2 0x5506 JUMP JUMPDEST PUSH2 0x8FC PUSH2 0x8F7 CALLDATASIZE PUSH1 0x4 PUSH2 0x49B9 JUMP JUMPDEST PUSH2 0x2138 JUMP JUMPDEST PUSH1 0x40 MLOAD PUSH2 0x479 SWAP3 SWAP2 SWAP1 PUSH2 0x580B JUMP JUMPDEST PUSH2 0x46C PUSH2 0x918 CALLDATASIZE PUSH1 0x4 PUSH2 0x4805 JUMP JUMPDEST PUSH2 0x2372 JUMP JUMPDEST PUSH2 0x46C PUSH2 0x92B CALLDATASIZE PUSH1 0x4 PUSH2 0x47CB JUMP JUMPDEST PUSH2 0x2515 JUMP JUMPDEST PUSH2 0x46C PUSH2 0x93E CALLDATASIZE PUSH1 0x4 PUSH2 0x49B9 JUMP JUMPDEST PUSH2 0x2532 JUMP JUMPDEST PUSH2 0x67C PUSH2 0x951 CALLDATASIZE PUSH1 0x4 PUSH2 0x4AC2 JUMP JUMPDEST PUSH2 0x289C JUMP JUMPDEST PUSH2 0x46C PUSH2 0x964 CALLDATASIZE PUSH1 0x4 PUSH2 0x4CC3 JUMP JUMPDEST PUSH2 0x28D1 JUMP JUMPDEST PUSH2 0x4A8 PUSH2 0x2A76 JUMP JUMPDEST PUSH2 0x4E5 PUSH2 0x2A86 JUMP JUMPDEST PUSH2 0x46C PUSH2 0x2A95 JUMP JUMPDEST PUSH2 0x46C PUSH2 0x98F CALLDATASIZE PUSH1 0x4 PUSH2 0x49B9 JUMP JUMPDEST PUSH2 0x2A9B JUMP JUMPDEST PUSH2 0x46C PUSH2 0x9A2 CALLDATASIZE PUSH1 0x4 PUSH2 0x478F JUMP JUMPDEST PUSH2 0x2AD6 JUMP JUMPDEST PUSH2 0x4E5 PUSH2 0x2DAF JUMP JUMPDEST PUSH2 0x4E5 PUSH2 0x2DBE JUMP JUMPDEST PUSH1 0x14 PUSH1 0x20 MSTORE PUSH1 0x0 SWAP1 DUP2 MSTORE PUSH1 0x40 SWAP1 KECCAK256 SLOAD DUP2 JUMP JUMPDEST PUSH1 0x17 PUSH1 0x20 MSTORE PUSH1 0x0 SWAP1 DUP2 MSTORE PUSH1 0x40 SWAP1 KECCAK256 SLOAD DUP2 JUMP JUMPDEST PUSH1 0x1 PUSH1 0x1 PUSH1 0xA0 SHL SUB DUP3 AND PUSH1 0x0 SWAP1 DUP2 MSTORE PUSH1 0x9 PUSH1 0x20 MSTORE PUSH1 0x40 DUP2 KECCAK256 SLOAD PUSH1 0xFF AND PUSH2 0xA1C JUMPI PUSH1 0x40 MLOAD PUSH3 0x461BCD PUSH1 0xE5 SHL DUP2 MSTORE PUSH1 0x4 ADD PUSH2 0xA13 SWAP1 PUSH2 0x5635 JUMP JUMPDEST PUSH1 0x40 MLOAD DUP1 SWAP2 SUB SWAP1 REVERT JUMPDEST PUSH1 0xA SLOAD PUSH1 0x1 PUSH1 0x1 PUSH1 0xA0 SHL SUB AND CALLER EQ DUP1 PUSH2 0xA3F JUMPI POP PUSH1 0x0 SLOAD PUSH1 0x1 PUSH1 0x1 PUSH1 0xA0 SHL SUB AND CALLER EQ JUMPDEST PUSH2 0xA5B JUMPI PUSH1 0x40 MLOAD PUSH3 0x461BCD PUSH1 0xE5 SHL DUP2 MSTORE PUSH1 0x4 ADD PUSH2 0xA13 SWAP1 PUSH2 0x56E4 JUMP JUMPDEST PUSH1 0x0 SLOAD PUSH1 0x1 PUSH1 0x1 PUSH1 0xA0 SHL SUB AND CALLER EQ DUP1 PUSH2 0xA76 JUMPI POP PUSH1 0x1 DUP3 ISZERO ISZERO EQ JUMPDEST PUSH2 0xA92 JUMPI PUSH1 0x40 MLOAD PUSH3 0x461BCD PUSH1 0xE5 SHL DUP2 MSTORE PUSH1 0x4 ADD PUSH2 0xA13 SWAP1 PUSH2 0x56B5 JUMP JUMPDEST PUSH1 0x1 PUSH1 0x1 PUSH1 0xA0 SHL SUB DUP4 AND PUSH1 0x0 SWAP1 DUP2 MSTORE PUSH1 0xC PUSH1 0x20 MSTORE PUSH1 0x40 SWAP1 DUP2 SWAP1 KECCAK256 DUP1 SLOAD PUSH1 0xFF NOT AND DUP5 ISZERO ISZERO OR SWAP1 SSTORE MLOAD PUSH32 0x71AEC636243F9709BB0007AE15E9AFB8150AB01716D75FD7573BE5CC096E03B0 SWAP1 PUSH2 0xAE8 SWAP1 DUP6 SWAP1 DUP6 SWAP1 PUSH2 0x55CD JUMP JUMPDEST PUSH1 0x40 MLOAD DUP1 SWAP2 SUB SWAP1 LOG1 POP DUP1 JUMPDEST SWAP3 SWAP2 POP POP JUMP JUMPDEST DUP1 PUSH1 0x1 PUSH1 0x1 PUSH1 0xA0 SHL SUB AND PUSH4 0xF851A440 PUSH1 0x40 MLOAD DUP2 PUSH4 0xFFFFFFFF AND PUSH1 0xE0 SHL DUP2 MSTORE PUSH1 0x4 ADD PUSH1 0x20 PUSH1 0x40 MLOAD DUP1 DUP4 SUB DUP2 DUP7 DUP1 EXTCODESIZE ISZERO DUP1 ISZERO PUSH2 0xB32 JUMPI PUSH1 0x0 DUP1 REVERT JUMPDEST POP GAS STATICCALL ISZERO DUP1 ISZERO PUSH2 0xB46 JUMPI RETURNDATASIZE PUSH1 0x0 DUP1 RETURNDATACOPY RETURNDATASIZE PUSH1 0x0 REVERT JUMPDEST POP POP POP POP PUSH1 0x40 MLOAD RETURNDATASIZE PUSH1 0x1F NOT PUSH1 0x1F DUP3 ADD AND DUP3 ADD DUP1 PUSH1 0x40 MSTORE POP PUSH2 0xB6A SWAP2 SWAP1 DUP2 ADD SWAP1 PUSH2 0x47AD JUMP JUMPDEST PUSH1 0x1 PUSH1 0x1 PUSH1 0xA0 SHL SUB AND CALLER PUSH1 0x1 PUSH1 0x1 PUSH1 0xA0 SHL SUB AND EQ PUSH2 0xB9A JUMPI PUSH1 0x40 MLOAD PUSH3 0x461BCD PUSH1 0xE5 SHL DUP2 MSTORE PUSH1 0x4 ADD PUSH2 0xA13 SWAP1 PUSH2 0x57B4 JUMP JUMPDEST DUP1 PUSH1 0x1 PUSH1 0x1 PUSH1 0xA0 SHL SUB AND PUSH4 0xC1E80334 PUSH1 0x40 MLOAD DUP2 PUSH4 0xFFFFFFFF AND PUSH1 0xE0 SHL DUP2 MSTORE PUSH1 0x4 ADD PUSH1 0x20 PUSH1 0x40 MLOAD DUP1 DUP4 SUB DUP2 PUSH1 0x0 DUP8 DUP1 EXTCODESIZE ISZERO DUP1 ISZERO PUSH2 0xBD5 JUMPI PUSH1 0x0 DUP1 REVERT JUMPDEST POP GAS CALL ISZERO DUP1 ISZERO PUSH2 0xBE9 JUMPI RETURNDATASIZE PUSH1 0x0 DUP1 RETURNDATACOPY RETURNDATASIZE PUSH1 0x0 REVERT JUMPDEST POP POP POP POP PUSH1 0x40 MLOAD RETURNDATASIZE PUSH1 0x1F NOT PUSH1 0x1F DUP3 ADD AND DUP3 ADD DUP1 PUSH1 0x40 MSTORE POP PUSH2 0xC0D SWAP2 SWAP1 DUP2 ADD SWAP1 PUSH2 0x4D00 JUMP JUMPDEST ISZERO PUSH2 0xC2A JUMPI PUSH1 0x40 MLOAD PUSH3 0x461BCD PUSH1 0xE5 SHL DUP2 MSTORE PUSH1 0x4 ADD PUSH2 0xA13 SWAP1 PUSH2 0x5744 JUMP JUMPDEST POP JUMP JUMPDEST POP POP POP POP POP JUMP JUMPDEST PUSH1 0x15 SLOAD PUSH1 0x1 PUSH1 0x1 PUSH1 0xA0 SHL SUB AND DUP2 JUMP JUMPDEST PUSH1 0x0 JUMPDEST DUP4 MLOAD DUP2 LT ISZERO PUSH2 0xDC7 JUMPI PUSH1 0x0 DUP5 DUP3 DUP2 MLOAD DUP2 LT PUSH2 0xC5D JUMPI INVALID JUMPDEST PUSH1 0x20 SWAP1 DUP2 MUL SWAP2 SWAP1 SWAP2 ADD DUP2 ADD MLOAD PUSH1 0x1 PUSH1 0x1 PUSH1 0xA0 SHL SUB DUP2 AND PUSH1 0x0 SWAP1 DUP2 MSTORE PUSH1 0x9 SWAP1 SWAP3 MSTORE PUSH1 0x40 SWAP1 SWAP2 KECCAK256 SLOAD SWAP1 SWAP2 POP PUSH1 0xFF AND PUSH2 0xCA5 JUMPI PUSH1 0x40 MLOAD PUSH3 0x461BCD PUSH1 0xE5 SHL DUP2 MSTORE PUSH1 0x4 ADD PUSH2 0xA13 SWAP1 PUSH2 0x5704 JUMP JUMPDEST PUSH1 0x1 DUP5 ISZERO ISZERO EQ ISZERO PUSH2 0xD77 JUMPI PUSH2 0xCB8 PUSH2 0x4540 JUMP JUMPDEST PUSH1 0x40 MLOAD DUP1 PUSH1 0x20 ADD PUSH1 0x40 MSTORE DUP1 DUP4 PUSH1 0x1 PUSH1 0x1 PUSH1 0xA0 SHL SUB AND PUSH4 0xAA5AF0FD PUSH1 0x40 MLOAD DUP2 PUSH4 0xFFFFFFFF AND PUSH1 0xE0 SHL DUP2 MSTORE PUSH1 0x4 ADD PUSH1 0x20 PUSH1 0x40 MLOAD DUP1 DUP4 SUB DUP2 DUP7 DUP1 EXTCODESIZE ISZERO DUP1 ISZERO PUSH2 0xCFC JUMPI PUSH1 0x0 DUP1 REVERT JUMPDEST POP GAS STATICCALL ISZERO DUP1 ISZERO PUSH2 0xD10 JUMPI RETURNDATASIZE PUSH1 0x0 DUP1 RETURNDATACOPY RETURNDATASIZE PUSH1 0x0 REVERT JUMPDEST POP POP POP POP PUSH1 0x40 MLOAD RETURNDATASIZE PUSH1 0x1F NOT PUSH1 0x1F DUP3 ADD AND DUP3 ADD DUP1 PUSH1 0x40 MSTORE POP PUSH2 0xD34 SWAP2 SWAP1 DUP2 ADD SWAP1 PUSH2 0x4D00 JUMP JUMPDEST SWAP1 MSTORE SWAP1 POP PUSH2 0xD42 DUP3 DUP3 PUSH2 0x2DD6 JUMP JUMPDEST PUSH1 0x0 JUMPDEST DUP8 MLOAD DUP2 LT ISZERO PUSH2 0xD74 JUMPI PUSH2 0xD6C DUP4 DUP10 DUP4 DUP2 MLOAD DUP2 LT PUSH2 0xD5E JUMPI INVALID JUMPDEST PUSH1 0x20 MUL PUSH1 0x20 ADD ADD MLOAD DUP5 PUSH2 0x306A JUMP JUMPDEST PUSH1 0x1 ADD PUSH2 0xD45 JUMP JUMPDEST POP POP JUMPDEST PUSH1 0x1 DUP4 ISZERO ISZERO EQ ISZERO PUSH2 0xDBE JUMPI PUSH2 0xD8B DUP2 PUSH2 0x31F0 JUMP JUMPDEST PUSH1 0x0 JUMPDEST DUP7 MLOAD DUP2 LT ISZERO PUSH2 0xDBC JUMPI PUSH2 0xDB4 DUP3 DUP9 DUP4 DUP2 MLOAD DUP2 LT PUSH2 0xDA7 JUMPI INVALID JUMPDEST PUSH1 0x20 MUL PUSH1 0x20 ADD ADD MLOAD PUSH2 0x347A JUMP JUMPDEST PUSH1 0x1 ADD PUSH2 0xD8E JUMP JUMPDEST POP JUMPDEST POP PUSH1 0x1 ADD PUSH2 0xC46 JUMP JUMPDEST POP PUSH1 0x0 JUMPDEST DUP5 MLOAD DUP2 LT ISZERO PUSH2 0xC2D JUMPI PUSH2 0xE29 DUP6 DUP3 DUP2 MLOAD DUP2 LT PUSH2 0xDE3 JUMPI INVALID JUMPDEST PUSH1 0x20 MUL PUSH1 0x20 ADD ADD MLOAD PUSH1 0x14 PUSH1 0x0 DUP9 DUP6 DUP2 MLOAD DUP2 LT PUSH2 0xDFB JUMPI INVALID JUMPDEST PUSH1 0x20 MUL PUSH1 0x20 ADD ADD MLOAD PUSH1 0x1 PUSH1 0x1 PUSH1 0xA0 SHL SUB AND PUSH1 0x1 PUSH1 0x1 PUSH1 0xA0 SHL SUB AND DUP2 MSTORE PUSH1 0x20 ADD SWAP1 DUP2 MSTORE PUSH1 0x20 ADD PUSH1 0x0 KECCAK256 SLOAD PUSH2 0x3654 JUMP JUMPDEST PUSH1 0x14 PUSH1 0x0 DUP8 DUP5 DUP2 MLOAD DUP2 LT PUSH2 0xE39 JUMPI INVALID JUMPDEST PUSH1 0x20 SWAP1 DUP2 MUL SWAP2 SWAP1 SWAP2 ADD DUP2 ADD MLOAD PUSH1 0x1 PUSH1 0x1 PUSH1 0xA0 SHL SUB AND DUP3 MSTORE DUP2 ADD SWAP2 SWAP1 SWAP2 MSTORE PUSH1 0x40 ADD PUSH1 0x0 KECCAK256 SSTORE PUSH1 0x1 ADD PUSH2 0xDCB JUMP JUMPDEST PUSH1 0x1 PUSH1 0x1 PUSH1 0xA0 SHL SUB DUP5 AND PUSH1 0x0 SWAP1 DUP2 MSTORE PUSH1 0x9 PUSH1 0x20 MSTORE PUSH1 0x40 DUP2 KECCAK256 SLOAD PUSH1 0xFF AND PUSH2 0xE8D JUMPI POP PUSH1 0x9 PUSH2 0xF30 JUMP JUMPDEST PUSH2 0xE95 PUSH2 0x4540 JUMP JUMPDEST PUSH1 0x40 MLOAD DUP1 PUSH1 0x20 ADD PUSH1 0x40 MSTORE DUP1 DUP8 PUSH1 0x1 PUSH1 0x1 PUSH1 0xA0 SHL SUB AND PUSH4 0xAA5AF0FD PUSH1 0x40 MLOAD DUP2 PUSH4 0xFFFFFFFF AND PUSH1 0xE0 SHL DUP2 MSTORE PUSH1 0x4 ADD PUSH1 0x20 PUSH1 0x40 MLOAD DUP1 DUP4 SUB DUP2 DUP7 DUP1 EXTCODESIZE ISZERO DUP1 ISZERO PUSH2 0xED9 JUMPI PUSH1 0x0 DUP1 REVERT JUMPDEST POP GAS STATICCALL ISZERO DUP1 ISZERO PUSH2 0xEED JUMPI RETURNDATASIZE PUSH1 0x0 DUP1 RETURNDATACOPY RETURNDATASIZE PUSH1 0x0 REVERT JUMPDEST POP POP POP POP PUSH1 0x40 MLOAD RETURNDATASIZE PUSH1 0x1F NOT PUSH1 0x1F DUP3 ADD AND DUP3 ADD DUP1 PUSH1 0x40 MSTORE POP PUSH2 0xF11 SWAP2 SWAP1 DUP2 ADD SWAP1 PUSH2 0x4D00 JUMP JUMPDEST SWAP1 MSTORE SWAP1 POP PUSH2 0xF1F DUP7 DUP3 PUSH2 0x2DD6 JUMP JUMPDEST PUSH2 0xF2A DUP7 DUP6 DUP4 PUSH2 0x306A JUMP JUMPDEST PUSH1 0x0 SWAP2 POP POP JUMPDEST SWAP5 SWAP4 POP POP POP POP JUMP JUMPDEST PUSH1 0xA SLOAD PUSH1 0x1 PUSH1 0x1 PUSH1 0xA0 SHL SUB AND DUP2 JUMP JUMPDEST PUSH1 0x1 SLOAD PUSH1 0x1 PUSH1 0x1 PUSH1 0xA0 SHL SUB AND DUP2 JUMP JUMPDEST PUSH1 0xA SLOAD PUSH1 0x0 SWAP1 PUSH1 0x1 PUSH1 0x1 PUSH1 0xA0 SHL SUB AND CALLER EQ DUP1 PUSH2 0xF7C JUMPI POP PUSH1 0x0 SLOAD PUSH1 0x1 PUSH1 0x1 PUSH1 0xA0 SHL SUB AND CALLER EQ JUMPDEST PUSH2 0xF98 JUMPI PUSH1 0x40 MLOAD PUSH3 0x461BCD PUSH1 0xE5 SHL DUP2 MSTORE PUSH1 0x4 ADD PUSH2 0xA13 SWAP1 PUSH2 0x56E4 JUMP JUMPDEST PUSH1 0x0 SLOAD PUSH1 0x1 PUSH1 0x1 PUSH1 0xA0 SHL SUB AND CALLER EQ DUP1 PUSH2 0xFB3 JUMPI POP PUSH1 0x1 DUP3 ISZERO ISZERO EQ JUMPDEST PUSH2 0xFCF JUMPI PUSH1 0x40 MLOAD PUSH3 0x461BCD PUSH1 0xE5 SHL DUP2 MSTORE PUSH1 0x4 ADD PUSH2 0xA13 SWAP1 PUSH2 0x56B5 JUMP JUMPDEST PUSH1 0xA DUP1 SLOAD PUSH1 0xFF PUSH1 0xB8 SHL NOT AND PUSH1 0x1 PUSH1 0xB8 SHL DUP5 ISZERO ISZERO MUL OR SWAP1 SSTORE PUSH1 0x40 MLOAD PUSH32 0xEF159D9A32B2472E32B098F954F3CE62D232939F1C207070B584DF1814DE2DE0 SWAP1 PUSH2 0x1016 SWAP1 DUP5 SWAP1 PUSH2 0x56C5 JUMP JUMPDEST PUSH1 0x40 MLOAD DUP1 SWAP2 SUB SWAP1 LOG1 POP DUP1 JUMPDEST SWAP2 SWAP1 POP JUMP JUMPDEST PUSH1 0x0 DUP1 SLOAD PUSH1 0x1 PUSH1 0x1 PUSH1 0xA0 SHL SUB AND CALLER EQ PUSH2 0x1051 JUMPI PUSH1 0x40 MLOAD PUSH3 0x461BCD PUSH1 0xE5 SHL DUP2 MSTORE PUSH1 0x4 ADD PUSH2 0xA13 SWAP1 PUSH2 0x56A5 JUMP JUMPDEST PUSH1 0x5 DUP1 SLOAD SWAP1 DUP4 SWAP1 SSTORE PUSH1 0x40 MLOAD PUSH32 0x3B9670CF975D26958E754B57098EAA2AC914D8D2A31B83257997B9F346110FD9 SWAP1 PUSH2 0x108B SWAP1 DUP4 SWAP1 DUP7 SWAP1 PUSH2 0x580B JUMP JUMPDEST PUSH1 0x40 MLOAD DUP1 SWAP2 SUB SWAP1 LOG1 PUSH1 0x0 SWAP4 SWAP3 POP POP POP JUMP JUMPDEST PUSH2 0x10A4 PUSH2 0x378B JUMP JUMPDEST PUSH2 0x10C0 JUMPI PUSH1 0x40 MLOAD PUSH3 0x461BCD PUSH1 0xE5 SHL DUP2 MSTORE PUSH1 0x4 ADD PUSH2 0xA13 SWAP1 PUSH2 0x5655 JUMP JUMPDEST PUSH2 0x10CA DUP3 DUP3 PUSH2 0x37B4 JUMP JUMPDEST POP POP JUMP JUMPDEST PUSH1 0x0 SLOAD PUSH1 0x1 PUSH1 0x1 PUSH1 0xA0 SHL SUB AND CALLER EQ PUSH2 0x10F8 JUMPI PUSH1 0x40 MLOAD PUSH3 0x461BCD PUSH1 0xE5 SHL DUP2 MSTORE PUSH1 0x4 ADD PUSH2 0xA13 SWAP1 PUSH2 0x56F4 JUMP JUMPDEST PUSH1 0x15 DUP1 SLOAD PUSH1 0x1 PUSH1 0x1 PUSH1 0xA0 SHL SUB DUP4 DUP2 AND PUSH1 0x1 PUSH1 0x1 PUSH1 0xA0 SHL SUB NOT DUP4 AND OR SWAP1 SWAP3 SSTORE PUSH1 0x40 MLOAD SWAP2 AND SWAP1 PUSH32 0xEDA98690E518E9A05F8EC6837663E188211B2DA8F4906648B323F2C1D4434E29 SWAP1 PUSH2 0x114B SWAP1 DUP4 SWAP1 DUP6 SWAP1 PUSH2 0x54BF JUMP JUMPDEST PUSH1 0x40 MLOAD DUP1 SWAP2 SUB SWAP1 LOG1 POP POP JUMP JUMPDEST PUSH1 0x1 PUSH1 0x1 PUSH1 0xA0 SHL SUB DUP3 AND PUSH1 0x0 SWAP1 DUP2 MSTORE PUSH1 0x9 PUSH1 0x20 MSTORE PUSH1 0x40 DUP2 KECCAK256 SLOAD PUSH1 0xFF AND PUSH2 0x118F JUMPI PUSH1 0x40 MLOAD PUSH3 0x461BCD PUSH1 0xE5 SHL DUP2 MSTORE PUSH1 0x4 ADD PUSH2 0xA13 SWAP1 PUSH2 0x5635 JUMP JUMPDEST PUSH1 0xA SLOAD PUSH1 0x1 PUSH1 0x1 PUSH1 0xA0 SHL SUB AND CALLER EQ DUP1 PUSH2 0x11B2 JUMPI POP PUSH1 0x0 SLOAD PUSH1 0x1 PUSH1 0x1 PUSH1 0xA0 SHL SUB AND CALLER EQ JUMPDEST PUSH2 0x11CE JUMPI PUSH1 0x40 MLOAD PUSH3 0x461BCD PUSH1 0xE5 SHL DUP2 MSTORE PUSH1 0x4 ADD PUSH2 0xA13 SWAP1 PUSH2 0x56E4 JUMP JUMPDEST PUSH1 0x0 SLOAD PUSH1 0x1 PUSH1 0x1 PUSH1 0xA0 SHL SUB AND CALLER EQ DUP1 PUSH2 0x11E9 JUMPI POP PUSH1 0x1 DUP3 ISZERO ISZERO EQ JUMPDEST PUSH2 0x1205 JUMPI PUSH1 0x40 MLOAD PUSH3 0x461BCD PUSH1 0xE5 SHL DUP2 MSTORE PUSH1 0x4 ADD PUSH2 0xA13 SWAP1 PUSH2 0x56B5 JUMP JUMPDEST PUSH1 0x1 PUSH1 0x1 PUSH1 0xA0 SHL SUB DUP4 AND PUSH1 0x0 SWAP1 DUP2 MSTORE PUSH1 0xB PUSH1 0x20 MSTORE PUSH1 0x40 SWAP1 DUP2 SWAP1 KECCAK256 DUP1 SLOAD PUSH1 0xFF NOT AND DUP5 ISZERO ISZERO OR SWAP1 SSTORE MLOAD PUSH32 0x71AEC636243F9709BB0007AE15E9AFB8150AB01716D75FD7573BE5CC096E03B0 SWAP1 PUSH2 0xAE8 SWAP1 DUP6 SWAP1 DUP6 SWAP1 PUSH2 0x559F JUMP JUMPDEST PUSH1 0xA SLOAD PUSH1 0x1 PUSH1 0xA0 SHL SWAP1 DIV PUSH1 0xFF AND DUP2 JUMP JUMPDEST PUSH2 0xC2A DUP2 PUSH1 0xD DUP1 SLOAD DUP1 PUSH1 0x20 MUL PUSH1 0x20 ADD PUSH1 0x40 MLOAD SWAP1 DUP2 ADD PUSH1 0x40 MSTORE DUP1 SWAP3 SWAP2 SWAP1 DUP2 DUP2 MSTORE PUSH1 0x20 ADD DUP3 DUP1 SLOAD DUP1 ISZERO PUSH2 0x12C5 JUMPI PUSH1 0x20 MUL DUP3 ADD SWAP2 SWAP1 PUSH1 0x0 MSTORE PUSH1 0x20 PUSH1 0x0 KECCAK256 SWAP1 JUMPDEST DUP2 SLOAD PUSH1 0x1 PUSH1 0x1 PUSH1 0xA0 SHL SUB AND DUP2 MSTORE PUSH1 0x1 SWAP1 SWAP2 ADD SWAP1 PUSH1 0x20 ADD DUP1 DUP4 GT PUSH2 0x12A7 JUMPI JUMPDEST POP POP POP POP POP PUSH2 0x144D JUMP JUMPDEST POP POP POP POP JUMP JUMPDEST NUMBER JUMPDEST SWAP1 JUMP JUMPDEST POP POP POP POP POP POP JUMP JUMPDEST PUSH1 0x16 PUSH1 0x20 MSTORE PUSH1 0x0 SWAP1 DUP2 MSTORE PUSH1 0x40 SWAP1 KECCAK256 SLOAD DUP2 JUMP JUMPDEST PUSH1 0x6 SLOAD DUP2 JUMP JUMPDEST PUSH1 0x1 DUP2 JUMP JUMPDEST PUSH1 0x0 DUP1 PUSH1 0x0 DUP1 PUSH1 0x0 DUP1 PUSH2 0x1314 DUP11 DUP11 DUP11 DUP11 PUSH2 0x3B0E JUMP JUMPDEST SWAP3 POP SWAP3 POP SWAP3 POP DUP3 PUSH1 0x11 DUP2 GT ISZERO PUSH2 0x1326 JUMPI INVALID JUMPDEST SWAP6 POP SWAP1 SWAP4 POP SWAP2 POP POP JUMPDEST SWAP5 POP SWAP5 POP SWAP5 SWAP2 POP POP JUMP JUMPDEST PUSH1 0x1 PUSH1 0x1 PUSH1 0xA0 SHL SUB DUP4 AND PUSH1 0x0 SWAP1 DUP2 MSTORE PUSH1 0xB PUSH1 0x20 MSTORE PUSH1 0x40 DUP2 KECCAK256 SLOAD PUSH1 0xFF AND ISZERO PUSH2 0x1372 JUMPI PUSH1 0x40 MLOAD PUSH3 0x461BCD PUSH1 0xE5 SHL DUP2 MSTORE PUSH1 0x4 ADD PUSH2 0xA13 SWAP1 PUSH2 0x57A4 JUMP JUMPDEST PUSH1 0x1 PUSH1 0x1 PUSH1 0xA0 SHL SUB DUP5 AND PUSH1 0x0 SWAP1 DUP2 MSTORE PUSH1 0x9 PUSH1 0x20 MSTORE PUSH1 0x40 SWAP1 KECCAK256 SLOAD PUSH1 0xFF AND PUSH2 0x139C JUMPI PUSH1 0x9 JUMPDEST SWAP1 POP PUSH2 0x13B5 JUMP JUMPDEST PUSH2 0x13A5 DUP5 PUSH2 0x31F0 JUMP JUMPDEST PUSH2 0x13AF DUP5 DUP5 PUSH2 0x347A JUMP JUMPDEST PUSH1 0x0 JUMPDEST SWAP1 POP JUMPDEST SWAP4 SWAP3 POP POP POP JUMP JUMPDEST PUSH1 0x0 DUP1 SLOAD PUSH1 0x1 PUSH1 0x1 PUSH1 0xA0 SHL SUB AND CALLER EQ PUSH2 0x13E2 JUMPI PUSH2 0x13DB PUSH1 0x1 PUSH1 0xB PUSH2 0x3E38 JUMP JUMPDEST SWAP1 POP PUSH2 0x1021 JUMP JUMPDEST PUSH1 0x6 DUP1 SLOAD SWAP1 DUP4 SWAP1 SSTORE PUSH1 0x40 MLOAD PUSH32 0xAEBA5A6C40A8AC138134BFF1AAA65DEBF25971188A58804BAD717F82F0EC1316 SWAP1 PUSH2 0x108B SWAP1 DUP4 SWAP1 DUP7 SWAP1 PUSH2 0x580B JUMP JUMPDEST PUSH1 0xE SLOAD DUP2 JUMP JUMPDEST DUP1 ISZERO DUP1 ISZERO PUSH2 0x1430 JUMPI POP PUSH1 0x0 DUP3 GT JUMPDEST ISZERO PUSH2 0x12CF JUMPI PUSH1 0x40 MLOAD PUSH3 0x461BCD PUSH1 0xE5 SHL DUP2 MSTORE PUSH1 0x4 ADD PUSH2 0xA13 SWAP1 PUSH2 0x5724 JUMP JUMPDEST PUSH1 0x40 DUP1 MLOAD PUSH1 0x1 DUP1 DUP3 MSTORE DUP2 DUP4 ADD SWAP1 SWAP3 MSTORE PUSH1 0x60 SWAP2 PUSH1 0x20 DUP1 DUP4 ADD SWAP1 DUP1 CODESIZE DUP4 CODECOPY ADD SWAP1 POP POP SWAP1 POP DUP3 DUP2 PUSH1 0x0 DUP2 MLOAD DUP2 LT PUSH2 0x147D JUMPI INVALID JUMPDEST PUSH1 0x20 MUL PUSH1 0x20 ADD ADD SWAP1 PUSH1 0x1 PUSH1 0x1 PUSH1 0xA0 SHL SUB AND SWAP1 DUP2 PUSH1 0x1 PUSH1 0x1 PUSH1 0xA0 SHL SUB AND DUP2 MSTORE POP POP PUSH2 0x14AA DUP2 DUP4 PUSH1 0x1 DUP1 PUSH2 0xC43 JUMP JUMPDEST POP POP POP JUMP JUMPDEST PUSH1 0xD DUP2 DUP2 SLOAD DUP2 LT PUSH2 0x14BC JUMPI INVALID JUMPDEST PUSH1 0x0 SWAP2 DUP3 MSTORE PUSH1 0x20 SWAP1 SWAP2 KECCAK256 ADD SLOAD PUSH1 0x1 PUSH1 0x1 PUSH1 0xA0 SHL SUB AND SWAP1 POP DUP2 JUMP JUMPDEST PUSH1 0x0 DUP1 SLOAD PUSH1 0x1 PUSH1 0x1 PUSH1 0xA0 SHL SUB AND CALLER EQ PUSH2 0x14F5 JUMPI PUSH2 0x13DB PUSH1 0x1 PUSH1 0x10 PUSH2 0x3E38 JUMP JUMPDEST PUSH1 0x4 DUP1 SLOAD PUSH1 0x1 PUSH1 0x1 PUSH1 0xA0 SHL SUB DUP5 DUP2 AND PUSH1 0x1 PUSH1 0x1 PUSH1 0xA0 SHL SUB NOT DUP4 AND OR SWAP1 SWAP3 SSTORE PUSH1 0x40 MLOAD SWAP2 AND SWAP1 PUSH32 0xD52B2B9B7E9EE655FCB95D2E5B9E0C9F69E7EF2B8E9D2D0EA78402D576D22E22 SWAP1 PUSH2 0x108B SWAP1 DUP4 SWAP1 DUP7 SWAP1 PUSH2 0x555B JUMP JUMPDEST PUSH1 0x3 SLOAD PUSH1 0x1 PUSH1 0x1 PUSH1 0xA0 SHL SUB AND DUP2 JUMP JUMPDEST PUSH2 0x14AA JUMP JUMPDEST PUSH1 0x0 DUP1 PUSH1 0x0 DUP1 PUSH1 0x0 DUP1 PUSH2 0x1573 DUP8 PUSH1 0x0 DUP1 PUSH1 0x0 PUSH2 0x3B0E JUMP JUMPDEST SWAP3 POP SWAP3 POP SWAP3 POP DUP3 PUSH1 0x11 DUP2 GT ISZERO PUSH2 0x1585 JUMPI INVALID JUMPDEST SWAP8 SWAP2 SWAP7 POP SWAP5 POP SWAP3 POP POP POP JUMP JUMPDEST PUSH1 0x0 DUP1 SLOAD PUSH1 0x1 PUSH1 0x1 PUSH1 0xA0 SHL SUB AND CALLER EQ PUSH2 0x15B0 JUMPI PUSH2 0x13DB PUSH1 0x1 PUSH1 0x13 PUSH2 0x3E38 JUMP JUMPDEST PUSH1 0xA DUP1 SLOAD PUSH1 0x1 PUSH1 0x1 PUSH1 0xA0 SHL SUB DUP5 DUP2 AND PUSH1 0x1 PUSH1 0x1 PUSH1 0xA0 SHL SUB NOT DUP4 AND OR SWAP3 DUP4 SWAP1 SSTORE PUSH1 0x40 MLOAD SWAP2 DUP2 AND SWAP3 PUSH32 0x613B6EE6A04F0D09F390E4D9318894B9F6AC7FD83897CD8D18896BA579C401E SWAP3 PUSH2 0x108B SWAP3 DUP6 SWAP3 AND SWAP1 PUSH2 0x54BF JUMP JUMPDEST PUSH1 0x1 PUSH1 0x1 PUSH1 0xA0 SHL SUB DUP6 AND PUSH1 0x0 SWAP1 DUP2 MSTORE PUSH1 0x9 PUSH1 0x20 MSTORE PUSH1 0x40 DUP2 KECCAK256 SLOAD PUSH1 0xFF AND ISZERO DUP1 PUSH2 0x1646 JUMPI POP PUSH1 0x1 PUSH1 0x1 PUSH1 0xA0 SHL SUB DUP6 AND PUSH1 0x0 SWAP1 DUP2 MSTORE PUSH1 0x9 PUSH1 0x20 MSTORE PUSH1 0x40 SWAP1 KECCAK256 SLOAD PUSH1 0xFF AND ISZERO JUMPDEST ISZERO PUSH2 0x1655 JUMPI PUSH1 0x9 JUMPDEST SWAP1 POP PUSH2 0x178F JUMP JUMPDEST PUSH1 0x40 MLOAD PUSH4 0x95DD9193 PUSH1 0xE0 SHL DUP2 MSTORE PUSH1 0x0 SWAP1 PUSH1 0x1 PUSH1 0x1 PUSH1 0xA0 SHL SUB DUP9 AND SWAP1 PUSH4 0x95DD9193 SWAP1 PUSH2 0x1684 SWAP1 DUP8 SWAP1 PUSH1 0x4 ADD PUSH2 0x54A3 JUMP JUMPDEST PUSH1 0x20 PUSH1 0x40 MLOAD DUP1 DUP4 SUB DUP2 DUP7 DUP1 EXTCODESIZE ISZERO DUP1 ISZERO PUSH2 0x169C JUMPI PUSH1 0x0 DUP1 REVERT JUMPDEST POP GAS STATICCALL ISZERO DUP1 ISZERO PUSH2 0x16B0 JUMPI RETURNDATASIZE PUSH1 0x0 DUP1 RETURNDATACOPY RETURNDATASIZE PUSH1 0x0 REVERT JUMPDEST POP POP POP POP PUSH1 0x40 MLOAD RETURNDATASIZE PUSH1 0x1F NOT PUSH1 0x1F DUP3 ADD AND DUP3 ADD DUP1 PUSH1 0x40 MSTORE POP PUSH2 0x16D4 SWAP2 SWAP1 DUP2 ADD SWAP1 PUSH2 0x4D00 JUMP JUMPDEST SWAP1 POP PUSH2 0x16DF DUP8 PUSH2 0x1BEB JUMP JUMPDEST ISZERO PUSH2 0x1709 JUMPI DUP3 DUP2 LT ISZERO PUSH2 0x1704 JUMPI PUSH1 0x40 MLOAD PUSH3 0x461BCD PUSH1 0xE5 SHL DUP2 MSTORE PUSH1 0x4 ADD PUSH2 0xA13 SWAP1 PUSH2 0x5675 JUMP JUMPDEST PUSH2 0x1789 JUMP JUMPDEST PUSH1 0x0 DUP1 PUSH2 0x1715 DUP7 PUSH2 0x3E98 JUMP JUMPDEST SWAP2 SWAP4 POP SWAP1 SWAP2 POP PUSH1 0x0 SWAP1 POP DUP3 PUSH1 0x11 DUP2 GT ISZERO PUSH2 0x172B JUMPI INVALID JUMPDEST EQ PUSH2 0x1746 JUMPI DUP2 PUSH1 0x11 DUP2 GT ISZERO PUSH2 0x173C JUMPI INVALID JUMPDEST SWAP4 POP POP POP POP PUSH2 0x178F JUMP JUMPDEST DUP1 PUSH2 0x1752 JUMPI PUSH1 0x3 PUSH2 0x173C JUMP JUMPDEST PUSH1 0x0 PUSH2 0x176E PUSH1 0x40 MLOAD DUP1 PUSH1 0x20 ADD PUSH1 0x40 MSTORE DUP1 PUSH1 0x5 SLOAD DUP2 MSTORE POP DUP6 PUSH2 0x3EB8 JUMP JUMPDEST SWAP1 POP DUP1 DUP7 GT ISZERO PUSH2 0x1785 JUMPI PUSH1 0x11 SWAP5 POP POP POP POP POP PUSH2 0x178F JUMP JUMPDEST POP POP POP JUMPDEST PUSH1 0x0 SWAP2 POP POP JUMPDEST SWAP6 SWAP5 POP POP POP POP POP JUMP JUMPDEST PUSH1 0x0 SLOAD PUSH1 0x1 PUSH1 0x1 PUSH1 0xA0 SHL SUB AND CALLER EQ DUP1 PUSH2 0x17BB JUMPI POP PUSH1 0x15 SLOAD PUSH1 0x1 PUSH1 0x1 PUSH1 0xA0 SHL SUB AND CALLER EQ JUMPDEST PUSH2 0x17D7 JUMPI PUSH1 0x40 MLOAD PUSH3 0x461BCD PUSH1 0xE5 SHL DUP2 MSTORE PUSH1 0x4 ADD PUSH2 0xA13 SWAP1 PUSH2 0x5734 JUMP JUMPDEST DUP3 DUP2 DUP2 ISZERO DUP1 ISZERO SWAP1 PUSH2 0x17E7 JUMPI POP DUP1 DUP3 EQ JUMPDEST PUSH2 0x1803 JUMPI PUSH1 0x40 MLOAD PUSH3 0x461BCD PUSH1 0xE5 SHL DUP2 MSTORE PUSH1 0x4 ADD PUSH2 0xA13 SWAP1 PUSH2 0x5784 JUMP JUMPDEST PUSH1 0x0 JUMPDEST DUP3 DUP2 LT ISZERO PUSH2 0x18DB JUMPI DUP5 DUP5 DUP3 DUP2 DUP2 LT PUSH2 0x181A JUMPI INVALID JUMPDEST SWAP1 POP PUSH1 0x20 MUL ADD CALLDATALOAD PUSH1 0x16 PUSH1 0x0 DUP10 DUP10 DUP6 DUP2 DUP2 LT PUSH2 0x1831 JUMPI INVALID JUMPDEST SWAP1 POP PUSH1 0x20 MUL ADD PUSH1 0x20 PUSH2 0x1846 SWAP2 SWAP1 DUP2 ADD SWAP1 PUSH2 0x4C57 JUMP JUMPDEST PUSH1 0x1 PUSH1 0x1 PUSH1 0xA0 SHL SUB AND DUP2 MSTORE PUSH1 0x20 DUP2 ADD SWAP2 SWAP1 SWAP2 MSTORE PUSH1 0x40 ADD PUSH1 0x0 KECCAK256 SSTORE DUP7 DUP7 DUP3 DUP2 DUP2 LT PUSH2 0x186C JUMPI INVALID JUMPDEST SWAP1 POP PUSH1 0x20 MUL ADD PUSH1 0x20 PUSH2 0x1881 SWAP2 SWAP1 DUP2 ADD SWAP1 PUSH2 0x4C57 JUMP JUMPDEST PUSH1 0x1 PUSH1 0x1 PUSH1 0xA0 SHL SUB AND PUSH32 0x6F1951B2AAD10F3FC81B86D91105B413A5B3F847A34BBC5CE1904201B14438F6 DUP7 DUP7 DUP5 DUP2 DUP2 LT PUSH2 0x18B7 JUMPI INVALID JUMPDEST SWAP1 POP PUSH1 0x20 MUL ADD CALLDATALOAD PUSH1 0x40 MLOAD PUSH2 0x18CB SWAP2 SWAP1 PUSH2 0x57FD JUMP JUMPDEST PUSH1 0x40 MLOAD DUP1 SWAP2 SUB SWAP1 LOG2 PUSH1 0x1 ADD PUSH2 0x1806 JUMP JUMPDEST POP POP POP POP POP POP POP JUMP JUMPDEST PUSH1 0xC PUSH1 0x20 MSTORE PUSH1 0x0 SWAP1 DUP2 MSTORE PUSH1 0x40 SWAP1 KECCAK256 SLOAD PUSH1 0xFF AND DUP2 JUMP JUMPDEST PUSH1 0xB PUSH1 0x20 MSTORE PUSH1 0x0 SWAP1 DUP2 MSTORE PUSH1 0x40 SWAP1 KECCAK256 SLOAD PUSH1 0xFF AND DUP2 JUMP JUMPDEST PUSH1 0x1 PUSH1 0x1 PUSH1 0xA0 SHL SUB DUP2 AND PUSH1 0x0 SWAP1 DUP2 MSTORE PUSH1 0x17 PUSH1 0x20 MSTORE PUSH1 0x40 DUP2 KECCAK256 SLOAD SWAP1 PUSH2 0x1930 PUSH2 0x12D5 JUMP JUMPDEST PUSH1 0x1 PUSH1 0x1 PUSH1 0xA0 SHL SUB DUP5 AND PUSH1 0x0 SWAP1 DUP2 MSTORE PUSH1 0x18 PUSH1 0x20 MSTORE PUSH1 0x40 DUP2 KECCAK256 SLOAD SWAP2 SWAP3 POP SWAP1 PUSH2 0x1958 SWAP1 DUP4 SWAP1 PUSH2 0x3ED7 JUMP JUMPDEST SWAP1 POP PUSH1 0x0 DUP2 GT DUP1 ISZERO PUSH2 0x196A JUMPI POP PUSH1 0x0 DUP4 GT JUMPDEST ISZERO PUSH2 0x12CF JUMPI PUSH1 0x0 PUSH2 0x197B DUP3 DUP6 PUSH2 0x3F11 JUMP JUMPDEST PUSH1 0x1 PUSH1 0x1 PUSH1 0xA0 SHL SUB DUP7 AND PUSH1 0x0 SWAP1 DUP2 MSTORE PUSH1 0x14 PUSH1 0x20 MSTORE PUSH1 0x40 DUP2 KECCAK256 SLOAD SWAP2 SWAP3 POP SWAP1 PUSH2 0x19A2 SWAP1 DUP4 PUSH2 0x3F53 JUMP JUMPDEST PUSH1 0x1 PUSH1 0x1 PUSH1 0xA0 SHL SUB DUP8 AND PUSH1 0x0 SWAP1 DUP2 MSTORE PUSH1 0x14 PUSH1 0x20 SWAP1 DUP2 MSTORE PUSH1 0x40 DUP1 DUP4 KECCAK256 SWAP4 SWAP1 SWAP4 SSTORE PUSH1 0x18 SWAP1 MSTORE KECCAK256 DUP5 SWAP1 SSTORE POP POP POP POP POP POP JUMP JUMPDEST PUSH2 0x19D9 PUSH2 0x378B JUMP JUMPDEST PUSH2 0x19F5 JUMPI PUSH1 0x40 MLOAD PUSH3 0x461BCD PUSH1 0xE5 SHL DUP2 MSTORE PUSH1 0x4 ADD PUSH2 0xA13 SWAP1 PUSH2 0x5665 JUMP JUMPDEST PUSH1 0x0 PUSH2 0x1A01 DUP4 DUP4 PUSH2 0x3654 JUMP JUMPDEST SWAP1 POP DUP1 ISZERO PUSH2 0x1A21 JUMPI PUSH1 0x40 MLOAD PUSH3 0x461BCD PUSH1 0xE5 SHL DUP2 MSTORE PUSH1 0x4 ADD PUSH2 0xA13 SWAP1 PUSH2 0x5695 JUMP JUMPDEST PUSH32 0x53E757ED34CF455CFB08A8AD8ABD3B72ED989FB0C58DEBA99482FE958A5447F0 DUP4 DUP4 PUSH1 0x40 MLOAD PUSH2 0x1A52 SWAP3 SWAP2 SWAP1 PUSH2 0x54DA JUMP JUMPDEST PUSH1 0x40 MLOAD DUP1 SWAP2 SUB SWAP1 LOG1 POP POP POP JUMP JUMPDEST PUSH1 0x4 SLOAD PUSH1 0x1 PUSH1 0x1 PUSH1 0xA0 SHL SUB AND DUP2 JUMP JUMPDEST PUSH1 0x11 PUSH1 0x20 MSTORE PUSH1 0x0 SWAP1 DUP2 MSTORE PUSH1 0x40 SWAP1 KECCAK256 SLOAD PUSH1 0x1 PUSH1 0x1 PUSH1 0xE0 SHL SUB DUP2 AND SWAP1 PUSH1 0x1 PUSH1 0xE0 SHL SWAP1 DIV PUSH4 0xFFFFFFFF AND DUP3 JUMP JUMPDEST PUSH1 0xA SLOAD PUSH1 0x1 PUSH1 0xB0 SHL SWAP1 DIV PUSH1 0xFF AND DUP2 JUMP JUMPDEST PUSH1 0x9 PUSH1 0x20 MSTORE PUSH1 0x0 SWAP1 DUP2 MSTORE PUSH1 0x40 SWAP1 KECCAK256 DUP1 SLOAD PUSH1 0x1 DUP3 ADD SLOAD PUSH1 0x3 SWAP1 SWAP3 ADD SLOAD PUSH1 0xFF SWAP2 DUP3 AND SWAP3 SWAP2 AND DUP4 JUMP JUMPDEST PUSH1 0xA SLOAD PUSH1 0x0 SWAP1 PUSH1 0x1 PUSH1 0x1 PUSH1 0xA0 SHL SUB AND CALLER EQ DUP1 PUSH2 0x1AF4 JUMPI POP PUSH1 0x0 SLOAD PUSH1 0x1 PUSH1 0x1 PUSH1 0xA0 SHL SUB AND CALLER EQ JUMPDEST PUSH2 0x1B10 JUMPI PUSH1 0x40 MLOAD PUSH3 0x461BCD PUSH1 0xE5 SHL DUP2 MSTORE PUSH1 0x4 ADD PUSH2 0xA13 SWAP1 PUSH2 0x56E4 JUMP JUMPDEST PUSH1 0x0 SLOAD PUSH1 0x1 PUSH1 0x1 PUSH1 0xA0 SHL SUB AND CALLER EQ DUP1 PUSH2 0x1B2B JUMPI POP PUSH1 0x1 DUP3 ISZERO ISZERO EQ JUMPDEST PUSH2 0x1B47 JUMPI PUSH1 0x40 MLOAD PUSH3 0x461BCD PUSH1 0xE5 SHL DUP2 MSTORE PUSH1 0x4 ADD PUSH2 0xA13 SWAP1 PUSH2 0x56B5 JUMP JUMPDEST PUSH1 0xA DUP1 SLOAD PUSH1 0xFF PUSH1 0xB0 SHL NOT AND PUSH1 0x1 PUSH1 0xB0 SHL DUP5 ISZERO ISZERO MUL OR SWAP1 SSTORE PUSH1 0x40 MLOAD PUSH32 0xEF159D9A32B2472E32B098F954F3CE62D232939F1C207070B584DF1814DE2DE0 SWAP1 PUSH2 0x1016 SWAP1 DUP5 SWAP1 PUSH2 0x5794 JUMP JUMPDEST PUSH1 0x10 PUSH1 0x20 MSTORE PUSH1 0x0 SWAP1 DUP2 MSTORE PUSH1 0x40 SWAP1 KECCAK256 SLOAD PUSH1 0x1 PUSH1 0x1 PUSH1 0xE0 SHL SUB DUP2 AND SWAP1 PUSH1 0x1 PUSH1 0xE0 SHL SWAP1 DIV PUSH4 0xFFFFFFFF AND DUP3 JUMP JUMPDEST PUSH1 0x1 PUSH1 0x1 PUSH1 0xA0 SHL SUB DUP1 DUP3 AND PUSH1 0x0 SWAP1 DUP2 MSTORE PUSH1 0x9 PUSH1 0x20 SWAP1 DUP2 MSTORE PUSH1 0x40 DUP1 DUP4 KECCAK256 SWAP4 DUP7 AND DUP4 MSTORE PUSH1 0x2 SWAP1 SWAP4 ADD SWAP1 MSTORE KECCAK256 SLOAD PUSH1 0xFF AND SWAP3 SWAP2 POP POP JUMP JUMPDEST PUSH1 0x1 PUSH1 0x1 PUSH1 0xA0 SHL SUB DUP2 AND PUSH1 0x0 SWAP1 DUP2 MSTORE PUSH1 0x9 PUSH1 0x20 MSTORE PUSH1 0x40 DUP2 KECCAK256 PUSH1 0x1 ADD SLOAD ISZERO DUP1 ISZERO PUSH2 0x1C31 JUMPI POP PUSH1 0x1 PUSH1 0x1 PUSH1 0xA0 SHL SUB DUP3 AND PUSH1 0x0 SWAP1 DUP2 MSTORE PUSH1 0xC PUSH1 0x20 MSTORE PUSH1 0x40 SWAP1 KECCAK256 SLOAD PUSH1 0xFF AND ISZERO ISZERO PUSH1 0x1 EQ JUMPDEST DUP1 ISZERO PUSH2 0xAF3 JUMPI POP DUP2 PUSH1 0x1 PUSH1 0x1 PUSH1 0xA0 SHL SUB AND PUSH4 0x173B9904 PUSH1 0x40 MLOAD DUP2 PUSH4 0xFFFFFFFF AND PUSH1 0xE0 SHL DUP2 MSTORE PUSH1 0x4 ADD PUSH1 0x20 PUSH1 0x40 MLOAD DUP1 DUP4 SUB DUP2 DUP7 DUP1 EXTCODESIZE ISZERO DUP1 ISZERO PUSH2 0x1C71 JUMPI PUSH1 0x0 DUP1 REVERT JUMPDEST POP GAS STATICCALL ISZERO DUP1 ISZERO PUSH2 0x1C85 JUMPI RETURNDATASIZE PUSH1 0x0 DUP1 RETURNDATACOPY RETURNDATASIZE PUSH1 0x0 REVERT JUMPDEST POP POP POP POP PUSH1 0x40 MLOAD RETURNDATASIZE PUSH1 0x1F NOT PUSH1 0x1F DUP3 ADD AND DUP3 ADD DUP1 PUSH1 0x40 MSTORE POP PUSH2 0x1CA9 SWAP2 SWAP1 DUP2 ADD SWAP1 PUSH2 0x4D00 JUMP JUMPDEST PUSH8 0xDE0B6B3A7640000 EQ SWAP3 SWAP2 POP POP JUMP JUMPDEST PUSH1 0x7 SLOAD DUP2 JUMP JUMPDEST PUSH15 0xC097CE7BC90715B34B9F1000000000 DUP2 JUMP JUMPDEST PUSH1 0xF PUSH1 0x20 MSTORE PUSH1 0x0 SWAP1 DUP2 MSTORE PUSH1 0x40 SWAP1 KECCAK256 SLOAD DUP2 JUMP JUMPDEST PUSH1 0x0 DUP1 SLOAD PUSH1 0x1 PUSH1 0x1 PUSH1 0xA0 SHL SUB AND CALLER EQ PUSH2 0x1D03 JUMPI PUSH2 0x13DB PUSH1 0x1 PUSH1 0x12 PUSH2 0x3E38 JUMP JUMPDEST PUSH1 0x1 PUSH1 0x1 PUSH1 0xA0 SHL SUB DUP3 AND PUSH1 0x0 SWAP1 DUP2 MSTORE PUSH1 0x9 PUSH1 0x20 MSTORE PUSH1 0x40 SWAP1 KECCAK256 SLOAD PUSH1 0xFF AND ISZERO PUSH2 0x1D30 JUMPI PUSH2 0x13DB PUSH1 0xA PUSH1 0x11 PUSH2 0x3E38 JUMP JUMPDEST DUP2 PUSH1 0x1 PUSH1 0x1 PUSH1 0xA0 SHL SUB AND PUSH4 0xA0097B58 PUSH1 0x40 MLOAD DUP2 PUSH4 0xFFFFFFFF AND PUSH1 0xE0 SHL DUP2 MSTORE PUSH1 0x4 ADD PUSH1 0x20 PUSH1 0x40 MLOAD DUP1 DUP4 SUB DUP2 DUP7 DUP1 EXTCODESIZE ISZERO DUP1 ISZERO PUSH2 0x1D69 JUMPI PUSH1 0x0 DUP1 REVERT JUMPDEST POP GAS STATICCALL ISZERO DUP1 ISZERO PUSH2 0x1D7D JUMPI RETURNDATASIZE PUSH1 0x0 DUP1 RETURNDATACOPY RETURNDATASIZE PUSH1 0x0 REVERT JUMPDEST POP POP POP POP PUSH1 0x40 MLOAD RETURNDATASIZE PUSH1 0x1F NOT PUSH1 0x1F DUP3 ADD AND DUP3 ADD DUP1 PUSH1 0x40 MSTORE POP PUSH2 0x1DA1 SWAP2 SWAP1 DUP2 ADD SWAP1 PUSH2 0x4C39 JUMP JUMPDEST POP PUSH1 0x40 DUP1 MLOAD PUSH1 0x60 DUP2 ADD DUP3 MSTORE PUSH1 0x1 DUP1 DUP3 MSTORE PUSH1 0x0 PUSH1 0x20 DUP1 DUP5 ADD DUP3 DUP2 MSTORE DUP5 DUP7 ADD DUP4 DUP2 MSTORE PUSH1 0x1 PUSH1 0x1 PUSH1 0xA0 SHL SUB DUP10 AND DUP5 MSTORE PUSH1 0x9 SWAP1 SWAP3 MSTORE SWAP5 SWAP1 SWAP2 KECCAK256 SWAP3 MLOAD DUP4 SLOAD SWAP1 ISZERO ISZERO PUSH1 0xFF NOT SWAP2 DUP3 AND OR DUP5 SSTORE SWAP4 MLOAD SWAP2 DUP4 ADD SWAP2 SWAP1 SWAP2 SSTORE MLOAD PUSH1 0x3 SWAP1 SWAP2 ADD DUP1 SLOAD SWAP2 ISZERO ISZERO SWAP2 SWAP1 SWAP3 AND OR SWAP1 SSTORE PUSH2 0x1E0A DUP3 PUSH2 0x3F89 JUMP JUMPDEST PUSH32 0xCF583BB0C569EB967F806B11601C4CB93C10310485C67ADD5F8362C2F212321F DUP3 PUSH1 0x40 MLOAD PUSH2 0x1E39 SWAP2 SWAP1 PUSH2 0x554D JUMP JUMPDEST PUSH1 0x40 MLOAD DUP1 SWAP2 SUB SWAP1 LOG1 PUSH1 0x0 PUSH2 0xAF3 JUMP JUMPDEST PUSH1 0x60 DUP1 PUSH1 0x8 PUSH1 0x0 DUP5 PUSH1 0x1 PUSH1 0x1 PUSH1 0xA0 SHL SUB AND PUSH1 0x1 PUSH1 0x1 PUSH1 0xA0 SHL SUB AND DUP2 MSTORE PUSH1 0x20 ADD SWAP1 DUP2 MSTORE PUSH1 0x20 ADD PUSH1 0x0 KECCAK256 DUP1 SLOAD DUP1 PUSH1 0x20 MUL PUSH1 0x20 ADD PUSH1 0x40 MLOAD SWAP1 DUP2 ADD PUSH1 0x40 MSTORE DUP1 SWAP3 SWAP2 SWAP1 DUP2 DUP2 MSTORE PUSH1 0x20 ADD DUP3 DUP1 SLOAD DUP1 ISZERO PUSH2 0x1EC4 JUMPI PUSH1 0x20 MUL DUP3 ADD SWAP2 SWAP1 PUSH1 0x0 MSTORE PUSH1 0x20 PUSH1 0x0 KECCAK256 SWAP1 JUMPDEST DUP2 SLOAD PUSH1 0x1 PUSH1 0x1 PUSH1 0xA0 SHL SUB AND DUP2 MSTORE PUSH1 0x1 SWAP1 SWAP2 ADD SWAP1 PUSH1 0x20 ADD DUP1 DUP4 GT PUSH2 0x1EA6 JUMPI JUMPDEST POP SWAP4 SWAP8 SWAP7 POP POP POP POP POP POP POP JUMP JUMPDEST PUSH1 0xA SLOAD PUSH1 0x1 PUSH1 0xB8 SHL SWAP1 DIV PUSH1 0xFF AND DUP2 JUMP JUMPDEST PUSH1 0x13 PUSH1 0x20 SWAP1 DUP2 MSTORE PUSH1 0x0 SWAP3 DUP4 MSTORE PUSH1 0x40 DUP1 DUP5 KECCAK256 SWAP1 SWAP2 MSTORE SWAP1 DUP3 MSTORE SWAP1 KECCAK256 SLOAD DUP2 JUMP JUMPDEST PUSH1 0x60 PUSH1 0xD DUP1 SLOAD DUP1 PUSH1 0x20 MUL PUSH1 0x20 ADD PUSH1 0x40 MLOAD SWAP1 DUP2 ADD PUSH1 0x40 MSTORE DUP1 SWAP3 SWAP2 SWAP1 DUP2 DUP2 MSTORE PUSH1 0x20 ADD DUP3 DUP1 SLOAD DUP1 ISZERO PUSH2 0x1F56 JUMPI PUSH1 0x20 MUL DUP3 ADD SWAP2 SWAP1 PUSH1 0x0 MSTORE PUSH1 0x20 PUSH1 0x0 KECCAK256 SWAP1 JUMPDEST DUP2 SLOAD PUSH1 0x1 PUSH1 0x1 PUSH1 0xA0 SHL SUB AND DUP2 MSTORE PUSH1 0x1 SWAP1 SWAP2 ADD SWAP1 PUSH1 0x20 ADD DUP1 DUP4 GT PUSH2 0x1F38 JUMPI JUMPDEST POP POP POP POP POP SWAP1 POP SWAP1 JUMP JUMPDEST PUSH1 0xA SLOAD PUSH1 0x0 SWAP1 PUSH1 0x1 PUSH1 0xB0 SHL SWAP1 DIV PUSH1 0xFF AND ISZERO PUSH2 0x1F8D JUMPI PUSH1 0x40 MLOAD PUSH3 0x461BCD PUSH1 0xE5 SHL DUP2 MSTORE PUSH1 0x4 ADD PUSH2 0xA13 SWAP1 PUSH2 0x5714 JUMP JUMPDEST PUSH1 0x0 PUSH2 0x1F9A DUP7 DUP7 DUP6 PUSH2 0x403B JUMP JUMPDEST SWAP1 POP DUP1 ISZERO PUSH2 0x1FA9 JUMPI SWAP1 POP PUSH2 0xF30 JUMP JUMPDEST PUSH2 0x1FB2 DUP7 PUSH2 0x31F0 JUMP JUMPDEST PUSH2 0x1FBC DUP7 DUP7 PUSH2 0x347A JUMP JUMPDEST PUSH2 0xF2A DUP7 DUP6 PUSH2 0x347A JUMP JUMPDEST PUSH1 0x18 PUSH1 0x20 MSTORE PUSH1 0x0 SWAP1 DUP2 MSTORE PUSH1 0x40 SWAP1 KECCAK256 SLOAD DUP2 JUMP JUMPDEST PUSH2 0x1FE0 PUSH2 0x378B JUMP JUMPDEST PUSH2 0x1FFC JUMPI PUSH1 0x40 MLOAD PUSH3 0x461BCD PUSH1 0xE5 SHL DUP2 MSTORE PUSH1 0x4 ADD PUSH2 0xA13 SWAP1 PUSH2 0x5655 JUMP JUMPDEST PUSH2 0x2005 DUP3 PUSH2 0x190E JUMP JUMPDEST DUP1 PUSH2 0x2028 JUMPI PUSH1 0x1 PUSH1 0x1 PUSH1 0xA0 SHL SUB DUP3 AND PUSH1 0x0 SWAP1 DUP2 MSTORE PUSH1 0x18 PUSH1 0x20 MSTORE PUSH1 0x40 DUP2 KECCAK256 SSTORE PUSH2 0x204A JUMP JUMPDEST PUSH2 0x2030 PUSH2 0x12D5 JUMP JUMPDEST PUSH1 0x1 PUSH1 0x1 PUSH1 0xA0 SHL SUB DUP4 AND PUSH1 0x0 SWAP1 DUP2 MSTORE PUSH1 0x18 PUSH1 0x20 MSTORE PUSH1 0x40 SWAP1 KECCAK256 SSTORE JUMPDEST PUSH1 0x1 PUSH1 0x1 PUSH1 0xA0 SHL SUB DUP3 AND PUSH1 0x0 DUP2 DUP2 MSTORE PUSH1 0x17 PUSH1 0x20 MSTORE PUSH1 0x40 SWAP1 DUP2 SWAP1 KECCAK256 DUP4 SWAP1 SSTORE MLOAD PUSH32 0x6EFA521CA4433A4DE77CC82AFE3D65F9E4C756C638BC5F7A44249DA9B6BE4391 SWAP1 PUSH2 0x2095 SWAP1 DUP5 SWAP1 PUSH2 0x57FD JUMP JUMPDEST PUSH1 0x40 MLOAD DUP1 SWAP2 SUB SWAP1 LOG2 POP POP JUMP JUMPDEST PUSH1 0x60 PUSH1 0x0 DUP3 MLOAD SWAP1 POP PUSH1 0x60 DUP2 PUSH1 0x40 MLOAD SWAP1 DUP1 DUP3 MSTORE DUP1 PUSH1 0x20 MUL PUSH1 0x20 ADD DUP3 ADD PUSH1 0x40 MSTORE DUP1 ISZERO PUSH2 0x20D5 JUMPI DUP2 PUSH1 0x20 ADD PUSH1 0x20 DUP3 MUL DUP1 CODESIZE DUP4 CODECOPY ADD SWAP1 POP JUMPDEST POP SWAP1 POP PUSH1 0x0 JUMPDEST DUP3 DUP2 LT ISZERO PUSH2 0x2130 JUMPI PUSH1 0x0 DUP6 DUP3 DUP2 MLOAD DUP2 LT PUSH2 0x20F1 JUMPI INVALID JUMPDEST PUSH1 0x20 MUL PUSH1 0x20 ADD ADD MLOAD SWAP1 POP PUSH2 0x2105 DUP2 CALLER PUSH2 0x40E7 JUMP JUMPDEST PUSH1 0x11 DUP2 GT ISZERO PUSH2 0x2110 JUMPI INVALID JUMPDEST DUP4 DUP4 DUP2 MLOAD DUP2 LT PUSH2 0x211C JUMPI INVALID JUMPDEST PUSH1 0x20 SWAP1 DUP2 MUL SWAP2 SWAP1 SWAP2 ADD ADD MSTORE POP PUSH1 0x1 ADD PUSH2 0x20DB JUMP JUMPDEST POP SWAP4 SWAP3 POP POP POP JUMP JUMPDEST PUSH1 0x4 DUP1 SLOAD PUSH1 0x40 MLOAD PUSH4 0xFC57D4DF PUSH1 0xE0 SHL DUP2 MSTORE PUSH1 0x0 SWAP3 DUP4 SWAP3 DUP4 SWAP3 PUSH1 0x1 PUSH1 0x1 PUSH1 0xA0 SHL SUB SWAP1 SWAP2 AND SWAP2 PUSH4 0xFC57D4DF SWAP2 PUSH2 0x216E SWAP2 DUP11 SWAP2 ADD PUSH2 0x554D JUMP JUMPDEST PUSH1 0x20 PUSH1 0x40 MLOAD DUP1 DUP4 SUB DUP2 DUP7 DUP1 EXTCODESIZE ISZERO DUP1 ISZERO PUSH2 0x2186 JUMPI PUSH1 0x0 DUP1 REVERT JUMPDEST POP GAS STATICCALL ISZERO DUP1 ISZERO PUSH2 0x219A JUMPI RETURNDATASIZE PUSH1 0x0 DUP1 RETURNDATACOPY RETURNDATASIZE PUSH1 0x0 REVERT JUMPDEST POP POP POP POP PUSH1 0x40 MLOAD RETURNDATASIZE PUSH1 0x1F NOT PUSH1 0x1F DUP3 ADD AND DUP3 ADD DUP1 PUSH1 0x40 MSTORE POP PUSH2 0x21BE SWAP2 SWAP1 DUP2 ADD SWAP1 PUSH2 0x4D00 JUMP JUMPDEST PUSH1 0x4 DUP1 SLOAD PUSH1 0x40 MLOAD PUSH4 0xFC57D4DF PUSH1 0xE0 SHL DUP2 MSTORE SWAP3 SWAP4 POP PUSH1 0x0 SWAP3 PUSH1 0x1 PUSH1 0x1 PUSH1 0xA0 SHL SUB SWAP1 SWAP2 AND SWAP2 PUSH4 0xFC57D4DF SWAP2 PUSH2 0x21F3 SWAP2 DUP11 SWAP2 ADD PUSH2 0x554D JUMP JUMPDEST PUSH1 0x20 PUSH1 0x40 MLOAD DUP1 DUP4 SUB DUP2 DUP7 DUP1 EXTCODESIZE ISZERO DUP1 ISZERO PUSH2 0x220B JUMPI PUSH1 0x0 DUP1 REVERT JUMPDEST POP GAS STATICCALL ISZERO DUP1 ISZERO PUSH2 0x221F JUMPI RETURNDATASIZE PUSH1 0x0 DUP1 RETURNDATACOPY RETURNDATASIZE PUSH1 0x0 REVERT JUMPDEST POP POP POP POP PUSH1 0x40 MLOAD RETURNDATASIZE PUSH1 0x1F NOT PUSH1 0x1F DUP3 ADD AND DUP3 ADD DUP1 PUSH1 0x40 MSTORE POP PUSH2 0x2243 SWAP2 SWAP1 DUP2 ADD SWAP1 PUSH2 0x4D00 JUMP JUMPDEST SWAP1 POP DUP2 ISZERO DUP1 PUSH2 0x2250 JUMPI POP DUP1 ISZERO JUMPDEST ISZERO PUSH2 0x2265 JUMPI PUSH1 0xD SWAP4 POP PUSH1 0x0 SWAP3 POP PUSH2 0x236A SWAP2 POP POP JUMP JUMPDEST PUSH1 0x0 DUP7 PUSH1 0x1 PUSH1 0x1 PUSH1 0xA0 SHL SUB AND PUSH4 0x182DF0F5 PUSH1 0x40 MLOAD DUP2 PUSH4 0xFFFFFFFF AND PUSH1 0xE0 SHL DUP2 MSTORE PUSH1 0x4 ADD PUSH1 0x20 PUSH1 0x40 MLOAD DUP1 DUP4 SUB DUP2 DUP7 DUP1 EXTCODESIZE ISZERO DUP1 ISZERO PUSH2 0x22A0 JUMPI PUSH1 0x0 DUP1 REVERT JUMPDEST POP GAS STATICCALL ISZERO DUP1 ISZERO PUSH2 0x22B4 JUMPI RETURNDATASIZE PUSH1 0x0 DUP1 RETURNDATACOPY RETURNDATASIZE PUSH1 0x0 REVERT JUMPDEST POP POP POP POP PUSH1 0x40 MLOAD RETURNDATASIZE PUSH1 0x1F NOT PUSH1 0x1F DUP3 ADD AND DUP3 ADD DUP1 PUSH1 0x40 MSTORE POP PUSH2 0x22D8 SWAP2 SWAP1 DUP2 ADD SWAP1 PUSH2 0x4D00 JUMP JUMPDEST SWAP1 POP PUSH1 0x0 PUSH2 0x22E4 PUSH2 0x4540 JUMP JUMPDEST PUSH2 0x22EC PUSH2 0x4540 JUMP JUMPDEST PUSH2 0x22F4 PUSH2 0x4540 JUMP JUMPDEST PUSH2 0x231C PUSH1 0x40 MLOAD DUP1 PUSH1 0x20 ADD PUSH1 0x40 MSTORE DUP1 PUSH1 0x6 SLOAD DUP2 MSTORE POP PUSH1 0x40 MLOAD DUP1 PUSH1 0x20 ADD PUSH1 0x40 MSTORE DUP1 DUP11 DUP2 MSTORE POP PUSH2 0x41DE JUMP JUMPDEST SWAP3 POP PUSH2 0x2344 PUSH1 0x40 MLOAD DUP1 PUSH1 0x20 ADD PUSH1 0x40 MSTORE DUP1 DUP9 DUP2 MSTORE POP PUSH1 0x40 MLOAD DUP1 PUSH1 0x20 ADD PUSH1 0x40 MSTORE DUP1 DUP9 DUP2 MSTORE POP PUSH2 0x41DE JUMP JUMPDEST SWAP2 POP PUSH2 0x2350 DUP4 DUP4 PUSH2 0x421D JUMP JUMPDEST SWAP1 POP PUSH2 0x235C DUP2 DUP12 PUSH2 0x3EB8 JUMP JUMPDEST PUSH1 0x0 SWAP10 POP SWAP8 POP POP POP POP POP POP POP POP JUMPDEST SWAP4 POP SWAP4 SWAP2 POP POP JUMP JUMPDEST PUSH1 0xA SLOAD PUSH1 0x0 SWAP1 PUSH1 0x1 PUSH1 0xB8 SHL SWAP1 DIV PUSH1 0xFF AND ISZERO PUSH2 0x239F JUMPI PUSH1 0x40 MLOAD PUSH3 0x461BCD PUSH1 0xE5 SHL DUP2 MSTORE PUSH1 0x4 ADD PUSH2 0xA13 SWAP1 PUSH2 0x5774 JUMP JUMPDEST PUSH1 0x1 PUSH1 0x1 PUSH1 0xA0 SHL SUB DUP7 AND PUSH1 0x0 SWAP1 DUP2 MSTORE PUSH1 0x9 PUSH1 0x20 MSTORE PUSH1 0x40 SWAP1 KECCAK256 SLOAD PUSH1 0xFF AND ISZERO DUP1 PUSH2 0x23E0 JUMPI POP PUSH1 0x1 PUSH1 0x1 PUSH1 0xA0 SHL SUB DUP6 AND PUSH1 0x0 SWAP1 DUP2 MSTORE PUSH1 0x9 PUSH1 0x20 MSTORE PUSH1 0x40 SWAP1 KECCAK256 SLOAD PUSH1 0xFF AND ISZERO JUMPDEST ISZERO PUSH2 0x23EC JUMPI PUSH1 0x9 PUSH2 0x164E JUMP JUMPDEST DUP5 PUSH1 0x1 PUSH1 0x1 PUSH1 0xA0 SHL SUB AND PUSH4 0x875BE756 PUSH1 0x40 MLOAD DUP2 PUSH4 0xFFFFFFFF AND PUSH1 0xE0 SHL DUP2 MSTORE PUSH1 0x4 ADD PUSH1 0x20 PUSH1 0x40 MLOAD DUP1 DUP4 SUB DUP2 DUP7 DUP1 EXTCODESIZE ISZERO DUP1 ISZERO PUSH2 0x2425 JUMPI PUSH1 0x0 DUP1 REVERT JUMPDEST POP GAS STATICCALL ISZERO DUP1 ISZERO PUSH2 0x2439 JUMPI RETURNDATASIZE PUSH1 0x0 DUP1 RETURNDATACOPY RETURNDATASIZE PUSH1 0x0 REVERT JUMPDEST POP POP POP POP PUSH1 0x40 MLOAD RETURNDATASIZE PUSH1 0x1F NOT PUSH1 0x1F DUP3 ADD AND DUP3 ADD DUP1 PUSH1 0x40 MSTORE POP PUSH2 0x245D SWAP2 SWAP1 DUP2 ADD SWAP1 PUSH2 0x4C75 JUMP JUMPDEST PUSH1 0x1 PUSH1 0x1 PUSH1 0xA0 SHL SUB AND DUP7 PUSH1 0x1 PUSH1 0x1 PUSH1 0xA0 SHL SUB AND PUSH4 0x875BE756 PUSH1 0x40 MLOAD DUP2 PUSH4 0xFFFFFFFF AND PUSH1 0xE0 SHL DUP2 MSTORE PUSH1 0x4 ADD PUSH1 0x20 PUSH1 0x40 MLOAD DUP1 DUP4 SUB DUP2 DUP7 DUP1 EXTCODESIZE ISZERO DUP1 ISZERO PUSH2 0x249F JUMPI PUSH1 0x0 DUP1 REVERT JUMPDEST POP GAS STATICCALL ISZERO DUP1 ISZERO PUSH2 0x24B3 JUMPI RETURNDATASIZE PUSH1 0x0 DUP1 RETURNDATACOPY RETURNDATASIZE PUSH1 0x0 REVERT JUMPDEST POP POP POP POP PUSH1 0x40 MLOAD RETURNDATASIZE PUSH1 0x1F NOT PUSH1 0x1F DUP3 ADD AND DUP3 ADD DUP1 PUSH1 0x40 MSTORE POP PUSH2 0x24D7 SWAP2 SWAP1 DUP2 ADD SWAP1 PUSH2 0x4C75 JUMP JUMPDEST PUSH1 0x1 PUSH1 0x1 PUSH1 0xA0 SHL SUB AND EQ PUSH2 0x24EC JUMPI PUSH1 0x2 PUSH2 0x164E JUMP JUMPDEST PUSH2 0x24F5 DUP7 PUSH2 0x31F0 JUMP JUMPDEST PUSH2 0x24FF DUP7 DUP5 PUSH2 0x347A JUMP JUMPDEST PUSH2 0x2509 DUP7 DUP6 PUSH2 0x347A JUMP JUMPDEST PUSH1 0x0 SWAP7 SWAP6 POP POP POP POP POP POP JUMP JUMPDEST PUSH1 0x12 PUSH1 0x20 SWAP1 DUP2 MSTORE PUSH1 0x0 SWAP3 DUP4 MSTORE PUSH1 0x40 DUP1 DUP5 KECCAK256 SWAP1 SWAP2 MSTORE SWAP1 DUP3 MSTORE SWAP1 KECCAK256 SLOAD DUP2 JUMP JUMPDEST PUSH1 0x1 PUSH1 0x1 PUSH1 0xA0 SHL SUB DUP4 AND PUSH1 0x0 SWAP1 DUP2 MSTORE PUSH1 0xC PUSH1 0x20 MSTORE PUSH1 0x40 DUP2 KECCAK256 SLOAD PUSH1 0xFF AND ISZERO PUSH2 0x256B JUMPI PUSH1 0x40 MLOAD PUSH3 0x461BCD PUSH1 0xE5 SHL DUP2 MSTORE PUSH1 0x4 ADD PUSH2 0xA13 SWAP1 PUSH2 0x57C4 JUMP JUMPDEST PUSH1 0x1 PUSH1 0x1 PUSH1 0xA0 SHL SUB DUP5 AND PUSH1 0x0 SWAP1 DUP2 MSTORE PUSH1 0x9 PUSH1 0x20 MSTORE PUSH1 0x40 SWAP1 KECCAK256 SLOAD PUSH1 0xFF AND PUSH2 0x2592 JUMPI PUSH1 0x9 PUSH2 0x1395 JUMP JUMPDEST PUSH1 0x1 PUSH1 0x1 PUSH1 0xA0 SHL SUB DUP1 DUP6 AND PUSH1 0x0 SWAP1 DUP2 MSTORE PUSH1 0x9 PUSH1 0x20 SWAP1 DUP2 MSTORE PUSH1 0x40 DUP1 DUP4 KECCAK256 SWAP4 DUP8 AND DUP4 MSTORE PUSH1 0x2 SWAP1 SWAP4 ADD SWAP1 MSTORE KECCAK256 SLOAD PUSH1 0xFF AND PUSH2 0x2655 JUMPI CALLER PUSH1 0x1 PUSH1 0x1 PUSH1 0xA0 SHL SUB DUP6 AND EQ PUSH2 0x25EB JUMPI PUSH1 0x40 MLOAD PUSH3 0x461BCD PUSH1 0xE5 SHL DUP2 MSTORE PUSH1 0x4 ADD PUSH2 0xA13 SWAP1 PUSH2 0x5685 JUMP JUMPDEST PUSH1 0x0 PUSH2 0x25F7 CALLER DUP6 PUSH2 0x40E7 JUMP JUMPDEST SWAP1 POP PUSH1 0x0 DUP2 PUSH1 0x11 DUP2 GT ISZERO PUSH2 0x2607 JUMPI INVALID JUMPDEST EQ PUSH2 0x2620 JUMPI DUP1 PUSH1 0x11 DUP2 GT ISZERO PUSH2 0x2618 JUMPI INVALID JUMPDEST SWAP2 POP POP PUSH2 0x13B5 JUMP JUMPDEST PUSH1 0x1 PUSH1 0x1 PUSH1 0xA0 SHL SUB DUP1 DUP7 AND PUSH1 0x0 SWAP1 DUP2 MSTORE PUSH1 0x9 PUSH1 0x20 SWAP1 DUP2 MSTORE PUSH1 0x40 DUP1 DUP4 KECCAK256 SWAP4 DUP9 AND DUP4 MSTORE PUSH1 0x2 SWAP1 SWAP4 ADD SWAP1 MSTORE KECCAK256 SLOAD PUSH1 0xFF AND PUSH2 0x2653 JUMPI INVALID JUMPDEST POP JUMPDEST PUSH1 0x4 DUP1 SLOAD PUSH1 0x40 MLOAD PUSH4 0xFC57D4DF PUSH1 0xE0 SHL DUP2 MSTORE PUSH1 0x1 PUSH1 0x1 PUSH1 0xA0 SHL SUB SWAP1 SWAP2 AND SWAP2 PUSH4 0xFC57D4DF SWAP2 PUSH2 0x2684 SWAP2 DUP9 SWAP2 ADD PUSH2 0x554D JUMP JUMPDEST PUSH1 0x20 PUSH1 0x40 MLOAD DUP1 DUP4 SUB DUP2 DUP7 DUP1 EXTCODESIZE ISZERO DUP1 ISZERO PUSH2 0x269C JUMPI PUSH1 0x0 DUP1 REVERT JUMPDEST POP GAS STATICCALL ISZERO DUP1 ISZERO PUSH2 0x26B0 JUMPI RETURNDATASIZE PUSH1 0x0 DUP1 RETURNDATACOPY RETURNDATASIZE PUSH1 0x0 REVERT JUMPDEST POP POP POP POP PUSH1 0x40 MLOAD RETURNDATASIZE PUSH1 0x1F NOT PUSH1 0x1F DUP3 ADD AND DUP3 ADD DUP1 PUSH1 0x40 MSTORE POP PUSH2 0x26D4 SWAP2 SWAP1 DUP2 ADD SWAP1 PUSH2 0x4D00 JUMP JUMPDEST PUSH2 0x26DF JUMPI PUSH1 0xD PUSH2 0x1395 JUMP JUMPDEST PUSH1 0x1 PUSH1 0x1 PUSH1 0xA0 SHL SUB DUP5 AND PUSH1 0x0 SWAP1 DUP2 MSTORE PUSH1 0x16 PUSH1 0x20 MSTORE PUSH1 0x40 SWAP1 KECCAK256 SLOAD DUP1 ISZERO PUSH2 0x27A3 JUMPI PUSH1 0x0 DUP6 PUSH1 0x1 PUSH1 0x1 PUSH1 0xA0 SHL SUB AND PUSH4 0x47BD3718 PUSH1 0x40 MLOAD DUP2 PUSH4 0xFFFFFFFF AND PUSH1 0xE0 SHL DUP2 MSTORE PUSH1 0x4 ADD PUSH1 0x20 PUSH1 0x40 MLOAD DUP1 DUP4 SUB DUP2 DUP7 DUP1 EXTCODESIZE ISZERO DUP1 ISZERO PUSH2 0x2739 JUMPI PUSH1 0x0 DUP1 REVERT JUMPDEST POP GAS STATICCALL ISZERO DUP1 ISZERO PUSH2 0x274D JUMPI RETURNDATASIZE PUSH1 0x0 DUP1 RETURNDATACOPY RETURNDATASIZE PUSH1 0x0 REVERT JUMPDEST POP POP POP POP PUSH1 0x40 MLOAD RETURNDATASIZE PUSH1 0x1F NOT PUSH1 0x1F DUP3 ADD AND DUP3 ADD DUP1 PUSH1 0x40 MSTORE POP PUSH2 0x2771 SWAP2 SWAP1 DUP2 ADD SWAP1 PUSH2 0x4D00 JUMP JUMPDEST SWAP1 POP PUSH1 0x0 PUSH2 0x277F DUP3 DUP7 PUSH2 0x3F53 JUMP JUMPDEST SWAP1 POP DUP3 DUP2 LT PUSH2 0x27A0 JUMPI PUSH1 0x40 MLOAD PUSH3 0x461BCD PUSH1 0xE5 SHL DUP2 MSTORE PUSH1 0x4 ADD PUSH2 0xA13 SWAP1 PUSH2 0x5764 JUMP JUMPDEST POP POP JUMPDEST PUSH1 0x0 DUP1 PUSH2 0x27B3 DUP7 DUP9 PUSH1 0x0 DUP9 PUSH2 0x3B0E JUMP JUMPDEST SWAP2 SWAP4 POP SWAP1 SWAP2 POP PUSH1 0x0 SWAP1 POP DUP3 PUSH1 0x11 DUP2 GT ISZERO PUSH2 0x27C9 JUMPI INVALID JUMPDEST EQ PUSH2 0x27E4 JUMPI DUP2 PUSH1 0x11 DUP2 GT ISZERO PUSH2 0x27DA JUMPI INVALID JUMPDEST SWAP4 POP POP POP POP PUSH2 0x13B5 JUMP JUMPDEST DUP1 ISZERO PUSH2 0x27F1 JUMPI PUSH1 0x4 PUSH2 0x27DA JUMP JUMPDEST PUSH2 0x27F9 PUSH2 0x4540 JUMP JUMPDEST PUSH1 0x40 MLOAD DUP1 PUSH1 0x20 ADD PUSH1 0x40 MSTORE DUP1 DUP10 PUSH1 0x1 PUSH1 0x1 PUSH1 0xA0 SHL SUB AND PUSH4 0xAA5AF0FD PUSH1 0x40 MLOAD DUP2 PUSH4 0xFFFFFFFF AND PUSH1 0xE0 SHL DUP2 MSTORE PUSH1 0x4 ADD PUSH1 0x20 PUSH1 0x40 MLOAD DUP1 DUP4 SUB DUP2 DUP7 DUP1 EXTCODESIZE ISZERO DUP1 ISZERO PUSH2 0x283D JUMPI PUSH1 0x0 DUP1 REVERT JUMPDEST POP GAS STATICCALL ISZERO DUP1 ISZERO PUSH2 0x2851 JUMPI RETURNDATASIZE PUSH1 0x0 DUP1 RETURNDATACOPY RETURNDATASIZE PUSH1 0x0 REVERT JUMPDEST POP POP POP POP PUSH1 0x40 MLOAD RETURNDATASIZE PUSH1 0x1F NOT PUSH1 0x1F DUP3 ADD AND DUP3 ADD DUP1 PUSH1 0x40 MSTORE POP PUSH2 0x2875 SWAP2 SWAP1 DUP2 ADD SWAP1 PUSH2 0x4D00 JUMP JUMPDEST SWAP1 MSTORE SWAP1 POP PUSH2 0x2883 DUP9 DUP3 PUSH2 0x2DD6 JUMP JUMPDEST PUSH2 0x288E DUP9 DUP9 DUP4 PUSH2 0x306A JUMP JUMPDEST PUSH1 0x0 SWAP9 SWAP8 POP POP POP POP POP POP POP POP JUMP JUMPDEST PUSH1 0x8 PUSH1 0x20 MSTORE DUP2 PUSH1 0x0 MSTORE PUSH1 0x40 PUSH1 0x0 KECCAK256 DUP2 DUP2 SLOAD DUP2 LT PUSH2 0x28B5 JUMPI INVALID JUMPDEST PUSH1 0x0 SWAP2 DUP3 MSTORE PUSH1 0x20 SWAP1 SWAP2 KECCAK256 ADD SLOAD PUSH1 0x1 PUSH1 0x1 PUSH1 0xA0 SHL SUB AND SWAP2 POP DUP3 SWAP1 POP JUMP JUMPDEST PUSH1 0x0 DUP1 SLOAD PUSH1 0x1 PUSH1 0x1 PUSH1 0xA0 SHL SUB AND CALLER EQ PUSH2 0x28F7 JUMPI PUSH2 0x28F0 PUSH1 0x1 PUSH1 0x6 PUSH2 0x3E38 JUMP JUMPDEST SWAP1 POP PUSH2 0xAF3 JUMP JUMPDEST PUSH1 0x1 PUSH1 0x1 PUSH1 0xA0 SHL SUB DUP4 AND PUSH1 0x0 SWAP1 DUP2 MSTORE PUSH1 0x9 PUSH1 0x20 MSTORE PUSH1 0x40 SWAP1 KECCAK256 DUP1 SLOAD PUSH1 0xFF AND PUSH2 0x292C JUMPI PUSH2 0x2924 PUSH1 0x9 PUSH1 0x7 PUSH2 0x3E38 JUMP JUMPDEST SWAP2 POP POP PUSH2 0xAF3 JUMP JUMPDEST PUSH2 0x2934 PUSH2 0x4540 JUMP JUMPDEST POP PUSH1 0x40 DUP1 MLOAD PUSH1 0x20 DUP2 ADD SWAP1 SWAP2 MSTORE DUP4 DUP2 MSTORE PUSH2 0x294B PUSH2 0x4540 JUMP JUMPDEST POP PUSH1 0x40 DUP1 MLOAD PUSH1 0x20 DUP2 ADD SWAP1 SWAP2 MSTORE PUSH8 0xC7D713B49DA0000 DUP2 MSTORE PUSH2 0x296C DUP2 DUP4 PUSH2 0x4259 JUMP JUMPDEST ISZERO PUSH2 0x2987 JUMPI PUSH2 0x297D PUSH1 0x6 PUSH1 0x8 PUSH2 0x3E38 JUMP JUMPDEST SWAP4 POP POP POP POP PUSH2 0xAF3 JUMP JUMPDEST DUP5 ISZERO DUP1 ISZERO SWAP1 PUSH2 0x2A12 JUMPI POP PUSH1 0x4 DUP1 SLOAD PUSH1 0x40 MLOAD PUSH4 0xFC57D4DF PUSH1 0xE0 SHL DUP2 MSTORE PUSH1 0x1 PUSH1 0x1 PUSH1 0xA0 SHL SUB SWAP1 SWAP2 AND SWAP2 PUSH4 0xFC57D4DF SWAP2 PUSH2 0x29C0 SWAP2 DUP11 SWAP2 ADD PUSH2 0x554D JUMP JUMPDEST PUSH1 0x20 PUSH1 0x40 MLOAD DUP1 DUP4 SUB DUP2 DUP7 DUP1 EXTCODESIZE ISZERO DUP1 ISZERO PUSH2 0x29D8 JUMPI PUSH1 0x0 DUP1 REVERT JUMPDEST POP GAS STATICCALL ISZERO DUP1 ISZERO PUSH2 0x29EC JUMPI RETURNDATASIZE PUSH1 0x0 DUP1 RETURNDATACOPY RETURNDATASIZE PUSH1 0x0 REVERT JUMPDEST POP POP POP POP PUSH1 0x40 MLOAD RETURNDATASIZE PUSH1 0x1F NOT PUSH1 0x1F DUP3 ADD AND DUP3 ADD DUP1 PUSH1 0x40 MSTORE POP PUSH2 0x2A10 SWAP2 SWAP1 DUP2 ADD SWAP1 PUSH2 0x4D00 JUMP JUMPDEST ISZERO JUMPDEST ISZERO PUSH2 0x2A23 JUMPI PUSH2 0x297D PUSH1 0xD PUSH1 0x9 PUSH2 0x3E38 JUMP JUMPDEST PUSH1 0x1 DUP4 ADD DUP1 SLOAD SWAP1 DUP7 SWAP1 SSTORE PUSH1 0x40 MLOAD PUSH32 0x70483E6592CD5182D45AC970E05BC62CDCC90E9D8EF2C2DBE686CF383BCD7FC5 SWAP1 PUSH2 0x2A61 SWAP1 DUP10 SWAP1 DUP5 SWAP1 DUP11 SWAP1 PUSH2 0x55EC JUMP JUMPDEST PUSH1 0x40 MLOAD DUP1 SWAP2 SUB SWAP1 LOG1 PUSH1 0x0 SWAP8 SWAP7 POP POP POP POP POP POP POP JUMP JUMPDEST PUSH1 0xA SLOAD PUSH1 0x1 PUSH1 0xA8 SHL SWAP1 DIV PUSH1 0xFF AND DUP2 JUMP JUMPDEST PUSH1 0x2 SLOAD PUSH1 0x1 PUSH1 0x1 PUSH1 0xA0 SHL SUB AND DUP2 JUMP JUMPDEST PUSH1 0x5 SLOAD DUP2 JUMP JUMPDEST PUSH1 0x0 DUP1 PUSH2 0x2AA9 DUP6 DUP6 DUP6 PUSH2 0x403B JUMP JUMPDEST SWAP1 POP DUP1 ISZERO PUSH2 0x2AB8 JUMPI SWAP1 POP PUSH2 0x13B5 JUMP JUMPDEST PUSH2 0x2AC1 DUP6 PUSH2 0x31F0 JUMP JUMPDEST PUSH2 0x2ACB DUP6 DUP6 PUSH2 0x347A JUMP JUMPDEST PUSH1 0x0 SWAP6 SWAP5 POP POP POP POP POP JUMP JUMPDEST PUSH1 0x0 DUP1 DUP3 SWAP1 POP PUSH1 0x0 DUP1 PUSH1 0x0 DUP4 PUSH1 0x1 PUSH1 0x1 PUSH1 0xA0 SHL SUB AND PUSH4 0xC37F68E2 CALLER PUSH1 0x40 MLOAD DUP3 PUSH4 0xFFFFFFFF AND PUSH1 0xE0 SHL DUP2 MSTORE PUSH1 0x4 ADD PUSH2 0x2B0D SWAP2 SWAP1 PUSH2 0x54B1 JUMP JUMPDEST PUSH1 0x80 PUSH1 0x40 MLOAD DUP1 DUP4 SUB DUP2 DUP7 DUP1 EXTCODESIZE ISZERO DUP1 ISZERO PUSH2 0x2B25 JUMPI PUSH1 0x0 DUP1 REVERT JUMPDEST POP GAS STATICCALL ISZERO DUP1 ISZERO PUSH2 0x2B39 JUMPI RETURNDATASIZE PUSH1 0x0 DUP1 RETURNDATACOPY RETURNDATASIZE PUSH1 0x0 REVERT JUMPDEST POP POP POP POP PUSH1 0x40 MLOAD RETURNDATASIZE PUSH1 0x1F NOT PUSH1 0x1F DUP3 ADD AND DUP3 ADD DUP1 PUSH1 0x40 MSTORE POP PUSH2 0x2B5D SWAP2 SWAP1 DUP2 ADD SWAP1 PUSH2 0x4D1E JUMP JUMPDEST POP SWAP3 POP SWAP3 POP SWAP3 POP DUP3 PUSH1 0x0 EQ PUSH2 0x2B84 JUMPI PUSH1 0x40 MLOAD PUSH3 0x461BCD PUSH1 0xE5 SHL DUP2 MSTORE PUSH1 0x4 ADD PUSH2 0xA13 SWAP1 PUSH2 0x5754 JUMP JUMPDEST DUP1 ISZERO PUSH2 0x2BA1 JUMPI PUSH2 0x2B96 PUSH1 0xC PUSH1 0x2 PUSH2 0x3E38 JUMP JUMPDEST SWAP5 POP POP POP POP POP PUSH2 0x1021 JUMP JUMPDEST PUSH1 0x0 PUSH2 0x2BAE DUP8 CALLER DUP6 PUSH2 0x403B JUMP JUMPDEST SWAP1 POP DUP1 ISZERO PUSH2 0x2BCF JUMPI PUSH2 0x2BC3 PUSH1 0xE PUSH1 0x3 DUP4 PUSH2 0x4260 JUMP JUMPDEST SWAP6 POP POP POP POP POP POP PUSH2 0x1021 JUMP JUMPDEST PUSH1 0x1 PUSH1 0x1 PUSH1 0xA0 SHL SUB DUP6 AND PUSH1 0x0 SWAP1 DUP2 MSTORE PUSH1 0x9 PUSH1 0x20 SWAP1 DUP2 MSTORE PUSH1 0x40 DUP1 DUP4 KECCAK256 CALLER DUP5 MSTORE PUSH1 0x2 DUP2 ADD SWAP1 SWAP3 MSTORE SWAP1 SWAP2 KECCAK256 SLOAD PUSH1 0xFF AND PUSH2 0x2C0E JUMPI PUSH1 0x0 SWAP7 POP POP POP POP POP POP POP PUSH2 0x1021 JUMP JUMPDEST CALLER PUSH1 0x0 SWAP1 DUP2 MSTORE PUSH1 0x2 DUP3 ADD PUSH1 0x20 SWAP1 DUP2 MSTORE PUSH1 0x40 DUP1 DUP4 KECCAK256 DUP1 SLOAD PUSH1 0xFF NOT AND SWAP1 SSTORE PUSH1 0x8 DUP3 MSTORE SWAP2 DUP3 SWAP1 KECCAK256 DUP1 SLOAD DUP4 MLOAD DUP2 DUP5 MUL DUP2 ADD DUP5 ADD SWAP1 SWAP5 MSTORE DUP1 DUP5 MSTORE PUSH1 0x60 SWAP4 SWAP3 DUP4 ADD DUP3 DUP3 DUP1 ISZERO PUSH2 0x2C80 JUMPI PUSH1 0x20 MUL DUP3 ADD SWAP2 SWAP1 PUSH1 0x0 MSTORE PUSH1 0x20 PUSH1 0x0 KECCAK256 SWAP1 JUMPDEST DUP2 SLOAD PUSH1 0x1 PUSH1 0x1 PUSH1 0xA0 SHL SUB AND DUP2 MSTORE PUSH1 0x1 SWAP1 SWAP2 ADD SWAP1 PUSH1 0x20 ADD DUP1 DUP4 GT PUSH2 0x2C62 JUMPI JUMPDEST POP POP DUP4 MLOAD SWAP4 SWAP5 POP DUP4 SWAP3 POP PUSH1 0x0 SWAP2 POP POP JUMPDEST DUP3 DUP2 LT ISZERO PUSH2 0x2CD5 JUMPI DUP10 PUSH1 0x1 PUSH1 0x1 PUSH1 0xA0 SHL SUB AND DUP5 DUP3 DUP2 MLOAD DUP2 LT PUSH2 0x2CAE JUMPI INVALID JUMPDEST PUSH1 0x20 MUL PUSH1 0x20 ADD ADD MLOAD PUSH1 0x1 PUSH1 0x1 PUSH1 0xA0 SHL SUB AND EQ ISZERO PUSH2 0x2CCD JUMPI DUP1 SWAP2 POP PUSH2 0x2CD5 JUMP JUMPDEST PUSH1 0x1 ADD PUSH2 0x2C90 JUMP JUMPDEST POP DUP2 DUP2 LT PUSH2 0x2CDF JUMPI INVALID JUMPDEST CALLER PUSH1 0x0 SWAP1 DUP2 MSTORE PUSH1 0x8 PUSH1 0x20 MSTORE PUSH1 0x40 SWAP1 KECCAK256 DUP1 SLOAD DUP2 SWAP1 PUSH1 0x0 NOT DUP2 ADD SWAP1 DUP2 LT PUSH2 0x2D00 JUMPI INVALID JUMPDEST SWAP1 PUSH1 0x0 MSTORE PUSH1 0x20 PUSH1 0x0 KECCAK256 ADD PUSH1 0x0 SWAP1 SLOAD SWAP1 PUSH2 0x100 EXP SWAP1 DIV PUSH1 0x1 PUSH1 0x1 PUSH1 0xA0 SHL SUB AND DUP2 DUP4 DUP2 SLOAD DUP2 LT PUSH2 0x2D2A JUMPI INVALID JUMPDEST PUSH1 0x0 SWAP2 DUP3 MSTORE PUSH1 0x20 SWAP1 SWAP2 KECCAK256 ADD DUP1 SLOAD PUSH1 0x1 PUSH1 0x1 PUSH1 0xA0 SHL SUB NOT AND PUSH1 0x1 PUSH1 0x1 PUSH1 0xA0 SHL SUB SWAP3 SWAP1 SWAP3 AND SWAP2 SWAP1 SWAP2 OR SWAP1 SSTORE DUP1 SLOAD PUSH2 0x2D63 DUP3 PUSH1 0x0 NOT DUP4 ADD PUSH2 0x4553 JUMP JUMPDEST POP PUSH32 0xE699A64C18B07AC5B7301AA273F36A2287239EB9501D81950672794AFBA29A0D DUP11 CALLER PUSH1 0x40 MLOAD PUSH2 0x2D95 SWAP3 SWAP2 SWAP1 PUSH2 0x5584 JUMP JUMPDEST PUSH1 0x40 MLOAD DUP1 SWAP2 SUB SWAP1 LOG1 PUSH1 0x0 SWAP13 SWAP12 POP POP POP POP POP POP POP POP POP POP POP POP JUMP JUMPDEST PUSH1 0x0 SLOAD PUSH1 0x1 PUSH1 0x1 PUSH1 0xA0 SHL SUB AND DUP2 JUMP JUMPDEST PUSH20 0x71468E0EB050FD8C2884C5A13B848AB29DE01AD5 SWAP1 JUMP JUMPDEST PUSH1 0x1 PUSH1 0x1 PUSH1 0xA0 SHL SUB DUP3 AND PUSH1 0x0 SWAP1 DUP2 MSTORE PUSH1 0x11 PUSH1 0x20 SWAP1 DUP2 MSTORE PUSH1 0x40 DUP1 DUP4 KECCAK256 PUSH1 0xF SWAP1 SWAP3 MSTORE DUP3 KECCAK256 SLOAD SWAP1 SWAP2 PUSH2 0x2E03 PUSH2 0x12D5 JUMP JUMPDEST DUP4 SLOAD SWAP1 SWAP2 POP PUSH1 0x0 SWAP1 PUSH2 0x2E23 SWAP1 DUP4 SWAP1 PUSH1 0x1 PUSH1 0xE0 SHL SWAP1 DIV PUSH4 0xFFFFFFFF AND PUSH2 0x3ED7 JUMP JUMPDEST SWAP1 POP PUSH1 0x0 DUP2 GT DUP1 ISZERO PUSH2 0x2E35 JUMPI POP PUSH1 0x0 DUP4 GT JUMPDEST ISZERO PUSH2 0x3010 JUMPI PUSH1 0x0 PUSH2 0x2EB6 DUP8 PUSH1 0x1 PUSH1 0x1 PUSH1 0xA0 SHL SUB AND PUSH4 0x47BD3718 PUSH1 0x40 MLOAD DUP2 PUSH4 0xFFFFFFFF AND PUSH1 0xE0 SHL DUP2 MSTORE PUSH1 0x4 ADD PUSH1 0x20 PUSH1 0x40 MLOAD DUP1 DUP4 SUB DUP2 DUP7 DUP1 EXTCODESIZE ISZERO DUP1 ISZERO PUSH2 0x2E78 JUMPI PUSH1 0x0 DUP1 REVERT JUMPDEST POP GAS STATICCALL ISZERO DUP1 ISZERO PUSH2 0x2E8C JUMPI RETURNDATASIZE PUSH1 0x0 DUP1 RETURNDATACOPY RETURNDATASIZE PUSH1 0x0 REVERT JUMPDEST POP POP POP POP PUSH1 0x40 MLOAD RETURNDATASIZE PUSH1 0x1F NOT PUSH1 0x1F DUP3 ADD AND DUP3 ADD DUP1 PUSH1 0x40 MSTORE POP PUSH2 0x2EB0 SWAP2 SWAP1 DUP2 ADD SWAP1 PUSH2 0x4D00 JUMP JUMPDEST DUP8 PUSH2 0x42BF JUMP JUMPDEST SWAP1 POP PUSH1 0x0 PUSH2 0x2EC4 DUP4 DUP7 PUSH2 0x3F11 JUMP JUMPDEST SWAP1 POP PUSH2 0x2ECE PUSH2 0x4540 JUMP JUMPDEST PUSH1 0x0 DUP4 GT PUSH2 0x2EEB JUMPI PUSH1 0x40 MLOAD DUP1 PUSH1 0x20 ADD PUSH1 0x40 MSTORE DUP1 PUSH1 0x0 DUP2 MSTORE POP PUSH2 0x2EF5 JUMP JUMPDEST PUSH2 0x2EF5 DUP3 DUP5 PUSH2 0x42DD JUMP JUMPDEST SWAP1 POP PUSH2 0x2EFF PUSH2 0x4540 JUMP JUMPDEST PUSH1 0x40 DUP1 MLOAD PUSH1 0x20 DUP2 ADD SWAP1 SWAP2 MSTORE DUP9 SLOAD PUSH1 0x1 PUSH1 0x1 PUSH1 0xE0 SHL SUB AND DUP2 MSTORE PUSH2 0x2F21 SWAP1 DUP4 PUSH2 0x4312 JUMP JUMPDEST SWAP1 POP PUSH1 0x40 MLOAD DUP1 PUSH1 0x40 ADD PUSH1 0x40 MSTORE DUP1 PUSH2 0x2F71 DUP4 PUSH1 0x0 ADD MLOAD PUSH1 0x40 MLOAD DUP1 PUSH1 0x40 ADD PUSH1 0x40 MSTORE DUP1 PUSH1 0x1A DUP2 MSTORE PUSH1 0x20 ADD PUSH32 0x6E657720696E6465782065786365656473203232342062697473000000000000 DUP2 MSTORE POP PUSH2 0x4337 JUMP JUMPDEST PUSH1 0x1 PUSH1 0x1 PUSH1 0xE0 SHL SUB AND DUP2 MSTORE PUSH1 0x20 ADD PUSH2 0x2FAC DUP9 PUSH1 0x40 MLOAD DUP1 PUSH1 0x40 ADD PUSH1 0x40 MSTORE DUP1 PUSH1 0x1C DUP2 MSTORE PUSH1 0x20 ADD PUSH1 0x0 DUP1 MLOAD PUSH1 0x20 PUSH2 0x5962 DUP4 CODECOPY DUP2 MLOAD SWAP2 MSTORE DUP2 MSTORE POP PUSH2 0x4366 JUMP JUMPDEST PUSH4 0xFFFFFFFF SWAP1 DUP2 AND SWAP1 SWAP2 MSTORE PUSH1 0x1 PUSH1 0x1 PUSH1 0xA0 SHL SUB DUP13 AND PUSH1 0x0 SWAP1 DUP2 MSTORE PUSH1 0x11 PUSH1 0x20 SWAP1 DUP2 MSTORE PUSH1 0x40 SWAP1 SWAP2 KECCAK256 DUP4 MLOAD DUP2 SLOAD SWAP5 SWAP1 SWAP3 ADD MLOAD SWAP1 SWAP3 AND PUSH1 0x1 PUSH1 0xE0 SHL MUL PUSH1 0x1 PUSH1 0x1 PUSH1 0xE0 SHL SUB SWAP2 DUP3 AND PUSH1 0x1 PUSH1 0x1 PUSH1 0xE0 SHL SUB NOT SWAP1 SWAP5 AND SWAP4 SWAP1 SWAP4 OR AND SWAP2 SWAP1 SWAP2 OR SWAP1 SSTORE POP PUSH2 0x12DA SWAP3 POP POP POP JUMP JUMPDEST DUP1 ISZERO PUSH2 0x12DA JUMPI PUSH2 0x3043 DUP3 PUSH1 0x40 MLOAD DUP1 PUSH1 0x40 ADD PUSH1 0x40 MSTORE DUP1 PUSH1 0x1C DUP2 MSTORE PUSH1 0x20 ADD PUSH1 0x0 DUP1 MLOAD PUSH1 0x20 PUSH2 0x5962 DUP4 CODECOPY DUP2 MLOAD SWAP2 MSTORE DUP2 MSTORE POP PUSH2 0x4366 JUMP JUMPDEST DUP5 SLOAD PUSH4 0xFFFFFFFF SWAP2 SWAP1 SWAP2 AND PUSH1 0x1 PUSH1 0xE0 SHL MUL PUSH1 0x1 PUSH1 0x1 PUSH1 0xE0 SHL SUB SWAP1 SWAP2 AND OR DUP5 SSTORE POP POP POP POP POP POP JUMP JUMPDEST PUSH1 0x1 PUSH1 0x1 PUSH1 0xA0 SHL SUB DUP4 AND PUSH1 0x0 SWAP1 DUP2 MSTORE PUSH1 0x11 PUSH1 0x20 MSTORE PUSH1 0x40 SWAP1 KECCAK256 PUSH2 0x308A PUSH2 0x4540 JUMP JUMPDEST POP PUSH1 0x40 DUP1 MLOAD PUSH1 0x20 DUP2 ADD SWAP1 SWAP2 MSTORE DUP2 SLOAD PUSH1 0x1 PUSH1 0x1 PUSH1 0xE0 SHL SUB AND DUP2 MSTORE PUSH2 0x30AB PUSH2 0x4540 JUMP JUMPDEST POP PUSH1 0x40 DUP1 MLOAD PUSH1 0x20 DUP1 DUP3 ADD DUP4 MSTORE PUSH1 0x1 PUSH1 0x1 PUSH1 0xA0 SHL SUB DUP1 DUP10 AND PUSH1 0x0 SWAP1 DUP2 MSTORE PUSH1 0x13 DUP4 MSTORE DUP5 DUP2 KECCAK256 SWAP2 DUP10 AND DUP1 DUP3 MSTORE DUP3 DUP5 MSTORE SWAP5 DUP2 KECCAK256 DUP1 SLOAD DUP6 MSTORE DUP7 MLOAD SWAP6 SWAP1 SWAP2 MSTORE SWAP2 MSTORE SWAP2 SWAP1 SWAP2 SSTORE DUP1 MLOAD ISZERO PUSH2 0x12DA JUMPI PUSH2 0x30F9 PUSH2 0x4540 JUMP JUMPDEST PUSH2 0x3103 DUP4 DUP4 PUSH2 0x438E JUMP JUMPDEST SWAP1 POP PUSH1 0x0 PUSH2 0x314E DUP9 PUSH1 0x1 PUSH1 0x1 PUSH1 0xA0 SHL SUB AND PUSH4 0x95DD9193 DUP10 PUSH1 0x40 MLOAD DUP3 PUSH4 0xFFFFFFFF AND PUSH1 0xE0 SHL DUP2 MSTORE PUSH1 0x4 ADD PUSH2 0x3136 SWAP2 SWAP1 PUSH2 0x54A3 JUMP JUMPDEST PUSH1 0x20 PUSH1 0x40 MLOAD DUP1 DUP4 SUB DUP2 DUP7 DUP1 EXTCODESIZE ISZERO DUP1 ISZERO PUSH2 0x2E78 JUMPI PUSH1 0x0 DUP1 REVERT JUMPDEST SWAP1 POP PUSH1 0x0 PUSH2 0x315C DUP3 DUP5 PUSH2 0x43B3 JUMP JUMPDEST PUSH1 0x1 PUSH1 0x1 PUSH1 0xA0 SHL SUB DUP10 AND PUSH1 0x0 SWAP1 DUP2 MSTORE PUSH1 0x14 PUSH1 0x20 MSTORE PUSH1 0x40 DUP2 KECCAK256 SLOAD SWAP2 SWAP3 POP SWAP1 PUSH2 0x3183 SWAP1 DUP4 PUSH2 0x3F53 JUMP JUMPDEST PUSH1 0x1 PUSH1 0x1 PUSH1 0xA0 SHL SUB DUP1 DUP12 AND PUSH1 0x0 DUP2 DUP2 MSTORE PUSH1 0x14 PUSH1 0x20 MSTORE PUSH1 0x40 SWAP1 DUP2 SWAP1 KECCAK256 DUP5 SWAP1 SSTORE DUP10 MLOAD SWAP1 MLOAD SWAP4 SWAP5 POP SWAP1 SWAP3 SWAP2 DUP14 AND SWAP2 PUSH32 0x5093E98E1FD583477B4097E5516E4EEF12CB98F5C0BD92D41A448A9CDF2C4BBB SWAP2 PUSH2 0x31DC SWAP2 DUP8 SWAP2 SWAP1 PUSH2 0x580B JUMP JUMPDEST PUSH1 0x40 MLOAD DUP1 SWAP2 SUB SWAP1 LOG3 POP POP POP POP POP POP POP POP POP POP JUMP JUMPDEST PUSH1 0x1 PUSH1 0x1 PUSH1 0xA0 SHL SUB DUP2 AND PUSH1 0x0 SWAP1 DUP2 MSTORE PUSH1 0x10 PUSH1 0x20 SWAP1 DUP2 MSTORE PUSH1 0x40 DUP1 DUP4 KECCAK256 PUSH1 0xF SWAP1 SWAP3 MSTORE DUP3 KECCAK256 SLOAD SWAP1 SWAP2 PUSH2 0x321D PUSH2 0x12D5 JUMP JUMPDEST DUP4 SLOAD SWAP1 SWAP2 POP PUSH1 0x0 SWAP1 PUSH2 0x323D SWAP1 DUP4 SWAP1 PUSH1 0x1 PUSH1 0xE0 SHL SWAP1 DIV PUSH4 0xFFFFFFFF AND PUSH2 0x3ED7 JUMP JUMPDEST SWAP1 POP PUSH1 0x0 DUP2 GT DUP1 ISZERO PUSH2 0x324F JUMPI POP PUSH1 0x0 DUP4 GT JUMPDEST ISZERO PUSH2 0x3421 JUMPI PUSH1 0x0 DUP6 PUSH1 0x1 PUSH1 0x1 PUSH1 0xA0 SHL SUB AND PUSH4 0x18160DDD PUSH1 0x40 MLOAD DUP2 PUSH4 0xFFFFFFFF AND PUSH1 0xE0 SHL DUP2 MSTORE PUSH1 0x4 ADD PUSH1 0x20 PUSH1 0x40 MLOAD DUP1 DUP4 SUB DUP2 DUP7 DUP1 EXTCODESIZE ISZERO DUP1 ISZERO PUSH2 0x328F JUMPI PUSH1 0x0 DUP1 REVERT JUMPDEST POP GAS STATICCALL ISZERO DUP1 ISZERO PUSH2 0x32A3 JUMPI RETURNDATASIZE PUSH1 0x0 DUP1 RETURNDATACOPY RETURNDATASIZE PUSH1 0x0 REVERT JUMPDEST POP POP POP POP PUSH1 0x40 MLOAD RETURNDATASIZE PUSH1 0x1F NOT PUSH1 0x1F DUP3 ADD AND DUP3 ADD DUP1 PUSH1 0x40 MSTORE POP PUSH2 0x32C7 SWAP2 SWAP1 DUP2 ADD SWAP1 PUSH2 0x4D00 JUMP JUMPDEST SWAP1 POP PUSH1 0x0 PUSH2 0x32D5 DUP4 DUP7 PUSH2 0x3F11 JUMP JUMPDEST SWAP1 POP PUSH2 0x32DF PUSH2 0x4540 JUMP JUMPDEST PUSH1 0x0 DUP4 GT PUSH2 0x32FC JUMPI PUSH1 0x40 MLOAD DUP1 PUSH1 0x20 ADD PUSH1 0x40 MSTORE DUP1 PUSH1 0x0 DUP2 MSTORE POP PUSH2 0x3306 JUMP JUMPDEST PUSH2 0x3306 DUP3 DUP5 PUSH2 0x42DD JUMP JUMPDEST SWAP1 POP PUSH2 0x3310 PUSH2 0x4540 JUMP JUMPDEST PUSH1 0x40 DUP1 MLOAD PUSH1 0x20 DUP2 ADD SWAP1 SWAP2 MSTORE DUP9 SLOAD PUSH1 0x1 PUSH1 0x1 PUSH1 0xE0 SHL SUB AND DUP2 MSTORE PUSH2 0x3332 SWAP1 DUP4 PUSH2 0x4312 JUMP JUMPDEST SWAP1 POP PUSH1 0x40 MLOAD DUP1 PUSH1 0x40 ADD PUSH1 0x40 MSTORE DUP1 PUSH2 0x3382 DUP4 PUSH1 0x0 ADD MLOAD PUSH1 0x40 MLOAD DUP1 PUSH1 0x40 ADD PUSH1 0x40 MSTORE DUP1 PUSH1 0x1A DUP2 MSTORE PUSH1 0x20 ADD PUSH32 0x6E657720696E6465782065786365656473203232342062697473000000000000 DUP2 MSTORE POP PUSH2 0x4337 JUMP JUMPDEST PUSH1 0x1 PUSH1 0x1 PUSH1 0xE0 SHL SUB AND DUP2 MSTORE PUSH1 0x20 ADD PUSH2 0x33BD DUP9 PUSH1 0x40 MLOAD DUP1 PUSH1 0x40 ADD PUSH1 0x40 MSTORE DUP1 PUSH1 0x1C DUP2 MSTORE PUSH1 0x20 ADD PUSH1 0x0 DUP1 MLOAD PUSH1 0x20 PUSH2 0x5962 DUP4 CODECOPY DUP2 MLOAD SWAP2 MSTORE DUP2 MSTORE POP PUSH2 0x4366 JUMP JUMPDEST PUSH4 0xFFFFFFFF SWAP1 DUP2 AND SWAP1 SWAP2 MSTORE PUSH1 0x1 PUSH1 0x1 PUSH1 0xA0 SHL SUB DUP12 AND PUSH1 0x0 SWAP1 DUP2 MSTORE PUSH1 0x10 PUSH1 0x20 SWAP1 DUP2 MSTORE PUSH1 0x40 SWAP1 SWAP2 KECCAK256 DUP4 MLOAD DUP2 SLOAD SWAP5 SWAP1 SWAP3 ADD MLOAD SWAP1 SWAP3 AND PUSH1 0x1 PUSH1 0xE0 SHL MUL PUSH1 0x1 PUSH1 0x1 PUSH1 0xE0 SHL SUB SWAP2 DUP3 AND PUSH1 0x1 PUSH1 0x1 PUSH1 0xE0 SHL SUB NOT SWAP1 SWAP5 AND SWAP4 SWAP1 SWAP4 OR AND SWAP2 SWAP1 SWAP2 OR SWAP1 SSTORE POP PUSH2 0xC2D SWAP3 POP POP POP JUMP JUMPDEST DUP1 ISZERO PUSH2 0xC2D JUMPI PUSH2 0x3454 DUP3 PUSH1 0x40 MLOAD DUP1 PUSH1 0x40 ADD PUSH1 0x40 MSTORE DUP1 PUSH1 0x1C DUP2 MSTORE PUSH1 0x20 ADD PUSH1 0x0 DUP1 MLOAD PUSH1 0x20 PUSH2 0x5962 DUP4 CODECOPY DUP2 MLOAD SWAP2 MSTORE DUP2 MSTORE POP PUSH2 0x4366 JUMP JUMPDEST DUP5 SLOAD PUSH4 0xFFFFFFFF SWAP2 SWAP1 SWAP2 AND PUSH1 0x1 PUSH1 0xE0 SHL MUL PUSH1 0x1 PUSH1 0x1 PUSH1 0xE0 SHL SUB SWAP1 SWAP2 AND OR DUP5 SSTORE POP POP POP POP POP JUMP JUMPDEST PUSH1 0x1 PUSH1 0x1 PUSH1 0xA0 SHL SUB DUP3 AND PUSH1 0x0 SWAP1 DUP2 MSTORE PUSH1 0x10 PUSH1 0x20 MSTORE PUSH1 0x40 SWAP1 KECCAK256 PUSH2 0x349A PUSH2 0x4540 JUMP JUMPDEST POP PUSH1 0x40 DUP1 MLOAD PUSH1 0x20 DUP2 ADD SWAP1 SWAP2 MSTORE DUP2 SLOAD PUSH1 0x1 PUSH1 0x1 PUSH1 0xE0 SHL SUB AND DUP2 MSTORE PUSH2 0x34BB PUSH2 0x4540 JUMP JUMPDEST POP PUSH1 0x40 DUP1 MLOAD PUSH1 0x20 DUP1 DUP3 ADD DUP4 MSTORE PUSH1 0x1 PUSH1 0x1 PUSH1 0xA0 SHL SUB DUP1 DUP9 AND PUSH1 0x0 SWAP1 DUP2 MSTORE PUSH1 0x12 DUP4 MSTORE DUP5 DUP2 KECCAK256 SWAP2 DUP9 AND DUP1 DUP3 MSTORE DUP3 DUP5 MSTORE SWAP5 DUP2 KECCAK256 DUP1 SLOAD DUP6 MSTORE DUP7 MLOAD SWAP6 SWAP1 SWAP2 MSTORE SWAP2 MSTORE SWAP2 SWAP1 SWAP2 SSTORE DUP1 MLOAD ISZERO DUP1 ISZERO PUSH2 0x3509 JUMPI POP DUP2 MLOAD ISZERO ISZERO JUMPDEST ISZERO PUSH2 0x3521 JUMPI PUSH15 0xC097CE7BC90715B34B9F1000000000 DUP2 MSTORE JUMPDEST PUSH2 0x3529 PUSH2 0x4540 JUMP JUMPDEST PUSH2 0x3533 DUP4 DUP4 PUSH2 0x438E JUMP JUMPDEST SWAP1 POP PUSH1 0x0 DUP7 PUSH1 0x1 PUSH1 0x1 PUSH1 0xA0 SHL SUB AND PUSH4 0x70A08231 DUP8 PUSH1 0x40 MLOAD DUP3 PUSH4 0xFFFFFFFF AND PUSH1 0xE0 SHL DUP2 MSTORE PUSH1 0x4 ADD PUSH2 0x3563 SWAP2 SWAP1 PUSH2 0x54A3 JUMP JUMPDEST PUSH1 0x20 PUSH1 0x40 MLOAD DUP1 DUP4 SUB DUP2 DUP7 DUP1 EXTCODESIZE ISZERO DUP1 ISZERO PUSH2 0x357B JUMPI PUSH1 0x0 DUP1 REVERT JUMPDEST POP GAS STATICCALL ISZERO DUP1 ISZERO PUSH2 0x358F JUMPI RETURNDATASIZE PUSH1 0x0 DUP1 RETURNDATACOPY RETURNDATASIZE PUSH1 0x0 REVERT JUMPDEST POP POP POP POP PUSH1 0x40 MLOAD RETURNDATASIZE PUSH1 0x1F NOT PUSH1 0x1F DUP3 ADD AND DUP3 ADD DUP1 PUSH1 0x40 MSTORE POP PUSH2 0x35B3 SWAP2 SWAP1 DUP2 ADD SWAP1 PUSH2 0x4D00 JUMP JUMPDEST SWAP1 POP PUSH1 0x0 PUSH2 0x35C1 DUP3 DUP5 PUSH2 0x43B3 JUMP JUMPDEST PUSH1 0x1 PUSH1 0x1 PUSH1 0xA0 SHL SUB DUP9 AND PUSH1 0x0 SWAP1 DUP2 MSTORE PUSH1 0x14 PUSH1 0x20 MSTORE PUSH1 0x40 DUP2 KECCAK256 SLOAD SWAP2 SWAP3 POP SWAP1 PUSH2 0x35E8 SWAP1 DUP4 PUSH2 0x3F53 JUMP JUMPDEST PUSH1 0x1 PUSH1 0x1 PUSH1 0xA0 SHL SUB DUP1 DUP11 AND PUSH1 0x0 DUP2 DUP2 MSTORE PUSH1 0x14 PUSH1 0x20 MSTORE PUSH1 0x40 SWAP1 DUP2 SWAP1 KECCAK256 DUP5 SWAP1 SSTORE DUP10 MLOAD SWAP1 MLOAD SWAP4 SWAP5 POP SWAP1 SWAP3 SWAP2 DUP13 AND SWAP2 PUSH32 0x99836ADD3CD317F88DCD742D7BFFF2D519C5BC8F3924745ECA13B902DBED0CFB SWAP2 PUSH2 0x3641 SWAP2 DUP8 SWAP2 SWAP1 PUSH2 0x580B JUMP JUMPDEST PUSH1 0x40 MLOAD DUP1 SWAP2 SUB SWAP1 LOG3 POP POP POP POP POP POP POP POP POP JUMP JUMPDEST PUSH1 0x0 DUP1 PUSH2 0x365F PUSH2 0x2DBE JUMP JUMPDEST SWAP1 POP PUSH1 0x0 DUP2 PUSH1 0x1 PUSH1 0x1 PUSH1 0xA0 SHL SUB AND PUSH4 0x70A08231 ADDRESS PUSH1 0x40 MLOAD DUP3 PUSH4 0xFFFFFFFF AND PUSH1 0xE0 SHL DUP2 MSTORE PUSH1 0x4 ADD PUSH2 0x368F SWAP2 SWAP1 PUSH2 0x54A3 JUMP JUMPDEST PUSH1 0x20 PUSH1 0x40 MLOAD DUP1 DUP4 SUB DUP2 DUP7 DUP1 EXTCODESIZE ISZERO DUP1 ISZERO PUSH2 0x36A7 JUMPI PUSH1 0x0 DUP1 REVERT JUMPDEST POP GAS STATICCALL ISZERO DUP1 ISZERO PUSH2 0x36BB JUMPI RETURNDATASIZE PUSH1 0x0 DUP1 RETURNDATACOPY RETURNDATASIZE PUSH1 0x0 REVERT JUMPDEST POP POP POP POP PUSH1 0x40 MLOAD RETURNDATASIZE PUSH1 0x1F NOT PUSH1 0x1F DUP3 ADD AND DUP3 ADD DUP1 PUSH1 0x40 MSTORE POP PUSH2 0x36DF SWAP2 SWAP1 DUP2 ADD SWAP1 PUSH2 0x4D00 JUMP JUMPDEST SWAP1 POP PUSH1 0x0 DUP5 GT DUP1 ISZERO PUSH2 0x36F1 JUMPI POP DUP1 DUP5 GT ISZERO JUMPDEST ISZERO PUSH2 0x3782 JUMPI PUSH1 0x40 MLOAD PUSH4 0xA9059CBB PUSH1 0xE0 SHL DUP2 MSTORE PUSH1 0x1 PUSH1 0x1 PUSH1 0xA0 SHL SUB DUP4 AND SWAP1 PUSH4 0xA9059CBB SWAP1 PUSH2 0x3724 SWAP1 DUP9 SWAP1 DUP9 SWAP1 PUSH1 0x4 ADD PUSH2 0x54DA JUMP JUMPDEST PUSH1 0x20 PUSH1 0x40 MLOAD DUP1 DUP4 SUB DUP2 PUSH1 0x0 DUP8 DUP1 EXTCODESIZE ISZERO DUP1 ISZERO PUSH2 0x373E JUMPI PUSH1 0x0 DUP1 REVERT JUMPDEST POP GAS CALL ISZERO DUP1 ISZERO PUSH2 0x3752 JUMPI RETURNDATASIZE PUSH1 0x0 DUP1 RETURNDATACOPY RETURNDATASIZE PUSH1 0x0 REVERT JUMPDEST POP POP POP POP PUSH1 0x40 MLOAD RETURNDATASIZE PUSH1 0x1F NOT PUSH1 0x1F DUP3 ADD AND DUP3 ADD DUP1 PUSH1 0x40 MSTORE POP PUSH2 0x3776 SWAP2 SWAP1 DUP2 ADD SWAP1 PUSH2 0x4C39 JUMP JUMPDEST POP PUSH1 0x0 SWAP3 POP POP POP PUSH2 0xAF3 JUMP JUMPDEST POP SWAP2 SWAP4 SWAP3 POP POP POP JUMP JUMPDEST PUSH1 0x0 DUP1 SLOAD PUSH1 0x1 PUSH1 0x1 PUSH1 0xA0 SHL SUB AND CALLER EQ DUP1 PUSH2 0x37AF JUMPI POP PUSH1 0x2 SLOAD PUSH1 0x1 PUSH1 0x1 PUSH1 0xA0 SHL SUB AND CALLER EQ JUMPDEST SWAP1 POP SWAP1 JUMP JUMPDEST PUSH1 0x1 PUSH1 0x1 PUSH1 0xA0 SHL SUB DUP3 AND PUSH1 0x0 SWAP1 DUP2 MSTORE PUSH1 0xF PUSH1 0x20 MSTORE PUSH1 0x40 SWAP1 KECCAK256 SLOAD DUP1 ISZERO PUSH2 0x3874 JUMPI PUSH2 0x37DB PUSH2 0x4540 JUMP JUMPDEST PUSH1 0x40 MLOAD DUP1 PUSH1 0x20 ADD PUSH1 0x40 MSTORE DUP1 DUP6 PUSH1 0x1 PUSH1 0x1 PUSH1 0xA0 SHL SUB AND PUSH4 0xAA5AF0FD PUSH1 0x40 MLOAD DUP2 PUSH4 0xFFFFFFFF AND PUSH1 0xE0 SHL DUP2 MSTORE PUSH1 0x4 ADD PUSH1 0x20 PUSH1 0x40 MLOAD DUP1 DUP4 SUB DUP2 DUP7 DUP1 EXTCODESIZE ISZERO DUP1 ISZERO PUSH2 0x381F JUMPI PUSH1 0x0 DUP1 REVERT JUMPDEST POP GAS STATICCALL ISZERO DUP1 ISZERO PUSH2 0x3833 JUMPI RETURNDATASIZE PUSH1 0x0 DUP1 RETURNDATACOPY RETURNDATASIZE PUSH1 0x0 REVERT JUMPDEST POP POP POP POP PUSH1 0x40 MLOAD RETURNDATASIZE PUSH1 0x1F NOT PUSH1 0x1F DUP3 ADD AND DUP3 ADD DUP1 PUSH1 0x40 MSTORE POP PUSH2 0x3857 SWAP2 SWAP1 DUP2 ADD SWAP1 PUSH2 0x4D00 JUMP JUMPDEST SWAP1 MSTORE SWAP1 POP PUSH2 0x3864 DUP5 PUSH2 0x31F0 JUMP JUMPDEST PUSH2 0x386E DUP5 DUP3 PUSH2 0x2DD6 JUMP JUMPDEST POP PUSH2 0x3AAF JUMP JUMPDEST DUP2 ISZERO PUSH2 0x3AAF JUMPI PUSH1 0x1 PUSH1 0x1 PUSH1 0xA0 SHL SUB DUP4 AND PUSH1 0x0 SWAP1 DUP2 MSTORE PUSH1 0x9 PUSH1 0x20 MSTORE PUSH1 0x40 SWAP1 KECCAK256 DUP1 SLOAD PUSH1 0xFF AND ISZERO ISZERO PUSH1 0x1 EQ PUSH2 0x38B8 JUMPI PUSH1 0x40 MLOAD PUSH3 0x461BCD PUSH1 0xE5 SHL DUP2 MSTORE PUSH1 0x4 ADD PUSH2 0xA13 SWAP1 PUSH2 0x5645 JUMP JUMPDEST PUSH1 0x1 PUSH1 0x1 PUSH1 0xA0 SHL SUB DUP5 AND PUSH1 0x0 SWAP1 DUP2 MSTORE PUSH1 0x10 PUSH1 0x20 MSTORE PUSH1 0x40 SWAP1 KECCAK256 SLOAD PUSH1 0x1 PUSH1 0x1 PUSH1 0xE0 SHL SUB AND ISZERO DUP1 ISZERO PUSH2 0x390A JUMPI POP PUSH1 0x1 PUSH1 0x1 PUSH1 0xA0 SHL SUB DUP5 AND PUSH1 0x0 SWAP1 DUP2 MSTORE PUSH1 0x10 PUSH1 0x20 MSTORE PUSH1 0x40 SWAP1 KECCAK256 SLOAD PUSH1 0x1 PUSH1 0xE0 SHL SWAP1 DIV PUSH4 0xFFFFFFFF AND ISZERO JUMPDEST ISZERO PUSH2 0x39C7 JUMPI PUSH1 0x40 MLOAD DUP1 PUSH1 0x40 ADD PUSH1 0x40 MSTORE DUP1 PUSH15 0xC097CE7BC90715B34B9F1000000000 PUSH1 0x1 PUSH1 0x1 PUSH1 0xE0 SHL SUB AND DUP2 MSTORE PUSH1 0x20 ADD PUSH2 0x396C PUSH2 0x3943 PUSH2 0x12D5 JUMP JUMPDEST PUSH1 0x40 MLOAD DUP1 PUSH1 0x40 ADD PUSH1 0x40 MSTORE DUP1 PUSH1 0x1C DUP2 MSTORE PUSH1 0x20 ADD PUSH1 0x0 DUP1 MLOAD PUSH1 0x20 PUSH2 0x5962 DUP4 CODECOPY DUP2 MLOAD SWAP2 MSTORE DUP2 MSTORE POP PUSH2 0x4366 JUMP JUMPDEST PUSH4 0xFFFFFFFF SWAP1 DUP2 AND SWAP1 SWAP2 MSTORE PUSH1 0x1 PUSH1 0x1 PUSH1 0xA0 SHL SUB DUP7 AND PUSH1 0x0 SWAP1 DUP2 MSTORE PUSH1 0x10 PUSH1 0x20 SWAP1 DUP2 MSTORE PUSH1 0x40 SWAP1 SWAP2 KECCAK256 DUP4 MLOAD DUP2 SLOAD SWAP5 SWAP1 SWAP3 ADD MLOAD SWAP1 SWAP3 AND PUSH1 0x1 PUSH1 0xE0 SHL MUL PUSH1 0x1 PUSH1 0x1 PUSH1 0xE0 SHL SUB SWAP2 DUP3 AND PUSH1 0x1 PUSH1 0x1 PUSH1 0xE0 SHL SUB NOT SWAP1 SWAP5 AND SWAP4 SWAP1 SWAP4 OR AND SWAP2 SWAP1 SWAP2 OR SWAP1 SSTORE JUMPDEST PUSH1 0x1 PUSH1 0x1 PUSH1 0xA0 SHL SUB DUP5 AND PUSH1 0x0 SWAP1 DUP2 MSTORE PUSH1 0x11 PUSH1 0x20 MSTORE PUSH1 0x40 SWAP1 KECCAK256 SLOAD PUSH1 0x1 PUSH1 0x1 PUSH1 0xE0 SHL SUB AND ISZERO DUP1 ISZERO PUSH2 0x3A19 JUMPI POP PUSH1 0x1 PUSH1 0x1 PUSH1 0xA0 SHL SUB DUP5 AND PUSH1 0x0 SWAP1 DUP2 MSTORE PUSH1 0x11 PUSH1 0x20 MSTORE PUSH1 0x40 SWAP1 KECCAK256 SLOAD PUSH1 0x1 PUSH1 0xE0 SHL SWAP1 DIV PUSH4 0xFFFFFFFF AND ISZERO JUMPDEST ISZERO PUSH2 0x3AAD JUMPI PUSH1 0x40 MLOAD DUP1 PUSH1 0x40 ADD PUSH1 0x40 MSTORE DUP1 PUSH15 0xC097CE7BC90715B34B9F1000000000 PUSH1 0x1 PUSH1 0x1 PUSH1 0xE0 SHL SUB AND DUP2 MSTORE PUSH1 0x20 ADD PUSH2 0x3A52 PUSH2 0x3943 PUSH2 0x12D5 JUMP JUMPDEST PUSH4 0xFFFFFFFF SWAP1 DUP2 AND SWAP1 SWAP2 MSTORE PUSH1 0x1 PUSH1 0x1 PUSH1 0xA0 SHL SUB DUP7 AND PUSH1 0x0 SWAP1 DUP2 MSTORE PUSH1 0x11 PUSH1 0x20 SWAP1 DUP2 MSTORE PUSH1 0x40 SWAP1 SWAP2 KECCAK256 DUP4 MLOAD DUP2 SLOAD SWAP5 SWAP1 SWAP3 ADD MLOAD SWAP1 SWAP3 AND PUSH1 0x1 PUSH1 0xE0 SHL MUL PUSH1 0x1 PUSH1 0x1 PUSH1 0xE0 SHL SUB SWAP2 DUP3 AND PUSH1 0x1 PUSH1 0x1 PUSH1 0xE0 SHL SUB NOT SWAP1 SWAP5 AND SWAP4 SWAP1 SWAP4 OR AND SWAP2 SWAP1 SWAP2 OR SWAP1 SSTORE JUMPDEST POP JUMPDEST DUP2 DUP2 EQ PUSH2 0x14AA JUMPI PUSH1 0x1 PUSH1 0x1 PUSH1 0xA0 SHL SUB DUP4 AND PUSH1 0x0 DUP2 DUP2 MSTORE PUSH1 0xF PUSH1 0x20 MSTORE PUSH1 0x40 SWAP1 DUP2 SWAP1 KECCAK256 DUP5 SWAP1 SSTORE MLOAD PUSH32 0x4D5EA7827ED1B0BAFEB815308E9E522FA2E0BDA4C5BF51682DFA19E9D04A545 SWAP1 PUSH2 0x3B01 SWAP1 DUP6 SWAP1 PUSH2 0x57FD JUMP JUMPDEST PUSH1 0x40 MLOAD DUP1 SWAP2 SUB SWAP1 LOG2 POP POP POP JUMP JUMPDEST PUSH1 0x0 DUP1 PUSH1 0x0 PUSH2 0x3B1B PUSH2 0x4577 JUMP JUMPDEST PUSH1 0x1 PUSH1 0x1 PUSH1 0xA0 SHL SUB DUP9 AND PUSH1 0x0 SWAP1 DUP2 MSTORE PUSH1 0x8 PUSH1 0x20 SWAP1 DUP2 MSTORE PUSH1 0x40 DUP1 DUP4 KECCAK256 DUP1 SLOAD DUP3 MLOAD DUP2 DUP6 MUL DUP2 ADD DUP6 ADD SWAP1 SWAP4 MSTORE DUP1 DUP4 MSTORE PUSH1 0x60 SWAP4 DUP4 ADD DUP3 DUP3 DUP1 ISZERO PUSH2 0x3B83 JUMPI PUSH1 0x20 MUL DUP3 ADD SWAP2 SWAP1 PUSH1 0x0 MSTORE PUSH1 0x20 PUSH1 0x0 KECCAK256 SWAP1 JUMPDEST DUP2 SLOAD PUSH1 0x1 PUSH1 0x1 PUSH1 0xA0 SHL SUB AND DUP2 MSTORE PUSH1 0x1 SWAP1 SWAP2 ADD SWAP1 PUSH1 0x20 ADD DUP1 DUP4 GT PUSH2 0x3B65 JUMPI JUMPDEST POP SWAP4 SWAP5 POP PUSH1 0x0 SWAP4 POP POP POP POP JUMPDEST DUP2 MLOAD DUP2 LT ISZERO PUSH2 0x3DF9 JUMPI PUSH1 0x0 DUP3 DUP3 DUP2 MLOAD DUP2 LT PUSH2 0x3BA6 JUMPI INVALID JUMPDEST PUSH1 0x20 MUL PUSH1 0x20 ADD ADD MLOAD SWAP1 POP DUP1 PUSH1 0x1 PUSH1 0x1 PUSH1 0xA0 SHL SUB AND PUSH4 0xC37F68E2 DUP14 PUSH1 0x40 MLOAD DUP3 PUSH4 0xFFFFFFFF AND PUSH1 0xE0 SHL DUP2 MSTORE PUSH1 0x4 ADD PUSH2 0x3BDC SWAP2 SWAP1 PUSH2 0x54A3 JUMP JUMPDEST PUSH1 0x80 PUSH1 0x40 MLOAD DUP1 DUP4 SUB DUP2 DUP7 DUP1 EXTCODESIZE ISZERO DUP1 ISZERO PUSH2 0x3BF4 JUMPI PUSH1 0x0 DUP1 REVERT JUMPDEST POP GAS STATICCALL ISZERO DUP1 ISZERO PUSH2 0x3C08 JUMPI RETURNDATASIZE PUSH1 0x0 DUP1 RETURNDATACOPY RETURNDATASIZE PUSH1 0x0 REVERT JUMPDEST POP POP POP POP PUSH1 0x40 MLOAD RETURNDATASIZE PUSH1 0x1F NOT PUSH1 0x1F DUP3 ADD AND DUP3 ADD DUP1 PUSH1 0x40 MSTORE POP PUSH2 0x3C2C SWAP2 SWAP1 DUP2 ADD SWAP1 PUSH2 0x4D1E JUMP JUMPDEST PUSH1 0x80 DUP10 ADD MSTORE PUSH1 0x60 DUP9 ADD MSTORE PUSH1 0x40 DUP8 ADD MSTORE SWAP4 POP DUP4 ISZERO PUSH2 0x3C59 JUMPI POP PUSH1 0xF SWAP7 POP PUSH1 0x0 SWAP6 POP DUP6 SWAP5 POP PUSH2 0x132F SWAP4 POP POP POP POP JUMP JUMPDEST PUSH1 0x40 DUP1 MLOAD PUSH1 0x20 DUP1 DUP3 ADD DUP4 MSTORE PUSH1 0x1 PUSH1 0x1 PUSH1 0xA0 SHL SUB DUP1 DUP6 AND PUSH1 0x0 SWAP1 DUP2 MSTORE PUSH1 0x9 DUP4 MSTORE DUP5 SWAP1 KECCAK256 PUSH1 0x1 ADD SLOAD DUP4 MSTORE PUSH1 0xC0 DUP10 ADD SWAP3 SWAP1 SWAP3 MSTORE DUP3 MLOAD SWAP1 DUP2 ADD DUP4 MSTORE PUSH1 0x80 DUP9 ADD MLOAD DUP2 MSTORE PUSH1 0xE0 DUP9 ADD MSTORE PUSH1 0x4 DUP1 SLOAD SWAP3 MLOAD PUSH4 0xFC57D4DF PUSH1 0xE0 SHL DUP2 MSTORE SWAP3 SWAP1 SWAP2 AND SWAP2 PUSH4 0xFC57D4DF SWAP2 PUSH2 0x3CC3 SWAP2 DUP6 SWAP2 ADD PUSH2 0x554D JUMP JUMPDEST PUSH1 0x20 PUSH1 0x40 MLOAD DUP1 DUP4 SUB DUP2 DUP7 DUP1 EXTCODESIZE ISZERO DUP1 ISZERO PUSH2 0x3CDB JUMPI PUSH1 0x0 DUP1 REVERT JUMPDEST POP GAS STATICCALL ISZERO DUP1 ISZERO PUSH2 0x3CEF JUMPI RETURNDATASIZE PUSH1 0x0 DUP1 RETURNDATACOPY RETURNDATASIZE PUSH1 0x0 REVERT JUMPDEST POP POP POP POP PUSH1 0x40 MLOAD RETURNDATASIZE PUSH1 0x1F NOT PUSH1 0x1F DUP3 ADD AND DUP3 ADD DUP1 PUSH1 0x40 MSTORE POP PUSH2 0x3D13 SWAP2 SWAP1 DUP2 ADD SWAP1 PUSH2 0x4D00 JUMP JUMPDEST PUSH1 0xA0 DUP7 ADD DUP2 SWAP1 MSTORE PUSH2 0x3D34 JUMPI POP PUSH1 0xD SWAP7 POP PUSH1 0x0 SWAP6 POP DUP6 SWAP5 POP PUSH2 0x132F SWAP4 POP POP POP POP JUMP JUMPDEST PUSH1 0x40 DUP1 MLOAD PUSH1 0x20 DUP2 ADD SWAP1 SWAP2 MSTORE PUSH1 0xA0 DUP7 ADD MLOAD DUP2 MSTORE PUSH2 0x100 DUP7 ADD MSTORE PUSH1 0xC0 DUP6 ADD MLOAD PUSH1 0xE0 DUP7 ADD MLOAD PUSH2 0x3D6E SWAP2 PUSH2 0x3D63 SWAP2 PUSH2 0x41DE JUMP JUMPDEST DUP7 PUSH2 0x100 ADD MLOAD PUSH2 0x41DE JUMP JUMPDEST PUSH2 0x120 DUP7 ADD DUP2 SWAP1 MSTORE PUSH1 0x40 DUP7 ADD MLOAD DUP7 MLOAD PUSH2 0x3D88 SWAP3 SWAP2 SWAP1 PUSH2 0x43E2 JUMP JUMPDEST DUP6 MSTORE PUSH2 0x100 DUP6 ADD MLOAD PUSH1 0x60 DUP7 ADD MLOAD PUSH1 0x20 DUP8 ADD MLOAD PUSH2 0x3DA5 SWAP3 SWAP2 SWAP1 PUSH2 0x43E2 JUMP JUMPDEST PUSH1 0x20 DUP7 ADD MSTORE PUSH1 0x1 PUSH1 0x1 PUSH1 0xA0 SHL SUB DUP2 DUP2 AND SWAP1 DUP13 AND EQ ISZERO PUSH2 0x3DF0 JUMPI PUSH2 0x3DD2 DUP6 PUSH2 0x120 ADD MLOAD DUP12 DUP8 PUSH1 0x20 ADD MLOAD PUSH2 0x43E2 JUMP JUMPDEST PUSH1 0x20 DUP7 ADD DUP2 SWAP1 MSTORE PUSH2 0x100 DUP7 ADD MLOAD PUSH2 0x3DEA SWAP2 DUP12 SWAP1 PUSH2 0x43E2 JUMP JUMPDEST PUSH1 0x20 DUP7 ADD MSTORE JUMPDEST POP PUSH1 0x1 ADD PUSH2 0x3B8F JUMP JUMPDEST POP PUSH1 0x20 DUP4 ADD MLOAD DUP4 MLOAD GT ISZERO PUSH2 0x3E1F JUMPI POP POP PUSH1 0x20 DUP2 ADD MLOAD SWAP1 MLOAD PUSH1 0x0 SWAP5 POP SUB SWAP2 POP DUP3 SWAP1 POP PUSH2 0x132F JUMP JUMPDEST POP POP DUP1 MLOAD PUSH1 0x20 SWAP1 SWAP2 ADD MLOAD PUSH1 0x0 SWAP5 POP DUP5 SWAP4 POP SUB SWAP1 POP PUSH2 0x132F JUMP JUMPDEST PUSH1 0x0 PUSH32 0x45B96FE442630264581B197E84BBADA861235052C5A1AADFFF9EA4E40A969AA0 DUP4 PUSH1 0x11 DUP2 GT ISZERO PUSH2 0x3E67 JUMPI INVALID JUMPDEST DUP4 PUSH1 0x13 DUP2 GT ISZERO PUSH2 0x3E73 JUMPI INVALID JUMPDEST PUSH1 0x0 PUSH1 0x40 MLOAD PUSH2 0x3E84 SWAP4 SWAP3 SWAP2 SWAP1 PUSH2 0x5819 JUMP JUMPDEST PUSH1 0x40 MLOAD DUP1 SWAP2 SUB SWAP1 LOG1 DUP3 PUSH1 0x11 DUP2 GT ISZERO PUSH2 0x13B5 JUMPI INVALID JUMPDEST PUSH1 0x0 DUP1 PUSH1 0x0 PUSH2 0x3EAB DUP5 PUSH1 0x0 DUP1 PUSH1 0x0 PUSH2 0x3B0E JUMP JUMPDEST SWAP3 POP SWAP3 POP SWAP3 POP SWAP2 SWAP4 SWAP1 SWAP3 POP JUMP JUMPDEST PUSH1 0x0 PUSH2 0x3EC2 PUSH2 0x4540 JUMP JUMPDEST PUSH2 0x3ECC DUP5 DUP5 PUSH2 0x440A JUMP JUMPDEST SWAP1 POP PUSH2 0xF30 DUP2 PUSH2 0x442B JUMP JUMPDEST PUSH1 0x0 PUSH2 0x13B5 DUP4 DUP4 PUSH1 0x40 MLOAD DUP1 PUSH1 0x40 ADD PUSH1 0x40 MSTORE DUP1 PUSH1 0x15 DUP2 MSTORE PUSH1 0x20 ADD PUSH21 0x7375627472616374696F6E20756E646572666C6F77 PUSH1 0x58 SHL DUP2 MSTORE POP PUSH2 0x443A JUMP JUMPDEST PUSH1 0x0 PUSH2 0x13B5 DUP4 DUP4 PUSH1 0x40 MLOAD DUP1 PUSH1 0x40 ADD PUSH1 0x40 MSTORE DUP1 PUSH1 0x17 DUP2 MSTORE PUSH1 0x20 ADD PUSH32 0x6D756C7469706C69636174696F6E206F766572666C6F77000000000000000000 DUP2 MSTORE POP PUSH2 0x4466 JUMP JUMPDEST PUSH1 0x0 PUSH2 0x13B5 DUP4 DUP4 PUSH1 0x40 MLOAD DUP1 PUSH1 0x40 ADD PUSH1 0x40 MSTORE DUP1 PUSH1 0x11 DUP2 MSTORE PUSH1 0x20 ADD PUSH17 0x6164646974696F6E206F766572666C6F77 PUSH1 0x78 SHL DUP2 MSTORE POP PUSH2 0x44B7 JUMP JUMPDEST PUSH1 0x0 JUMPDEST PUSH1 0xD SLOAD DUP2 LT ISZERO PUSH2 0x3FE8 JUMPI DUP2 PUSH1 0x1 PUSH1 0x1 PUSH1 0xA0 SHL SUB AND PUSH1 0xD DUP3 DUP2 SLOAD DUP2 LT PUSH2 0x3FAD JUMPI INVALID JUMPDEST PUSH1 0x0 SWAP2 DUP3 MSTORE PUSH1 0x20 SWAP1 SWAP2 KECCAK256 ADD SLOAD PUSH1 0x1 PUSH1 0x1 PUSH1 0xA0 SHL SUB AND EQ ISZERO PUSH2 0x3FE0 JUMPI PUSH1 0x40 MLOAD PUSH3 0x461BCD PUSH1 0xE5 SHL DUP2 MSTORE PUSH1 0x4 ADD PUSH2 0xA13 SWAP1 PUSH2 0x5625 JUMP JUMPDEST PUSH1 0x1 ADD PUSH2 0x3F8C JUMP JUMPDEST POP PUSH1 0xD DUP1 SLOAD PUSH1 0x1 DUP2 ADD DUP3 SSTORE PUSH1 0x0 SWAP2 SWAP1 SWAP2 MSTORE PUSH32 0xD7B6990105719101DABEB77144F2A3385C8033ACD3AF97E9423A695E81AD1EB5 ADD DUP1 SLOAD PUSH1 0x1 PUSH1 0x1 PUSH1 0xA0 SHL SUB NOT AND PUSH1 0x1 PUSH1 0x1 PUSH1 0xA0 SHL SUB SWAP3 SWAP1 SWAP3 AND SWAP2 SWAP1 SWAP2 OR SWAP1 SSTORE JUMP JUMPDEST PUSH1 0x1 PUSH1 0x1 PUSH1 0xA0 SHL SUB DUP4 AND PUSH1 0x0 SWAP1 DUP2 MSTORE PUSH1 0x9 PUSH1 0x20 MSTORE PUSH1 0x40 DUP2 KECCAK256 SLOAD PUSH1 0xFF AND PUSH2 0x4062 JUMPI PUSH1 0x9 PUSH2 0x1395 JUMP JUMPDEST PUSH1 0x1 PUSH1 0x1 PUSH1 0xA0 SHL SUB DUP1 DUP6 AND PUSH1 0x0 SWAP1 DUP2 MSTORE PUSH1 0x9 PUSH1 0x20 SWAP1 DUP2 MSTORE PUSH1 0x40 DUP1 DUP4 KECCAK256 SWAP4 DUP8 AND DUP4 MSTORE PUSH1 0x2 SWAP1 SWAP4 ADD SWAP1 MSTORE KECCAK256 SLOAD PUSH1 0xFF AND PUSH2 0x409A JUMPI PUSH1 0x0 PUSH2 0x1395 JUMP JUMPDEST PUSH1 0x0 DUP1 PUSH2 0x40AA DUP6 DUP8 DUP7 PUSH1 0x0 PUSH2 0x3B0E JUMP JUMPDEST SWAP2 SWAP4 POP SWAP1 SWAP2 POP PUSH1 0x0 SWAP1 POP DUP3 PUSH1 0x11 DUP2 GT ISZERO PUSH2 0x40C0 JUMPI INVALID JUMPDEST EQ PUSH2 0x40DA JUMPI DUP2 PUSH1 0x11 DUP2 GT ISZERO PUSH2 0x40D1 JUMPI INVALID JUMPDEST SWAP3 POP POP POP PUSH2 0x13B5 JUMP JUMPDEST DUP1 ISZERO PUSH2 0x2509 JUMPI PUSH1 0x4 PUSH2 0x40D1 JUMP JUMPDEST PUSH1 0x1 PUSH1 0x1 PUSH1 0xA0 SHL SUB DUP3 AND PUSH1 0x0 SWAP1 DUP2 MSTORE PUSH1 0x9 PUSH1 0x20 MSTORE PUSH1 0x40 DUP2 KECCAK256 DUP1 SLOAD PUSH1 0xFF AND PUSH2 0x4112 JUMPI PUSH1 0x9 SWAP2 POP POP PUSH2 0xAF3 JUMP JUMPDEST PUSH1 0x1 PUSH1 0x1 PUSH1 0xA0 SHL SUB DUP4 AND PUSH1 0x0 SWAP1 DUP2 MSTORE PUSH1 0x2 DUP3 ADD PUSH1 0x20 MSTORE PUSH1 0x40 SWAP1 KECCAK256 SLOAD PUSH1 0xFF AND ISZERO ISZERO PUSH1 0x1 EQ ISZERO PUSH2 0x4144 JUMPI PUSH1 0x0 SWAP2 POP POP PUSH2 0xAF3 JUMP JUMPDEST PUSH1 0x1 PUSH1 0x1 PUSH1 0xA0 SHL SUB DUP4 DUP2 AND PUSH1 0x0 SWAP1 DUP2 MSTORE PUSH1 0x2 DUP4 ADD PUSH1 0x20 SWAP1 DUP2 MSTORE PUSH1 0x40 DUP1 DUP4 KECCAK256 DUP1 SLOAD PUSH1 0x1 PUSH1 0xFF NOT SWAP1 SWAP2 AND DUP2 OR SWAP1 SWAP2 SSTORE PUSH1 0x8 DUP4 MSTORE DUP2 DUP5 KECCAK256 DUP1 SLOAD SWAP2 DUP3 ADD DUP2 SSTORE DUP5 MSTORE SWAP2 SWAP1 SWAP3 KECCAK256 ADD DUP1 SLOAD PUSH1 0x1 PUSH1 0x1 PUSH1 0xA0 SHL SUB NOT AND SWAP3 DUP8 AND SWAP3 SWAP1 SWAP3 OR SWAP1 SWAP2 SSTORE MLOAD PUSH32 0x3AB23AB0D51CCCC0C3085AEC51F99228625AA1A922B3A8CA89A26B0F2027A1A5 SWAP1 PUSH2 0x41CC SWAP1 DUP7 SWAP1 DUP7 SWAP1 PUSH2 0x5576 JUMP JUMPDEST PUSH1 0x40 MLOAD DUP1 SWAP2 SUB SWAP1 LOG1 POP PUSH1 0x0 SWAP4 SWAP3 POP POP POP JUMP JUMPDEST PUSH2 0x41E6 PUSH2 0x4540 JUMP JUMPDEST PUSH1 0x40 MLOAD DUP1 PUSH1 0x20 ADD PUSH1 0x40 MSTORE DUP1 PUSH8 0xDE0B6B3A7640000 PUSH2 0x420C DUP7 PUSH1 0x0 ADD MLOAD DUP7 PUSH1 0x0 ADD MLOAD PUSH2 0x3F11 JUMP JUMPDEST DUP2 PUSH2 0x4213 JUMPI INVALID JUMPDEST DIV SWAP1 MSTORE SWAP4 SWAP3 POP POP POP JUMP JUMPDEST PUSH2 0x4225 PUSH2 0x4540 JUMP JUMPDEST PUSH1 0x40 MLOAD DUP1 PUSH1 0x20 ADD PUSH1 0x40 MSTORE DUP1 PUSH2 0x4250 PUSH2 0x4249 DUP7 PUSH1 0x0 ADD MLOAD PUSH8 0xDE0B6B3A7640000 PUSH2 0x3F11 JUMP JUMPDEST DUP6 MLOAD PUSH2 0x44DE JUMP JUMPDEST SWAP1 MSTORE SWAP4 SWAP3 POP POP POP JUMP JUMPDEST MLOAD SWAP1 MLOAD LT SWAP1 JUMP JUMPDEST PUSH1 0x0 PUSH32 0x45B96FE442630264581B197E84BBADA861235052C5A1AADFFF9EA4E40A969AA0 DUP5 PUSH1 0x11 DUP2 GT ISZERO PUSH2 0x428F JUMPI INVALID JUMPDEST DUP5 PUSH1 0x13 DUP2 GT ISZERO PUSH2 0x429B JUMPI INVALID JUMPDEST DUP5 PUSH1 0x40 MLOAD PUSH2 0x42AB SWAP4 SWAP3 SWAP2 SWAP1 PUSH2 0x5841 JUMP JUMPDEST PUSH1 0x40 MLOAD DUP1 SWAP2 SUB SWAP1 LOG1 DUP4 PUSH1 0x11 DUP2 GT ISZERO PUSH2 0x13B2 JUMPI INVALID JUMPDEST PUSH1 0x0 PUSH2 0x13B5 PUSH2 0x42D6 DUP5 PUSH8 0xDE0B6B3A7640000 PUSH2 0x3F11 JUMP JUMPDEST DUP4 MLOAD PUSH2 0x44DE JUMP JUMPDEST PUSH2 0x42E5 PUSH2 0x4540 JUMP JUMPDEST PUSH1 0x40 MLOAD DUP1 PUSH1 0x20 ADD PUSH1 0x40 MSTORE DUP1 PUSH2 0x4250 PUSH2 0x430C DUP7 PUSH15 0xC097CE7BC90715B34B9F1000000000 PUSH2 0x3F11 JUMP JUMPDEST DUP6 PUSH2 0x44DE JUMP JUMPDEST PUSH2 0x431A PUSH2 0x4540 JUMP JUMPDEST PUSH1 0x40 MLOAD DUP1 PUSH1 0x20 ADD PUSH1 0x40 MSTORE DUP1 PUSH2 0x4250 DUP6 PUSH1 0x0 ADD MLOAD DUP6 PUSH1 0x0 ADD MLOAD PUSH2 0x3F53 JUMP JUMPDEST PUSH1 0x0 DUP2 PUSH1 0x1 PUSH1 0xE0 SHL DUP5 LT PUSH2 0x435E JUMPI PUSH1 0x40 MLOAD PUSH3 0x461BCD PUSH1 0xE5 SHL DUP2 MSTORE PUSH1 0x4 ADD PUSH2 0xA13 SWAP2 SWAP1 PUSH2 0x5614 JUMP JUMPDEST POP SWAP2 SWAP3 SWAP2 POP POP JUMP JUMPDEST PUSH1 0x0 DUP2 PUSH5 0x100000000 DUP5 LT PUSH2 0x435E JUMPI PUSH1 0x40 MLOAD PUSH3 0x461BCD PUSH1 0xE5 SHL DUP2 MSTORE PUSH1 0x4 ADD PUSH2 0xA13 SWAP2 SWAP1 PUSH2 0x5614 JUMP JUMPDEST PUSH2 0x4396 PUSH2 0x4540 JUMP JUMPDEST PUSH1 0x40 MLOAD DUP1 PUSH1 0x20 ADD PUSH1 0x40 MSTORE DUP1 PUSH2 0x4250 DUP6 PUSH1 0x0 ADD MLOAD DUP6 PUSH1 0x0 ADD MLOAD PUSH2 0x3ED7 JUMP JUMPDEST PUSH1 0x0 PUSH15 0xC097CE7BC90715B34B9F1000000000 PUSH2 0x43D3 DUP5 DUP5 PUSH1 0x0 ADD MLOAD PUSH2 0x3F11 JUMP JUMPDEST DUP2 PUSH2 0x43DA JUMPI INVALID JUMPDEST DIV SWAP4 SWAP3 POP POP POP JUMP JUMPDEST PUSH1 0x0 PUSH2 0x43EC PUSH2 0x4540 JUMP JUMPDEST PUSH2 0x43F6 DUP6 DUP6 PUSH2 0x440A JUMP JUMPDEST SWAP1 POP PUSH2 0x178F PUSH2 0x4404 DUP3 PUSH2 0x442B JUMP JUMPDEST DUP5 PUSH2 0x3F53 JUMP JUMPDEST PUSH2 0x4412 PUSH2 0x4540 JUMP JUMPDEST PUSH1 0x40 MLOAD DUP1 PUSH1 0x20 ADD PUSH1 0x40 MSTORE DUP1 PUSH2 0x4250 DUP6 PUSH1 0x0 ADD MLOAD DUP6 PUSH2 0x3F11 JUMP JUMPDEST MLOAD PUSH8 0xDE0B6B3A7640000 SWAP1 DIV SWAP1 JUMP JUMPDEST PUSH1 0x0 DUP2 DUP5 DUP5 GT ISZERO PUSH2 0x445E JUMPI PUSH1 0x40 MLOAD PUSH3 0x461BCD PUSH1 0xE5 SHL DUP2 MSTORE PUSH1 0x4 ADD PUSH2 0xA13 SWAP2 SWAP1 PUSH2 0x5614 JUMP JUMPDEST POP POP POP SWAP1 SUB SWAP1 JUMP JUMPDEST PUSH1 0x0 DUP4 ISZERO DUP1 PUSH2 0x4473 JUMPI POP DUP3 ISZERO JUMPDEST ISZERO PUSH2 0x4480 JUMPI POP PUSH1 0x0 PUSH2 0x13B5 JUMP JUMPDEST DUP4 DUP4 MUL DUP4 DUP6 DUP3 DUP2 PUSH2 0x448D JUMPI INVALID JUMPDEST DIV EQ DUP4 SWAP1 PUSH2 0x44AE JUMPI PUSH1 0x40 MLOAD PUSH3 0x461BCD PUSH1 0xE5 SHL DUP2 MSTORE PUSH1 0x4 ADD PUSH2 0xA13 SWAP2 SWAP1 PUSH2 0x5614 JUMP JUMPDEST POP SWAP5 SWAP4 POP POP POP POP JUMP JUMPDEST PUSH1 0x0 DUP4 DUP4 ADD DUP3 DUP6 DUP3 LT ISZERO PUSH2 0x44AE JUMPI PUSH1 0x40 MLOAD PUSH3 0x461BCD PUSH1 0xE5 SHL DUP2 MSTORE PUSH1 0x4 ADD PUSH2 0xA13 SWAP2 SWAP1 PUSH2 0x5614 JUMP JUMPDEST PUSH1 0x0 PUSH2 0x13B5 DUP4 DUP4 PUSH1 0x40 MLOAD DUP1 PUSH1 0x40 ADD PUSH1 0x40 MSTORE DUP1 PUSH1 0xE DUP2 MSTORE PUSH1 0x20 ADD PUSH14 0x646976696465206279207A65726F PUSH1 0x90 SHL DUP2 MSTORE POP PUSH1 0x0 DUP2 DUP4 PUSH2 0x452D JUMPI PUSH1 0x40 MLOAD PUSH3 0x461BCD PUSH1 0xE5 SHL DUP2 MSTORE PUSH1 0x4 ADD PUSH2 0xA13 SWAP2 SWAP1 PUSH2 0x5614 JUMP JUMPDEST POP DUP3 DUP5 DUP2 PUSH2 0x4537 JUMPI INVALID JUMPDEST DIV SWAP5 SWAP4 POP POP POP POP JUMP JUMPDEST PUSH1 0x40 MLOAD DUP1 PUSH1 0x20 ADD PUSH1 0x40 MSTORE DUP1 PUSH1 0x0 DUP2 MSTORE POP SWAP1 JUMP JUMPDEST DUP2 SLOAD DUP2 DUP4 SSTORE DUP2 DUP2 GT ISZERO PUSH2 0x14AA JUMPI PUSH1 0x0 DUP4 DUP2 MSTORE PUSH1 0x20 SWAP1 KECCAK256 PUSH2 0x14AA SWAP2 DUP2 ADD SWAP1 DUP4 ADD PUSH2 0x45E1 JUMP JUMPDEST PUSH1 0x40 MLOAD DUP1 PUSH2 0x140 ADD PUSH1 0x40 MSTORE DUP1 PUSH1 0x0 DUP2 MSTORE PUSH1 0x20 ADD PUSH1 0x0 DUP2 MSTORE PUSH1 0x20 ADD PUSH1 0x0 DUP2 MSTORE PUSH1 0x20 ADD PUSH1 0x0 DUP2 MSTORE PUSH1 0x20 ADD PUSH1 0x0 DUP2 MSTORE PUSH1 0x20 ADD PUSH1 0x0 DUP2 MSTORE PUSH1 0x20 ADD PUSH2 0x45B5 PUSH2 0x4540 JUMP JUMPDEST DUP2 MSTORE PUSH1 0x20 ADD PUSH2 0x45C2 PUSH2 0x4540 JUMP JUMPDEST DUP2 MSTORE PUSH1 0x20 ADD PUSH2 0x45CF PUSH2 0x4540 JUMP JUMPDEST DUP2 MSTORE PUSH1 0x20 ADD PUSH2 0x45DC PUSH2 0x4540 JUMP JUMPDEST SWAP1 MSTORE SWAP1 JUMP JUMPDEST PUSH2 0x12D7 SWAP2 SWAP1 JUMPDEST DUP1 DUP3 GT ISZERO PUSH2 0x45FB JUMPI PUSH1 0x0 DUP2 SSTORE PUSH1 0x1 ADD PUSH2 0x45E7 JUMP JUMPDEST POP SWAP1 JUMP JUMPDEST DUP1 CALLDATALOAD PUSH2 0xAF3 DUP2 PUSH2 0x5932 JUMP JUMPDEST DUP1 MLOAD PUSH2 0xAF3 DUP2 PUSH2 0x5932 JUMP JUMPDEST PUSH1 0x0 DUP3 PUSH1 0x1F DUP4 ADD SLT PUSH2 0x4626 JUMPI PUSH1 0x0 DUP1 REVERT JUMPDEST DUP2 CALLDATALOAD PUSH2 0x4639 PUSH2 0x4634 DUP3 PUSH2 0x5876 JUMP JUMPDEST PUSH2 0x584F JUMP JUMPDEST SWAP2 POP DUP2 DUP2 DUP4 MSTORE PUSH1 0x20 DUP5 ADD SWAP4 POP PUSH1 0x20 DUP2 ADD SWAP1 POP DUP4 DUP6 PUSH1 0x20 DUP5 MUL DUP3 ADD GT ISZERO PUSH2 0x465E JUMPI PUSH1 0x0 DUP1 REVERT JUMPDEST PUSH1 0x0 JUMPDEST DUP4 DUP2 LT ISZERO PUSH2 0x468A JUMPI DUP2 PUSH2 0x4674 DUP9 DUP3 PUSH2 0x45FF JUMP JUMPDEST DUP5 MSTORE POP PUSH1 0x20 SWAP3 DUP4 ADD SWAP3 SWAP2 SWAP1 SWAP2 ADD SWAP1 PUSH1 0x1 ADD PUSH2 0x4661 JUMP JUMPDEST POP POP POP POP SWAP3 SWAP2 POP POP JUMP JUMPDEST PUSH1 0x0 DUP1 DUP4 PUSH1 0x1F DUP5 ADD SLT PUSH2 0x46A6 JUMPI PUSH1 0x0 DUP1 REVERT JUMPDEST POP DUP2 CALLDATALOAD PUSH8 0xFFFFFFFFFFFFFFFF DUP2 GT ISZERO PUSH2 0x46BE JUMPI PUSH1 0x0 DUP1 REVERT JUMPDEST PUSH1 0x20 DUP4 ADD SWAP2 POP DUP4 PUSH1 0x20 DUP3 MUL DUP4 ADD GT ISZERO PUSH2 0x46D6 JUMPI PUSH1 0x0 DUP1 REVERT JUMPDEST SWAP3 POP SWAP3 SWAP1 POP JUMP JUMPDEST PUSH1 0x0 DUP3 PUSH1 0x1F DUP4 ADD SLT PUSH2 0x46EE JUMPI PUSH1 0x0 DUP1 REVERT JUMPDEST DUP2 CALLDATALOAD PUSH2 0x46FC PUSH2 0x4634 DUP3 PUSH2 0x5876 JUMP JUMPDEST SWAP2 POP DUP2 DUP2 DUP4 MSTORE PUSH1 0x20 DUP5 ADD SWAP4 POP PUSH1 0x20 DUP2 ADD SWAP1 POP DUP4 DUP6 PUSH1 0x20 DUP5 MUL DUP3 ADD GT ISZERO PUSH2 0x4721 JUMPI PUSH1 0x0 DUP1 REVERT JUMPDEST PUSH1 0x0 JUMPDEST DUP4 DUP2 LT ISZERO PUSH2 0x468A JUMPI DUP2 PUSH2 0x4737 DUP9 DUP3 PUSH2 0x4763 JUMP JUMPDEST DUP5 MSTORE POP PUSH1 0x20 SWAP3 DUP4 ADD SWAP3 SWAP2 SWAP1 SWAP2 ADD SWAP1 PUSH1 0x1 ADD PUSH2 0x4724 JUMP JUMPDEST DUP1 CALLDATALOAD PUSH2 0xAF3 DUP2 PUSH2 0x5946 JUMP JUMPDEST DUP1 MLOAD PUSH2 0xAF3 DUP2 PUSH2 0x5946 JUMP JUMPDEST DUP1 CALLDATALOAD PUSH2 0xAF3 DUP2 PUSH2 0x594F JUMP JUMPDEST DUP1 MLOAD PUSH2 0xAF3 DUP2 PUSH2 0x594F JUMP JUMPDEST DUP1 CALLDATALOAD PUSH2 0xAF3 DUP2 PUSH2 0x5958 JUMP JUMPDEST DUP1 MLOAD PUSH2 0xAF3 DUP2 PUSH2 0x5958 JUMP JUMPDEST PUSH1 0x0 PUSH1 0x20 DUP3 DUP5 SUB SLT ISZERO PUSH2 0x47A1 JUMPI PUSH1 0x0 DUP1 REVERT JUMPDEST PUSH1 0x0 PUSH2 0xF30 DUP5 DUP5 PUSH2 0x45FF JUMP JUMPDEST PUSH1 0x0 PUSH1 0x20 DUP3 DUP5 SUB SLT ISZERO PUSH2 0x47BF JUMPI PUSH1 0x0 DUP1 REVERT JUMPDEST PUSH1 0x0 PUSH2 0xF30 DUP5 DUP5 PUSH2 0x460A JUMP JUMPDEST PUSH1 0x0 DUP1 PUSH1 0x40 DUP4 DUP6 SUB SLT ISZERO PUSH2 0x47DE JUMPI PUSH1 0x0 DUP1 REVERT JUMPDEST PUSH1 0x0 PUSH2 0x47EA DUP6 DUP6 PUSH2 0x45FF JUMP JUMPDEST SWAP3 POP POP PUSH1 0x20 PUSH2 0x47FB DUP6 DUP3 DUP7 ADD PUSH2 0x45FF JUMP JUMPDEST SWAP2 POP POP SWAP3 POP SWAP3 SWAP1 POP JUMP JUMPDEST PUSH1 0x0 DUP1 PUSH1 0x0 DUP1 PUSH1 0x0 PUSH1 0xA0 DUP7 DUP9 SUB SLT ISZERO PUSH2 0x481D JUMPI PUSH1 0x0 DUP1 REVERT JUMPDEST PUSH1 0x0 PUSH2 0x4829 DUP9 DUP9 PUSH2 0x45FF JUMP JUMPDEST SWAP6 POP POP PUSH1 0x20 PUSH2 0x483A DUP9 DUP3 DUP10 ADD PUSH2 0x45FF JUMP JUMPDEST SWAP5 POP POP PUSH1 0x40 PUSH2 0x484B DUP9 DUP3 DUP10 ADD PUSH2 0x45FF JUMP JUMPDEST SWAP4 POP POP PUSH1 0x60 PUSH2 0x485C DUP9 DUP3 DUP10 ADD PUSH2 0x45FF JUMP JUMPDEST SWAP3 POP POP PUSH1 0x80 PUSH2 0x486D DUP9 DUP3 DUP10 ADD PUSH2 0x4779 JUMP JUMPDEST SWAP2 POP POP SWAP3 SWAP6 POP SWAP3 SWAP6 SWAP1 SWAP4 POP JUMP JUMPDEST PUSH1 0x0 DUP1 PUSH1 0x0 DUP1 PUSH1 0x0 DUP1 PUSH1 0xC0 DUP8 DUP10 SUB SLT ISZERO PUSH2 0x4893 JUMPI PUSH1 0x0 DUP1 REVERT JUMPDEST PUSH1 0x0 PUSH2 0x489F DUP10 DUP10 PUSH2 0x45FF JUMP JUMPDEST SWAP7 POP POP PUSH1 0x20 PUSH2 0x48B0 DUP10 DUP3 DUP11 ADD PUSH2 0x45FF JUMP JUMPDEST SWAP6 POP POP PUSH1 0x40 PUSH2 0x48C1 DUP10 DUP3 DUP11 ADD PUSH2 0x45FF JUMP JUMPDEST SWAP5 POP POP PUSH1 0x60 PUSH2 0x48D2 DUP10 DUP3 DUP11 ADD PUSH2 0x45FF JUMP JUMPDEST SWAP4 POP POP PUSH1 0x80 PUSH2 0x48E3 DUP10 DUP3 DUP11 ADD PUSH2 0x4779 JUMP JUMPDEST SWAP3 POP POP PUSH1 0xA0 PUSH2 0x48F4 DUP10 DUP3 DUP11 ADD PUSH2 0x4779 JUMP JUMPDEST SWAP2 POP POP SWAP3 SWAP6 POP SWAP3 SWAP6 POP SWAP3 SWAP6 JUMP JUMPDEST PUSH1 0x0 DUP1 PUSH1 0x0 DUP1 PUSH1 0x80 DUP6 DUP8 SUB SLT ISZERO PUSH2 0x4917 JUMPI PUSH1 0x0 DUP1 REVERT JUMPDEST PUSH1 0x0 PUSH2 0x4923 DUP8 DUP8 PUSH2 0x45FF JUMP JUMPDEST SWAP5 POP POP PUSH1 0x20 PUSH2 0x4934 DUP8 DUP3 DUP9 ADD PUSH2 0x45FF JUMP JUMPDEST SWAP4 POP POP PUSH1 0x40 PUSH2 0x4945 DUP8 DUP3 DUP9 ADD PUSH2 0x45FF JUMP JUMPDEST SWAP3 POP POP PUSH1 0x60 PUSH2 0x4956 DUP8 DUP3 DUP9 ADD PUSH2 0x4779 JUMP JUMPDEST SWAP2 POP POP SWAP3 SWAP6 SWAP2 SWAP5 POP SWAP3 POP JUMP JUMPDEST PUSH1 0x0 DUP1 PUSH1 0x0 DUP1 PUSH1 0x0 PUSH1 0xA0 DUP7 DUP9 SUB SLT ISZERO PUSH2 0x497A JUMPI PUSH1 0x0 DUP1 REVERT JUMPDEST PUSH1 0x0 PUSH2 0x4986 DUP9 DUP9 PUSH2 0x45FF JUMP JUMPDEST SWAP6 POP POP PUSH1 0x20 PUSH2 0x4997 DUP9 DUP3 DUP10 ADD PUSH2 0x45FF JUMP JUMPDEST SWAP5 POP POP PUSH1 0x40 PUSH2 0x49A8 DUP9 DUP3 DUP10 ADD PUSH2 0x45FF JUMP JUMPDEST SWAP4 POP POP PUSH1 0x60 PUSH2 0x485C DUP9 DUP3 DUP10 ADD PUSH2 0x4779 JUMP JUMPDEST PUSH1 0x0 DUP1 PUSH1 0x0 PUSH1 0x60 DUP5 DUP7 SUB SLT ISZERO PUSH2 0x49CE JUMPI PUSH1 0x0 DUP1 REVERT JUMPDEST PUSH1 0x0 PUSH2 0x49DA DUP7 DUP7 PUSH2 0x45FF JUMP JUMPDEST SWAP4 POP POP PUSH1 0x20 PUSH2 0x49EB DUP7 DUP3 DUP8 ADD PUSH2 0x45FF JUMP JUMPDEST SWAP3 POP POP PUSH1 0x40 PUSH2 0x49FC DUP7 DUP3 DUP8 ADD PUSH2 0x4779 JUMP JUMPDEST SWAP2 POP POP SWAP3 POP SWAP3 POP SWAP3 JUMP JUMPDEST PUSH1 0x0 DUP1 PUSH1 0x0 DUP1 PUSH1 0x80 DUP6 DUP8 SUB SLT ISZERO PUSH2 0x4A1C JUMPI PUSH1 0x0 DUP1 REVERT JUMPDEST PUSH1 0x0 PUSH2 0x4A28 DUP8 DUP8 PUSH2 0x45FF JUMP JUMPDEST SWAP5 POP POP PUSH1 0x20 PUSH2 0x4A39 DUP8 DUP3 DUP9 ADD PUSH2 0x45FF JUMP JUMPDEST SWAP4 POP POP PUSH1 0x40 PUSH2 0x4945 DUP8 DUP3 DUP9 ADD PUSH2 0x4779 JUMP JUMPDEST PUSH1 0x0 DUP1 PUSH1 0x40 DUP4 DUP6 SUB SLT ISZERO PUSH2 0x4A5D JUMPI PUSH1 0x0 DUP1 REVERT JUMPDEST PUSH1 0x0 PUSH2 0x4A69 DUP6 DUP6 PUSH2 0x45FF JUMP JUMPDEST SWAP3 POP POP PUSH1 0x20 DUP4 ADD CALLDATALOAD PUSH8 0xFFFFFFFFFFFFFFFF DUP2 GT ISZERO PUSH2 0x4A86 JUMPI PUSH1 0x0 DUP1 REVERT JUMPDEST PUSH2 0x47FB DUP6 DUP3 DUP7 ADD PUSH2 0x46DD JUMP JUMPDEST PUSH1 0x0 DUP1 PUSH1 0x40 DUP4 DUP6 SUB SLT ISZERO PUSH2 0x4AA5 JUMPI PUSH1 0x0 DUP1 REVERT JUMPDEST PUSH1 0x0 PUSH2 0x4AB1 DUP6 DUP6 PUSH2 0x45FF JUMP JUMPDEST SWAP3 POP POP PUSH1 0x20 PUSH2 0x47FB DUP6 DUP3 DUP7 ADD PUSH2 0x4763 JUMP JUMPDEST PUSH1 0x0 DUP1 PUSH1 0x40 DUP4 DUP6 SUB SLT ISZERO PUSH2 0x4AD5 JUMPI PUSH1 0x0 DUP1 REVERT JUMPDEST PUSH1 0x0 PUSH2 0x4AE1 DUP6 DUP6 PUSH2 0x45FF JUMP JUMPDEST SWAP3 POP POP PUSH1 0x20 PUSH2 0x47FB DUP6 DUP3 DUP7 ADD PUSH2 0x4779 JUMP JUMPDEST PUSH1 0x0 PUSH1 0x20 DUP3 DUP5 SUB SLT ISZERO PUSH2 0x4B04 JUMPI PUSH1 0x0 DUP1 REVERT JUMPDEST DUP2 CALLDATALOAD PUSH8 0xFFFFFFFFFFFFFFFF DUP2 GT ISZERO PUSH2 0x4B1B JUMPI PUSH1 0x0 DUP1 REVERT JUMPDEST PUSH2 0xF30 DUP5 DUP3 DUP6 ADD PUSH2 0x4615 JUMP JUMPDEST PUSH1 0x0 DUP1 PUSH1 0x0 DUP1 PUSH1 0x80 DUP6 DUP8 SUB SLT ISZERO PUSH2 0x4B3D JUMPI PUSH1 0x0 DUP1 REVERT JUMPDEST DUP5 CALLDATALOAD PUSH8 0xFFFFFFFFFFFFFFFF DUP2 GT ISZERO PUSH2 0x4B54 JUMPI PUSH1 0x0 DUP1 REVERT JUMPDEST PUSH2 0x4B60 DUP8 DUP3 DUP9 ADD PUSH2 0x4615 JUMP JUMPDEST SWAP5 POP POP PUSH1 0x20 DUP6 ADD CALLDATALOAD PUSH8 0xFFFFFFFFFFFFFFFF DUP2 GT ISZERO PUSH2 0x4B7D JUMPI PUSH1 0x0 DUP1 REVERT JUMPDEST PUSH2 0x4B89 DUP8 DUP3 DUP9 ADD PUSH2 0x46DD JUMP JUMPDEST SWAP4 POP POP PUSH1 0x40 PUSH2 0x4B9A DUP8 DUP3 DUP9 ADD PUSH2 0x474D JUMP JUMPDEST SWAP3 POP POP PUSH1 0x60 PUSH2 0x4956 DUP8 DUP3 DUP9 ADD PUSH2 0x474D JUMP JUMPDEST PUSH1 0x0 DUP1 PUSH1 0x0 DUP1 PUSH1 0x40 DUP6 DUP8 SUB SLT ISZERO PUSH2 0x4BC1 JUMPI PUSH1 0x0 DUP1 REVERT JUMPDEST DUP5 CALLDATALOAD PUSH8 0xFFFFFFFFFFFFFFFF DUP2 GT ISZERO PUSH2 0x4BD8 JUMPI PUSH1 0x0 DUP1 REVERT JUMPDEST PUSH2 0x4BE4 DUP8 DUP3 DUP9 ADD PUSH2 0x4694 JUMP JUMPDEST SWAP5 POP SWAP5 POP POP PUSH1 0x20 DUP6 ADD CALLDATALOAD PUSH8 0xFFFFFFFFFFFFFFFF DUP2 GT ISZERO PUSH2 0x4C03 JUMPI PUSH1 0x0 DUP1 REVERT JUMPDEST PUSH2 0x4C0F DUP8 DUP3 DUP9 ADD PUSH2 0x4694 JUMP JUMPDEST SWAP6 SWAP9 SWAP5 SWAP8 POP SWAP6 POP POP POP POP JUMP JUMPDEST PUSH1 0x0 PUSH1 0x20 DUP3 DUP5 SUB SLT ISZERO PUSH2 0x4C2D JUMPI PUSH1 0x0 DUP1 REVERT JUMPDEST PUSH1 0x0 PUSH2 0xF30 DUP5 DUP5 PUSH2 0x474D JUMP JUMPDEST PUSH1 0x0 PUSH1 0x20 DUP3 DUP5 SUB SLT ISZERO PUSH2 0x4C4B JUMPI PUSH1 0x0 DUP1 REVERT JUMPDEST PUSH1 0x0 PUSH2 0xF30 DUP5 DUP5 PUSH2 0x4758 JUMP JUMPDEST PUSH1 0x0 PUSH1 0x20 DUP3 DUP5 SUB SLT ISZERO PUSH2 0x4C69 JUMPI PUSH1 0x0 DUP1 REVERT JUMPDEST PUSH1 0x0 PUSH2 0xF30 DUP5 DUP5 PUSH2 0x4763 JUMP JUMPDEST PUSH1 0x0 PUSH1 0x20 DUP3 DUP5 SUB SLT ISZERO PUSH2 0x4C87 JUMPI PUSH1 0x0 DUP1 REVERT JUMPDEST PUSH1 0x0 PUSH2 0xF30 DUP5 DUP5 PUSH2 0x476E JUMP JUMPDEST PUSH1 0x0 DUP1 PUSH1 0x40 DUP4 DUP6 SUB SLT ISZERO PUSH2 0x4CA6 JUMPI PUSH1 0x0 DUP1 REVERT JUMPDEST PUSH1 0x0 PUSH2 0x4CB2 DUP6 DUP6 PUSH2 0x4763 JUMP JUMPDEST SWAP3 POP POP PUSH1 0x20 PUSH2 0x47FB DUP6 DUP3 DUP7 ADD PUSH2 0x474D JUMP JUMPDEST PUSH1 0x0 DUP1 PUSH1 0x40 DUP4 DUP6 SUB SLT ISZERO PUSH2 0x4CD6 JUMPI PUSH1 0x0 DUP1 REVERT JUMPDEST PUSH1 0x0 PUSH2 0x4AE1 DUP6 DUP6 PUSH2 0x4763 JUMP JUMPDEST PUSH1 0x0 PUSH1 0x20 DUP3 DUP5 SUB SLT ISZERO PUSH2 0x4CF4 JUMPI PUSH1 0x0 DUP1 REVERT JUMPDEST PUSH1 0x0 PUSH2 0xF30 DUP5 DUP5 PUSH2 0x4779 JUMP JUMPDEST PUSH1 0x0 PUSH1 0x20 DUP3 DUP5 SUB SLT ISZERO PUSH2 0x4D12 JUMPI PUSH1 0x0 DUP1 REVERT JUMPDEST PUSH1 0x0 PUSH2 0xF30 DUP5 DUP5 PUSH2 0x4784 JUMP JUMPDEST PUSH1 0x0 DUP1 PUSH1 0x0 DUP1 PUSH1 0x80 DUP6 DUP8 SUB SLT ISZERO PUSH2 0x4D34 JUMPI PUSH1 0x0 DUP1 REVERT JUMPDEST PUSH1 0x0 PUSH2 0x4D40 DUP8 DUP8 PUSH2 0x4784 JUMP JUMPDEST SWAP5 POP POP PUSH1 0x20 PUSH2 0x4D51 DUP8 DUP3 DUP9 ADD PUSH2 0x4784 JUMP JUMPDEST SWAP4 POP POP PUSH1 0x40 PUSH2 0x4D62 DUP8 DUP3 DUP9 ADD PUSH2 0x4784 JUMP JUMPDEST SWAP3 POP POP PUSH1 0x60 PUSH2 0x4956 DUP8 DUP3 DUP9 ADD PUSH2 0x4784 JUMP JUMPDEST PUSH1 0x0 PUSH2 0x4D7F DUP4 DUP4 PUSH2 0x4E5B JUMP JUMPDEST POP POP PUSH1 0x20 ADD SWAP1 JUMP JUMPDEST PUSH1 0x0 PUSH2 0x4D7F DUP4 DUP4 PUSH2 0x5491 JUMP JUMPDEST PUSH2 0x4D9C DUP2 PUSH2 0x58E6 JUMP JUMPDEST DUP3 MSTORE POP POP JUMP JUMPDEST PUSH2 0x4D9C DUP2 PUSH2 0x58AA JUMP JUMPDEST PUSH1 0x0 PUSH2 0x4DB6 DUP3 PUSH2 0x589D JUMP JUMPDEST PUSH2 0x4DC0 DUP2 DUP6 PUSH2 0x58A1 JUMP JUMPDEST SWAP4 POP PUSH2 0x4DCB DUP4 PUSH2 0x5897 JUMP JUMPDEST DUP1 PUSH1 0x0 JUMPDEST DUP4 DUP2 LT ISZERO PUSH2 0x4DF9 JUMPI DUP2 MLOAD PUSH2 0x4DE3 DUP9 DUP3 PUSH2 0x4D73 JUMP JUMPDEST SWAP8 POP PUSH2 0x4DEE DUP4 PUSH2 0x5897 JUMP JUMPDEST SWAP3 POP POP PUSH1 0x1 ADD PUSH2 0x4DCF JUMP JUMPDEST POP SWAP5 SWAP6 SWAP5 POP POP POP POP POP JUMP JUMPDEST PUSH1 0x0 PUSH2 0x4E0F DUP3 PUSH2 0x589D JUMP JUMPDEST PUSH2 0x4E19 DUP2 DUP6 PUSH2 0x58A1 JUMP JUMPDEST SWAP4 POP PUSH2 0x4E24 DUP4 PUSH2 0x5897 JUMP JUMPDEST DUP1 PUSH1 0x0 JUMPDEST DUP4 DUP2 LT ISZERO PUSH2 0x4DF9 JUMPI DUP2 MLOAD PUSH2 0x4E3C DUP9 DUP3 PUSH2 0x4D87 JUMP JUMPDEST SWAP8 POP PUSH2 0x4E47 DUP4 PUSH2 0x5897 JUMP JUMPDEST SWAP3 POP POP PUSH1 0x1 ADD PUSH2 0x4E28 JUMP JUMPDEST PUSH2 0x4D9C DUP2 PUSH2 0x58B5 JUMP JUMPDEST PUSH2 0x4D9C DUP2 PUSH2 0x58BA JUMP JUMPDEST PUSH2 0x4D9C DUP2 PUSH2 0x58F1 JUMP JUMPDEST PUSH1 0x0 PUSH2 0x4E78 DUP3 PUSH2 0x589D JUMP JUMPDEST PUSH2 0x4E82 DUP2 DUP6 PUSH2 0x58A1 JUMP JUMPDEST SWAP4 POP PUSH2 0x4E92 DUP2 DUP6 PUSH1 0x20 DUP7 ADD PUSH2 0x58FC JUMP JUMPDEST PUSH2 0x4E9B DUP2 PUSH2 0x5928 JUMP JUMPDEST SWAP1 SWAP4 ADD SWAP4 SWAP3 POP POP POP JUMP JUMPDEST PUSH1 0x0 PUSH2 0x4EB2 PUSH1 0x14 DUP4 PUSH2 0x58A1 JUMP JUMPDEST PUSH20 0x1B585C9AD95D08185B1C9958591E481859191959 PUSH1 0x62 SHL DUP2 MSTORE PUSH1 0x20 ADD SWAP3 SWAP2 POP POP JUMP JUMPDEST PUSH1 0x0 PUSH2 0x4EE2 PUSH1 0x28 DUP4 PUSH2 0x58A1 JUMP JUMPDEST PUSH32 0x63616E6E6F742070617573652061206D61726B65742074686174206973206E6F DUP2 MSTORE PUSH8 0x1D081B1A5CDD1959 PUSH1 0xC2 SHL PUSH1 0x20 DUP3 ADD MSTORE PUSH1 0x40 ADD SWAP3 SWAP2 POP POP JUMP JUMPDEST PUSH1 0x0 PUSH2 0x4F2C PUSH1 0x1A DUP4 PUSH2 0x58A1 JUMP JUMPDEST PUSH32 0x6C656E6474206D61726B6574206973206E6F74206C6973746564000000000000 DUP2 MSTORE PUSH1 0x20 ADD SWAP3 SWAP2 POP POP JUMP JUMPDEST PUSH1 0x0 PUSH2 0x4F65 PUSH1 0x1E DUP4 PUSH2 0x58A1 JUMP JUMPDEST PUSH32 0x6F6E6C792061646D696E2063616E20736574206C656E64742073706565640000 DUP2 MSTORE PUSH1 0x20 ADD SWAP3 SWAP2 POP POP JUMP JUMPDEST PUSH1 0x0 PUSH2 0x4F9E PUSH1 0x1A DUP4 PUSH2 0x58A1 JUMP JUMPDEST PUSH32 0x6F6E6C792061646D696E2063616E206772616E74206C656E6474000000000000 DUP2 MSTORE PUSH1 0x20 ADD SWAP3 SWAP2 POP POP JUMP JUMPDEST PUSH1 0x0 PUSH2 0x4FD7 PUSH1 0x28 DUP4 PUSH2 0x58A1 JUMP JUMPDEST PUSH32 0x43616E206E6F74207265706179206D6F7265207468616E2074686520746F7461 DUP2 MSTORE PUSH8 0x6C20626F72726F77 PUSH1 0xC0 SHL PUSH1 0x20 DUP3 ADD MSTORE PUSH1 0x40 ADD SWAP3 SWAP2 POP POP JUMP JUMPDEST PUSH1 0x0 PUSH2 0x5021 PUSH1 0x4 DUP4 PUSH2 0x58A1 JUMP JUMPDEST PUSH4 0x135A5B9D PUSH1 0xE2 SHL DUP2 MSTORE PUSH1 0x20 ADD SWAP3 SWAP2 POP POP JUMP JUMPDEST PUSH1 0x0 PUSH2 0x5041 PUSH1 0x15 DUP4 PUSH2 0x58A1 JUMP JUMPDEST PUSH21 0x39B2B73232B91036BAB9BA103132903A2A37B5B2B7 PUSH1 0x59 SHL DUP2 MSTORE PUSH1 0x20 ADD SWAP3 SWAP2 POP POP JUMP JUMPDEST PUSH1 0x0 PUSH2 0x5072 PUSH1 0x1C DUP4 PUSH2 0x58A1 JUMP JUMPDEST PUSH32 0x696E73756666696369656E74206C656E647420666F72206772616E7400000000 DUP2 MSTORE PUSH1 0x20 ADD SWAP3 SWAP2 POP POP JUMP JUMPDEST PUSH1 0x0 PUSH2 0x50AB PUSH1 0x1F DUP4 PUSH2 0x58A1 JUMP JUMPDEST PUSH32 0x6F6E6C792061646D696E2063616E2073657420636C6F736520666163746F7200 DUP2 MSTORE PUSH1 0x20 ADD SWAP3 SWAP2 POP POP JUMP JUMPDEST PUSH1 0x0 PUSH2 0x50E4 PUSH1 0x16 DUP4 PUSH2 0x58A1 JUMP JUMPDEST PUSH22 0x6F6E6C792061646D696E2063616E20756E7061757365 PUSH1 0x50 SHL DUP2 MSTORE PUSH1 0x20 ADD SWAP3 SWAP2 POP POP JUMP JUMPDEST PUSH1 0x0 PUSH2 0x5116 PUSH1 0x5 DUP4 PUSH2 0x58A1 JUMP JUMPDEST PUSH5 0x5365697A65 PUSH1 0xD8 SHL DUP2 MSTORE PUSH1 0x20 ADD SWAP3 SWAP2 POP POP JUMP JUMPDEST PUSH1 0x0 PUSH2 0x5137 PUSH1 0x27 DUP4 PUSH2 0x58A1 JUMP JUMPDEST PUSH32 0x6F6E6C7920706175736520677561726469616E20616E642061646D696E206361 DUP2 MSTORE PUSH7 0x6E207061757365 PUSH1 0xC8 SHL PUSH1 0x20 DUP3 ADD MSTORE PUSH1 0x40 ADD SWAP3 SWAP2 POP POP JUMP JUMPDEST PUSH1 0x0 PUSH2 0x5180 PUSH1 0x26 DUP4 PUSH2 0x58A1 JUMP JUMPDEST PUSH32 0x6F6E6C792061646D696E2063616E2073657420626F72726F7720636170206775 DUP2 MSTORE PUSH6 0x30B93234B0B7 PUSH1 0xD1 SHL PUSH1 0x20 DUP3 ADD MSTORE PUSH1 0x40 ADD SWAP3 SWAP2 POP POP JUMP JUMPDEST PUSH1 0x0 PUSH2 0x51C8 PUSH1 0x6 DUP4 PUSH2 0x58A1 JUMP JUMPDEST PUSH6 0x426F72726F77 PUSH1 0xD0 SHL DUP2 MSTORE PUSH1 0x20 ADD SWAP3 SWAP2 POP POP JUMP JUMPDEST PUSH1 0x0 PUSH2 0x51EA PUSH1 0x15 DUP4 PUSH2 0x58A1 JUMP JUMPDEST PUSH21 0x1B585C9AD95D081B5D5CDD081899481B1A5CDD1959 PUSH1 0x5A SHL DUP2 MSTORE PUSH1 0x20 ADD SWAP3 SWAP2 POP POP JUMP JUMPDEST PUSH1 0x0 PUSH2 0x521B PUSH1 0x12 DUP4 PUSH2 0x58A1 JUMP JUMPDEST PUSH18 0x1D1C985B9CD9995C881A5CC81C185D5CD959 PUSH1 0x72 SHL DUP2 MSTORE PUSH1 0x20 ADD SWAP3 SWAP2 POP POP JUMP JUMPDEST PUSH1 0x0 PUSH2 0x5249 PUSH1 0x11 DUP4 PUSH2 0x58A1 JUMP JUMPDEST PUSH17 0x72656465656D546F6B656E73207A65726F PUSH1 0x78 SHL DUP2 MSTORE PUSH1 0x20 ADD SWAP3 SWAP2 POP POP JUMP JUMPDEST PUSH1 0x0 PUSH2 0x5276 PUSH1 0x35 DUP4 PUSH2 0x58A1 JUMP JUMPDEST PUSH32 0x6F6E6C792061646D696E206F7220626F72726F77206361702067756172646961 DUP2 MSTORE PUSH21 0x6E2063616E2073657420626F72726F772063617073 PUSH1 0x58 SHL PUSH1 0x20 DUP3 ADD MSTORE PUSH1 0x40 ADD SWAP3 SWAP2 POP POP JUMP JUMPDEST PUSH1 0x0 PUSH2 0x52CD PUSH1 0x15 DUP4 PUSH2 0x58A1 JUMP JUMPDEST PUSH21 0x18DA185B99D9481B9BDD08185D5D1A1BDC9A5E9959 PUSH1 0x5A SHL DUP2 MSTORE PUSH1 0x20 ADD SWAP3 SWAP2 POP POP JUMP JUMPDEST PUSH1 0x0 PUSH2 0x52FE PUSH1 0x25 DUP4 PUSH2 0x58A1 JUMP JUMPDEST PUSH32 0x657869744D61726B65743A206765744163636F756E74536E617073686F742066 DUP2 MSTORE PUSH5 0x185A5B1959 PUSH1 0xDA SHL PUSH1 0x20 DUP3 ADD MSTORE PUSH1 0x40 ADD SWAP3 SWAP2 POP POP JUMP JUMPDEST PUSH1 0x0 PUSH2 0x5345 PUSH1 0x19 DUP4 PUSH2 0x58A1 JUMP JUMPDEST PUSH32 0x6D61726B657420626F72726F7720636170207265616368656400000000000000 DUP2 MSTORE PUSH1 0x20 ADD SWAP3 SWAP2 POP POP JUMP JUMPDEST PUSH1 0x0 PUSH2 0x537E PUSH1 0xF DUP4 PUSH2 0x58A1 JUMP JUMPDEST PUSH15 0x1CD95A5E99481A5CC81C185D5CD959 PUSH1 0x8A SHL DUP2 MSTORE PUSH1 0x20 ADD SWAP3 SWAP2 POP POP JUMP JUMPDEST PUSH1 0x0 PUSH2 0x53A9 PUSH1 0xD DUP4 PUSH2 0x58A1 JUMP JUMPDEST PUSH13 0x1A5B9D985B1A59081A5B9C1D5D PUSH1 0x9A SHL DUP2 MSTORE PUSH1 0x20 ADD SWAP3 SWAP2 POP POP JUMP JUMPDEST PUSH1 0x0 PUSH2 0x53D2 PUSH1 0x8 DUP4 PUSH2 0x58A1 JUMP JUMPDEST PUSH8 0x2A3930B739B332B9 PUSH1 0xC1 SHL DUP2 MSTORE PUSH1 0x20 ADD SWAP3 SWAP2 POP POP JUMP JUMPDEST PUSH1 0x0 PUSH2 0x53F6 PUSH1 0xE DUP4 PUSH2 0x58A1 JUMP JUMPDEST PUSH14 0x1B5A5B9D081A5CC81C185D5CD959 PUSH1 0x92 SHL DUP2 MSTORE PUSH1 0x20 ADD SWAP3 SWAP2 POP POP JUMP JUMPDEST PUSH1 0x0 PUSH2 0x5420 PUSH1 0x27 DUP4 PUSH2 0x58A1 JUMP JUMPDEST PUSH32 0x6F6E6C7920756E6974726F6C6C65722061646D696E2063616E206368616E6765 DUP2 MSTORE PUSH7 0x20627261696E73 PUSH1 0xC8 SHL PUSH1 0x20 DUP3 ADD MSTORE PUSH1 0x40 ADD SWAP3 SWAP2 POP POP JUMP JUMPDEST PUSH1 0x0 PUSH2 0x5469 PUSH1 0x10 DUP4 PUSH2 0x58A1 JUMP JUMPDEST PUSH16 0x189BDC9C9BDDC81A5CC81C185D5CD959 PUSH1 0x82 SHL DUP2 MSTORE PUSH1 0x20 ADD SWAP3 SWAP2 POP POP JUMP JUMPDEST PUSH2 0x4D9C DUP2 PUSH2 0x58D1 JUMP JUMPDEST PUSH2 0x4D9C DUP2 PUSH2 0x12D7 JUMP JUMPDEST PUSH2 0x4D9C DUP2 PUSH2 0x58DD JUMP JUMPDEST PUSH1 0x20 DUP2 ADD PUSH2 0xAF3 DUP3 DUP5 PUSH2 0x4DA2 JUMP JUMPDEST PUSH1 0x20 DUP2 ADD PUSH2 0xAF3 DUP3 DUP5 PUSH2 0x4D93 JUMP JUMPDEST PUSH1 0x40 DUP2 ADD PUSH2 0x54CD DUP3 DUP6 PUSH2 0x4DA2 JUMP JUMPDEST PUSH2 0x13B5 PUSH1 0x20 DUP4 ADD DUP5 PUSH2 0x4DA2 JUMP JUMPDEST PUSH1 0x40 DUP2 ADD PUSH2 0x54E8 DUP3 DUP6 PUSH2 0x4DA2 JUMP JUMPDEST PUSH2 0x13B5 PUSH1 0x20 DUP4 ADD DUP5 PUSH2 0x5491 JUMP JUMPDEST PUSH1 0x20 DUP1 DUP3 MSTORE DUP2 ADD PUSH2 0x13B5 DUP2 DUP5 PUSH2 0x4DAB JUMP JUMPDEST PUSH1 0x20 DUP1 DUP3 MSTORE DUP2 ADD PUSH2 0x13B5 DUP2 DUP5 PUSH2 0x4E04 JUMP JUMPDEST PUSH1 0x20 DUP2 ADD PUSH2 0xAF3 DUP3 DUP5 PUSH2 0x4E52 JUMP JUMPDEST PUSH1 0x60 DUP2 ADD PUSH2 0x5533 DUP3 DUP7 PUSH2 0x4E52 JUMP JUMPDEST PUSH2 0x5540 PUSH1 0x20 DUP4 ADD DUP6 PUSH2 0x5491 JUMP JUMPDEST PUSH2 0xF30 PUSH1 0x40 DUP4 ADD DUP5 PUSH2 0x4E52 JUMP JUMPDEST PUSH1 0x20 DUP2 ADD PUSH2 0xAF3 DUP3 DUP5 PUSH2 0x4E5B JUMP JUMPDEST PUSH1 0x40 DUP2 ADD PUSH2 0x5569 DUP3 DUP6 PUSH2 0x4E5B JUMP JUMPDEST PUSH2 0x13B5 PUSH1 0x20 DUP4 ADD DUP5 PUSH2 0x4E5B JUMP JUMPDEST PUSH1 0x40 DUP2 ADD PUSH2 0x54CD DUP3 DUP6 PUSH2 0x4E5B JUMP JUMPDEST PUSH1 0x40 DUP2 ADD PUSH2 0x5592 DUP3 DUP6 PUSH2 0x4E5B JUMP JUMPDEST PUSH2 0x13B5 PUSH1 0x20 DUP4 ADD DUP5 PUSH2 0x4D93 JUMP JUMPDEST PUSH1 0x60 DUP2 ADD PUSH2 0x55AD DUP3 DUP6 PUSH2 0x4E5B JUMP JUMPDEST DUP2 DUP2 SUB PUSH1 0x20 DUP4 ADD MSTORE PUSH2 0x55BE DUP2 PUSH2 0x5014 JUMP JUMPDEST SWAP1 POP PUSH2 0x13B5 PUSH1 0x40 DUP4 ADD DUP5 PUSH2 0x4E52 JUMP JUMPDEST PUSH1 0x60 DUP2 ADD PUSH2 0x55DB DUP3 DUP6 PUSH2 0x4E5B JUMP JUMPDEST DUP2 DUP2 SUB PUSH1 0x20 DUP4 ADD MSTORE PUSH2 0x55BE DUP2 PUSH2 0x51BB JUMP JUMPDEST PUSH1 0x60 DUP2 ADD PUSH2 0x55FA DUP3 DUP7 PUSH2 0x4E5B JUMP JUMPDEST PUSH2 0x5607 PUSH1 0x20 DUP4 ADD DUP6 PUSH2 0x5491 JUMP JUMPDEST PUSH2 0xF30 PUSH1 0x40 DUP4 ADD DUP5 PUSH2 0x5491 JUMP JUMPDEST PUSH1 0x20 DUP1 DUP3 MSTORE DUP2 ADD PUSH2 0x13B5 DUP2 DUP5 PUSH2 0x4E6D JUMP JUMPDEST PUSH1 0x20 DUP1 DUP3 MSTORE DUP2 ADD PUSH2 0xAF3 DUP2 PUSH2 0x4EA5 JUMP JUMPDEST PUSH1 0x20 DUP1 DUP3 MSTORE DUP2 ADD PUSH2 0xAF3 DUP2 PUSH2 0x4ED5 JUMP JUMPDEST PUSH1 0x20 DUP1 DUP3 MSTORE DUP2 ADD PUSH2 0xAF3 DUP2 PUSH2 0x4F1F JUMP JUMPDEST PUSH1 0x20 DUP1 DUP3 MSTORE DUP2 ADD PUSH2 0xAF3 DUP2 PUSH2 0x4F58 JUMP JUMPDEST PUSH1 0x20 DUP1 DUP3 MSTORE DUP2 ADD PUSH2 0xAF3 DUP2 PUSH2 0x4F91 JUMP JUMPDEST PUSH1 0x20 DUP1 DUP3 MSTORE DUP2 ADD PUSH2 0xAF3 DUP2 PUSH2 0x4FCA JUMP JUMPDEST PUSH1 0x20 DUP1 DUP3 MSTORE DUP2 ADD PUSH2 0xAF3 DUP2 PUSH2 0x5034 JUMP JUMPDEST PUSH1 0x20 DUP1 DUP3 MSTORE DUP2 ADD PUSH2 0xAF3 DUP2 PUSH2 0x5065 JUMP JUMPDEST PUSH1 0x20 DUP1 DUP3 MSTORE DUP2 ADD PUSH2 0xAF3 DUP2 PUSH2 0x509E JUMP JUMPDEST PUSH1 0x20 DUP1 DUP3 MSTORE DUP2 ADD PUSH2 0xAF3 DUP2 PUSH2 0x50D7 JUMP JUMPDEST PUSH1 0x40 DUP1 DUP3 MSTORE DUP2 ADD PUSH2 0x56D5 DUP2 PUSH2 0x5109 JUMP JUMPDEST SWAP1 POP PUSH2 0xAF3 PUSH1 0x20 DUP4 ADD DUP5 PUSH2 0x4E52 JUMP JUMPDEST PUSH1 0x20 DUP1 DUP3 MSTORE DUP2 ADD PUSH2 0xAF3 DUP2 PUSH2 0x512A JUMP JUMPDEST PUSH1 0x20 DUP1 DUP3 MSTORE DUP2 ADD PUSH2 0xAF3 DUP2 PUSH2 0x5173 JUMP JUMPDEST PUSH1 0x20 DUP1 DUP3 MSTORE DUP2 ADD PUSH2 0xAF3 DUP2 PUSH2 0x51DD JUMP JUMPDEST PUSH1 0x20 DUP1 DUP3 MSTORE DUP2 ADD PUSH2 0xAF3 DUP2 PUSH2 0x520E JUMP JUMPDEST PUSH1 0x20 DUP1 DUP3 MSTORE DUP2 ADD PUSH2 0xAF3 DUP2 PUSH2 0x523C JUMP JUMPDEST PUSH1 0x20 DUP1 DUP3 MSTORE DUP2 ADD PUSH2 0xAF3 DUP2 PUSH2 0x5269 JUMP JUMPDEST PUSH1 0x20 DUP1 DUP3 MSTORE DUP2 ADD PUSH2 0xAF3 DUP2 PUSH2 0x52C0 JUMP JUMPDEST PUSH1 0x20 DUP1 DUP3 MSTORE DUP2 ADD PUSH2 0xAF3 DUP2 PUSH2 0x52F1 JUMP JUMPDEST PUSH1 0x20 DUP1 DUP3 MSTORE DUP2 ADD PUSH2 0xAF3 DUP2 PUSH2 0x5338 JUMP JUMPDEST PUSH1 0x20 DUP1 DUP3 MSTORE DUP2 ADD PUSH2 0xAF3 DUP2 PUSH2 0x5371 JUMP JUMPDEST PUSH1 0x20 DUP1 DUP3 MSTORE DUP2 ADD PUSH2 0xAF3 DUP2 PUSH2 0x539C JUMP JUMPDEST PUSH1 0x40 DUP1 DUP3 MSTORE DUP2 ADD PUSH2 0x56D5 DUP2 PUSH2 0x53C5 JUMP JUMPDEST PUSH1 0x20 DUP1 DUP3 MSTORE DUP2 ADD PUSH2 0xAF3 DUP2 PUSH2 0x53E9 JUMP JUMPDEST PUSH1 0x20 DUP1 DUP3 MSTORE DUP2 ADD PUSH2 0xAF3 DUP2 PUSH2 0x5413 JUMP JUMPDEST PUSH1 0x20 DUP1 DUP3 MSTORE DUP2 ADD PUSH2 0xAF3 DUP2 PUSH2 0x545C JUMP JUMPDEST PUSH1 0x20 DUP2 ADD PUSH2 0xAF3 DUP3 DUP5 PUSH2 0x5488 JUMP JUMPDEST PUSH1 0x40 DUP2 ADD PUSH2 0x57F0 DUP3 DUP6 PUSH2 0x5488 JUMP JUMPDEST PUSH2 0x13B5 PUSH1 0x20 DUP4 ADD DUP5 PUSH2 0x549A JUMP JUMPDEST PUSH1 0x20 DUP2 ADD PUSH2 0xAF3 DUP3 DUP5 PUSH2 0x5491 JUMP JUMPDEST PUSH1 0x40 DUP2 ADD PUSH2 0x54E8 DUP3 DUP6 PUSH2 0x5491 JUMP JUMPDEST PUSH1 0x60 DUP2 ADD PUSH2 0x5827 DUP3 DUP7 PUSH2 0x5491 JUMP JUMPDEST PUSH2 0x5834 PUSH1 0x20 DUP4 ADD DUP6 PUSH2 0x5491 JUMP JUMPDEST PUSH2 0xF30 PUSH1 0x40 DUP4 ADD DUP5 PUSH2 0x4E64 JUMP JUMPDEST PUSH1 0x60 DUP2 ADD PUSH2 0x55FA DUP3 DUP7 PUSH2 0x5491 JUMP JUMPDEST PUSH1 0x40 MLOAD DUP2 DUP2 ADD PUSH8 0xFFFFFFFFFFFFFFFF DUP2 GT DUP3 DUP3 LT OR ISZERO PUSH2 0x586E JUMPI PUSH1 0x0 DUP1 REVERT JUMPDEST PUSH1 0x40 MSTORE SWAP2 SWAP1 POP JUMP JUMPDEST PUSH1 0x0 PUSH8 0xFFFFFFFFFFFFFFFF DUP3 GT ISZERO PUSH2 0x588D JUMPI PUSH1 0x0 DUP1 REVERT JUMPDEST POP PUSH1 0x20 SWAP1 DUP2 MUL ADD SWAP1 JUMP JUMPDEST PUSH1 0x20 ADD SWAP1 JUMP JUMPDEST MLOAD SWAP1 JUMP JUMPDEST SWAP1 DUP2 MSTORE PUSH1 0x20 ADD SWAP1 JUMP JUMPDEST PUSH1 0x0 PUSH2 0xAF3 DUP3 PUSH2 0x58C5 JUMP JUMPDEST ISZERO ISZERO SWAP1 JUMP JUMPDEST PUSH1 0x0 PUSH2 0xAF3 DUP3 PUSH2 0x58AA JUMP JUMPDEST PUSH1 0x1 PUSH1 0x1 PUSH1 0xA0 SHL SUB AND SWAP1 JUMP JUMPDEST PUSH1 0x1 PUSH1 0x1 PUSH1 0xE0 SHL SUB AND SWAP1 JUMP JUMPDEST PUSH4 0xFFFFFFFF AND SWAP1 JUMP JUMPDEST PUSH1 0x0 PUSH2 0xAF3 DUP3 PUSH2 0x58BA JUMP JUMPDEST PUSH1 0x0 PUSH2 0xAF3 DUP3 PUSH2 0x12D7 JUMP JUMPDEST PUSH1 0x0 JUMPDEST DUP4 DUP2 LT ISZERO PUSH2 0x5917 JUMPI DUP2 DUP2 ADD MLOAD DUP4 DUP3 ADD MSTORE PUSH1 0x20 ADD PUSH2 0x58FF JUMP JUMPDEST DUP4 DUP2 GT ISZERO PUSH2 0x12CF JUMPI POP POP PUSH1 0x0 SWAP2 ADD MSTORE JUMP JUMPDEST PUSH1 0x1F ADD PUSH1 0x1F NOT AND SWAP1 JUMP JUMPDEST PUSH2 0x593B DUP2 PUSH2 0x58AA JUMP JUMPDEST DUP2 EQ PUSH2 0xC2A JUMPI PUSH1 0x0 DUP1 REVERT JUMPDEST PUSH2 0x593B DUP2 PUSH2 0x58B5 JUMP JUMPDEST PUSH2 0x593B DUP2 PUSH2 0x58BA JUMP JUMPDEST PUSH2 0x593B DUP2 PUSH2 0x12D7 JUMP INVALID PUSH3 0x6C6F63 PUSH12 0x206E756D6265722065786365 PUSH6 0x647320333220 PUSH3 0x697473 STOP STOP STOP STOP LOG3 PUSH6 0x627A7A723158 KECCAK256 0x26 0x1F PUSH22 0x2F63FE93DE3A57A80A7CBFFBD7B1D5CCC24FB5F8BB59 PUSH15 0x834FEF1886256C6578706572696D65 PUSH15 0x74616CF564736F6C63430005100040 "
		},
		"gasEstimates": {
			"creation": {
				"codeDepositCost": "4596000",
				"executionCost": "26209",
				"totalCost": "4622209"
			},
			"external": {
				"Implementation()": "infinite",
				"_become(address)": "infinite",
				"_borrowGuardianPaused()": "1261",
				"_grantLendt(address,uint256)": "infinite",
				"_mintGuardianPaused()": "1218",
				"_setBorrowCapGuardian(address)": "infinite",
				"_setBorrowPaused(address,bool)": "infinite",
				"_setCloseFactor(uint256)": "infinite",
				"_setCollateralFactor(address,uint256)": "infinite",
				"_setContributorLendtSpeed(address,uint256)": "infinite",
				"_setLendtSpeed(address,uint256)": "infinite",
				"_setLiquidationIncentive(uint256)": "infinite",
				"_setMarketBorrowCaps(address[],uint256[])": "infinite",
				"_setMintPaused(address,bool)": "infinite",
				"_setPauseGuardian(address)": "infinite",
				"_setPriceOracle(address)": "infinite",
				"_setSeizePaused(bool)": "infinite",
				"_setTransferPaused(bool)": "infinite",
				"_supportMarket(address)": "infinite",
				"accountAssets(address,uint256)": "infinite",
				"admin()": "infinite",
				"allMarkets(uint256)": "infinite",
				"borrowAllowed(address,address,uint256)": "infinite",
				"borrowCapGuardian()": "infinite",
				"borrowCaps(address)": "infinite",
				"borrowGuardianPaused(address)": "infinite",
				"borrowVerify(address,address,uint256)": "infinite",
				"checkMembership(address,address)": "infinite",
				"claimLendt(address)": "infinite",
				"claimLendt(address,address[])": "infinite",
				"claimLendt(address[],address[],bool,bool)": "infinite",
				"closeFactorMantissa()": "1165",
				"enterMarkets(address[])": "infinite",
				"exitMarket(address)": "infinite",
				"getAccountLiquidity(address)": "infinite",
				"getAllMarkets()": "infinite",
				"getAssetsIn(address)": "infinite",
				"getBlockNumber()": "infinite",
				"getHypotheticalAccountLiquidity(address,address,uint256,uint256)": "infinite",
				"getLendtAddress()": "infinite",
				"isDeprecated(address)": "infinite",
				"isTENTroller()": "440",
				"lastContributorBlock(address)": "infinite",
				"lendtAccrued(address)": "infinite",
				"lendtBorrowState(address)": "infinite",
				"lendtBorrowerIndex(address,address)": "infinite",
				"lendtContributorSpeeds(address)": "infinite",
				"lendtInitialIndex()": "384",
				"lendtRate()": "1233",
				"lendtSpeeds(address)": "infinite",
				"lendtSupplierIndex(address,address)": "infinite",
				"lendtSupplyState(address)": "infinite",
				"liquidateBorrowAllowed(address,address,address,address,uint256)": "infinite",
				"liquidateBorrowVerify(address,address,address,address,uint256,uint256)": "infinite",
				"liquidateCalculateSeizeTokens(address,address,uint256)": "infinite",
				"liquidationIncentiveMantissa()": "1212",
				"markets(address)": "infinite",
				"maxAssets()": "1255",
				"mintAllowed(address,address,uint256)": "infinite",
				"mintGuardianPaused(address)": "infinite",
				"mintVerify(address,address,uint256,uint256)": "infinite",
				"oracle()": "infinite",
				"pauseGuardian()": "infinite",
				"pendingAdmin()": "infinite",
				"pendingTENTrollerImplementation()": "infinite",
				"redeemAllowed(address,address,uint256)": "infinite",
				"redeemVerify(address,address,uint256,uint256)": "infinite",
				"repayBorrowAllowed(address,address,address,uint256)": "infinite",
				"repayBorrowVerify(address,address,address,uint256,uint256)": "infinite",
				"seizeAllowed(address,address,address,address,uint256)": "infinite",
				"seizeGuardianPaused()": "1283",
				"seizeVerify(address,address,address,address,uint256)": "infinite",
				"transferAllowed(address,address,address,uint256)": "infinite",
				"transferGuardianPaused()": "1262",
				"transferVerify(address,address,address,uint256)": "infinite",
				"updateContributorRewards(address)": "infinite"
			},
			"internal": {
				"_addMarketInternal(address)": "infinite",
				"addToMarketInternal(contract TToken,address)": "infinite",
				"adminOrInitializing()": "1691",
				"distributeBorrowerLendt(address,address,struct ExponentialNoError.Exp memory)": "infinite",
				"distributeSupplierLendt(address,address)": "infinite",
				"getAccountLiquidityInternal(address)": "infinite",
				"getHypotheticalAccountLiquidityInternal(address,contract TToken,uint256,uint256)": "infinite",
				"grantLendtInternal(address,uint256)": "infinite",
				"redeemAllowedInternal(address,address,uint256)": "infinite",
				"setLendtSpeedInternal(contract TToken,uint256)": "infinite",
				"updateLendtBorrowIndex(address,struct ExponentialNoError.Exp memory)": "infinite",
				"updateLendtSupplyIndex(address)": "infinite"
			}
		},
		"methodIdentifiers": {
			"Implementation()": "e6a8ee4f",
			"_become(address)": "1d504dc6",
			"_borrowGuardianPaused()": "e6653f3d",
			"_grantLendt(address,uint256)": "7662af3d",
			"_mintGuardianPaused()": "3c94786f",
			"_setBorrowCapGuardian(address)": "391957d7",
			"_setBorrowPaused(address,bool)": "18c882a5",
			"_setCloseFactor(uint256)": "317b0b77",
			"_setCollateralFactor(address,uint256)": "e4028eee",
			"_setContributorLendtSpeed(address,uint256)": "beb046fd",
			"_setLendtSpeed(address,uint256)": "37713e91",
			"_setLiquidationIncentive(uint256)": "4fd42e17",
			"_setMarketBorrowCaps(address[],uint256[])": "607ef6c1",
			"_setMintPaused(address,bool)": "3bcf7ec1",
			"_setPauseGuardian(address)": "5f5af1aa",
			"_setPriceOracle(address)": "55ee1fe1",
			"_setSeizePaused(bool)": "2d70db78",
			"_setTransferPaused(bool)": "8ebf6364",
			"_supportMarket(address)": "a76b3fda",
			"accountAssets(address,uint256)": "dce15449",
			"admin()": "f851a440",
			"allMarkets(uint256)": "52d84d1e",
			"borrowAllowed(address,address,uint256)": "da3d454c",
			"borrowCapGuardian()": "21af4569",
			"borrowCaps(address)": "4a584432",
			"borrowGuardianPaused(address)": "6d154ea5",
			"borrowVerify(address,address,uint256)": "5c778605",
			"checkMembership(address,address)": "929fe9a1",
			"claimLendt(address)": "3de28d45",
			"claimLendt(address,address[])": "51f2eafb",
			"claimLendt(address[],address[],bool,bool)": "23f1b3d4",
			"closeFactorMantissa()": "e8755446",
			"enterMarkets(address[])": "c2998238",
			"exitMarket(address)": "ede4edd0",
			"getAccountLiquidity(address)": "5ec88c79",
			"getAllMarkets()": "b0772d0b",
			"getAssetsIn(address)": "abfceffc",
			"getBlockNumber()": "42cbb15c",
			"getHypotheticalAccountLiquidity(address,address,uint256,uint256)": "4e79238f",
			"getLendtAddress()": "f9664258",
			"isDeprecated(address)": "94543c15",
			"isTENTroller()": "4c0aff54",
			"lastContributorBlock(address)": "bea6b8b8",
			"lendtAccrued(address)": "07418ff7",
			"lendtBorrowState(address)": "85799548",
			"lendtBorrowerIndex(address,address)": "ae9343d4",
			"lendtContributorSpeeds(address)": "1013667a",
			"lendtInitialIndex()": "9f66cde9",
			"lendtRate()": "50d89208",
			"lendtSpeeds(address)": "a0a4f390",
			"lendtSupplierIndex(address,address)": "d1a6dfc4",
			"lendtSupplyState(address)": "916e8b09",
			"liquidateBorrowAllowed(address,address,address,address,uint256)": "5fc7e71e",
			"liquidateBorrowVerify(address,address,address,address,uint256,uint256)": "47ef3b3b",
			"liquidateCalculateSeizeTokens(address,address,uint256)": "c488847b",
			"liquidationIncentiveMantissa()": "4ada90af",
			"markets(address)": "8e8f294b",
			"maxAssets()": "94b2294b",
			"mintAllowed(address,address,uint256)": "4ef4c3e1",
			"mintGuardianPaused(address)": "731f0c2b",
			"mintVerify(address,address,uint256,uint256)": "41c728b9",
			"oracle()": "7dc0d1d0",
			"pauseGuardian()": "24a3d622",
			"pendingAdmin()": "26782247",
			"pendingTENTrollerImplementation()": "56d5141e",
			"redeemAllowed(address,address,uint256)": "eabe7d91",
			"redeemVerify(address,address,uint256,uint256)": "51dff989",
			"repayBorrowAllowed(address,address,address,uint256)": "24008a62",
			"repayBorrowVerify(address,address,address,uint256,uint256)": "1ededc91",
			"seizeAllowed(address,address,address,address,uint256)": "d02f7351",
			"seizeGuardianPaused()": "ac0b0bb7",
			"seizeVerify(address,address,address,address,uint256)": "6d35bf91",
			"transferAllowed(address,address,address,uint256)": "bdcdc258",
			"transferGuardianPaused()": "87f76303",
			"transferVerify(address,address,address,uint256)": "6a56947e",
			"updateContributorRewards(address)": "741b2525"
		}
	},
	"abi": [
		{
			"inputs": [],
			"payable": false,
			"stateMutability": "nonpayable",
			"type": "constructor"
		},
		{
			"anonymous": false,
			"inputs": [
				{
					"indexed": false,
					"internalType": "string",
					"name": "action",
					"type": "string"
				},
				{
					"indexed": false,
					"internalType": "bool",
					"name": "pauseState",
					"type": "bool"
				}
			],
			"name": "ActionPaused",
			"type": "event"
		},
		{
			"anonymous": false,
			"inputs": [
				{
					"indexed": false,
					"internalType": "contract TToken",
					"name": "tToken",
					"type": "address"
				},
				{
					"indexed": false,
					"internalType": "string",
					"name": "action",
					"type": "string"
				},
				{
					"indexed": false,
					"internalType": "bool",
					"name": "pauseState",
					"type": "bool"
				}
			],
			"name": "ActionPaused",
			"type": "event"
		},
		{
			"anonymous": false,
			"inputs": [
				{
					"indexed": true,
					"internalType": "address",
					"name": "contributor",
					"type": "address"
				},
				{
					"indexed": false,
					"internalType": "uint256",
					"name": "newSpeed",
					"type": "uint256"
				}
			],
			"name": "ContributorLendtSpeedUpdated",
			"type": "event"
		},
		{
			"anonymous": false,
			"inputs": [
				{
					"indexed": true,
					"internalType": "contract TToken",
					"name": "tToken",
					"type": "address"
				},
				{
					"indexed": true,
					"internalType": "address",
					"name": "borrower",
					"type": "address"
				},
				{
					"indexed": false,
					"internalType": "uint256",
					"name": "lendtDelta",
					"type": "uint256"
				},
				{
					"indexed": false,
					"internalType": "uint256",
					"name": "lendtBorrowIndex",
					"type": "uint256"
				}
			],
			"name": "DistributedBorrowerLendt",
			"type": "event"
		},
		{
			"anonymous": false,
			"inputs": [
				{
					"indexed": true,
					"internalType": "contract TToken",
					"name": "tToken",
					"type": "address"
				},
				{
					"indexed": true,
					"internalType": "address",
					"name": "supplier",
					"type": "address"
				},
				{
					"indexed": false,
					"internalType": "uint256",
					"name": "lendtDelta",
					"type": "uint256"
				},
				{
					"indexed": false,
					"internalType": "uint256",
					"name": "lendtSupplyIndex",
					"type": "uint256"
				}
			],
			"name": "DistributedSupplierLendt",
			"type": "event"
		},
		{
			"anonymous": false,
			"inputs": [
				{
					"indexed": false,
					"internalType": "uint256",
					"name": "error",
					"type": "uint256"
				},
				{
					"indexed": false,
					"internalType": "uint256",
					"name": "info",
					"type": "uint256"
				},
				{
					"indexed": false,
					"internalType": "uint256",
					"name": "detail",
					"type": "uint256"
				}
			],
			"name": "Failure",
			"type": "event"
		},
		{
			"anonymous": false,
			"inputs": [
				{
					"indexed": false,
					"internalType": "address",
					"name": "recipient",
					"type": "address"
				},
				{
					"indexed": false,
					"internalType": "uint256",
					"name": "amount",
					"type": "uint256"
				}
			],
			"name": "LendtGranted",
			"type": "event"
		},
		{
			"anonymous": false,
			"inputs": [
				{
					"indexed": true,
					"internalType": "contract TToken",
					"name": "tToken",
					"type": "address"
				},
				{
					"indexed": false,
					"internalType": "uint256",
					"name": "newSpeed",
					"type": "uint256"
				}
			],
			"name": "LendtSpeedUpdated",
			"type": "event"
		},
		{
			"anonymous": false,
			"inputs": [
				{
					"indexed": false,
					"internalType": "contract TToken",
					"name": "tToken",
					"type": "address"
				},
				{
					"indexed": false,
					"internalType": "address",
					"name": "account",
					"type": "address"
				}
			],
			"name": "MarketEntered",
			"type": "event"
		},
		{
			"anonymous": false,
			"inputs": [
				{
					"indexed": false,
					"internalType": "contract TToken",
					"name": "tToken",
					"type": "address"
				},
				{
					"indexed": false,
					"internalType": "address",
					"name": "account",
					"type": "address"
				}
			],
			"name": "MarketExited",
			"type": "event"
		},
		{
			"anonymous": false,
			"inputs": [
				{
					"indexed": false,
					"internalType": "contract TToken",
					"name": "tToken",
					"type": "address"
				}
			],
			"name": "MarketListed",
			"type": "event"
		},
		{
			"anonymous": false,
			"inputs": [
				{
					"indexed": true,
					"internalType": "contract TToken",
					"name": "tToken",
					"type": "address"
				},
				{
					"indexed": false,
					"internalType": "uint256",
					"name": "newBorrowCap",
					"type": "uint256"
				}
			],
			"name": "NewBorrowCap",
			"type": "event"
		},
		{
			"anonymous": false,
			"inputs": [
				{
					"indexed": false,
					"internalType": "address",
					"name": "oldBorrowCapGuardian",
					"type": "address"
				},
				{
					"indexed": false,
					"internalType": "address",
					"name": "newBorrowCapGuardian",
					"type": "address"
				}
			],
			"name": "NewBorrowCapGuardian",
			"type": "event"
		},
		{
			"anonymous": false,
			"inputs": [
				{
					"indexed": false,
					"internalType": "uint256",
					"name": "oldCloseFactorMantissa",
					"type": "uint256"
				},
				{
					"indexed": false,
					"internalType": "uint256",
					"name": "newCloseFactorMantissa",
					"type": "uint256"
				}
			],
			"name": "NewCloseFactor",
			"type": "event"
		},
		{
			"anonymous": false,
			"inputs": [
				{
					"indexed": false,
					"internalType": "contract TToken",
					"name": "tToken",
					"type": "address"
				},
				{
					"indexed": false,
					"internalType": "uint256",
					"name": "oldCollateralFactorMantissa",
					"type": "uint256"
				},
				{
					"indexed": false,
					"internalType": "uint256",
					"name": "newCollateralFactorMantissa",
					"type": "uint256"
				}
			],
			"name": "NewCollateralFactor",
			"type": "event"
		},
		{
			"anonymous": false,
			"inputs": [
				{
					"indexed": false,
					"internalType": "uint256",
					"name": "oldLiquidationIncentiveMantissa",
					"type": "uint256"
				},
				{
					"indexed": false,
					"internalType": "uint256",
					"name": "newLiquidationIncentiveMantissa",
					"type": "uint256"
				}
			],
			"name": "NewLiquidationIncentive",
			"type": "event"
		},
		{
			"anonymous": false,
			"inputs": [
				{
					"indexed": false,
					"internalType": "address",
					"name": "oldPauseGuardian",
					"type": "address"
				},
				{
					"indexed": false,
					"internalType": "address",
					"name": "newPauseGuardian",
					"type": "address"
				}
			],
			"name": "NewPauseGuardian",
			"type": "event"
		},
		{
			"anonymous": false,
			"inputs": [
				{
					"indexed": false,
					"internalType": "contract PriceOracle",
					"name": "oldPriceOracle",
					"type": "address"
				},
				{
					"indexed": false,
					"internalType": "contract PriceOracle",
					"name": "newPriceOracle",
					"type": "address"
				}
			],
			"name": "NewPriceOracle",
			"type": "event"
		},
		{
			"constant": true,
			"inputs": [],
			"name": "Implementation",
			"outputs": [
				{
					"internalType": "address",
					"name": "",
					"type": "address"
				}
			],
			"payable": false,
			"stateMutability": "view",
			"type": "function"
		},
		{
			"constant": false,
			"inputs": [
				{
					"internalType": "contract Unitroller",
					"name": "unitroller",
					"type": "address"
				}
			],
			"name": "_become",
			"outputs": [],
			"payable": false,
			"stateMutability": "nonpayable",
			"type": "function"
		},
		{
			"constant": true,
			"inputs": [],
			"name": "_borrowGuardianPaused",
			"outputs": [
				{
					"internalType": "bool",
					"name": "",
					"type": "bool"
				}
			],
			"payable": false,
			"stateMutability": "view",
			"type": "function"
		},
		{
			"constant": false,
			"inputs": [
				{
					"internalType": "address",
					"name": "recipient",
					"type": "address"
				},
				{
					"internalType": "uint256",
					"name": "amount",
					"type": "uint256"
				}
			],
			"name": "_grantLendt",
			"outputs": [],
			"payable": false,
			"stateMutability": "nonpayable",
			"type": "function"
		},
		{
			"constant": true,
			"inputs": [],
			"name": "_mintGuardianPaused",
			"outputs": [
				{
					"internalType": "bool",
					"name": "",
					"type": "bool"
				}
			],
			"payable": false,
			"stateMutability": "view",
			"type": "function"
		},
		{
			"constant": false,
			"inputs": [
				{
					"internalType": "address",
					"name": "newBorrowCapGuardian",
					"type": "address"
				}
			],
			"name": "_setBorrowCapGuardian",
			"outputs": [],
			"payable": false,
			"stateMutability": "nonpayable",
			"type": "function"
		},
		{
			"constant": false,
			"inputs": [
				{
					"internalType": "contract TToken",
					"name": "tToken",
					"type": "address"
				},
				{
					"internalType": "bool",
					"name": "state",
					"type": "bool"
				}
			],
			"name": "_setBorrowPaused",
			"outputs": [
				{
					"internalType": "bool",
					"name": "",
					"type": "bool"
				}
			],
			"payable": false,
			"stateMutability": "nonpayable",
			"type": "function"
		},
		{
			"constant": false,
			"inputs": [
				{
					"internalType": "uint256",
					"name": "newCloseFactorMantissa",
					"type": "uint256"
				}
			],
			"name": "_setCloseFactor",
			"outputs": [
				{
					"internalType": "uint256",
					"name": "",
					"type": "uint256"
				}
			],
			"payable": false,
			"stateMutability": "nonpayable",
			"type": "function"
		},
		{
			"constant": false,
			"inputs": [
				{
					"internalType": "contract TToken",
					"name": "tToken",
					"type": "address"
				},
				{
					"internalType": "uint256",
					"name": "newCollateralFactorMantissa",
					"type": "uint256"
				}
			],
			"name": "_setCollateralFactor",
			"outputs": [
				{
					"internalType": "uint256",
					"name": "",
					"type": "uint256"
				}
			],
			"payable": false,
			"stateMutability": "nonpayable",
			"type": "function"
		},
		{
			"constant": false,
			"inputs": [
				{
					"internalType": "address",
					"name": "contributor",
					"type": "address"
				},
				{
					"internalType": "uint256",
					"name": "lendtSpeed",
					"type": "uint256"
				}
			],
			"name": "_setContributorLendtSpeed",
			"outputs": [],
			"payable": false,
			"stateMutability": "nonpayable",
			"type": "function"
		},
		{
			"constant": false,
			"inputs": [
				{
					"internalType": "contract TToken",
					"name": "tToken",
					"type": "address"
				},
				{
					"internalType": "uint256",
					"name": "lendtSpeed",
					"type": "uint256"
				}
			],
			"name": "_setLendtSpeed",
			"outputs": [],
			"payable": false,
			"stateMutability": "nonpayable",
			"type": "function"
		},
		{
			"constant": false,
			"inputs": [
				{
					"internalType": "uint256",
					"name": "newLiquidationIncentiveMantissa",
					"type": "uint256"
				}
			],
			"name": "_setLiquidationIncentive",
			"outputs": [
				{
					"internalType": "uint256",
					"name": "",
					"type": "uint256"
				}
			],
			"payable": false,
			"stateMutability": "nonpayable",
			"type": "function"
		},
		{
			"constant": false,
			"inputs": [
				{
					"internalType": "contract TToken[]",
					"name": "tTokens",
					"type": "address[]"
				},
				{
					"internalType": "uint256[]",
					"name": "newBorrowCaps",
					"type": "uint256[]"
				}
			],
			"name": "_setMarketBorrowCaps",
			"outputs": [],
			"payable": false,
			"stateMutability": "nonpayable",
			"type": "function"
		},
		{
			"constant": false,
			"inputs": [
				{
					"internalType": "contract TToken",
					"name": "tToken",
					"type": "address"
				},
				{
					"internalType": "bool",
					"name": "state",
					"type": "bool"
				}
			],
			"name": "_setMintPaused",
			"outputs": [
				{
					"internalType": "bool",
					"name": "",
					"type": "bool"
				}
			],
			"payable": false,
			"stateMutability": "nonpayable",
			"type": "function"
		},
		{
			"constant": false,
			"inputs": [
				{
					"internalType": "address",
					"name": "newPauseGuardian",
					"type": "address"
				}
			],
			"name": "_setPauseGuardian",
			"outputs": [
				{
					"internalType": "uint256",
					"name": "",
					"type": "uint256"
				}
			],
			"payable": false,
			"stateMutability": "nonpayable",
			"type": "function"
		},
		{
			"constant": false,
			"inputs": [
				{
					"internalType": "contract PriceOracle",
					"name": "newOracle",
					"type": "address"
				}
			],
			"name": "_setPriceOracle",
			"outputs": [
				{
					"internalType": "uint256",
					"name": "",
					"type": "uint256"
				}
			],
			"payable": false,
			"stateMutability": "nonpayable",
			"type": "function"
		},
		{
			"constant": false,
			"inputs": [
				{
					"internalType": "bool",
					"name": "state",
					"type": "bool"
				}
			],
			"name": "_setSeizePaused",
			"outputs": [
				{
					"internalType": "bool",
					"name": "",
					"type": "bool"
				}
			],
			"payable": false,
			"stateMutability": "nonpayable",
			"type": "function"
		},
		{
			"constant": false,
			"inputs": [
				{
					"internalType": "bool",
					"name": "state",
					"type": "bool"
				}
			],
			"name": "_setTransferPaused",
			"outputs": [
				{
					"internalType": "bool",
					"name": "",
					"type": "bool"
				}
			],
			"payable": false,
			"stateMutability": "nonpayable",
			"type": "function"
		},
		{
			"constant": false,
			"inputs": [
				{
					"internalType": "contract TToken",
					"name": "tToken",
					"type": "address"
				}
			],
			"name": "_supportMarket",
			"outputs": [
				{
					"internalType": "uint256",
					"name": "",
					"type": "uint256"
				}
			],
			"payable": false,
			"stateMutability": "nonpayable",
			"type": "function"
		},
		{
			"constant": true,
			"inputs": [
				{
					"internalType": "address",
					"name": "",
					"type": "address"
				},
				{
					"internalType": "uint256",
					"name": "",
					"type": "uint256"
				}
			],
			"name": "accountAssets",
			"outputs": [
				{
					"internalType": "contract TToken",
					"name": "",
					"type": "address"
				}
			],
			"payable": false,
			"stateMutability": "view",
			"type": "function"
		},
		{
			"constant": true,
			"inputs": [],
			"name": "admin",
			"outputs": [
				{
					"internalType": "address",
					"name": "",
					"type": "address"
				}
			],
			"payable": false,
			"stateMutability": "view",
			"type": "function"
		},
		{
			"constant": true,
			"inputs": [
				{
					"internalType": "uint256",
					"name": "",
					"type": "uint256"
				}
			],
			"name": "allMarkets",
			"outputs": [
				{
					"internalType": "contract TToken",
					"name": "",
					"type": "address"
				}
			],
			"payable": false,
			"stateMutability": "view",
			"type": "function"
		},
		{
			"constant": false,
			"inputs": [
				{
					"internalType": "address",
					"name": "tToken",
					"type": "address"
				},
				{
					"internalType": "address",
					"name": "borrower",
					"type": "address"
				},
				{
					"internalType": "uint256",
					"name": "borrowAmount",
					"type": "uint256"
				}
			],
			"name": "borrowAllowed",
			"outputs": [
				{
					"internalType": "uint256",
					"name": "",
					"type": "uint256"
				}
			],
			"payable": false,
			"stateMutability": "nonpayable",
			"type": "function"
		},
		{
			"constant": true,
			"inputs": [],
			"name": "borrowCapGuardian",
			"outputs": [
				{
					"internalType": "address",
					"name": "",
					"type": "address"
				}
			],
			"payable": false,
			"stateMutability": "view",
			"type": "function"
		},
		{
			"constant": true,
			"inputs": [
				{
					"internalType": "address",
					"name": "",
					"type": "address"
				}
			],
			"name": "borrowCaps",
			"outputs": [
				{
					"internalType": "uint256",
					"name": "",
					"type": "uint256"
				}
			],
			"payable": false,
			"stateMutability": "view",
			"type": "function"
		},
		{
			"constant": true,
			"inputs": [
				{
					"internalType": "address",
					"name": "",
					"type": "address"
				}
			],
			"name": "borrowGuardianPaused",
			"outputs": [
				{
					"internalType": "bool",
					"name": "",
					"type": "bool"
				}
			],
			"payable": false,
			"stateMutability": "view",
			"type": "function"
		},
		{
			"constant": false,
			"inputs": [
				{
					"internalType": "address",
					"name": "tToken",
					"type": "address"
				},
				{
					"internalType": "address",
					"name": "borrower",
					"type": "address"
				},
				{
					"internalType": "uint256",
					"name": "borrowAmount",
					"type": "uint256"
				}
			],
			"name": "borrowVerify",
			"outputs": [],
			"payable": false,
			"stateMutability": "nonpayable",
			"type": "function"
		},
		{
			"constant": true,
			"inputs": [
				{
					"internalType": "address",
					"name": "account",
					"type": "address"
				},
				{
					"internalType": "contract TToken",
					"name": "tToken",
					"type": "address"
				}
			],
			"name": "checkMembership",
			"outputs": [
				{
					"internalType": "bool",
					"name": "",
					"type": "bool"
				}
			],
			"payable": false,
			"stateMutability": "view",
			"type": "function"
		},
		{
			"constant": false,
			"inputs": [
				{
					"internalType": "address[]",
					"name": "holders",
					"type": "address[]"
				},
				{
					"internalType": "contract TToken[]",
					"name": "tTokens",
					"type": "address[]"
				},
				{
					"internalType": "bool",
					"name": "borrowers",
					"type": "bool"
				},
				{
					"internalType": "bool",
					"name": "suppliers",
					"type": "bool"
				}
			],
			"name": "claimLendt",
			"outputs": [],
			"payable": false,
			"stateMutability": "nonpayable",
			"type": "function"
		},
		{
			"constant": false,
			"inputs": [
				{
					"internalType": "address",
					"name": "holder",
					"type": "address"
				}
			],
			"name": "claimLendt",
			"outputs": [],
			"payable": false,
			"stateMutability": "nonpayable",
			"type": "function"
		},
		{
			"constant": false,
			"inputs": [
				{
					"internalType": "address",
					"name": "holder",
					"type": "address"
				},
				{
					"internalType": "contract TToken[]",
					"name": "tTokens",
					"type": "address[]"
				}
			],
			"name": "claimLendt",
			"outputs": [],
			"payable": false,
			"stateMutability": "nonpayable",
			"type": "function"
		},
		{
			"constant": true,
			"inputs": [],
			"name": "closeFactorMantissa",
			"outputs": [
				{
					"internalType": "uint256",
					"name": "",
					"type": "uint256"
				}
			],
			"payable": false,
			"stateMutability": "view",
			"type": "function"
		},
		{
			"constant": false,
			"inputs": [
				{
					"internalType": "address[]",
					"name": "tTokens",
					"type": "address[]"
				}
			],
			"name": "enterMarkets",
			"outputs": [
				{
					"internalType": "uint256[]",
					"name": "",
					"type": "uint256[]"
				}
			],
			"payable": false,
			"stateMutability": "nonpayable",
			"type": "function"
		},
		{
			"constant": false,
			"inputs": [
				{
					"internalType": "address",
					"name": "tTokenAddress",
					"type": "address"
				}
			],
			"name": "exitMarket",
			"outputs": [
				{
					"internalType": "uint256",
					"name": "",
					"type": "uint256"
				}
			],
			"payable": false,
			"stateMutability": "nonpayable",
			"type": "function"
		},
		{
			"constant": true,
			"inputs": [
				{
					"internalType": "address",
					"name": "account",
					"type": "address"
				}
			],
			"name": "getAccountLiquidity",
			"outputs": [
				{
					"internalType": "uint256",
					"name": "",
					"type": "uint256"
				},
				{
					"internalType": "uint256",
					"name": "",
					"type": "uint256"
				},
				{
					"internalType": "uint256",
					"name": "",
					"type": "uint256"
				}
			],
			"payable": false,
			"stateMutability": "view",
			"type": "function"
		},
		{
			"constant": true,
			"inputs": [],
			"name": "getAllMarkets",
			"outputs": [
				{
					"internalType": "contract TToken[]",
					"name": "",
					"type": "address[]"
				}
			],
			"payable": false,
			"stateMutability": "view",
			"type": "function"
		},
		{
			"constant": true,
			"inputs": [
				{
					"internalType": "address",
					"name": "account",
					"type": "address"
				}
			],
			"name": "getAssetsIn",
			"outputs": [
				{
					"internalType": "contract TToken[]",
					"name": "",
					"type": "address[]"
				}
			],
			"payable": false,
			"stateMutability": "view",
			"type": "function"
		},
		{
			"constant": true,
			"inputs": [],
			"name": "getBlockNumber",
			"outputs": [
				{
					"internalType": "uint256",
					"name": "",
					"type": "uint256"
				}
			],
			"payable": false,
			"stateMutability": "view",
			"type": "function"
		},
		{
			"constant": true,
			"inputs": [
				{
					"internalType": "address",
					"name": "account",
					"type": "address"
				},
				{
					"internalType": "address",
					"name": "tTokenModify",
					"type": "address"
				},
				{
					"internalType": "uint256",
					"name": "redeemTokens",
					"type": "uint256"
				},
				{
					"internalType": "uint256",
					"name": "borrowAmount",
					"type": "uint256"
				}
			],
			"name": "getHypotheticalAccountLiquidity",
			"outputs": [
				{
					"internalType": "uint256",
					"name": "",
					"type": "uint256"
				},
				{
					"internalType": "uint256",
					"name": "",
					"type": "uint256"
				},
				{
					"internalType": "uint256",
					"name": "",
					"type": "uint256"
				}
			],
			"payable": false,
			"stateMutability": "view",
			"type": "function"
		},
		{
			"constant": true,
			"inputs": [],
			"name": "getLendtAddress",
			"outputs": [
				{
					"internalType": "address",
					"name": "",
					"type": "address"
				}
			],
			"payable": false,
			"stateMutability": "view",
			"type": "function"
		},
		{
			"constant": true,
			"inputs": [
				{
					"internalType": "contract TToken",
					"name": "tToken",
					"type": "address"
				}
			],
			"name": "isDeprecated",
			"outputs": [
				{
					"internalType": "bool",
					"name": "",
					"type": "bool"
				}
			],
			"payable": false,
			"stateMutability": "view",
			"type": "function"
		},
		{
			"constant": true,
			"inputs": [],
			"name": "isTENTroller",
			"outputs": [
				{
					"internalType": "bool",
					"name": "",
					"type": "bool"
				}
			],
			"payable": false,
			"stateMutability": "view",
			"type": "function"
		},
		{
			"constant": true,
			"inputs": [
				{
					"internalType": "address",
					"name": "",
					"type": "address"
				}
			],
			"name": "lastContributorBlock",
			"outputs": [
				{
					"internalType": "uint256",
					"name": "",
					"type": "uint256"
				}
			],
			"payable": false,
			"stateMutability": "view",
			"type": "function"
		},
		{
			"constant": true,
			"inputs": [
				{
					"internalType": "address",
					"name": "",
					"type": "address"
				}
			],
			"name": "lendtAccrued",
			"outputs": [
				{
					"internalType": "uint256",
					"name": "",
					"type": "uint256"
				}
			],
			"payable": false,
			"stateMutability": "view",
			"type": "function"
		},
		{
			"constant": true,
			"inputs": [
				{
					"internalType": "address",
					"name": "",
					"type": "address"
				}
			],
			"name": "lendtBorrowState",
			"outputs": [
				{
					"internalType": "uint224",
					"name": "index",
					"type": "uint224"
				},
				{
					"internalType": "uint32",
					"name": "block",
					"type": "uint32"
				}
			],
			"payable": false,
			"stateMutability": "view",
			"type": "function"
		},
		{
			"constant": true,
			"inputs": [
				{
					"internalType": "address",
					"name": "",
					"type": "address"
				},
				{
					"internalType": "address",
					"name": "",
					"type": "address"
				}
			],
			"name": "lendtBorrowerIndex",
			"outputs": [
				{
					"internalType": "uint256",
					"name": "",
					"type": "uint256"
				}
			],
			"payable": false,
			"stateMutability": "view",
			"type": "function"
		},
		{
			"constant": true,
			"inputs": [
				{
					"internalType": "address",
					"name": "",
					"type": "address"
				}
			],
			"name": "lendtContributorSpeeds",
			"outputs": [
				{
					"internalType": "uint256",
					"name": "",
					"type": "uint256"
				}
			],
			"payable": false,
			"stateMutability": "view",
			"type": "function"
		},
		{
			"constant": true,
			"inputs": [],
			"name": "lendtInitialIndex",
			"outputs": [
				{
					"internalType": "uint224",
					"name": "",
					"type": "uint224"
				}
			],
			"payable": false,
			"stateMutability": "view",
			"type": "function"
		},
		{
			"constant": true,
			"inputs": [],
			"name": "lendtRate",
			"outputs": [
				{
					"internalType": "uint256",
					"name": "",
					"type": "uint256"
				}
			],
			"payable": false,
			"stateMutability": "view",
			"type": "function"
		},
		{
			"constant": true,
			"inputs": [
				{
					"internalType": "address",
					"name": "",
					"type": "address"
				}
			],
			"name": "lendtSpeeds",
			"outputs": [
				{
					"internalType": "uint256",
					"name": "",
					"type": "uint256"
				}
			],
			"payable": false,
			"stateMutability": "view",
			"type": "function"
		},
		{
			"constant": true,
			"inputs": [
				{
					"internalType": "address",
					"name": "",
					"type": "address"
				},
				{
					"internalType": "address",
					"name": "",
					"type": "address"
				}
			],
			"name": "lendtSupplierIndex",
			"outputs": [
				{
					"internalType": "uint256",
					"name": "",
					"type": "uint256"
				}
			],
			"payable": false,
			"stateMutability": "view",
			"type": "function"
		},
		{
			"constant": true,
			"inputs": [
				{
					"internalType": "address",
					"name": "",
					"type": "address"
				}
			],
			"name": "lendtSupplyState",
			"outputs": [
				{
					"internalType": "uint224",
					"name": "index",
					"type": "uint224"
				},
				{
					"internalType": "uint32",
					"name": "block",
					"type": "uint32"
				}
			],
			"payable": false,
			"stateMutability": "view",
			"type": "function"
		},
		{
			"constant": false,
			"inputs": [
				{
					"internalType": "address",
					"name": "tTokenBorrowed",
					"type": "address"
				},
				{
					"internalType": "address",
					"name": "tTokenCollateral",
					"type": "address"
				},
				{
					"internalType": "address",
					"name": "liquidator",
					"type": "address"
				},
				{
					"internalType": "address",
					"name": "borrower",
					"type": "address"
				},
				{
					"internalType": "uint256",
					"name": "repayAmount",
					"type": "uint256"
				}
			],
			"name": "liquidateBorrowAllowed",
			"outputs": [
				{
					"internalType": "uint256",
					"name": "",
					"type": "uint256"
				}
			],
			"payable": false,
			"stateMutability": "nonpayable",
			"type": "function"
		},
		{
			"constant": false,
			"inputs": [
				{
					"internalType": "address",
					"name": "tTokenBorrowed",
					"type": "address"
				},
				{
					"internalType": "address",
					"name": "tTokenCollateral",
					"type": "address"
				},
				{
					"internalType": "address",
					"name": "liquidator",
					"type": "address"
				},
				{
					"internalType": "address",
					"name": "borrower",
					"type": "address"
				},
				{
					"internalType": "uint256",
					"name": "actualRepayAmount",
					"type": "uint256"
				},
				{
					"internalType": "uint256",
					"name": "seizeTokens",
					"type": "uint256"
				}
			],
			"name": "liquidateBorrowVerify",
			"outputs": [],
			"payable": false,
			"stateMutability": "nonpayable",
			"type": "function"
		},
		{
			"constant": true,
			"inputs": [
				{
					"internalType": "address",
					"name": "tTokenBorrowed",
					"type": "address"
				},
				{
					"internalType": "address",
					"name": "tTokenCollateral",
					"type": "address"
				},
				{
					"internalType": "uint256",
					"name": "actualRepayAmount",
					"type": "uint256"
				}
			],
			"name": "liquidateCalculateSeizeTokens",
			"outputs": [
				{
					"internalType": "uint256",
					"name": "",
					"type": "uint256"
				},
				{
					"internalType": "uint256",
					"name": "",
					"type": "uint256"
				}
			],
			"payable": false,
			"stateMutability": "view",
			"type": "function"
		},
		{
			"constant": true,
			"inputs": [],
			"name": "liquidationIncentiveMantissa",
			"outputs": [
				{
					"internalType": "uint256",
					"name": "",
					"type": "uint256"
				}
			],
			"payable": false,
			"stateMutability": "view",
			"type": "function"
		},
		{
			"constant": true,
			"inputs": [
				{
					"internalType": "address",
					"name": "",
					"type": "address"
				}
			],
			"name": "markets",
			"outputs": [
				{
					"internalType": "bool",
					"name": "isListed",
					"type": "bool"
				},
				{
					"internalType": "uint256",
					"name": "collateralFactorMantissa",
					"type": "uint256"
				},
				{
					"internalType": "bool",
					"name": "isLendted",
					"type": "bool"
				}
			],
			"payable": false,
			"stateMutability": "view",
			"type": "function"
		},
		{
			"constant": true,
			"inputs": [],
			"name": "maxAssets",
			"outputs": [
				{
					"internalType": "uint256",
					"name": "",
					"type": "uint256"
				}
			],
			"payable": false,
			"stateMutability": "view",
			"type": "function"
		},
		{
			"constant": false,
			"inputs": [
				{
					"internalType": "address",
					"name": "tToken",
					"type": "address"
				},
				{
					"internalType": "address",
					"name": "minter",
					"type": "address"
				},
				{
					"internalType": "uint256",
					"name": "mintAmount",
					"type": "uint256"
				}
			],
			"name": "mintAllowed",
			"outputs": [
				{
					"internalType": "uint256",
					"name": "",
					"type": "uint256"
				}
			],
			"payable": false,
			"stateMutability": "nonpayable",
			"type": "function"
		},
		{
			"constant": true,
			"inputs": [
				{
					"internalType": "address",
					"name": "",
					"type": "address"
				}
			],
			"name": "mintGuardianPaused",
			"outputs": [
				{
					"internalType": "bool",
					"name": "",
					"type": "bool"
				}
			],
			"payable": false,
			"stateMutability": "view",
			"type": "function"
		},
		{
			"constant": false,
			"inputs": [
				{
					"internalType": "address",
					"name": "tToken",
					"type": "address"
				},
				{
					"internalType": "address",
					"name": "minter",
					"type": "address"
				},
				{
					"internalType": "uint256",
					"name": "actualMintAmount",
					"type": "uint256"
				},
				{
					"internalType": "uint256",
					"name": "mintTokens",
					"type": "uint256"
				}
			],
			"name": "mintVerify",
			"outputs": [],
			"payable": false,
			"stateMutability": "nonpayable",
			"type": "function"
		},
		{
			"constant": true,
			"inputs": [],
			"name": "oracle",
			"outputs": [
				{
					"internalType": "contract PriceOracle",
					"name": "",
					"type": "address"
				}
			],
			"payable": false,
			"stateMutability": "view",
			"type": "function"
		},
		{
			"constant": true,
			"inputs": [],
			"name": "pauseGuardian",
			"outputs": [
				{
					"internalType": "address",
					"name": "",
					"type": "address"
				}
			],
			"payable": false,
			"stateMutability": "view",
			"type": "function"
		},
		{
			"constant": true,
			"inputs": [],
			"name": "pendingAdmin",
			"outputs": [
				{
					"internalType": "address",
					"name": "",
					"type": "address"
				}
			],
			"payable": false,
			"stateMutability": "view",
			"type": "function"
		},
		{
			"constant": true,
			"inputs": [],
			"name": "pendingTENTrollerImplementation",
			"outputs": [
				{
					"internalType": "address",
					"name": "",
					"type": "address"
				}
			],
			"payable": false,
			"stateMutability": "view",
			"type": "function"
		},
		{
			"constant": false,
			"inputs": [
				{
					"internalType": "address",
					"name": "tToken",
					"type": "address"
				},
				{
					"internalType": "address",
					"name": "redeemer",
					"type": "address"
				},
				{
					"internalType": "uint256",
					"name": "redeemTokens",
					"type": "uint256"
				}
			],
			"name": "redeemAllowed",
			"outputs": [
				{
					"internalType": "uint256",
					"name": "",
					"type": "uint256"
				}
			],
			"payable": false,
			"stateMutability": "nonpayable",
			"type": "function"
		},
		{
			"constant": false,
			"inputs": [
				{
					"internalType": "address",
					"name": "tToken",
					"type": "address"
				},
				{
					"internalType": "address",
					"name": "redeemer",
					"type": "address"
				},
				{
					"internalType": "uint256",
					"name": "redeemAmount",
					"type": "uint256"
				},
				{
					"internalType": "uint256",
					"name": "redeemTokens",
					"type": "uint256"
				}
			],
			"name": "redeemVerify",
			"outputs": [],
			"payable": false,
			"stateMutability": "nonpayable",
			"type": "function"
		},
		{
			"constant": false,
			"inputs": [
				{
					"internalType": "address",
					"name": "tToken",
					"type": "address"
				},
				{
					"internalType": "address",
					"name": "payer",
					"type": "address"
				},
				{
					"internalType": "address",
					"name": "borrower",
					"type": "address"
				},
				{
					"internalType": "uint256",
					"name": "repayAmount",
					"type": "uint256"
				}
			],
			"name": "repayBorrowAllowed",
			"outputs": [
				{
					"internalType": "uint256",
					"name": "",
					"type": "uint256"
				}
			],
			"payable": false,
			"stateMutability": "nonpayable",
			"type": "function"
		},
		{
			"constant": false,
			"inputs": [
				{
					"internalType": "address",
					"name": "tToken",
					"type": "address"
				},
				{
					"internalType": "address",
					"name": "payer",
					"type": "address"
				},
				{
					"internalType": "address",
					"name": "borrower",
					"type": "address"
				},
				{
					"internalType": "uint256",
					"name": "actualRepayAmount",
					"type": "uint256"
				},
				{
					"internalType": "uint256",
					"name": "borrowerIndex",
					"type": "uint256"
				}
			],
			"name": "repayBorrowVerify",
			"outputs": [],
			"payable": false,
			"stateMutability": "nonpayable",
			"type": "function"
		},
		{
			"constant": false,
			"inputs": [
				{
					"internalType": "address",
					"name": "tTokenCollateral",
					"type": "address"
				},
				{
					"internalType": "address",
					"name": "tTokenBorrowed",
					"type": "address"
				},
				{
					"internalType": "address",
					"name": "liquidator",
					"type": "address"
				},
				{
					"internalType": "address",
					"name": "borrower",
					"type": "address"
				},
				{
					"internalType": "uint256",
					"name": "seizeTokens",
					"type": "uint256"
				}
			],
			"name": "seizeAllowed",
			"outputs": [
				{
					"internalType": "uint256",
					"name": "",
					"type": "uint256"
				}
			],
			"payable": false,
			"stateMutability": "nonpayable",
			"type": "function"
		},
		{
			"constant": true,
			"inputs": [],
			"name": "seizeGuardianPaused",
			"outputs": [
				{
					"internalType": "bool",
					"name": "",
					"type": "bool"
				}
			],
			"payable": false,
			"stateMutability": "view",
			"type": "function"
		},
		{
			"constant": false,
			"inputs": [
				{
					"internalType": "address",
					"name": "tTokenCollateral",
					"type": "address"
				},
				{
					"internalType": "address",
					"name": "tTokenBorrowed",
					"type": "address"
				},
				{
					"internalType": "address",
					"name": "liquidator",
					"type": "address"
				},
				{
					"internalType": "address",
					"name": "borrower",
					"type": "address"
				},
				{
					"internalType": "uint256",
					"name": "seizeTokens",
					"type": "uint256"
				}
			],
			"name": "seizeVerify",
			"outputs": [],
			"payable": false,
			"stateMutability": "nonpayable",
			"type": "function"
		},
		{
			"constant": false,
			"inputs": [
				{
					"internalType": "address",
					"name": "tToken",
					"type": "address"
				},
				{
					"internalType": "address",
					"name": "src",
					"type": "address"
				},
				{
					"internalType": "address",
					"name": "dst",
					"type": "address"
				},
				{
					"internalType": "uint256",
					"name": "transferTokens",
					"type": "uint256"
				}
			],
			"name": "transferAllowed",
			"outputs": [
				{
					"internalType": "uint256",
					"name": "",
					"type": "uint256"
				}
			],
			"payable": false,
			"stateMutability": "nonpayable",
			"type": "function"
		},
		{
			"constant": true,
			"inputs": [],
			"name": "transferGuardianPaused",
			"outputs": [
				{
					"internalType": "bool",
					"name": "",
					"type": "bool"
				}
			],
			"payable": false,
			"stateMutability": "view",
			"type": "function"
		},
		{
			"constant": false,
			"inputs": [
				{
					"internalType": "address",
					"name": "tToken",
					"type": "address"
				},
				{
					"internalType": "address",
					"name": "src",
					"type": "address"
				},
				{
					"internalType": "address",
					"name": "dst",
					"type": "address"
				},
				{
					"internalType": "uint256",
					"name": "transferTokens",
					"type": "uint256"
				}
			],
			"name": "transferVerify",
			"outputs": [],
			"payable": false,
			"stateMutability": "nonpayable",
			"type": "function"
		},
		{
			"constant": false,
			"inputs": [
				{
					"internalType": "address",
					"name": "contributor",
					"type": "address"
				}
			],
			"name": "updateContributorRewards",
			"outputs": [],
			"payable": false,
			"stateMutability": "nonpayable",
			"type": "function"
		}
	]
}