{
	"data": {
		"bytecode": {
			"linkReferences": {},
			"object": "608060405234801561001057600080fd5b506106ed806100206000396000f3fe608060405234801561001057600080fd5b50600436106101a95760003560e01c806385799548116100f9578063ae9343d411610097578063e6653f3d11610071578063e6653f3d14610467578063e6a8ee4f1461046f578063e875544614610477578063f851a4401461047f576101a9565b8063ae9343d4146103df578063d1a6dfc41461040d578063dce154491461043b576101a9565b8063916e8b09116100d3578063916e8b091461038357806394b2294b146103a9578063a0a4f390146103b1578063ac0b0bb7146103d7576101a9565b806385799548146102e557806387f76303146103335780638e8f294b1461033b576101a9565b80634ada90af1161016657806356d5141e1161014057806356d5141e146102895780636d154ea514610291578063731f0c2b146102b75780637dc0d1d0146102dd576101a9565b80634ada90af1461025c57806350d892081461026457806352d84d1e1461026c576101a9565b806307418ff7146101ae57806321af4569146101e657806324a3d6221461020a57806326782247146102125780633c94786f1461021a5780634a58443214610236575b600080fd5b6101d4600480360360208110156101c457600080fd5b50356001600160a01b0316610487565b60408051918252519081900360200190f35b6101ee610499565b604080516001600160a01b039092168252519081900360200190f35b6101ee6104a8565b6101ee6104b7565b6102226104c6565b604080519115158252519081900360200190f35b6101d46004803603602081101561024c57600080fd5b50356001600160a01b03166104d6565b6101d46104e8565b6101d46104ee565b6101ee6004803603602081101561028257600080fd5b50356104f4565b6101ee61051b565b610222600480360360208110156102a757600080fd5b50356001600160a01b031661052a565b610222600480360360208110156102cd57600080fd5b50356001600160a01b031661053f565b6101ee610554565b61030b600480360360208110156102fb57600080fd5b50356001600160a01b0316610563565b604080516001600160e01b03909316835263ffffffff90911660208301528051918290030190f35b61022261058d565b6103616004803603602081101561035157600080fd5b50356001600160a01b031661059d565b6040805193151584526020840192909252151582820152519081900360600190f35b61030b6004803603602081101561039957600080fd5b50356001600160a01b03166105c3565b6101d46105ed565b6101d4600480360360208110156103c757600080fd5b50356001600160a01b03166105f3565b610222610605565b6101d4600480360360408110156103f557600080fd5b506001600160a01b0381358116916020013516610615565b6101d46004803603604081101561042357600080fd5b506001600160a01b0381358116916020013516610632565b6101ee6004803603604081101561045157600080fd5b506001600160a01b03813516906020013561064f565b610222610684565b6101ee610694565b6101d46106a3565b6101ee6106a9565b60146020526000908152604090205481565b6015546001600160a01b031681565b600a546001600160a01b031681565b6001546001600160a01b031681565b600a54600160a01b900460ff1681565b60166020526000908152604090205481565b60065481565b600e5481565b600d818154811061050157fe5b6000918252602090912001546001600160a01b0316905081565b6003546001600160a01b031681565b600c6020526000908152604090205460ff1681565b600b6020526000908152604090205460ff1681565b6004546001600160a01b031681565b6011602052600090815260409020546001600160e01b03811690600160e01b900463ffffffff1682565b600a54600160b01b900460ff1681565b60096020526000908152604090208054600182015460039092015460ff91821692911683565b6010602052600090815260409020546001600160e01b03811690600160e01b900463ffffffff1682565b60075481565b600f6020526000908152604090205481565b600a54600160b81b900460ff1681565b601360209081526000928352604080842090915290825290205481565b601260209081526000928352604080842090915290825290205481565b6008602052816000526040600020818154811061066857fe5b6000918252602090912001546001600160a01b03169150829050565b600a54600160a81b900460ff1681565b6002546001600160a01b031681565b60055481565b6000546001600160a01b03168156fea265627a7a72315820b5c456a5ec4276bc14c8a03b20ba87c1b6121f0a6c2604441c48d143df51aaea64736f6c63430005100032",
			"opcodes": "PUSH1 0x80 PUSH1 0x40 MSTORE CALLVALUE DUP1 ISZERO PUSH2 0x10 JUMPI PUSH1 0x0 DUP1 REVERT JUMPDEST POP PUSH2 0x6ED DUP1 PUSH2 0x20 PUSH1 0x0 CODECOPY PUSH1 0x0 RETURN INVALID PUSH1 0x80 PUSH1 0x40 MSTORE CALLVALUE DUP1 ISZERO PUSH2 0x10 JUMPI PUSH1 0x0 DUP1 REVERT JUMPDEST POP PUSH1 0x4 CALLDATASIZE LT PUSH2 0x1A9 JUMPI PUSH1 0x0 CALLDATALOAD PUSH1 0xE0 SHR DUP1 PUSH4 0x85799548 GT PUSH2 0xF9 JUMPI DUP1 PUSH4 0xAE9343D4 GT PUSH2 0x97 JUMPI DUP1 PUSH4 0xE6653F3D GT PUSH2 0x71 JUMPI DUP1 PUSH4 0xE6653F3D EQ PUSH2 0x467 JUMPI DUP1 PUSH4 0xE6A8EE4F EQ PUSH2 0x46F JUMPI DUP1 PUSH4 0xE8755446 EQ PUSH2 0x477 JUMPI DUP1 PUSH4 0xF851A440 EQ PUSH2 0x47F JUMPI PUSH2 0x1A9 JUMP JUMPDEST DUP1 PUSH4 0xAE9343D4 EQ PUSH2 0x3DF JUMPI DUP1 PUSH4 0xD1A6DFC4 EQ PUSH2 0x40D JUMPI DUP1 PUSH4 0xDCE15449 EQ PUSH2 0x43B JUMPI PUSH2 0x1A9 JUMP JUMPDEST DUP1 PUSH4 0x916E8B09 GT PUSH2 0xD3 JUMPI DUP1 PUSH4 0x916E8B09 EQ PUSH2 0x383 JUMPI DUP1 PUSH4 0x94B2294B EQ PUSH2 0x3A9 JUMPI DUP1 PUSH4 0xA0A4F390 EQ PUSH2 0x3B1 JUMPI DUP1 PUSH4 0xAC0B0BB7 EQ PUSH2 0x3D7 JUMPI PUSH2 0x1A9 JUMP JUMPDEST DUP1 PUSH4 0x85799548 EQ PUSH2 0x2E5 JUMPI DUP1 PUSH4 0x87F76303 EQ PUSH2 0x333 JUMPI DUP1 PUSH4 0x8E8F294B EQ PUSH2 0x33B JUMPI PUSH2 0x1A9 JUMP JUMPDEST DUP1 PUSH4 0x4ADA90AF GT PUSH2 0x166 JUMPI DUP1 PUSH4 0x56D5141E GT PUSH2 0x140 JUMPI DUP1 PUSH4 0x56D5141E EQ PUSH2 0x289 JUMPI DUP1 PUSH4 0x6D154EA5 EQ PUSH2 0x291 JUMPI DUP1 PUSH4 0x731F0C2B EQ PUSH2 0x2B7 JUMPI DUP1 PUSH4 0x7DC0D1D0 EQ PUSH2 0x2DD JUMPI PUSH2 0x1A9 JUMP JUMPDEST DUP1 PUSH4 0x4ADA90AF EQ PUSH2 0x25C JUMPI DUP1 PUSH4 0x50D89208 EQ PUSH2 0x264 JUMPI DUP1 PUSH4 0x52D84D1E EQ PUSH2 0x26C JUMPI PUSH2 0x1A9 JUMP JUMPDEST DUP1 PUSH4 0x7418FF7 EQ PUSH2 0x1AE JUMPI DUP1 PUSH4 0x21AF4569 EQ PUSH2 0x1E6 JUMPI DUP1 PUSH4 0x24A3D622 EQ PUSH2 0x20A JUMPI DUP1 PUSH4 0x26782247 EQ PUSH2 0x212 JUMPI DUP1 PUSH4 0x3C94786F EQ PUSH2 0x21A JUMPI DUP1 PUSH4 0x4A584432 EQ PUSH2 0x236 JUMPI JUMPDEST PUSH1 0x0 DUP1 REVERT JUMPDEST PUSH2 0x1D4 PUSH1 0x4 DUP1 CALLDATASIZE SUB PUSH1 0x20 DUP2 LT ISZERO PUSH2 0x1C4 JUMPI PUSH1 0x0 DUP1 REVERT JUMPDEST POP CALLDATALOAD PUSH1 0x1 PUSH1 0x1 PUSH1 0xA0 SHL SUB AND PUSH2 0x487 JUMP JUMPDEST PUSH1 0x40 DUP1 MLOAD SWAP2 DUP3 MSTORE MLOAD SWAP1 DUP2 SWAP1 SUB PUSH1 0x20 ADD SWAP1 RETURN JUMPDEST PUSH2 0x1EE PUSH2 0x499 JUMP JUMPDEST PUSH1 0x40 DUP1 MLOAD PUSH1 0x1 PUSH1 0x1 PUSH1 0xA0 SHL SUB SWAP1 SWAP3 AND DUP3 MSTORE MLOAD SWAP1 DUP2 SWAP1 SUB PUSH1 0x20 ADD SWAP1 RETURN JUMPDEST PUSH2 0x1EE PUSH2 0x4A8 JUMP JUMPDEST PUSH2 0x1EE PUSH2 0x4B7 JUMP JUMPDEST PUSH2 0x222 PUSH2 0x4C6 JUMP JUMPDEST PUSH1 0x40 DUP1 MLOAD SWAP2 ISZERO ISZERO DUP3 MSTORE MLOAD SWAP1 DUP2 SWAP1 SUB PUSH1 0x20 ADD SWAP1 RETURN JUMPDEST PUSH2 0x1D4 PUSH1 0x4 DUP1 CALLDATASIZE SUB PUSH1 0x20 DUP2 LT ISZERO PUSH2 0x24C JUMPI PUSH1 0x0 DUP1 REVERT JUMPDEST POP CALLDATALOAD PUSH1 0x1 PUSH1 0x1 PUSH1 0xA0 SHL SUB AND PUSH2 0x4D6 JUMP JUMPDEST PUSH2 0x1D4 PUSH2 0x4E8 JUMP JUMPDEST PUSH2 0x1D4 PUSH2 0x4EE JUMP JUMPDEST PUSH2 0x1EE PUSH1 0x4 DUP1 CALLDATASIZE SUB PUSH1 0x20 DUP2 LT ISZERO PUSH2 0x282 JUMPI PUSH1 0x0 DUP1 REVERT JUMPDEST POP CALLDATALOAD PUSH2 0x4F4 JUMP JUMPDEST PUSH2 0x1EE PUSH2 0x51B JUMP JUMPDEST PUSH2 0x222 PUSH1 0x4 DUP1 CALLDATASIZE SUB PUSH1 0x20 DUP2 LT ISZERO PUSH2 0x2A7 JUMPI PUSH1 0x0 DUP1 REVERT JUMPDEST POP CALLDATALOAD PUSH1 0x1 PUSH1 0x1 PUSH1 0xA0 SHL SUB AND PUSH2 0x52A JUMP JUMPDEST PUSH2 0x222 PUSH1 0x4 DUP1 CALLDATASIZE SUB PUSH1 0x20 DUP2 LT ISZERO PUSH2 0x2CD JUMPI PUSH1 0x0 DUP1 REVERT JUMPDEST POP CALLDATALOAD PUSH1 0x1 PUSH1 0x1 PUSH1 0xA0 SHL SUB AND PUSH2 0x53F JUMP JUMPDEST PUSH2 0x1EE PUSH2 0x554 JUMP JUMPDEST PUSH2 0x30B PUSH1 0x4 DUP1 CALLDATASIZE SUB PUSH1 0x20 DUP2 LT ISZERO PUSH2 0x2FB JUMPI PUSH1 0x0 DUP1 REVERT JUMPDEST POP CALLDATALOAD PUSH1 0x1 PUSH1 0x1 PUSH1 0xA0 SHL SUB AND PUSH2 0x563 JUMP JUMPDEST PUSH1 0x40 DUP1 MLOAD PUSH1 0x1 PUSH1 0x1 PUSH1 0xE0 SHL SUB SWAP1 SWAP4 AND DUP4 MSTORE PUSH4 0xFFFFFFFF SWAP1 SWAP2 AND PUSH1 0x20 DUP4 ADD MSTORE DUP1 MLOAD SWAP2 DUP3 SWAP1 SUB ADD SWAP1 RETURN JUMPDEST PUSH2 0x222 PUSH2 0x58D JUMP JUMPDEST PUSH2 0x361 PUSH1 0x4 DUP1 CALLDATASIZE SUB PUSH1 0x20 DUP2 LT ISZERO PUSH2 0x351 JUMPI PUSH1 0x0 DUP1 REVERT JUMPDEST POP CALLDATALOAD PUSH1 0x1 PUSH1 0x1 PUSH1 0xA0 SHL SUB AND PUSH2 0x59D JUMP JUMPDEST PUSH1 0x40 DUP1 MLOAD SWAP4 ISZERO ISZERO DUP5 MSTORE PUSH1 0x20 DUP5 ADD SWAP3 SWAP1 SWAP3 MSTORE ISZERO ISZERO DUP3 DUP3 ADD MSTORE MLOAD SWAP1 DUP2 SWAP1 SUB PUSH1 0x60 ADD SWAP1 RETURN JUMPDEST PUSH2 0x30B PUSH1 0x4 DUP1 CALLDATASIZE SUB PUSH1 0x20 DUP2 LT ISZERO PUSH2 0x399 JUMPI PUSH1 0x0 DUP1 REVERT JUMPDEST POP CALLDATALOAD PUSH1 0x1 PUSH1 0x1 PUSH1 0xA0 SHL SUB AND PUSH2 0x5C3 JUMP JUMPDEST PUSH2 0x1D4 PUSH2 0x5ED JUMP JUMPDEST PUSH2 0x1D4 PUSH1 0x4 DUP1 CALLDATASIZE SUB PUSH1 0x20 DUP2 LT ISZERO PUSH2 0x3C7 JUMPI PUSH1 0x0 DUP1 REVERT JUMPDEST POP CALLDATALOAD PUSH1 0x1 PUSH1 0x1 PUSH1 0xA0 SHL SUB AND PUSH2 0x5F3 JUMP JUMPDEST PUSH2 0x222 PUSH2 0x605 JUMP JUMPDEST PUSH2 0x1D4 PUSH1 0x4 DUP1 CALLDATASIZE SUB PUSH1 0x40 DUP2 LT ISZERO PUSH2 0x3F5 JUMPI PUSH1 0x0 DUP1 REVERT JUMPDEST POP PUSH1 0x1 PUSH1 0x1 PUSH1 0xA0 SHL SUB DUP2 CALLDATALOAD DUP2 AND SWAP2 PUSH1 0x20 ADD CALLDATALOAD AND PUSH2 0x615 JUMP JUMPDEST PUSH2 0x1D4 PUSH1 0x4 DUP1 CALLDATASIZE SUB PUSH1 0x40 DUP2 LT ISZERO PUSH2 0x423 JUMPI PUSH1 0x0 DUP1 REVERT JUMPDEST POP PUSH1 0x1 PUSH1 0x1 PUSH1 0xA0 SHL SUB DUP2 CALLDATALOAD DUP2 AND SWAP2 PUSH1 0x20 ADD CALLDATALOAD AND PUSH2 0x632 JUMP JUMPDEST PUSH2 0x1EE PUSH1 0x4 DUP1 CALLDATASIZE SUB PUSH1 0x40 DUP2 LT ISZERO PUSH2 0x451 JUMPI PUSH1 0x0 DUP1 REVERT JUMPDEST POP PUSH1 0x1 PUSH1 0x1 PUSH1 0xA0 SHL SUB DUP2 CALLDATALOAD AND SWAP1 PUSH1 0x20 ADD CALLDATALOAD PUSH2 0x64F JUMP JUMPDEST PUSH2 0x222 PUSH2 0x684 JUMP JUMPDEST PUSH2 0x1EE PUSH2 0x694 JUMP JUMPDEST PUSH2 0x1D4 PUSH2 0x6A3 JUMP JUMPDEST PUSH2 0x1EE PUSH2 0x6A9 JUMP JUMPDEST PUSH1 0x14 PUSH1 0x20 MSTORE PUSH1 0x0 SWAP1 DUP2 MSTORE PUSH1 0x40 SWAP1 KECCAK256 SLOAD DUP2 JUMP JUMPDEST PUSH1 0x15 SLOAD PUSH1 0x1 PUSH1 0x1 PUSH1 0xA0 SHL SUB AND DUP2 JUMP JUMPDEST PUSH1 0xA SLOAD PUSH1 0x1 PUSH1 0x1 PUSH1 0xA0 SHL SUB AND DUP2 JUMP JUMPDEST PUSH1 0x1 SLOAD PUSH1 0x1 PUSH1 0x1 PUSH1 0xA0 SHL SUB AND DUP2 JUMP JUMPDEST PUSH1 0xA SLOAD PUSH1 0x1 PUSH1 0xA0 SHL SWAP1 DIV PUSH1 0xFF AND DUP2 JUMP JUMPDEST PUSH1 0x16 PUSH1 0x20 MSTORE PUSH1 0x0 SWAP1 DUP2 MSTORE PUSH1 0x40 SWAP1 KECCAK256 SLOAD DUP2 JUMP JUMPDEST PUSH1 0x6 SLOAD DUP2 JUMP JUMPDEST PUSH1 0xE SLOAD DUP2 JUMP JUMPDEST PUSH1 0xD DUP2 DUP2 SLOAD DUP2 LT PUSH2 0x501 JUMPI INVALID JUMPDEST PUSH1 0x0 SWAP2 DUP3 MSTORE PUSH1 0x20 SWAP1 SWAP2 KECCAK256 ADD SLOAD PUSH1 0x1 PUSH1 0x1 PUSH1 0xA0 SHL SUB AND SWAP1 POP DUP2 JUMP JUMPDEST PUSH1 0x3 SLOAD PUSH1 0x1 PUSH1 0x1 PUSH1 0xA0 SHL SUB AND DUP2 JUMP JUMPDEST PUSH1 0xC PUSH1 0x20 MSTORE PUSH1 0x0 SWAP1 DUP2 MSTORE PUSH1 0x40 SWAP1 KECCAK256 SLOAD PUSH1 0xFF AND DUP2 JUMP JUMPDEST PUSH1 0xB PUSH1 0x20 MSTORE PUSH1 0x0 SWAP1 DUP2 MSTORE PUSH1 0x40 SWAP1 KECCAK256 SLOAD PUSH1 0xFF AND DUP2 JUMP JUMPDEST PUSH1 0x4 SLOAD PUSH1 0x1 PUSH1 0x1 PUSH1 0xA0 SHL SUB AND DUP2 JUMP JUMPDEST PUSH1 0x11 PUSH1 0x20 MSTORE PUSH1 0x0 SWAP1 DUP2 MSTORE PUSH1 0x40 SWAP1 KECCAK256 SLOAD PUSH1 0x1 PUSH1 0x1 PUSH1 0xE0 SHL SUB DUP2 AND SWAP1 PUSH1 0x1 PUSH1 0xE0 SHL SWAP1 DIV PUSH4 0xFFFFFFFF AND DUP3 JUMP JUMPDEST PUSH1 0xA SLOAD PUSH1 0x1 PUSH1 0xB0 SHL SWAP1 DIV PUSH1 0xFF AND DUP2 JUMP JUMPDEST PUSH1 0x9 PUSH1 0x20 MSTORE PUSH1 0x0 SWAP1 DUP2 MSTORE PUSH1 0x40 SWAP1 KECCAK256 DUP1 SLOAD PUSH1 0x1 DUP3 ADD SLOAD PUSH1 0x3 SWAP1 SWAP3 ADD SLOAD PUSH1 0xFF SWAP2 DUP3 AND SWAP3 SWAP2 AND DUP4 JUMP JUMPDEST PUSH1 0x10 PUSH1 0x20 MSTORE PUSH1 0x0 SWAP1 DUP2 MSTORE PUSH1 0x40 SWAP1 KECCAK256 SLOAD PUSH1 0x1 PUSH1 0x1 PUSH1 0xE0 SHL SUB DUP2 AND SWAP1 PUSH1 0x1 PUSH1 0xE0 SHL SWAP1 DIV PUSH4 0xFFFFFFFF AND DUP3 JUMP JUMPDEST PUSH1 0x7 SLOAD DUP2 JUMP JUMPDEST PUSH1 0xF PUSH1 0x20 MSTORE PUSH1 0x0 SWAP1 DUP2 MSTORE PUSH1 0x40 SWAP1 KECCAK256 SLOAD DUP2 JUMP JUMPDEST PUSH1 0xA SLOAD PUSH1 0x1 PUSH1 0xB8 SHL SWAP1 DIV PUSH1 0xFF AND DUP2 JUMP JUMPDEST PUSH1 0x13 PUSH1 0x20 SWAP1 DUP2 MSTORE PUSH1 0x0 SWAP3 DUP4 MSTORE PUSH1 0x40 DUP1 DUP5 KECCAK256 SWAP1 SWAP2 MSTORE SWAP1 DUP3 MSTORE SWAP1 KECCAK256 SLOAD DUP2 JUMP JUMPDEST PUSH1 0x12 PUSH1 0x20 SWAP1 DUP2 MSTORE PUSH1 0x0 SWAP3 DUP4 MSTORE PUSH1 0x40 DUP1 DUP5 KECCAK256 SWAP1 SWAP2 MSTORE SWAP1 DUP3 MSTORE SWAP1 KECCAK256 SLOAD DUP2 JUMP JUMPDEST PUSH1 0x8 PUSH1 0x20 MSTORE DUP2 PUSH1 0x0 MSTORE PUSH1 0x40 PUSH1 0x0 KECCAK256 DUP2 DUP2 SLOAD DUP2 LT PUSH2 0x668 JUMPI INVALID JUMPDEST PUSH1 0x0 SWAP2 DUP3 MSTORE PUSH1 0x20 SWAP1 SWAP2 KECCAK256 ADD SLOAD PUSH1 0x1 PUSH1 0x1 PUSH1 0xA0 SHL SUB AND SWAP2 POP DUP3 SWAP1 POP JUMP JUMPDEST PUSH1 0xA SLOAD PUSH1 0x1 PUSH1 0xA8 SHL SWAP1 DIV PUSH1 0xFF AND DUP2 JUMP JUMPDEST PUSH1 0x2 SLOAD PUSH1 0x1 PUSH1 0x1 PUSH1 0xA0 SHL SUB AND DUP2 JUMP JUMPDEST PUSH1 0x5 SLOAD DUP2 JUMP JUMPDEST PUSH1 0x0 SLOAD PUSH1 0x1 PUSH1 0x1 PUSH1 0xA0 SHL SUB AND DUP2 JUMP INVALID LOG2 PUSH6 0x627A7A723158 KECCAK256 0xB5 0xC4 JUMP 0xA5 0xEC TIMESTAMP PUSH23 0xBC14C8A03B20BA87C1B6121F0A6C2604441C48D143DF51 0xAA 0xEA PUSH5 0x736F6C6343 STOP SDIV LT STOP ORIGIN "
		},
		"gasEstimates": {
			"creation": {
				"codeDepositCost": "354600",
				"executionCost": "393",
				"totalCost": "354993"
			},
			"external": {
				"Implementation()": "1103",
				"_borrowGuardianPaused()": "1071",
				"_mintGuardianPaused()": "1139",
				"accountAssets(address,uint256)": "2160",
				"admin()": "1147",
				"allMarkets(uint256)": "2060",
				"borrowCapGuardian()": "1083",
				"borrowCaps(address)": "1258",
				"borrowGuardianPaused(address)": "1203",
				"closeFactorMantissa()": "1086",
				"lendtAccrued(address)": "1148",
				"lendtBorrowState(address)": "1265",
				"lendtBorrowerIndex(address,address)": "1262",
				"lendtRate()": "1066",
				"lendtSpeeds(address)": "1213",
				"lendtSupplierIndex(address,address)": "1284",
				"lendtSupplyState(address)": "1264",
				"liquidationIncentiveMantissa()": "1044",
				"markets(address)": "2910",
				"maxAssets()": "1065",
				"mintGuardianPaused(address)": "1225",
				"oracle()": "1148",
				"pauseGuardian()": "1105",
				"pendingAdmin()": "1127",
				"pendingTENTrollerImplementation()": "1082",
				"seizeGuardianPaused()": "1138",
				"transferGuardianPaused()": "1095"
			}
		},
		"methodIdentifiers": {
			"Implementation()": "e6a8ee4f",
			"_borrowGuardianPaused()": "e6653f3d",
			"_mintGuardianPaused()": "3c94786f",
			"accountAssets(address,uint256)": "dce15449",
			"admin()": "f851a440",
			"allMarkets(uint256)": "52d84d1e",
			"borrowCapGuardian()": "21af4569",
			"borrowCaps(address)": "4a584432",
			"borrowGuardianPaused(address)": "6d154ea5",
			"closeFactorMantissa()": "e8755446",
			"lendtAccrued(address)": "07418ff7",
			"lendtBorrowState(address)": "85799548",
			"lendtBorrowerIndex(address,address)": "ae9343d4",
			"lendtRate()": "50d89208",
			"lendtSpeeds(address)": "a0a4f390",
			"lendtSupplierIndex(address,address)": "d1a6dfc4",
			"lendtSupplyState(address)": "916e8b09",
			"liquidationIncentiveMantissa()": "4ada90af",
			"markets(address)": "8e8f294b",
			"maxAssets()": "94b2294b",
			"mintGuardianPaused(address)": "731f0c2b",
			"oracle()": "7dc0d1d0",
			"pauseGuardian()": "24a3d622",
			"pendingAdmin()": "26782247",
			"pendingTENTrollerImplementation()": "56d5141e",
			"seizeGuardianPaused()": "ac0b0bb7",
			"transferGuardianPaused()": "87f76303"
		}
	},
	"abi": [
		{
			"constant": true,
			"inputs": [],
			"name": "Implementation",
			"outputs": [
				{
					"internalType": "address",
					"name": "",
					"type": "address"
				}
			],
			"payable": false,
			"stateMutability": "view",
			"type": "function"
		},
		{
			"constant": true,
			"inputs": [],
			"name": "_borrowGuardianPaused",
			"outputs": [
				{
					"internalType": "bool",
					"name": "",
					"type": "bool"
				}
			],
			"payable": false,
			"stateMutability": "view",
			"type": "function"
		},
		{
			"constant": true,
			"inputs": [],
			"name": "_mintGuardianPaused",
			"outputs": [
				{
					"internalType": "bool",
					"name": "",
					"type": "bool"
				}
			],
			"payable": false,
			"stateMutability": "view",
			"type": "function"
		},
		{
			"constant": true,
			"inputs": [
				{
					"internalType": "address",
					"name": "",
					"type": "address"
				},
				{
					"internalType": "uint256",
					"name": "",
					"type": "uint256"
				}
			],
			"name": "accountAssets",
			"outputs": [
				{
					"internalType": "contract TToken",
					"name": "",
					"type": "address"
				}
			],
			"payable": false,
			"stateMutability": "view",
			"type": "function"
		},
		{
			"constant": true,
			"inputs": [],
			"name": "admin",
			"outputs": [
				{
					"internalType": "address",
					"name": "",
					"type": "address"
				}
			],
			"payable": false,
			"stateMutability": "view",
			"type": "function"
		},
		{
			"constant": true,
			"inputs": [
				{
					"internalType": "uint256",
					"name": "",
					"type": "uint256"
				}
			],
			"name": "allMarkets",
			"outputs": [
				{
					"internalType": "contract TToken",
					"name": "",
					"type": "address"
				}
			],
			"payable": false,
			"stateMutability": "view",
			"type": "function"
		},
		{
			"constant": true,
			"inputs": [],
			"name": "borrowCapGuardian",
			"outputs": [
				{
					"internalType": "address",
					"name": "",
					"type": "address"
				}
			],
			"payable": false,
			"stateMutability": "view",
			"type": "function"
		},
		{
			"constant": true,
			"inputs": [
				{
					"internalType": "address",
					"name": "",
					"type": "address"
				}
			],
			"name": "borrowCaps",
			"outputs": [
				{
					"internalType": "uint256",
					"name": "",
					"type": "uint256"
				}
			],
			"payable": false,
			"stateMutability": "view",
			"type": "function"
		},
		{
			"constant": true,
			"inputs": [
				{
					"internalType": "address",
					"name": "",
					"type": "address"
				}
			],
			"name": "borrowGuardianPaused",
			"outputs": [
				{
					"internalType": "bool",
					"name": "",
					"type": "bool"
				}
			],
			"payable": false,
			"stateMutability": "view",
			"type": "function"
		},
		{
			"constant": true,
			"inputs": [],
			"name": "closeFactorMantissa",
			"outputs": [
				{
					"internalType": "uint256",
					"name": "",
					"type": "uint256"
				}
			],
			"payable": false,
			"stateMutability": "view",
			"type": "function"
		},
		{
			"constant": true,
			"inputs": [
				{
					"internalType": "address",
					"name": "",
					"type": "address"
				}
			],
			"name": "lendtAccrued",
			"outputs": [
				{
					"internalType": "uint256",
					"name": "",
					"type": "uint256"
				}
			],
			"payable": false,
			"stateMutability": "view",
			"type": "function"
		},
		{
			"constant": true,
			"inputs": [
				{
					"internalType": "address",
					"name": "",
					"type": "address"
				}
			],
			"name": "lendtBorrowState",
			"outputs": [
				{
					"internalType": "uint224",
					"name": "index",
					"type": "uint224"
				},
				{
					"internalType": "uint32",
					"name": "block",
					"type": "uint32"
				}
			],
			"payable": false,
			"stateMutability": "view",
			"type": "function"
		},
		{
			"constant": true,
			"inputs": [
				{
					"internalType": "address",
					"name": "",
					"type": "address"
				},
				{
					"internalType": "address",
					"name": "",
					"type": "address"
				}
			],
			"name": "lendtBorrowerIndex",
			"outputs": [
				{
					"internalType": "uint256",
					"name": "",
					"type": "uint256"
				}
			],
			"payable": false,
			"stateMutability": "view",
			"type": "function"
		},
		{
			"constant": true,
			"inputs": [],
			"name": "lendtRate",
			"outputs": [
				{
					"internalType": "uint256",
					"name": "",
					"type": "uint256"
				}
			],
			"payable": false,
			"stateMutability": "view",
			"type": "function"
		},
		{
			"constant": true,
			"inputs": [
				{
					"internalType": "address",
					"name": "",
					"type": "address"
				}
			],
			"name": "lendtSpeeds",
			"outputs": [
				{
					"internalType": "uint256",
					"name": "",
					"type": "uint256"
				}
			],
			"payable": false,
			"stateMutability": "view",
			"type": "function"
		},
		{
			"constant": true,
			"inputs": [
				{
					"internalType": "address",
					"name": "",
					"type": "address"
				},
				{
					"internalType": "address",
					"name": "",
					"type": "address"
				}
			],
			"name": "lendtSupplierIndex",
			"outputs": [
				{
					"internalType": "uint256",
					"name": "",
					"type": "uint256"
				}
			],
			"payable": false,
			"stateMutability": "view",
			"type": "function"
		},
		{
			"constant": true,
			"inputs": [
				{
					"internalType": "address",
					"name": "",
					"type": "address"
				}
			],
			"name": "lendtSupplyState",
			"outputs": [
				{
					"internalType": "uint224",
					"name": "index",
					"type": "uint224"
				},
				{
					"internalType": "uint32",
					"name": "block",
					"type": "uint32"
				}
			],
			"payable": false,
			"stateMutability": "view",
			"type": "function"
		},
		{
			"constant": true,
			"inputs": [],
			"name": "liquidationIncentiveMantissa",
			"outputs": [
				{
					"internalType": "uint256",
					"name": "",
					"type": "uint256"
				}
			],
			"payable": false,
			"stateMutability": "view",
			"type": "function"
		},
		{
			"constant": true,
			"inputs": [
				{
					"internalType": "address",
					"name": "",
					"type": "address"
				}
			],
			"name": "markets",
			"outputs": [
				{
					"internalType": "bool",
					"name": "isListed",
					"type": "bool"
				},
				{
					"internalType": "uint256",
					"name": "collateralFactorMantissa",
					"type": "uint256"
				},
				{
					"internalType": "bool",
					"name": "isLENDted",
					"type": "bool"
				}
			],
			"payable": false,
			"stateMutability": "view",
			"type": "function"
		},
		{
			"constant": true,
			"inputs": [],
			"name": "maxAssets",
			"outputs": [
				{
					"internalType": "uint256",
					"name": "",
					"type": "uint256"
				}
			],
			"payable": false,
			"stateMutability": "view",
			"type": "function"
		},
		{
			"constant": true,
			"inputs": [
				{
					"internalType": "address",
					"name": "",
					"type": "address"
				}
			],
			"name": "mintGuardianPaused",
			"outputs": [
				{
					"internalType": "bool",
					"name": "",
					"type": "bool"
				}
			],
			"payable": false,
			"stateMutability": "view",
			"type": "function"
		},
		{
			"constant": true,
			"inputs": [],
			"name": "oracle",
			"outputs": [
				{
					"internalType": "contract PriceOracle",
					"name": "",
					"type": "address"
				}
			],
			"payable": false,
			"stateMutability": "view",
			"type": "function"
		},
		{
			"constant": true,
			"inputs": [],
			"name": "pauseGuardian",
			"outputs": [
				{
					"internalType": "address",
					"name": "",
					"type": "address"
				}
			],
			"payable": false,
			"stateMutability": "view",
			"type": "function"
		},
		{
			"constant": true,
			"inputs": [],
			"name": "pendingAdmin",
			"outputs": [
				{
					"internalType": "address",
					"name": "",
					"type": "address"
				}
			],
			"payable": false,
			"stateMutability": "view",
			"type": "function"
		},
		{
			"constant": true,
			"inputs": [],
			"name": "pendingTENTrollerImplementation",
			"outputs": [
				{
					"internalType": "address",
					"name": "",
					"type": "address"
				}
			],
			"payable": false,
			"stateMutability": "view",
			"type": "function"
		},
		{
			"constant": true,
			"inputs": [],
			"name": "seizeGuardianPaused",
			"outputs": [
				{
					"internalType": "bool",
					"name": "",
					"type": "bool"
				}
			],
			"payable": false,
			"stateMutability": "view",
			"type": "function"
		},
		{
			"constant": true,
			"inputs": [],
			"name": "transferGuardianPaused",
			"outputs": [
				{
					"internalType": "bool",
					"name": "",
					"type": "bool"
				}
			],
			"payable": false,
			"stateMutability": "view",
			"type": "function"
		}
	]
}