{
	"data": {
		"bytecode": {
			"linkReferences": {},
			"object": "6080604052348015600f57600080fd5b5060938061001e6000396000f3fe6080604052348015600f57600080fd5b506004361060285760003560e01c80636f307dc314602d575b600080fd5b6033604f565b604080516001600160a01b039092168252519081900360200190f35b6000546001600160a01b03168156fea265627a7a72315820625b9a146b82b9d4be7241e2f4e2a1542864229711d18667ad90a466d6cea87564736f6c63430005100032",
			"opcodes": "PUSH1 0x80 PUSH1 0x40 MSTORE CALLVALUE DUP1 ISZERO PUSH1 0xF JUMPI PUSH1 0x0 DUP1 REVERT JUMPDEST POP PUSH1 0x93 DUP1 PUSH2 0x1E PUSH1 0x0 CODECOPY PUSH1 0x0 RETURN INVALID PUSH1 0x80 PUSH1 0x40 MSTORE CALLVALUE DUP1 ISZERO PUSH1 0xF JUMPI PUSH1 0x0 DUP1 REVERT JUMPDEST POP PUSH1 0x4 CALLDATASIZE LT PUSH1 0x28 JUMPI PUSH1 0x0 CALLDATALOAD PUSH1 0xE0 SHR DUP1 PUSH4 0x6F307DC3 EQ PUSH1 0x2D JUMPI JUMPDEST PUSH1 0x0 DUP1 REVERT JUMPDEST PUSH1 0x33 PUSH1 0x4F JUMP JUMPDEST PUSH1 0x40 DUP1 MLOAD PUSH1 0x1 PUSH1 0x1 PUSH1 0xA0 SHL SUB SWAP1 SWAP3 AND DUP3 MSTORE MLOAD SWAP1 DUP2 SWAP1 SUB PUSH1 0x20 ADD SWAP1 RETURN JUMPDEST PUSH1 0x0 SLOAD PUSH1 0x1 PUSH1 0x1 PUSH1 0xA0 SHL SUB AND DUP2 JUMP INVALID LOG2 PUSH6 0x627A7A723158 KECCAK256 PUSH3 0x5B9A14 PUSH12 0x82B9D4BE7241E2F4E2A15428 PUSH5 0x229711D186 PUSH8 0xAD90A466D6CEA875 PUSH5 0x736F6C6343 STOP SDIV LT STOP ORIGIN "
		},
		"gasEstimates": {
			"creation": {
				"codeDepositCost": "29400",
				"executionCost": "81",
				"totalCost": "29481"
			},
			"external": {
				"underlying()": "1015"
			}
		},
		"methodIdentifiers": {
			"underlying()": "6f307dc3"
		}
	},
	"abi": [
		{
			"constant": true,
			"inputs": [],
			"name": "underlying",
			"outputs": [
				{
					"internalType": "address",
					"name": "",
					"type": "address"
				}
			],
			"payable": false,
			"stateMutability": "view",
			"type": "function"
		}
	]
}