{
	"data": {
		"bytecode": {
			"linkReferences": {},
			"object": "608060405234801561001057600080fd5b506103ab806100206000396000f3fe608060405234801561001057600080fd5b50600436106100ea5760003560e01c80636c540baf1161008c57806395d89b411161006657806395d89b41146101f8578063aa5af0fd14610200578063f3fdb15a14610208578063f851a44014610210576100ea565b80636c540baf146101e0578063875be756146101e85780638f840ddd146101f0576100ea565b806326782247116100c8578063267822471461018e578063313ce567146101b257806347bd3718146101d05780636752e702146101d8576100ea565b806306fdde03146100ef578063173b99041461016c57806318160ddd14610186575b600080fd5b6100f7610218565b6040805160208082528351818301528351919283929083019185019080838360005b83811015610131578181015183820152602001610119565b50505050905090810190601f16801561015e5780820380516001836020036101000a031916815260200191505b509250505060405180910390f35b6101746102a5565b60408051918252519081900360200190f35b6101746102ab565b6101966102b1565b604080516001600160a01b039092168252519081900360200190f35b6101ba6102c0565b6040805160ff9092168252519081900360200190f35b6101746102c9565b6101746102cf565b6101746102da565b6101966102e0565b6101746102ef565b6100f76102f5565b61017461034d565b610196610353565b610196610362565b60018054604080516020600284861615610100026000190190941693909304601f8101849004840282018401909252818152929183018282801561029d5780601f106102725761010080835404028352916020019161029d565b820191906000526020600020905b81548152906001019060200180831161028057829003601f168201915b505050505081565b60085481565b600d5481565b6004546001600160a01b031681565b60035460ff1681565b600b5481565b666379da05b6000081565b60095481565b6005546001600160a01b031681565b600c5481565b6002805460408051602060018416156101000260001901909316849004601f8101849004840282018401909252818152929183018282801561029d5780601f106102725761010080835404028352916020019161029d565b600a5481565b6006546001600160a01b031681565b60035461010090046001600160a01b03168156fea265627a7a72315820fa99eb30074263d0c87ac0b7c517e40b29f7a86a24886b7b52652f278bfb319b64736f6c63430005100032",
			"opcodes": "PUSH1 0x80 PUSH1 0x40 MSTORE CALLVALUE DUP1 ISZERO PUSH2 0x10 JUMPI PUSH1 0x0 DUP1 REVERT JUMPDEST POP PUSH2 0x3AB DUP1 PUSH2 0x20 PUSH1 0x0 CODECOPY PUSH1 0x0 RETURN INVALID PUSH1 0x80 PUSH1 0x40 MSTORE CALLVALUE DUP1 ISZERO PUSH2 0x10 JUMPI PUSH1 0x0 DUP1 REVERT JUMPDEST POP PUSH1 0x4 CALLDATASIZE LT PUSH2 0xEA JUMPI PUSH1 0x0 CALLDATALOAD PUSH1 0xE0 SHR DUP1 PUSH4 0x6C540BAF GT PUSH2 0x8C JUMPI DUP1 PUSH4 0x95D89B41 GT PUSH2 0x66 JUMPI DUP1 PUSH4 0x95D89B41 EQ PUSH2 0x1F8 JUMPI DUP1 PUSH4 0xAA5AF0FD EQ PUSH2 0x200 JUMPI DUP1 PUSH4 0xF3FDB15A EQ PUSH2 0x208 JUMPI DUP1 PUSH4 0xF851A440 EQ PUSH2 0x210 JUMPI PUSH2 0xEA JUMP JUMPDEST DUP1 PUSH4 0x6C540BAF EQ PUSH2 0x1E0 JUMPI DUP1 PUSH4 0x875BE756 EQ PUSH2 0x1E8 JUMPI DUP1 PUSH4 0x8F840DDD EQ PUSH2 0x1F0 JUMPI PUSH2 0xEA JUMP JUMPDEST DUP1 PUSH4 0x26782247 GT PUSH2 0xC8 JUMPI DUP1 PUSH4 0x26782247 EQ PUSH2 0x18E JUMPI DUP1 PUSH4 0x313CE567 EQ PUSH2 0x1B2 JUMPI DUP1 PUSH4 0x47BD3718 EQ PUSH2 0x1D0 JUMPI DUP1 PUSH4 0x6752E702 EQ PUSH2 0x1D8 JUMPI PUSH2 0xEA JUMP JUMPDEST DUP1 PUSH4 0x6FDDE03 EQ PUSH2 0xEF JUMPI DUP1 PUSH4 0x173B9904 EQ PUSH2 0x16C JUMPI DUP1 PUSH4 0x18160DDD EQ PUSH2 0x186 JUMPI JUMPDEST PUSH1 0x0 DUP1 REVERT JUMPDEST PUSH2 0xF7 PUSH2 0x218 JUMP JUMPDEST PUSH1 0x40 DUP1 MLOAD PUSH1 0x20 DUP1 DUP3 MSTORE DUP4 MLOAD DUP2 DUP4 ADD MSTORE DUP4 MLOAD SWAP2 SWAP3 DUP4 SWAP3 SWAP1 DUP4 ADD SWAP2 DUP6 ADD SWAP1 DUP1 DUP4 DUP4 PUSH1 0x0 JUMPDEST DUP4 DUP2 LT ISZERO PUSH2 0x131 JUMPI DUP2 DUP2 ADD MLOAD DUP4 DUP3 ADD MSTORE PUSH1 0x20 ADD PUSH2 0x119 JUMP JUMPDEST POP POP POP POP SWAP1 POP SWAP1 DUP2 ADD SWAP1 PUSH1 0x1F AND DUP1 ISZERO PUSH2 0x15E JUMPI DUP1 DUP3 SUB DUP1 MLOAD PUSH1 0x1 DUP4 PUSH1 0x20 SUB PUSH2 0x100 EXP SUB NOT AND DUP2 MSTORE PUSH1 0x20 ADD SWAP2 POP JUMPDEST POP SWAP3 POP POP POP PUSH1 0x40 MLOAD DUP1 SWAP2 SUB SWAP1 RETURN JUMPDEST PUSH2 0x174 PUSH2 0x2A5 JUMP JUMPDEST PUSH1 0x40 DUP1 MLOAD SWAP2 DUP3 MSTORE MLOAD SWAP1 DUP2 SWAP1 SUB PUSH1 0x20 ADD SWAP1 RETURN JUMPDEST PUSH2 0x174 PUSH2 0x2AB JUMP JUMPDEST PUSH2 0x196 PUSH2 0x2B1 JUMP JUMPDEST PUSH1 0x40 DUP1 MLOAD PUSH1 0x1 PUSH1 0x1 PUSH1 0xA0 SHL SUB SWAP1 SWAP3 AND DUP3 MSTORE MLOAD SWAP1 DUP2 SWAP1 SUB PUSH1 0x20 ADD SWAP1 RETURN JUMPDEST PUSH2 0x1BA PUSH2 0x2C0 JUMP JUMPDEST PUSH1 0x40 DUP1 MLOAD PUSH1 0xFF SWAP1 SWAP3 AND DUP3 MSTORE MLOAD SWAP1 DUP2 SWAP1 SUB PUSH1 0x20 ADD SWAP1 RETURN JUMPDEST PUSH2 0x174 PUSH2 0x2C9 JUMP JUMPDEST PUSH2 0x174 PUSH2 0x2CF JUMP JUMPDEST PUSH2 0x174 PUSH2 0x2DA JUMP JUMPDEST PUSH2 0x196 PUSH2 0x2E0 JUMP JUMPDEST PUSH2 0x174 PUSH2 0x2EF JUMP JUMPDEST PUSH2 0xF7 PUSH2 0x2F5 JUMP JUMPDEST PUSH2 0x174 PUSH2 0x34D JUMP JUMPDEST PUSH2 0x196 PUSH2 0x353 JUMP JUMPDEST PUSH2 0x196 PUSH2 0x362 JUMP JUMPDEST PUSH1 0x1 DUP1 SLOAD PUSH1 0x40 DUP1 MLOAD PUSH1 0x20 PUSH1 0x2 DUP5 DUP7 AND ISZERO PUSH2 0x100 MUL PUSH1 0x0 NOT ADD SWAP1 SWAP5 AND SWAP4 SWAP1 SWAP4 DIV PUSH1 0x1F DUP2 ADD DUP5 SWAP1 DIV DUP5 MUL DUP3 ADD DUP5 ADD SWAP1 SWAP3 MSTORE DUP2 DUP2 MSTORE SWAP3 SWAP2 DUP4 ADD DUP3 DUP3 DUP1 ISZERO PUSH2 0x29D JUMPI DUP1 PUSH1 0x1F LT PUSH2 0x272 JUMPI PUSH2 0x100 DUP1 DUP4 SLOAD DIV MUL DUP4 MSTORE SWAP2 PUSH1 0x20 ADD SWAP2 PUSH2 0x29D JUMP JUMPDEST DUP3 ADD SWAP2 SWAP1 PUSH1 0x0 MSTORE PUSH1 0x20 PUSH1 0x0 KECCAK256 SWAP1 JUMPDEST DUP2 SLOAD DUP2 MSTORE SWAP1 PUSH1 0x1 ADD SWAP1 PUSH1 0x20 ADD DUP1 DUP4 GT PUSH2 0x280 JUMPI DUP3 SWAP1 SUB PUSH1 0x1F AND DUP3 ADD SWAP2 JUMPDEST POP POP POP POP POP DUP2 JUMP JUMPDEST PUSH1 0x8 SLOAD DUP2 JUMP JUMPDEST PUSH1 0xD SLOAD DUP2 JUMP JUMPDEST PUSH1 0x4 SLOAD PUSH1 0x1 PUSH1 0x1 PUSH1 0xA0 SHL SUB AND DUP2 JUMP JUMPDEST PUSH1 0x3 SLOAD PUSH1 0xFF AND DUP2 JUMP JUMPDEST PUSH1 0xB SLOAD DUP2 JUMP JUMPDEST PUSH7 0x6379DA05B60000 DUP2 JUMP JUMPDEST PUSH1 0x9 SLOAD DUP2 JUMP JUMPDEST PUSH1 0x5 SLOAD PUSH1 0x1 PUSH1 0x1 PUSH1 0xA0 SHL SUB AND DUP2 JUMP JUMPDEST PUSH1 0xC SLOAD DUP2 JUMP JUMPDEST PUSH1 0x2 DUP1 SLOAD PUSH1 0x40 DUP1 MLOAD PUSH1 0x20 PUSH1 0x1 DUP5 AND ISZERO PUSH2 0x100 MUL PUSH1 0x0 NOT ADD SWAP1 SWAP4 AND DUP5 SWAP1 DIV PUSH1 0x1F DUP2 ADD DUP5 SWAP1 DIV DUP5 MUL DUP3 ADD DUP5 ADD SWAP1 SWAP3 MSTORE DUP2 DUP2 MSTORE SWAP3 SWAP2 DUP4 ADD DUP3 DUP3 DUP1 ISZERO PUSH2 0x29D JUMPI DUP1 PUSH1 0x1F LT PUSH2 0x272 JUMPI PUSH2 0x100 DUP1 DUP4 SLOAD DIV MUL DUP4 MSTORE SWAP2 PUSH1 0x20 ADD SWAP2 PUSH2 0x29D JUMP JUMPDEST PUSH1 0xA SLOAD DUP2 JUMP JUMPDEST PUSH1 0x6 SLOAD PUSH1 0x1 PUSH1 0x1 PUSH1 0xA0 SHL SUB AND DUP2 JUMP JUMPDEST PUSH1 0x3 SLOAD PUSH2 0x100 SWAP1 DIV PUSH1 0x1 PUSH1 0x1 PUSH1 0xA0 SHL SUB AND DUP2 JUMP INVALID LOG2 PUSH6 0x627A7A723158 KECCAK256 STATICCALL SWAP10 0xEB ADDRESS SMOD TIMESTAMP PUSH4 0xD0C87AC0 0xB7 0xC5 OR 0xE4 SIGNEXTEND 0x29 0xF7 0xA8 PUSH11 0x24886B7B52652F278BFB31 SWAP12 PUSH5 0x736F6C6343 STOP SDIV LT STOP ORIGIN "
		},
		"gasEstimates": {
			"creation": {
				"codeDepositCost": "187800",
				"executionCost": "232",
				"totalCost": "188032"
			},
			"external": {
				"accrualBlockNumber()": "1021",
				"admin()": "1136",
				"borrowIndex()": "1042",
				"decimals()": "1058",
				"interestRateModel()": "1103",
				"name()": "infinite",
				"pendingAdmin()": "1060",
				"protocolSeizeShareMantissa()": "287",
				"reserveFactorMantissa()": "1044",
				"symbol()": "infinite",
				"tentroller()": "1082",
				"totalBorrows()": "1065",
				"totalReserves()": "1065",
				"totalSupply()": "1066"
			}
		},
		"methodIdentifiers": {
			"accrualBlockNumber()": "6c540baf",
			"admin()": "f851a440",
			"borrowIndex()": "aa5af0fd",
			"decimals()": "313ce567",
			"interestRateModel()": "f3fdb15a",
			"name()": "06fdde03",
			"pendingAdmin()": "26782247",
			"protocolSeizeShareMantissa()": "6752e702",
			"reserveFactorMantissa()": "173b9904",
			"symbol()": "95d89b41",
			"tentroller()": "875be756",
			"totalBorrows()": "47bd3718",
			"totalReserves()": "8f840ddd",
			"totalSupply()": "18160ddd"
		}
	},
	"abi": [
		{
			"constant": true,
			"inputs": [],
			"name": "accrualBlockNumber",
			"outputs": [
				{
					"internalType": "uint256",
					"name": "",
					"type": "uint256"
				}
			],
			"payable": false,
			"stateMutability": "view",
			"type": "function"
		},
		{
			"constant": true,
			"inputs": [],
			"name": "admin",
			"outputs": [
				{
					"internalType": "address payable",
					"name": "",
					"type": "address"
				}
			],
			"payable": false,
			"stateMutability": "view",
			"type": "function"
		},
		{
			"constant": true,
			"inputs": [],
			"name": "borrowIndex",
			"outputs": [
				{
					"internalType": "uint256",
					"name": "",
					"type": "uint256"
				}
			],
			"payable": false,
			"stateMutability": "view",
			"type": "function"
		},
		{
			"constant": true,
			"inputs": [],
			"name": "decimals",
			"outputs": [
				{
					"internalType": "uint8",
					"name": "",
					"type": "uint8"
				}
			],
			"payable": false,
			"stateMutability": "view",
			"type": "function"
		},
		{
			"constant": true,
			"inputs": [],
			"name": "interestRateModel",
			"outputs": [
				{
					"internalType": "contract InterestRateModel",
					"name": "",
					"type": "address"
				}
			],
			"payable": false,
			"stateMutability": "view",
			"type": "function"
		},
		{
			"constant": true,
			"inputs": [],
			"name": "name",
			"outputs": [
				{
					"internalType": "string",
					"name": "",
					"type": "string"
				}
			],
			"payable": false,
			"stateMutability": "view",
			"type": "function"
		},
		{
			"constant": true,
			"inputs": [],
			"name": "pendingAdmin",
			"outputs": [
				{
					"internalType": "address payable",
					"name": "",
					"type": "address"
				}
			],
			"payable": false,
			"stateMutability": "view",
			"type": "function"
		},
		{
			"constant": true,
			"inputs": [],
			"name": "protocolSeizeShareMantissa",
			"outputs": [
				{
					"internalType": "uint256",
					"name": "",
					"type": "uint256"
				}
			],
			"payable": false,
			"stateMutability": "view",
			"type": "function"
		},
		{
			"constant": true,
			"inputs": [],
			"name": "reserveFactorMantissa",
			"outputs": [
				{
					"internalType": "uint256",
					"name": "",
					"type": "uint256"
				}
			],
			"payable": false,
			"stateMutability": "view",
			"type": "function"
		},
		{
			"constant": true,
			"inputs": [],
			"name": "symbol",
			"outputs": [
				{
					"internalType": "string",
					"name": "",
					"type": "string"
				}
			],
			"payable": false,
			"stateMutability": "view",
			"type": "function"
		},
		{
			"constant": true,
			"inputs": [],
			"name": "tentroller",
			"outputs": [
				{
					"internalType": "contract TENTrollerInterface",
					"name": "",
					"type": "address"
				}
			],
			"payable": false,
			"stateMutability": "view",
			"type": "function"
		},
		{
			"constant": true,
			"inputs": [],
			"name": "totalBorrows",
			"outputs": [
				{
					"internalType": "uint256",
					"name": "",
					"type": "uint256"
				}
			],
			"payable": false,
			"stateMutability": "view",
			"type": "function"
		},
		{
			"constant": true,
			"inputs": [],
			"name": "totalReserves",
			"outputs": [
				{
					"internalType": "uint256",
					"name": "",
					"type": "uint256"
				}
			],
			"payable": false,
			"stateMutability": "view",
			"type": "function"
		},
		{
			"constant": true,
			"inputs": [],
			"name": "totalSupply",
			"outputs": [
				{
					"internalType": "uint256",
					"name": "",
					"type": "uint256"
				}
			],
			"payable": false,
			"stateMutability": "view",
			"type": "function"
		}
	]
}